:10000000B2C0CCC0CBC0CAC0C9C0C8C0C7C0C6C0BF
:10001000C5C0AEC2C3C0C2C0C1C0C0C0BFC06CC337
:10002000BDC0BCC0BBC0B3C222C143C14EC176C1BA
:1000300075C174C14FC172C14FC154C157C166C1AE
:100040005FC14DC16BC15FC124C2DBC1F7C10AC230
:1000500084C283C282C221C222C223C218C21BC26E
:10006000DBC123C212C2FFFF000306090C0F1215E9
:10007000181B1E212427FFFF0205080B0E11141761
:100080001A1D20232629FFFF0104070A0D1013164D
:10009000191C1F2225282A2D30FFFF3336393C3FFB
:1000A0004245484B4E512C2F32FFFF35383B3E41E5
:1000B00044474A4D50532B2E31FFFF34373A3D40D1
:1000C0004346494C4F5254575A5D6063FFFF66697F
:1000D0006C6F7275787B56595C5F6265FFFF686B69
:1000E0006E7174777A7D55585B5E6164FFFF676A55
:1000F0006D707376797C7E8184878A8D909396FF6C
:10010000FF999C9FA2A5808386898C8F929598FFEA
:10011000FF9B9EA1A4A77F8285888B8E919497FFD9
:10012000FF9A9DA0A3A6A8ABAEB1B4B7BABDC0C399
:10013000C6C9FFFFCCCFAAADB0B3B6B9BCBFC2C56C
:10014000C8CBFFFFCED1A9ACAFB2B5B8BBBEC1C45E
:10015000C7CAFFFFCDD0FFFFFFFFFFFFFFFFFFFF7D
:10016000FFFFFFFFFFFF11241FBECFEFD2E0DEBF76
:10017000CDBF11E0A0E0B1E0E2E0FBE002C00590FD
:100180000D92A035B107D9F722E0A0E5B1E001C09A
:100190001D92AA3AB207E1F723D3B1C431CF862723
:1001A000082E8295807F8025092E982F82958F704A
:1001B0000826869598278927880F880F880F80251D
:1001C00008958EBD0DB407FEFDCF0895CF93C82FBF
:1001D0002A988BEAF6DF8C2FF4DF80E0F2DF2A9A90
:1001E0008EB5CF910895CF93DF93D62FC42F2A9841
:1001F000805EE7DF8D2FE5DF8C2FE3DF2A9ADF912A
:10020000CF910895CF93C82F8CB58F778CBD40E0E8
:100210006AE08BE0E8DF4C2F4F7340686FE08BE0C3
:10022000E2DF8FE0D3DF8F738093770241E06AE0F3
:100230008BE0D9DF8CB580688CBDCF910895EF92AB
:10024000FF920F931F93CF93DF93EC01FB0180810B
:10025000882309F47DC0E0917F028E2F90E08031E9
:10026000910508F05BC0FC01EC5EFF4F09948091A2
:100270007E02811107C0188219821A821B821C8299
:100280001D8213C081E088838091790289838091E7
:100290007A028A8380917B028B8380917C028C839B
:1002A00080917D028D8310927E0286E0FB01808327
:1002B00007C085E0888381E0FB01808310927F0284
:1002C0008B017E018FEF9FEF2CC080918800909171
:1002D0008900F0CF84E0EECF80917802EBCF80915F
:1002E0007702E8CF80E2E7E5F2E003C080E2E7E3EF
:1002F000F2E0DE0101900D928A95E1F780E2DCCF19
:1003000080913602D7CF80913502D4CF90913302BD
:10031000809134029883898382E0CECF81E0888304
:10032000C5CFF80120813E2D3C1B321728F4F70180
:1003300061917F0134DFF5CFFE01E20FF11D908363
:10034000F8019081C90FD11D898380818E5F8083E0
:10035000DF91CF911F910F91FF90EF900895AF9291
:10036000BF92CF92DF92EF92FF920F931F93CF93A2
:10037000DF93EC018881982F907F903861F48F7023
:1003800090E068E170E0AAD3DC01A55ABE4FFE01FF
:10039000319698E175C0623008F4DFC0162FC62E82
:1003A000D12CCE018C0D9D1DFC013297E080F12CEB
:1003B000FE2CEE2431968081E80EF11C5E018FEF59
:1003C0009FEF22E0C21AD1082A2D2C1B30E02C15F9
:1003D0003D052CF4F50161915F01E1DEF5CF8E154D
:1003E0009F0509F0BAC06EEF610FE8818E2F90E093
:1003F000FC013197EF30F10508F0AFC0EC5DFF4F25
:100400000994623039F4898190E090938900809357
:100410008800A3C082E046C08DE080937F026230F6
:1004200009F09BC08981DF91CF911F910F91FF90BF
:10043000EF90DF90CF90BF90AF90E4CE643009F0A2
:100440008CC021968BE591E043E352E023E0FE016E
:10045000DC0101900D922A95E1F7039648175907A0
:10046000A9F77BC0653009F078C0898190E063E02E
:1004700070E034D3DC01A55ABE4FFE01329693E002
:1004800001900D929A95E1F768C08FE00BC08BE068
:1004900009C081E007C08CE005C088E003C089E0A6
:1004A00001C08AE080937F0258C0623009F055C0D5
:1004B000C9818CB58F778CBD40E061E18BE093DE24
:1004C00040E84C0F60E18BE08EDE81E17FDE80381A
:1004D00039F08FEC97E00197F1F700C00000F5CFFD
:1004E0002A988CEA6EDE80E06CDE07E512E080E0A0
:1004F00068DE8EB5F80181938F01F2E007371F07A0
:10050000B1F72A9A40E061E18BE06DDE40E44C0FE8
:1005100060E18BE068DE81E159DE803439F08FECF8
:1005200097E00197F1F700C00000F5CF2A988CEA18
:1005300048DE80E246DEC7E3D2E080E042DE8EB5F0
:10054000899392E0C735D907C1F72A9A40E061E163
:100550008BE049DE8CB580688CBDDF91CF911F9117
:100560000F91FF90EF90DF90CF90BF90AF900895E4
:100570001F920F920FB60F9211248F9381E08093F8
:100580000F018F910F900FBE0F901F9018951F9223
:100590000F920FB60F9211242F933F934F935F93B7
:1005A0006F937F938F939F93AF93BF93EF93FF933B
:1005B0008091B900883909F483C0C0F4883709F400
:1005C0005CC050F4883609F458C0803709F455C02F
:1005D000803609F079C051C0883809F471C080397B
:1005E00009F44EC0803809F06FC04AC0883B91F1D1
:1005F00058F4883A99F0803B89F0803A09F064C059
:1006000085ED8093BC004BC0883C09F457C0883FFF
:1006100009F461C0803C09F057C050C01092A90293
:10062000E091A702F091A802309749F084E280930C
:10063000A60266EA72E082E892E0099502C0109292
:10064000A6028091A602811105C081E08093A602D6
:1006500010928202E091A90281E08E0F8093A9029C
:10066000F0E0EE57FD4F80818093BB009091A9028E
:100670008091A602981720F521C01092A9021EC0F1
:10068000E091A902E432E0F481E08E0F8093A902A8
:100690008091BB00F0E0EE57FD4F80830FC080914A
:1006A000BC0084FDFCCFE0918002F0918102309784
:1006B00029F06091A90282E892E0099585EC01C0D9
:1006C00085E88093BC0007C085ED8093BC008091D5
:1006D000BC0084FDFCCFFF91EF91BF91AF919F9142
:1006E0008F917F916F915F914F913F912F910F90DB
:1006F0000FBE0F901F9018951F920F920FB60F927A
:1007000011248F939F93EF93FF93809159019091C0
:100710005A018130910599F048F082309105C1F07D
:10072000039709F050C01EBC2A9A4DC02A980000B9
:1007300080915801805E8EBD81E090E004C080E22F
:100740008EBD82E090E090935A01809359013FC0A2
:10075000E091580180915701F0E0F695FE2FEE27C9
:10076000F795E795E80FF11DEA59FF4FE491E09303
:100770005601809156018F3F11F41EBC07C0E091D5
:100780005601F0E0E55AFE4F80818EBD8091570101
:100790008F5F80935701809157018038C1F483E0C7
:1007A00090E090935A0180935901109257018091E3
:1007B00058018F5F8093580180915801823039F43D
:1007C0001092580104C010925A0110925901FF91E1
:1007D000EF919F918F910F900FBE0F901F901895E2
:1007E0008CE684B92E9A2A9A2A9A8FEC97E0019780
:1007F000F1F700C0000081E58CBD9DB581E089273F
:100800008DBD40E06AE08BE0EEDC8BE1DFDC8093C5
:10081000780287E1DBDC8093350240E060E08BE02A
:10082000E2DC40E161E08BE0DEDC44EE6DE08BE099
:10083000DADC41E06EE08BE0D6DC47E064E18BE09F
:10084000D2DC40E465E18BE0CEDC2A988DE2B9DCB5
:1008500080E0B7DCC0E1D1E000E511E08991B1DCD6
:100860000C171D07D9F72A9A8FE3CCDCC0E240E0D1
:100870006C2F80E0B8DCCF5FC03AC9F7C0E240E03F
:100880006C2F81E0B0DCCF5FC03AC9F7C0E04FEF1A
:100890006C2F80E0A8DCCF5FC031C9F7C0E04FEF1C
:1008A0006C2F81E0A0DCCF5FC031C9F741E06AE086
:1008B0008BE099DC8CB580688CBD789487B18F68AB
:1008C00087B988B18F6888B91AB89FEF9BB98091B2
:1008D00081008C60809381001092850010928400CA
:1008E0002FE030E0309389002093880080916F00E2
:1008F000826080936F007894219A29982198000053
:1009000083B186958170809336022CE088E10FB622
:10091000F894A895809360000FBE209360002FEAA2
:1009200031E030938102209380022FE131E0309357
:10093000A8022093A7022098289883B18170886527
:10094000880F8093BA009093BB008091B9008E7F8E
:100950008093B9008091B9008D7F8093B90085ECB8
:100960008093BC00789441E050E0B7E4A6E8C1E091
:1009700080910F01882309F4A3C0E0E0F1E060E07A
:1009800070E000E0D0E0D43011F447980BC098B18B
:100990009A01062E01C0220F0A94EAF7822F809551
:1009A000892388B9000029B1D43011F4479A09C0CD
:1009B00038B1CA01062E01C0880F0A94EAF7832BCA
:1009C00088B912812127908181818927382F32238C
:1009D00031839095892F82238083832B8095822376
:1009E00018271283080FDF5F6F5F7F4F3396D53074
:1009F00051F6011103C010920F011DC0F8948091AF
:100A00000201809580937902809105018095809301
:100A10007A0280910801809580937B0280910B017E
:100A2000809580937C0280910E01809580937D0259
:100A3000C0937E02789480915201909153019093DB
:100A400055018093540180915001909151019093F0
:100A5000530180935201809164008E7F80936400E3
:100A6000B0937C00A0937A0080917A008064809398
:100A70007A0080917A0086FDFCCF809178002091E9
:100A8000790030E0322F2227280F311D3093510199
:100A90002093500180915401909155016091520131
:100AA000709153016217730780F08217930750F01B
:100AB0006817790708F4CB019093340280933302CE
:100AC000A89556CF2617370718F08617970708F40A
:100AD000CB012817390780F7C901EECF002455272D
:100AE00004C0080E591F880F991F009729F07695AA
:100AF0006795B8F37105B9F7802D952F0895F8948F
:020B0000FFCF25
:100B02000000FF0000FF0000FF0000FF0000FF01E7
:100B12005055555500000000000000001554555571
:100B220000000000000000005505555500000000BF
:100B32000000000055554155000000000000000073
:100B42005555555000000000000000000000000054
:00000001FF
