:1020000000800020855000006D5000006D500000E1
:1020100000000000000000000000000000000000C0
:102020000000000000000000000000006D500000F3
:1020300000000000000000006D500000D9500000BA
:102040006D5000006D5000006D5000006D5000009C
:102050006D5000006D5000006D5000007150000088
:102060006D500000B94F00006D5000006D50000031
:10207000914F00006D500000C94F00006D500000EE
:102080006D5000006D5000006D5000006D5000005C
:10209000000000006D5000006D5000006D50000009
:1020A0006D5000006D5000006D5000006D5000003C
:1020B0000000000010B5064C2378002B07D1054B1B
:1020C000002B02D0044800E000BF0123237010BDA4
:1020D0001002002000000000808C000008B5084BB2
:1020E000002B03D00748084900E000BF07480368F9
:1020F000002B03D0064B002B00D0984708BDC046EC
:1021000000000000808C0000140200200802002063
:102110000000000008B5012802D902F0E1FB01E04F
:1021200002F004FC08BD08B503681B68984708BDA9
:1021300010B50C1C002802D001280ED01FE003238C
:102140001C40022C1BD10F4C0F49201C01F09AFBA4
:10215000201C0E4901F096FB11E003230B40022BDB
:1021600007D102F0C7FF242105F0B2FA084B043171
:102170001970A30703D5064B188800F00FFE002046
:1021800010BDC04654080020387B00005C7B000076
:10219000440200209621F8B58901374804F0B4F9CB
:1021A000364800F0CFF83648FFF7BDFF3548FFF757
:1021B000BAFF3548FFF7B7FF344E301CFFF7B3FFC7
:1021C000334D281CFFF7AFFF3248FFF7ACFF324812
:1021D000FFF7A9FF314C201CFFF7A5FF3048FFF7A0
:1021E000A2FF3048FFF79FFF2F48FFF79CFF2F48C3
:1021F000FFF799FF2E48FFF796FF2E48FFF793FF52
:102200002D48FFF790FF2D48FFF78DFF032002F0C8
:1022100059FB02F0C5F92A4801F0A2FF294801F054
:102220009FFF294801F09CFF284801F099FF2848AA
:1022300001F096FF274801F093FF274801F090FF37
:10224000264B274A301CFF211A6001F083FE281C10
:10225000FF2101F081FE234D01262B68271C224C13
:10226000334203D1201C01F063FF2E601F4B381C4A
:102270001C6001F0CFFBF8BD941100205803002032
:10228000D0080020C4080020C8080020E008002072
:10229000F0080020D8080020480200203402002066
:1022A0002C02002050020020D408002058090020F1
:1022B00054080020B00D0020B80D00206009002057
:1022C000400000201C000020040000202800002006
:1022D0004C00002034000020100000205800002096
:1022E000152100003C02002040020020500900207F
:1022F00008B5024800F04AF808BDC046580300205F
:10230000002208B5FF21131C0A4801F063FD0021DB
:102310000B1CFF22084801F05DFD00210A1CFF2371
:10232000064801F057FDFF2105480A1C0B1C01F06F
:1023300051FD08BD48020020340200202C0200207C
:102340005002002038B5104800F08AFA00F004FD71
:1023500000F0A8FD00F0B8FDFF2100200A1C0023BA
:1023600000F082F800F054F900250024211C01340B
:10237000281CE4B200F00CF9102CF7D10135EDB2B5
:10238000052DF2D138BDC0464807002070B50E4873
:1023900000F0C3FB00250D4EAB009C59002C04D06F
:1023A00000200135A047EDB2F5E700F063FD00F035
:1023B0002DFDA300F358002B04D0012001349847D1
:1023C000E4B2F6E770BDC04648070020580200207E
:1023D00030B50023054A9C00A558854201D1A15083
:1023E00002E00133402BF5D130BDC0465C03002034
:1023F00008B5011C0020FFF7EBFF08BD08B500235E
:10240000054A9A58824206D08022043352009342F1
:10241000F6D1FFF7EDFF08BD5C03002030B50023C7
:10242000054A9C00A558854201D1A15002E0013324
:10243000402BF5D130BDC0465802002008B5011C24
:102440000020FFF7EBFF08BD08B50023054A9A58A6
:10245000824206D08022043352009342F6D1FFF725
:10246000EDFF08BD58020020F0B580B285B00E1C0B
:10247000151C1C1C0290042920D80F2A1ED80327E3
:102480001F40022F03D1081C111C00F081F83748AF
:10249000311C2A1C00F062FB002806D0012F62D1FB
:1024A0003248311C2A1C00F041FB029F002F05D14D
:1024B00033015B192E4A5B00D35A02930027019720
:1024C000019F2C4BBA00D258029F0392381C311C3A
:1024D000002A0BD02A1C231C039FB84780B202900D
:1024E000002840D0019F0137FFB2E8E72A1C231CD7
:1024F00000F022F9039D82B2FF21954233D00504FA
:102500002D0EEBB25E061ED56DB2002D2BDB1F0724
:1025100007D5A20727D51B020840184300F0CAFCC4
:1025200021E0012213421ED0A5071CD414421AD068
:1025300008401B02041C1C43201C00F0CDFC201C86
:1025400000F0D2FC0FE0A60703D5101C00F026FC1B
:1025500009E003232340012B05D164B2002C02DAE9
:10256000101C00F065FC05B0F0BDC0464807002017
:10257000B60400205C0300200523584341180901DC
:102580005118024B4900585A7047C046F87900006C
:1025900038B50A1C031C0101054889184C00085C69
:1025A00004490D68191CA847034BE05238BDC046CA
:1025B0006504002058000020B604002010B50B4B25
:1025C0000B4A1B780B49013B12780968DBB2934236
:1025D00009D9081CD840C40702D5074A137004E083
:1025E000013BDBB2F3E7044B1A7010BD5C00002026
:1025F00064040020600400205C040020034B1B687E
:10260000C340181C012318407047C04660040020D6
:10261000F7B51A4B1A4C1978201C502205F030F9E6
:102620000025EBB2164A00932B01D3180193002426
:10263000144BE7B21E78114A73B21278934215DD3B
:10264000F6B2301CFFF7DAFF00280CD00E4B301C1E
:102650001B6800993A1C98470C4B80B2984202D0F4
:10266000019A165502E0013EF6B2E4E70134102C5F
:10267000DED10135052DD4D1F7BDC046640400205C
:10268000650400205C04002058000020FFFF0000CB
:10269000094B10B51A680121141CC4400C420AD021
:1026A00081408A431A60054B1B78834201D1FFF7B2
:1026B00085FFFFF7ADFF10BD600400205C04002023
:1026C00010B50C4B041C1B78834211D9FFF796FF01
:1026D00000280DD1084B01221968A2400A431A6054
:1026E000064B1B78A34201D2FFF768FFFFF790FF6C
:1026F00010BDC0465C000020600400205C04002087
:1027000008B5034B00221A60FFF7DAFF08BDC04688
:102710006004002008B5034B18780130C0B2FFF701
:10272000CFFF08BD5C04002008B5024B1878FFF706
:10273000AFFF08BD5C04002010B5C4B20004000E59
:10274000442802D0000220433BE0292C25D92A3C12
:10275000E4B2212C0DD0222C12D103221340022BE3
:1027600002D1FFF7D7FF26E0012B24D1FFF7DCFFD2
:1027700021E003221340022BF8D0012B1BD1F0E7FC
:102780009A0705D5201CFFF739FF002813D114E064
:1027900003221340012B0ED10AE003221340022B27
:1027A00009D1201CFFF72AFF002806D0002C04D0F6
:1027B000201CFFF76DFF002003E0201CFFF780FFC7
:1027C000F9E710BD10B5041CFFF79AFF014B1C7010
:1027D00010BDC0466404002008B50020FFF7F2FFDA
:1027E00008BD0000F7B5114DCBB201918024E95C22
:1027F00064009600611A0E4A0902B058013902F0CD
:1028000071FE0C4B01AFF0587B78E95C611A09024C
:10281000013902F067FE084BF058BB78E95C611A99
:102820000902013902F05EFEF7BDC0465A7C000085
:1028300078000020600000206C00002008B5002017
:10284000012102F03DFF0120011C02F039FF0020B0
:10285000012102F08FFF0120011C02F08BFF08BD57
:1028600037B50121041C002002F02AFF0120011CC1
:1028700002F026FF0020011C02F07CFF0120002155
:1028800002F078FF102002F08FFD002500236A4639
:10289000137053709370201C2A1C00990135FFF7A8
:1028A000A1FF032DF2D10F2002F0B2FD63280FD853
:1028B000002501AB64221A7000225A709A70201C05
:1028C0002A1C01990135FFF78DFF032DF1D1EAE7AD
:1028D000FA20800002F014FC201CFFF7AFFF00225A
:1028E000002322606360A260E36000F077F937BDE7
:1028F00013B501AC472903D8032251430D4B05E022
:102900008F2908D84839032251430B4B5918201CF2
:1029100004F0ADFF05E000236A4653716A46237058
:10292000937162782078A37812021B041043184335
:1029300016BDC0465806002058050020F0B5161CEC
:10294000360A150C85B00C1CD7B2F6B2EDB2472989
:102950000AD8FFF7CDFF03AB020A5A70020C9A7037
:1029600003225443124A0CE08F291ED8FFF7C0FF00
:1029700003AB020A5A70020C9A70483C032254437B
:102980000C4A14190C4927706670A570C0B20C78F7
:102990000122B84207D15878B04204D19A78551B29
:1029A0006A1E9541EAB222430A7005B0F0BDC046E6
:1029B00058060020580500205D00002013B5044C87
:1029C00009018A18115D1A1CFFF7B8FF13BDC04634
:1029D0000A7C0000F7B5114E071C3378002B1BD082
:1029E00009240F4D013C281C00F062F90D4800F04D
:1029F0005FF9002CF5D1EA7801AB1A702A79381CFE
:102A00005A706A799A700199221C0134FFF7EAFE24
:102A1000032CF0D100233370F7BDC0465D000020C9
:102A2000580600205805002073B5041C211C0822FC
:102A30001030251C04F01BFF0835201C1830291C01
:102A4000082204F014FF0F4E301C00F065F9002836
:102A500008D06846311C00F0DDF8201C69460822C9
:102A600004F005FF084C201C00F056F9002808D09F
:102A70006846211C00F0CEF8281C6946082204F0A4
:102A8000F6FE73BD5806002058050020F0B5051C61
:102A900085B00024E300DBB203930027039AF9B268
:102AA0008E18F6B20191321C2868696804F07CFE29
:102AB0000123184098400290321C2869696904F08B
:102AC00073FE0299012303400B430020211C019A4D
:102AD000FFF7CAFCA868E968321C04F065FE012211
:102AE000104090400290321CA869E96904F05CFE35
:102AF0000299012303400B4301990F22521AD2B2CB
:102B00000020211C0137FFF7AFFC082FC6D101348C
:102B1000E4B2052CBED105B0F0BD10B5041CFFF722
:102B200083FF201CFFF7B2FF10BD000010B5042981
:102B30000ED80F2A0CD80120072A02D9054B0F24E2
:102B400001E0054B0724A21A90405A5C82435A5474
:102B500010BDC04648060020500600200020042971
:102B60000ED80F2A0CD8072A03D9064B585C0F231E
:102B700002E0054B585C07239A1A104101231840C4
:102B80007047C046480600205006002070B50B4E26
:102B90000021301C00F031F8094D0A4C291C221C80
:102BA000301C04F00DFE084E0321301C00F025F807
:102BB000301C291C221C04F003FE70BD58060020A6
:102BC000F92B0000000000205805002008B502483D
:102BD00002F094F808BDC046C00D002010B5044CAA
:102BE000201C02F05DF8201C024902F079F810BDAB
:102BF000C00D0020801A06007047021CE832002336
:102C000013705370031CDC3358221960043B1143CA
:102C10001960704710B5E031041C082204F027FE4B
:102C2000201C10BDF8B50E4C031C0F1C161C191CE3
:102C300006AA201C157802F066F8201C391C321CEC
:102C400001F0D6FF031C0120002B08D06B1E9D4114
:102C5000E9B2201C02F0D0F843425841C0B2F8BD9E
:102C6000C00D002070B50B1C8AB0803B03AA137006
:102C70001823594300234118CD5C0C4ED418755DC0
:102C800001336570182BF7D10023D8300078111C60
:102C9000009319220123FFF7C5FF042803D1FFF792
:102CA00095FFFFF79BFF0AB070BDC0465A7D00003C
:102CB00010B5041CE93421784B1C2370FFF7D2FFB8
:102CC0002378092B01D10023237010BDF7B5114FD4
:102CD000051C141C5A1E93410E1CDBB2291C381C07
:102CE000221C02F029F8051E12D034190194341C5C
:102CF000A51B381CEDB201F09BFF002808D0019BFA
:102D00009C4205D0381C02F0B0F820700134EFE787
:102D1000281CFEBDC00D002013B5031CD833041CB5
:102D20006946187806220123FFF7D0FF684603782A
:102D30000020012B0ED168464178221CE032117030
:102D40008178E4345170C17891700179D170427901
:102D5000181C227016BD000008B5034800F0D8FA10
:102D6000024800F0E4F908BDC00700206807002011
:102D700038B5084DC4B2281C00F064F9002804D10D
:102D8000281C211C00F084F903E00348211C00F0FA
:102D900080FA38BD68070020C007002038B5051C40
:102DA0002C04240E230702D5E120FFF7E1FFE307FF
:102DB00002D5E020FFF7DCFFA30702D5E220FFF7F2
:102DC000D7FF630702D5E620FFF7D2FFE30602D55F
:102DD000E320FFF7CDFF281CFFF7CAFF38BD000036
:102DE00038B5084DC4B2281C00F02CF9002804D1D5
:102DF000281C211C00F06BF903E00348211C00F0A3
:102E000065FA38BD68070020C007002008B50548EE
:102E100000F086F9044800F075FA044800F0C0F9A3
:102E200008BDC04668070020C00700209C0700209E
:102E300038B5051C2C04240E230702D5E120FFF72A
:102E4000CFFFE30702D5E020FFF7CAFFA30702D5B3
:102E5000E220FFF7C5FF630702D5E620FFF7C0FFBA
:102E6000E30602D5E320FFF7BBFF281CFFF7B8FFFE
:102E700038BD000010B5084C201C00F0E3F8002815
:102E800003D1201C00F0E2F805E0044800F0E8F966
:102E9000034800F095F910BD68070020C007002026
:102EA0009C07002008B5024800F0A8F908BDC046FC
:102EB0009C07002008B58105890D024800F064F9DF
:102EC00008BDC0469C07002008B5024800F060FA23
:102ED00008BDC046FA07002008B5C1B2014800F09D
:102EE0005FFA08BDFA07002008B5024800F054FA5E
:102EF00008BDC046FA0700200379413301200B705A
:102F00007047000070B50B7888B001AC013319250B
:102F1000061C0B702A1C201C002104F0B1FC0423A9
:102F20006370012309212371A371E371E372237399
:102F3000A373237633792170032261722121627198
:102F4000A1726275A370222140223423E173E282D0
:102F50002374727907218023A1745B4205211343F6
:102F6000E1742A1C211C0348237504F0DBF808B027
:102F700070BDC0466B16002010B504798A88002306
:102F8000944221D10C784A78A12C0ED10221141C34
:102F90008C43012C17D0022A16D1021C191C253291
:102FA00001230A4804F09AF806E0212C0CD10B2AE0
:102FB00004D18B780530C377012305E00A2A03D1B9
:102FC0008B780630F7E7231C181C10BD6B16002009
:102FD00008B50A78031C0020812A0ED1CA78222A5B
:102FE0000BD189881A79914207D15A1D1B7C03485D
:102FF000D3770349342204F095F808BD6B160020FE
:103000005A7E00000E49021C2032083110B50123FF
:10301000826001600022411DC2608371C37103742C
:10302000CB77811DCB77C31DDA778323041C036222
:1030300003F0F6FA211C03F0C3FA201C10BDC046B1
:10304000907E00000530C07F7047000070B5061C00
:10305000041C18361134051C211C301C072204F0F6
:10306000F7FB00280FD06B7940211943221C07235E
:10307000064803F0A1FF211C051C0722301C04F0A8
:10308000F6FB281C01E00120404270BD6B160020B9
:103090000A1C2032D2B210B50023072A08D8012317
:1030A000E0391A1C8A40111C427C114341740CE027
:1030B000C218947C8C4208D0002C01D1917404E099
:1030C0000133062BF4D1002000E0012010BD0A1CC2
:1030D0002032D2B270B50023072A07D8E73901237E
:1030E0008B40191C437C8B43437417E0C218947CBB
:1030F0008C4201D1002494740133062BF6D1031CB9
:10310000851D00229C7C002C05D081188E7C01320C
:103110008C74D2B29E740133AB42F3D1012070BDE6
:1031200008B511300021072204F0AAFB08BD10B534
:10313000041CFFF7F5FF201CFFF788FF10BD0000FF
:1031400008B50248FFF75EFF08BDC04668070020CB
:1031500038B50A4B01221968051C1140084C05D1ED
:10316000216008491A6061601921218100F0C2FACA
:10317000211C00F07DFA281C38BDC046AC07002099
:1031800090070020A87E000010B500235A00845A42
:10319000002C01D1115202E00133042BF6D110BDF5
:1031A00008B50021082204F06BFB08BD10B5041C13
:1031B00000F0A0FA0421221C082300F069FA10BDD7
:1031C00038B5051C041C0835281C211C082204F0F5
:1031D0003FFB002807D0201CFFF7E8FF281C211C1C
:1031E000082204F044FB38BD10B50021041C08225D
:1031F00004F046FB201CFFF7E3FF10BD08B5FFF706
:10320000F3FF08BD08B50248FFF7A2FF08BDC0469E
:103210009C07002038B50A4B01221968051C114093
:10322000084C05D1216008491A606160692121813B
:1032300000F060FA211C00F01BFA281C38BDC046C3
:10324000B0070020B4070020C17E000010B5041CA8
:1032500000F050FA0821221C1D2300F019FA10BDBD
:1032600070B5051C041C1D35281C211C1D2204F0F2
:10327000EFFA00280AD0201CFFF7E8FF211C061CEB
:103280001D22281C04F0F3FA301C01E0012040420A
:1032900070BD10B5031CDD290BD80720CA080140FA
:1032A00001209B18041C5A788C40211C1143597032
:1032B0000BE02031C9B20020072906D80120021CEA
:1032C0008A40111C1A781143197010BD10B5031CE7
:1032D000DD290AD8CA08072001409B1801205A7826
:1032E000041C8C40A2435A700BE02031C9B200206C
:1032F000072906D80120021C8A40111C1A788A432B
:103300001A7010BD08B500211D2204F0B9FA08BDDD
:1033100010B5041CFFF7F6FF201CFFF797FF10BD48
:1033200008B50248FFF776FF08BDC046C007002079
:1033300038B50A4B01221968051C1140084C05D10B
:10334000216008491A6061601821218100F0D2F9DA
:10335000211C00F08DF9281C38BDC046FC07002058
:10336000000800202A7F000038B50D1C141C00F056
:10337000C1F92A1C0521231C00F08AF938BD07B5C4
:1033800069460731002301220B70FFF7EDFF07BDEF
:1033900008B5FFF7F4FF08BD08B5FFF7F0FF08BD5B
:1033A00007B56B46D9710733191C0122FFF7DCFF03
:1033B00007BD000008B50248FFF7BAFF08BDC046C8
:1033C000FA07002070B50B7888B001AC01331925DD
:1033D000061C0B702A1C201C002104F051FA042347
:1033E0006370012309212371E3722373A37323768E
:1033F000337921700322617221216271A172627599
:10340000A370222140223523E173E2822374727972
:1034100007218023A1745B4205211343E1742A1C18
:10342000211C0348237503F07DFE08B070BDC04623
:103430006B16002010B5131C42790C1C402111435F
:103440000248221C03F0B8FD10BDC0466B160020D8
:1034500008B4024B9C46103808BC60473534000065
:1034600010B58A8804790023944219D10C784A78DF
:10347000A12C06D1012A12D0D31E5A425341DBB2ED
:103480000EE0212C0CD10B2A02D18B78013003E005
:103490000A2A05D18B780230C377012300E0131C80
:1034A000181C10BD08B50A78031C0020812A0ED113
:1034B000CA78222A0BD189881A79914207D1012230
:1034C0000133DA7702480349352203F02BFE08BDA9
:1034D0006B160020427F0000021C1C3210B5826077
:1034E0000022C2608282C28202760B4A0123111C32
:1034F000243202610831C2188371C3710160D3772D
:10350000821CD3778323041CC36103F089F8211C38
:1035100003F056F8201C10BD787F000008B5024863
:10352000FFF7DAFF08BDC0460C08002048230B70E7
:1035300049234B7044238B70028B0F231A40413276
:10354000CA70028B12111340413305200B71704772
:1035500070B50B7888B001AC01331926051C0B70CF
:10356000321C201C002104F08BF90423637001231A
:103570002371E3722373A37323762B790921A3703C
:103580002B8B21700322617221216271A1726275FD
:103590002374222140221B12E173E28263746A7950
:1035A00007218023A1745B4205211343E174321C7F
:1035B000211C0348237503F0B5FD08B070BDC0465B
:1035C0006B16002070B50B78041C0025812B1ED1D2
:1035D000CB78222B1BD18A8803799A4217D10D4EC2
:1035E0000121301C03F00EFE6469002C09D02289F1
:1035F000301C616803F096FD431C07D02D18246829
:10360000F3E7301C211C03F0FDFD00E0051C281C25
:1036100070BDC0466B16002010B504798A8800235F
:10362000944220D10C784A78A12C0ED10221141C8E
:103630008C43012C16D0022A15D1021C191C1B32F6
:1036400001230A4803F04AFD05E0212C0BD10B2A87
:1036500003D18B788376012305E00A2A03D18B7886
:10366000C376F8E7231C181C10BDC0466B1600205B
:103670004369002B01D1416105E01A68002A01D09D
:10368000131CFAE719600A89038BD3180383704768
:1036900030B591B01C1C051C6B4668461970013092
:1036A000111C221C04F0E3F86979631C6A46024885
:1036B00003F082FC11B030BD6B16002010B5021C67
:1036C0000B490123103208318371C3718260837604
:1036D0000022C3768323041CC2604261028303611B
:1036E000016002F09DFF211C02F06AFF201C10BD4A
:1036F000A07F000070B5064D01262B68054C3342B3
:1037000003D1201CFFF7DAFF2E60201C70BDC046DD
:10371000300800203408002008B50248FEF76EFE8D
:1037200008BDC046CD37000008B580230B43FF21FC
:103730000A1CFEF799FEFFF79DFB08BD38B50C0289
:103740000221151C04430A4202D0201CFFF7ECFFA3
:1037500001210D4202D0201CFFF7E6FF38BD38B52D
:103760000B1E31D000251878013807282CD859783D
:1037700003F060FF04070C0F12151A1F9C1C0D1C90
:103780001DE0081C9C1C01F0BBFC18E0DC1C9878B8
:1037900008E0DC1C98780AE0DC1C98780CE0081C37
:1037A0009C1C0021022208E0081C9C1C0021012214
:1037B00003E0081C9C1C00210322FFF7BFFF281C0C
:1037C00001F09EFC231CCEE738BD000010B5041CA0
:1037D0002404C0B2240E602C02D0240220430BE04B
:1037E000064C217006490A70191CFEF7A1FC011C49
:1037F0000448FFF7B4FF002010BDC0465808002061
:1038000050080020540800200020402914D83A29EC
:103810002BD2202923D00BD80A291ED004D808295E
:103820002DD3081C22301EE01B2928D1292026E098
:10383000302916D821391FE0602908D85B2916D213
:10384000081C3D388023C0B21B01184317E07A29B9
:103850000FD97E2913D85E390EE028200FE02C20E6
:103860000DE0081C1338C0B209E02A3904E04439DD
:1038700002E0081C5D38F6E7014B4900585A7047D2
:10388000B87F000070B5061C0D1C2978002910D0E7
:10389000301CFFF7B9FF83B2041C002B01D10135A6
:1038A000F3E70221FFF740FF201C0121FFF73CFF57
:1038B000F5E7081C70BD0000024A034B08321A608D
:1038C0007047C046008000005408002070477047D1
:1038D0007047704710B5064B041C08330360054B56
:1038E000002160220448197003F0CAFF201C10BD9B
:1038F00010800000610800206408002010B500233B
:10390000064A99008C58002C02D18850DBB203E0A3
:103910000133182BF4D1FF2358B210BD64080020E6
:1039200010B5041C054803681B689847201CFFF766
:10393000E5FF2368201C5B68984710BDC408002081
:1039400007B5031C0A1C0248191CFEF7F7FF07BD48
:103950004807002013B500240190201C0134019970
:10396000E4B2FFF7EDFF902CF7D113BD0B4B07B579
:103970001B78002B10D101AA13705370937001981B
:10398000FFF7E8FF064B1A78064B9200D058002844
:1039900002D003689B68984707BDC04660080020B6
:1039A000610800206408002008B5172803D8024BDE
:1039B0001870FFF7DBFF08BD6108002008B50A4B4F
:1039C0001A78002A0AD11722084990004158002984
:1039D00005D1013AD2B2002AF6D100E0013A1A70BC
:1039E0001878FFF7E1FF08BD610800206408002097
:1039F00010B5021C002306499C006158D8B29142C0
:103A000002D1FFF7D1FF02E00133182BF3D110BD33
:103A10006408002008B5FFF7EBFF08BD08B50A4BA6
:103A200018780130C0B21870172804D8074A8100EE
:103A30008A58002A04D100221A70FFF797FF01E08C
:103A4000FFF7B2FF08BDC0466108002064080020EF
:103A5000020408B5120E432A12D103221340022B8E
:103A60000DD1862380B2DB01834202D1FFF7D6FF5E
:103A700005E001221343834201D1FFF79FFF00209D
:103A800008BD07B501AB187059709A700198FFF71F
:103A900061FF07BD13B5002401AB1C705C709C7006
:103AA0000198FFF757FF0C4BE058002802D003683D
:103AB0005B6898470434602CF5D10848FEF79EFCFB
:103AC0000748FEF7C1FC01F015FB064B1B88C01828
:103AD000054B186013BDC04664080020513A000031
:103AE000153B0000840000205C08002037B5051C51
:103AF0000C1C131C291C0248221CFEF75FFF37BD5B
:103B00004807002008B50248FEF764FF08BDC0461C
:103B10004807002010B500281BD10E4B1B78002B46
:103B200017D101F0E7FA0C4C2368984207D9FFF748
:103B3000E9FF01F0DFFA094B1B88C0182060084B31
:103B40001A78084B9200D058002802D00368DB682E
:103B5000984710BD600800205C0800208400002009
:103B6000610800206408002008B50248FFF7B2FE93
:103B700008BDC046C408002007B5002201AB1A707A
:103B80005A709A700198FFF7E5FE07BD13B500243F
:103B900001AB1C705C709C70081C111C019AFFF733
:103BA000A5FF13BD024A034B08321A607047C04696
:103BB00020800000C8080020F0B585B0D3B203AC67
:103BC000002903D16A462370537337E0FF26771A22
:103BD00006254543574328123F1201970702ED1B64
:103BE000ADB2AC466746F71B4D4379432D1209121F
:103BF000751B761A5543564301992D123612CAB2D7
:103C0000042815D803F016FD03060A0E1100181C2F
:103C1000F1B201E0E8B2191C131C0CE0191C101CD5
:103C2000F3B208E0101CE9B205E0F0B2111C02E0AA
:103C3000181C111CEBB26A46207051736A469373CC
:103C400062782078A37812021B041043184305B051
:103C5000F0BD000007B501F04DFA0C2180B203F071
:103C6000F3FC80B2C3B2020601D5DB43DBB25B00DA
:103C7000DBB21A1C5A4312125343032151431B1245
:103C80005B00CB1ADA0FD21852105032D2B2FF2199
:103C9000AA20FFF791FFFF23010A021C19401A40D6
:103CA00009021143000C034A0340081C1B04104086
:103CB00018430EBDFFFF00FFF7B51348FEF7C4FB26
:103CC0000025124B2A01D318EEB201930024019B68
:103CD000E7B2185D0E4B311C1B683A1C98478623CF
:103CE00080B2DB01834204D10A4B1E700A4B1F7065
:103CF00008E00134102CEAD10135052DE1D1074B44
:103D000001221A70F7BDC046213D00006504002065
:103D100058000020CE080020CD080020CC0800204C
:103D200073B5002826D0144E3378002B22D101F031
:103D3000E1F9124B124D134C98420ED90123337006
:103D4000114B29781878114B8000C0582278002830
:103D500010D003681B6998470CE0FFF77BFF01ABAD
:103D6000020A1870000C98705A7028782178019A0D
:103D7000FFF7BCFE73BDC046CC080020F023000056
:103D8000CE080020CD080020610800206408002033
:103D9000024A034B08321A607047C0464080000058
:103DA000D008002008B5031C597900799A79FFF7EB
:103DB00068FE08BD13B5031C007901AC207058796A
:103DC00060709B79081CA370111C019AFFF78EFE8E
:103DD00013BD000010B5034C01710834046042713A
:103DE000837110BD5080000007B5FFF733FF01ABB2
:103DF0001870020A000C5A7098700198FFF7AAFD1B
:103E000007BD0000024A034B08321A607047C046E3
:103E100070800000D40800207FB5C379041C132BE8
:103E200002D80133C37136E00025C571A37940790A
:103E300058432379181A6B461D705D709D70C0B28F
:103E40000099FFF77DFD01AB20791D705D709D70BD
:103E50000199FFF775FD207963791818C0B2421EE9
:103E6000D2B220718E2A01D95B42637102ABFF2668
:103E70001D705D709E700299FFF762FDA3796079F5
:103E800058432379181A03AB1E705D709D70C0B241
:103E90000399FFF755FD7FBD054A064B0832012106
:103EA0001A605971002205211A719971DA717047EF
:103EB00090800000D808002013B50389041C5A1C08
:103EC000028142899A4217D800230381627B80884D
:103ED000217BFFF771FE01AB1870020A000C5A70CB
:103EE0009870A279A388D3189BB2FE2B00D9FF3B10
:103EF000A3800198FFF72EFD13BD73B50389041C41
:103F00005A1C028142899A4223D800250581A38840
:103F10006800C01880B2EEB2FE2801D9FF3880B226
:103F2000217B627BFFF748FE01AB1870020A000C90
:103F300098705A70301C01990135FFF701FD902DE2
:103F4000E5D1A279A388D3189BB2FE2B00D9FF3B01
:103F5000A38073BD41737047417370470D4A0E4B88
:103F600030B508320A211A60598100220124FF204D
:103F700032219A801A819C7118735973074D084B2E
:103F800008359A801A811E221D609C715A8118730F
:103F9000597330BDB0800000E0080020D0800000E0
:103FA000F008002010B5042908D80F2A06D89C076D
:103FB00004D50901024B8A18FF21D15410BDC04617
:103FC0000009002008B50248FEF718FA08BDC046EF
:103FD000A53F000008B503480021502203F050FC23
:103FE00008BDC04600090020F0B5274F87B03B68E8
:103FF000002B47D001F07EF8244B00261B68321CB2
:1040000098427241D3B2224D00930024E3B2694634
:1040100001932B5D0F310B70002B0ED038680368B5
:104020001B68984704AB020A1870000C98705A700D
:10403000301C0199049AFFF759FD009A002A03D019
:104040006B460F331B782B552B5D002B08D105AA2F
:10405000137053709370301C0199059AFFF746FD59
:104060000134102CD2D10136F6B21035052ECCD148
:10407000009B002B06D001F03DF8064B1B88C018B2
:10408000024B186007B0F0BD500900205409002011
:104090000009002086000020F0B5087885B00C1CCF
:1040A000E0280CD9FF22101A111C80B2FFF784FD02
:1040B0006A460104030C9372C5B2090E1DE0FF218C
:1040C0000A1C1E20FFF778FD07043F0E0197277892
:1040D000030CC0B27843154E6A469372FF25B04276
:1040E00003D0291C03F0FEFAC5B20198FF217843E2
:1040F000B04202D003F0F6FAC1B22378E02B01D926
:10410000013B08E03F2B01D9103B04E01F2B01D9F4
:10411000203B00E0002323706B46987A1D72597291
:104120001B890004184305B0F0BDC04601FE000025
:10413000014B083303607047F0800000024A034BD4
:1041400008321A607047C0460081000058090020FC
:1041500008B50248FEF778F908BDC046D142000014
:10416000064A1368002B01D1106005E09A68002A06
:1041700001D0131CFAE798607047C0465C09002024
:1041800008B50248024901F0AFFB08BD94110020B8
:104190005A7B000008B5011C0A22024801F005FC08
:1041A00008BDC0469411002008B50248024901F03C
:1041B0009BFB08BD941100203081000008B5002849
:1041C00001D0034900E00349034801F08DFB08BD1D
:1041D00034810000398100009411002010B50A4993
:1041E00003F0BCFB002398420CD1084B1C68002C48
:1041F00007D06168002902D0054801F087FBA46858
:10420000F5E70123181C10BD057C00005C090020A7
:104210009411002010B5164903F0A0FB002398422A
:1042200023D1144C1449201C01F05EFB1349201CBF
:1042300001F05AFBFFF7A4FF1149201C01F054FBC9
:104240001049201C01F050FB0F49201C01F04CFBD1
:10425000FFF7AAFF0D49201C01F046FBFFF790FF76
:10426000201C0B4901F052FB0123181C10BDC04655
:10427000FD7B0000941100203F8100004D81000073
:104280005B8100004B8100006781000074810000A9
:1042900080810000024A034B08321A607047C04612
:1042A000208100006009002010B5084C201C02F09D
:1042B000A3F8002808D0201C02F0B8F80A2803D080
:1042C000201C02F0C1F8F6E710BDC0469411002092
:1042D000F7B5041E3DD11F4D281C02F08DF80028B3
:1042E00037D0621CD3B2281C0192009302F0ACF8C4
:1042F000194FE055281C02F099F83E1C0A2806D0F8
:104300003B5D202B03D0019C202CEAD10094009A25
:104310000023013AB15C202900D0009AB3540F4B1E
:104320001C68002C04D0301C2368984700280ED04D
:104330000B49281C01F0EAFAFFF7B6FF281C02F02F
:1043400075F80A2805D1281C02F07EF801E0A4685F
:10435000E7E7F7BD94110020640900205C09002004
:104360006087000038B520490922051C03F007FBCF
:104370000024A04235D10935281C1C4903F0EEFA6F
:10438000A0421ED0281C1A4903F0E8FAA04220D00F
:10439000281C184903F0E2FAA04222D1164C174B10
:1043A00010221988201C01F000FB1549201C01F087
:1043B0009BFA00F0B5F81022011C201C01F0F9FA5C
:1043C0000EE000F0A7F8FFF7F9FE0B4801F096FAAF
:1043D00006E000F00FF90A22011C074801F0FDFA7F
:1043E0000124201C38BDC046898100009381000053
:1043F000FD7B0000C57B0000F40F00209009002029
:104400004B810000F8B52549041C03F0A7FA071EEC
:1044100012D0201C224903F0A1FA002801D000206C
:104420003BE000F0A3F88021C900091A0A221D48C8
:1044300001F0BFFA012030E01A4E3C1C301C01F0A4
:104440009BFD194D0A281FD1211C281C00F044F99E
:10445000FFF7A0FE0134FFF793FE8023DB009C42B0
:10446000F2D1301C01F04AFA13E000210122301C85
:1044700001F04CFD211CC2B2281C00F039F90134B6
:104480008023DB009C4204D0301C01F075FD0A281B
:10449000EBD1281C00F044F9CCE7F8BDD57B000037
:1044A0009A810000F40F0020AC090020F8B5071C29
:1044B0000D1C161C0C1C631B9BB2B34207D2791B4C
:1044C0006118034800F008F920700134F3E7F8BDE3
:1044D000AC09002008B5002002490622FFF7E6FFDC
:1044E00008BDC04688090020F8B5071C0D1C161C25
:1044F0000C1C631B9BB20648B34206D2791B6118A1
:10450000227800F009F90134F3E700F009F9F8BD69
:10451000AC090020014B18787047C0468E09002076
:10452000034B00201B78834201D0024B98887047D0
:104530008F0900208809002013B5094B6946063110
:104540001B7808800020834209D1064B0A881C880A
:104550000548A2181A80022200F070F8201C16BD2F
:104560008F0900208800002090090020014B188846
:104570007047C0468800002008B5064B06491B88D6
:10458000062200208B80FFF7AFFF044B01221A7038
:1045900008BDC04690090020880900208E0900202F
:1045A00010B50F4C0F4B0122201C10211A7000F087
:1045B00031F80D4B0D4918882288884209D04B21CB
:1045C000197053215970002199709A80FFF7D4FF18
:1045D00005E09B88934202D0054B00221A7010BD63
:1045E000900900208F090020880900204B5300000B
:1045F0008E090020014B98787047C046880900203A
:10460000024A034B08321A607047C046A881000076
:104610008409002030B50388012213408A420AD25F
:1046200004880125641004805B002C402343521948
:104630009BB2D2B2F2E7038030BD0000F7B5013A79
:10464000D2B2FF2A18D00B780124019308230688E0
:10465000019FF50B274201D001277D407600B6B2BD
:10466000002D01D0054D6E406400013B0680E4B290
:10467000002BECD10131E2E7F7BDC0460580FFFF1A
:10468000014B00221A8070479009002070B50F4C32
:104690000F4EA544041C0F4801AA43690169651C1B
:1046A00000F002F9281C01A9321C03F0E0F8A35D18
:1046B000002B05D18022281CFF21D20003F0E0F856
:1046C000012323708123DB009D4470BDF8FBFFFFB5
:1046D000010400009409002038B50378041C0D1C67
:1046E000002B01D1FFF7D2FF6419607838BD0000BC
:1046F000037870B5041C0E1C151C002B01D1FFF7AC
:10470000C5FFA1194B78AB4203D0024B0122E25402
:104710004D7070BD0204000008B5FFF7E9FF08BD49
:1047200010B5114C0378A544041C002B01D1FFF7F0
:10473000ADFF0E4BE35C002B12D00D4A0123A354B6
:10474000E11801A803F093F80A4C201C2169626962
:1047500000F098F821696369201C01AA00F03AF87A
:104760008123DB009D4410BDF8FBFFFF0204000025
:10477000010400009409002008B50549054A0648CF
:1047800000F010F8054B064900221A705A5408BD73
:10479000008200000104000094090020AC09002000
:1047A0000204000030B5094C094BA5686D036D0F7C
:1047B000AD00EB580360A4680161A4B244605C439F
:1047C0009B008460C360426130BDC0460040004130
:1047D00000870000F7B51F4E8027756803333D43FF
:1047E0009B087560002B34D01B4D3580357DEF075D
:1047F000FCD51D1C5F1B01970768BF08BC46019FC5
:1048000067451FD2002D1DD01778013D0197FF2766
:10481000BC43019F3C4357783F0201970F4F3C40F8
:10482000019F3C4397783F04BC460D4F3C40D778EE
:10483000A4B23F06009767463C43009F04323C43C6
:1048400010C1D7E7074B3380337DDF07FCD52B1C26
:10485000C8E7F7BD0040004144A5FFFFFF00FFFF90
:10486000FFFF00FF04A5FFFF044B054A4908D9617B
:104870001A801A7DD107FCD57047C0460040004120
:1048800002A5FFFF70B5051C0C1C161CEB68281C4C
:10489000211C9E4205D9FFF7E7FFEB68E418F61AE2
:1048A000F4E7FFF7E1FF70BD08B5101C1A1C02F019
:1048B000DEFF08BD08B5024803681B68984708BDBD
:1048C0008409002008B5044B1870A0235843FFF753
:1048D00033FE024B188008BDB60D0020B40D002039
:1048E000F8B50F4B1B78834201D8002017E005254F
:1048F00045436D180B4E2D01AD180B4C31886D00E2
:10490000ADB24919201CFFF7E7FE3188071C4D198D
:10491000691C201CFFF7E0FE3F02C0B23843F8BD1F
:10492000B60D0020B40D0020AC09002070B5151C98
:10493000041C0E1CFFF7D4FF064B82B29A4203D030
:10494000054B1B78A34204D8201C311C2A1CFDF700
:1049500013FE70BDFFFF0000B60D0020F8B5094F33
:104960000D1C094C398846002A048919201C120E96
:10497000FFF7BEFE3988EAB28E19711C201CFFF7C2
:10498000B7FEF8BDB40D0020AC09002008B50348FF
:104990000021012201F0BAFA08BDC046941100209E
:1049A000024A034B08321A607047C0463087000045
:1049B000B00D0020F8B5234902F0D0FF051C0020FF
:1049C00085423DD1204E2C1C301C01F02FFD0A28C1
:1049D0002DD11E4B1B78AB4217D9002400271C4B4E
:1049E0003A1C1B68211C281C9847013780B2FFB273
:1049F000FFF7D0FBFFF7C4FB102FF0D10134E4B276
:104A0000052CEBD10135EDB2E3E7301C00F076FF69
:104A100015E00E4B50221B7853439C420CDAFFF7F3
:104A2000B5FF011C201CFFF799FF0134A4B2301C14
:104A300001F0FCFC0A28ECD10648FFF771FE0120CA
:104A4000F8BDC046F27B000094110020B60D002096
:104A500058000020AC090020F8B5234902F07EFF81
:104A6000041E2FD1214E211C301C012201F04EFAD0
:104A70001F4BC7B21B78BB4224D9301C01F0D6FCB7
:104A80000A2817D100251B4B2A1C1B68211C381C27
:104A90009847013580B2EDB2FFF77CFBFFF770FB62
:104AA000102DF0D10134E4B2052CEBD1301C00F014
:104AB00025FF17E050235F43301C01F0B7FC0A28A4
:104AC00002D10CE000200EE0FFF760FF3D19ADB20F
:104AD000011C0134281CFFF741FF502CECD1064883
:104AE000FFF71EFE0120F8BDE57B000094110020B9
:104AF000B60D002058000020AC09002008B502487F
:104B0000FDF77CFC08BDC0460D4B000010B5041C31
:104B100000F0F0FA201C10BD024A034B08321A6064
:104B20007047C04640870000B80D002070B5284986
:104B30001122051C02F023FF0024A04245D11135AB
:104B4000281C244902F00AFF061EA6422CD0281C6D
:104B5000214902F003FF061EA64236D11F4C201C3D
:104B600001F064FC1E4D021E0A2A04D16978201C43
:104B700000F033FF05E0201C311C012201F0C6F9D2
:104B80006870184C184E164D201C31882A78FFF793
:104B9000AFFD3188201C01316A78FFF7A9FD201C88
:104BA000FFF7BEFD012410E00C4C201C01F03EFC80
:104BB0000B4D021E0A2A01D12978D8E7201C311C8E
:104BC000012201F0A3F92870DBE7201C70BDC0466C
:104BD0005087000062870000947B00009411002041
:104BE000BE0D0020AC090020BC0D00200020704745
:104BF000F8B5051C0F1C161C0024B44208D02B6805
:104C0000395D1B68281C9847002801D00134F4E75F
:104C1000201CF8BD7047031CFC33196ADA69914205
:104C200003D01B6AC018007E01E00120404270479B
:104C3000031CFC33D8691B6AC01A01D50130FF3050
:104C400070470000F7B50193FA239B008360134B74
:104C50008026002576000833041C0F1C4560291CA3
:104C600000920360321C183002F00AFE231C9022CE
:104C7000FC335200DD61A0181D62321C291C02F0B9
:104C8000FFFD87229200A3185D60019A9D60009B42
:104C90002761A575201C23756275FEBD7087000015
:104CA00070B50D49041C006901F0C4F8206900F0DA
:104CB00072FF1826207D331C4343084D0821EB1852
:104CC000595600F087FD607D08214643AD196956AD
:104CD00000F080FD70BDC046A086010098870000EE
:104CE00038B5041C0D1C006900F069FF291C2069FF
:104CF00001F0A0F8206900F04EFF38BD08B500694A
:104D000000F05DFF08BD8A2387229B009200C154FA
:104D1000831800225A609A60012383757047031C30
:104D2000FC335A6810B501329C68D2B2A24202D05C
:104D30005C6801555A6010BDF7B501930023041C4F
:104D4000151C181C9A4231D0221CFC32D3612069F8
:104D50001362012200F066FF002825D0206900F0D0
:104D6000D0FF271C1837011C381CFFF7D8FF01267D
:104D70002069AE420ED000F035FF0221206900F01C
:104D80003BFF206900F0BDFF011C381CFFF7C7FF87
:104D90000136EDE700F01DFF019B002B05D02069D7
:104DA000032100F029FF00E0051CE8B2FEBD10B5AC
:104DB000827D00239A420DD08724A40002195468F2
:104DC00092680134E4B2944204D02130FF30FFF7FE
:104DD000A6FF0123181C10BD031CFC3399685A68F8
:104DE000914206D09A68805C9A680132D2B29A6089
:104DF00001E001204042704770B500228A2382758D
:104E00009B00041C0E1CC15C006900F00BFF002815
:104E100005D12069032100F0EFFE022523E0902355
:104E20005B00E01887239B00E21851689368CB1A57
:104E300001D50133FF33002B0ED02569FFF7CCFFDE
:104E4000C1B2281C00F01DFF0028E8D12069032111
:104E500000F0D2FE032506E01D1C002E03D02069C1
:104E6000032100F0C9FE281C70BD08B51830FFF7FB
:104E7000B3FF08BD38B5041C006900F020FF00280E
:104E800000D184E0206900F028FF00280ED12069BD
:104E900000F02DFF00281FD0206900F023FF00281C
:104EA0001AD0206900F028FF002815D1206900F0F1
:104EB00099FE2069032100F09FFE8C239B00E5589A
:104EC000002D04D02368201C1B699847A847FC3498
:104ED0000023E36123625AE0206900F008FF031C0D
:104EE0002069002B19D000F07DFE2069032100F01D
:104EF00083FE206900F000FF002848D0872292003E
:104F0000A31800225A609A600123A3758B239B008B
:104F1000E35893423BD0984739E000F0D9FE00288F
:104F200035D0206900F0E8FE002816D087239B00CA
:104F3000E21851689368CB1A01D50133FF33FF2182
:104F4000002B05D090225200A018FFF745FFC1B2F8
:104F5000206900F0A7FEA07519E0231CFC33DA6974
:104F60001B6A0132D2B220699A4202D100F031FEAE
:104F700009E000F0C6FE011C201C1830FFF7CFFE30
:104F8000206900F02FFE2069032100F035FE38BDB6
:104F900008B50248FFF76EFF08BDC046C00D0020EF
:104FA00008B50348034914221523FFF74BFE08BD3B
:104FB000C00D00206C11002008B5024801F014F962
:104FC00008BDC046B010002008B5024801F00CF939
:104FD00008BDC046F40F0020F7B5164F1649381C1F
:104FE00000F04EFD1549164800F04AFD15491648D7
:104FF00000F046FD1549164800F042FD15491648D7
:1050000000F03EFD154D03260124281C144900F034
:1050100037FD391C0096231C01940022114801F031
:1050200003F80096291C01941F221E230E4800F04D
:10503000FBFFF7BD7011002000080042000C004289
:10504000741100200010004278110020001400426A
:105050006C110020001800427C11002080110020FB
:10506000001C0042B0100020F40F0020FEE70000FA
:1050700008B5034B1B68002B00D0984708BDC046FD
:105080008411002038B50F490F4CA14204D100F023
:1050900055F801F085F90BE00C4D8D42F7D0002357
:1050A000CA18E818A24204D2006804331060F7E777
:1050B000FEE79042EBD0064B064A9342E7D200222D
:1050C00004C3F9E70000002010020020848C0000D7
:1050D000100200208C17002008B500F02CF80028E2
:1050E00001D100F01DF808BD014B18607047C046A3
:1050F00084110020014B18687047C04688110020B9
:1051000070B5041E08D0054B1D681E1C00F012F877
:1051100033685B1BA342F9D370BDC04688110020E1
:1051200008B5034B1A6801321A6000F06FFC08BD25
:1051300088110020704700207047000070B5494A70
:105140001E21536802208B430343474953608B69F8
:10515000082423438B61454C454B9C829C8A204309
:105160009882101CDA689407FCD5424A0124147016
:105170001478E50704D53F4C647864B2002CF7DB63
:1051800001249460547864B2002CFBDB3A4D394C16
:105190006560547864B2002CFBDB8225354CED0150
:1051A0006580547864B2002CFBDB02249C84DC68AC
:1051B000E606FCD5314D2E4CE562DD682C4CEE0642
:1051C000FBD5A58C2E4E3543A584DD68284CEE0614
:1051D000FBD5A58C02263543A584DC682506FCD5C5
:1051E000234CE4686606F8D5DC68E506FCD50024A7
:1051F0009460547864B2002CFBDB224D1D4C65603A
:1052000055781C4C6DB2002DFADB1E6A1E4D3540E0
:105210001D621D6A8026B5431D620323A3601B4BDC
:10522000636053785BB2002BFBDB00230B72184AE0
:105230004B728B72CB72174BFF211A60164B174AB9
:105240001B6812685C01D20E214011439A06520F6E
:1052500012020B1C1343124A138543688022134326
:10526000436070BD00400041000400400C06000097
:1052700000080040000C004001050100B905FF7D59
:10528000040A000000070300FFFCFFFF0306010003
:10529000006CDC02A40000202460800020608000FC
:1052A00000400042314BFA21186810B5890002F025
:1052B000CBF92F4B0138984224D82E4A2E4B506000
:1052C000186AC0210002000A09060143196200247D
:1052D000072194601160196A80220902090A1206E6
:1052E0000A431A62254BFC211A6A0A431A62196A98
:1052F000FC2292010A431A62196AA022D2020A43CE
:105300001A6200E0FEE7201C0021013400F0D8F909
:10531000142CF8D11A4C63785BB2002BFADB194BD2
:105320006380194B5A7ED209012AFAD0E422D200B6
:105330009A803F22DA70597E134AC9090129FAD0AE
:10534000C0235B0100201361907000F033F8637894
:105350005BB2002BFBDB0D4A094B5A800C4BDA7910
:10536000D209012AFAD041225A7010BDA4000020AF
:10537000FFFFFF0010E000E000ED00E0000400404F
:10538000000C00401E400000004000422140000090
:1053900000480042914205D002D9891AC84001E074
:1053A000511A884070470000014B18607047C04692
:1053B000AC00002000B5144A517E131CC909012914
:1053C000F9D00138042813D81969104A0A401A6123
:1053D0005A780F218A4302F02DF9030509070300CB
:1053E000012102E0032100E002210A435A700AE091
:1053F0001169F0231B050B43136153780F218B4375
:1054000002210B43537000BD00400042FFFFFFF03C
:1054100010B5041E0D2C00D80E34201C012100F004
:10542000D9F90E2C0CD12A4BDA79D209012AFAD0FB
:105430001A7802218A431A70DA79D209012AFBD03C
:10544000244B5A7ED209012AFAD018225443224A08
:1054500018691419217C1F2290431140021C0A4331
:105460001A61597E1B4AC9090129FAD01178022014
:1054700001431170597E174AC9090129FAD0117BDD
:1054800002200143117301211176597E114AC90985
:105490000129FAD0117B0220014311731A7ED10732
:1054A000FCD50C4A508B80B2597E0A4AC9090129A1
:1054B000FAD011780224A14311705A7ED209012A30
:1054C000FBD0064B1968064B1A68FFF763FF10BD47
:1054D000004800420040004298870000A8000020D9
:1054E000B000002018234343F0B56C4A87B09B18E6
:1054F000DA685B8A051C0C1C0092019392071ED58A
:105500000E2800D0C8E0664B201C19680A22FFF75D
:1055100041FF644BDA79D209012AFAD08005800D67
:105520001881D9795F4AC9090129FAD01178022076
:1055300001431170DA79D209012AFBD0ACE0009F57
:1055400008231F40564E00D195E03168201C1022E0
:10555000FFF720FF019A009B14B2061C2412D7B259
:10556000281C0421DB0600D4052100F033F94E4B42
:105570001A5D002A5AD101221A5502A810224B495D
:1055800002F075F963006A4608339B5A8022D20103
:105590001A43474B5A805A78D209012AFBD0454B0F
:1055A000022C1ED9A4001B5902211A888A431A8092
:1055B000DA7BD209FCD11A8840210A431A80DA7BAF
:1055C000D209FCD10C37B6B27F00FE52DA7BD20989
:1055D000FCD11A8802210A431A80DA7BD209FCD155
:1055E0005AE0A4001B5902211A688A431A6099687C
:1055F000314A1142FBD1D96B02200143D96399682A
:105600001142FCD11037BF00DF197E60996811424A
:10561000FCD12A49196499681142FCD11968022009
:105620000143196099681142FCD135E0214B022CED
:1056300009D9A4001B590C37B6B27F00FE52DA7BA1
:10564000D209FCD128E0A4001B5902215A790A434F
:105650005A719968184A1142FBD11C37BF00FE509D
:1056600099681142FCD11979022001431971996896
:105670001142FCD110E0012100F022F83168201C19
:105680000822FFF787FE7F2802D8281C391C01E07A
:10569000281C012100F06EF807B0F0BD98870000CB
:1056A000AC000020004800428C110020B88B0000A4
:1056B000000C00408C000020FF0F7F00FFFF000067
:1056C00010B51824021C201C5043274B1818007AD0
:1056D00040B2013046D0032944D8081C211C01F0F7
:1056E000A9FF02331121624398569A18C3011F483B
:1056F00052681B189918403102200870012191400E
:1057000059602FE06243985618499A185268C301AD
:105710005B189918403106200870012191405960AA
:1057200099611FE051435A56104859184B68D201ED
:105730001118C818403006240470012098404860B1
:105740000B49521850600DE0624398569A18C301F5
:10575000064852681B189918403102200870012130
:105760009140996010BDC0469887000000440041F8
:105770001044004118235843134AF0B51318082465
:105780001C5701341FD08256104ED2015D6801248F
:105790009019231C8668AB401E420BD10E1C771E4D
:1057A000BE41401934404030A50004780426B4437B
:1057B0002C430470002903D105495218536002E0BC
:1057C000024E92199361F0BD988700000044004199
:1057D0001044004118224243F8B52D4D0824AA1860
:1057E0001457031C621C50D0481C00240C284CD8B1
:1057F00001F020FF071E1E1E1E1E1E1E1E0A0A0A84
:105800000A000124644240E0092902D1181C002149
:1058100003E00A2904D1181C0221FFF751FF23E0FD
:1058200000240B2931D1181C0121FFF749FF2CE07E
:1058300018225343EA185268EB560120141C044006
:105840005508DB01002C11D0124C1B195D193035A5
:105850002E780C010F21314021439A18C9B22970CA
:10586000403213781843107000240EE0094E0F27C1
:105870009B195D1930352E789A18BE433143C9B251
:1058800029704032137818431070201CF8BDC046B0
:105890009887000000440041F7B58A18061C0D1CCB
:1058A00001920C1C019B671B9C4207D03368217836
:1058B0001B68301C984701340028F3D1381CFEBD0A
:1058C00008B50368C9B21B68984708BD38B5051C00
:1058D0000C1C081E07D002F04BF82B68021C5B68FA
:1058E000281C211C984738BD08B5FFF7EFFF08BDFD
:1058F00008B503681B68984708BD000008B5024951
:10590000FFF7E4FF08BDC046C88B000038B5041C93
:10591000FFF7DCFF051C201CFFF7F0FF281838BD3F
:10592000F0B58DB0161C0BAB002201900C1C1A7048
:10593000012E00D80A266D462B35201C311C01F0A3
:10594000C7FE201CCFB2311C01F07EFE291C041CB6
:10595000092F01D8303700E03737FFB22F70013DF3
:10596000002CEAD10198FFF7B1FF0DB0F0BDF8B5FA
:10597000041C0D1C161E04D10368C9B21B6898478D
:1059800012E00A2A0DD100290ADA2D21FFF7B0FF13
:105990006942071C321C201CFFF7C2FFC01903E03C
:1059A00000E0D2B2FFF7BCFFF8BD08B5FFF7DFFF9C
:1059B00008BD38B5041CFFF7DAFF051C201CFFF7F3
:1059C0009DFF281838BD08B5002A02D1FFF778FFDF
:1059D00002E0D2B2FFF7A4FF08BD38B5041CFFF700
:1059E000F2FF051C201CFFF789FF281838BD0000B6
:1059F000014B18607047C046B4000020024B0122E2
:105A000052421A607047C046B4000020154A13681D
:105A1000581C25D0013B1360002B21D172B6124ACD
:105A2000124B04329A4207D8BFF34F8F104A114BE2
:105A3000DA60BFF34F8F11E00F4B197DC807FBD51C
:105A4000188B2021FF319208520001431983DA613B
:105A50000A4A1A801A7DD107FCD5E5E7C046FDE762
:105A60007047C046B4000020002000000302000080
:105A70000400FA0500ED00E00040004102A5FFFF30
:105A800001607047F7B508AC267804689D1E27684A
:105A90006C1EA541ECB2920705683A4327063A43CB
:105AA0002A600268072529405068B501002C00D003
:105AB0005C03294301430C435460F7BD30B50368D0
:105AC000C0251C68AD0312052A402243C024A4024D
:105AD000090421401143196003685A6814435C604B
:105AE00030BD036801211A680A431A600268116810
:105AF00001231942FBD1D1691942F8D170470368DB
:105B000002211A680A431A600268D3699907FCD413
:105B1000704703681A7ED10702D41A7E9107FCD51C
:105B20007047036800225A8370470368187E400755
:105B3000C00F70470368187EC00970470368802251
:105B4000197E52420A431A7670470368187E012371
:105B5000184070470368188DC0B2704703681A7EFA
:105B600001200242FBD019857047036801229A7513
:105B70007047036801221A757047036801211A688B
:105B80000A431A600268116801231942FBD1D169E6
:105B90001942F8D17047036802211A680A431A6053
:105BA0000368DA699107FCD45A8B30218A431021AB
:105BB0000A435A830268D3695907FCD470470368C3
:105BC00002211A688A431A600268D3699907FCD4D3
:105BD00070470368802219685968D2020A435A60E4
:105BE000704700000368034A196859680A405A6000
:105BF0007047C046FFFFFBFF30B5036803241D68F4
:105C00000C40074A596824040A40ED0622436D0FF0
:105C10005A60052D03D10268D3695907FCD430BD01
:105C2000FFFFFCFF49001143036830B5CDB2598B2B
:105C3000032409092140012904D0598B09090C408A
:105C4000022CF4D1596AC90AC9022943596203686E
:105C5000002A03D11A7ED107FCD50DE0187E01225F
:105C60004008104008D1197E1142F7D05968C0226F
:105C700092020A435A6003E05B8B01209B08984321
:105C800030BD0368283319700268107E0123184064
:105C900003D1518B1942F8D003E0528B181C9208A3
:105CA00090437047036828331970036800201A7EF8
:105CB000510703D55B8B01209B089843704703680D
:105CC0001868C006400F043843425841C0B27047BC
:105CD0000368187E4007C00F70470368187E0123D1
:105CE000184070470368588BC006C00F70470368A0
:105CF000187E8007C00F70470368588B0007C00FDD
:105D0000704703681A68D206520F052A02D11A7E1C
:105D10009107FCD528331878C0B270470368224A2F
:105D200030B5934211D0214A934211D0204A934278
:105D300011D0204A934211D01F4A934211D01F4ADA
:105D4000934230D10E2319220DE0092314220AE0D8
:105D50000A23152207E00B23162204E00C23172246
:105D600001E00D231822DCB2154901209B08A04058
:105D70009B0008605B180320C021890004405D5827
:105D8000E000FF248440A5432C1CC0258540281C2E
:105D9000204358508023DB011A430A4B5A805A781B
:105DA00052B2002AFBDB30BD00080042000C00426A
:105DB000001000420014004200180042001C004283
:105DC00000E100E0000C0040F8B5041C151C0E1C9E
:105DD0001F1CFFF7A3FF201CFFF783FEB1001C224E
:105DE0000A4069072368090C0A431A602268842361
:105DF0009375012E1AD10821012D00D110210C4BD1
:105E000079431868C00001F01FFC236807219A89B4
:105E10000140D2044903D20C0A439A81236800044A
:105E2000C20C9889400B400310439881F8BDC046CE
:105E3000A400002070B5041C0E1CFFF76FFF201C8F
:105E4000FFF79BFE236814221A600D4B71001D683A
:105E50002468281C01F0F8FB0A49061C281C01F0E4
:105E6000F3FB7D23FA215843C90001F0EDFB301A02
:105E7000E668FF23053818409E430643E66070BD80
:105E8000A400002040420F0010B5041CFFF732F9B7
:105E9000E0602368201C9B699847002808DAFFF718
:105EA00029F9E368C01AA3689842F2D3012040425E
:105EB00010BD000070B5041C0D1C161C201CFFF743
:105EC000E3FF00281EDB2D281CD0021C303A092AD3
:105ED00018D9002E01D02E2814D0012D10D0022D5B
:105EE00009D1031C093B172B0AD801229A40131C25
:105EF000054A134204D02368201C5B699847DDE7FC
:105F00000123584270BDC04613008000F8B5171C2D
:105F10000022051CFFF7CEFF002821DB0024261CF1
:105F2000B8420BD02D2808D0031C303B092B05D8D4
:105F30000A235C432418303C00E001262B68281C0F
:105F40005B699847281CFFF79FFF031C303B092B18
:105F5000E6D9B842E4D0201C002E02D0604200E016
:105F60000020F8BD0120704708B50368014A1B6A8C
:105F7000984708BD13040000826D436D9A4203D018
:105F8000836DC018007D01E001204042704710B5CC
:105F9000041C0069FFF7A5FD0023221C63659C32E9
:105FA000A365A0341360236010BD0000F0B587B076
:105FB00001930CAB1B78002502930DAB1B78402698
:105FC00003930EAB1B78041C04930FAB1B780F1CC0
:105FD0000593FA239B008360124B00920833036001
:105FE0004560291C321C143001F04AFC201C6565F8
:105FF000321CA565291C5C3001F042FC009A231C70
:106000009C331D605D6027611A72019A201C5A72D0
:10601000029A9A72039ADA72049A1A73059A1A7794
:1060200007B0F0BDD88B000030B585B0041C08A8BF
:10603000057809A8007800950190FF200290039050
:10604000201CFFF7B3FF201C05B030BDF023081C57
:1060500018403038434258417047F0231B01194023
:1060600080239B0099420CD0C0239B00994206D00C
:1060700080235B000520994204D0002002E0072025
:1060800000E0062070470F231940012905D002398E
:106090004B424B410220C01A00E000207047000034
:1060A000F0B5031C85B00391A433041C182718789D
:1060B0003B1C4343344E0821F3185956151CFFF777
:1060C00089FB231CA53318783B1C43430821F31894
:1060D0005956FFF77FFB231CA7331B78022B0AD1ED
:1060E000231CB8331878FF2805D047430821F71937
:1060F0007956FFF76FFB271CA8373878FF281AD08E
:106100000121FFF7DDFA3B7818225A43B3561F4F9F
:10611000DB01211CAC31D81908601D49B6185B1889
:10612000211C7268B0310B60012191400A1C211CB6
:10613000B4310A601A6001210A1C039B2069FFF731
:1061400043FE291C201CFFF788FF291C071C201C6C
:10615000FFF799FF291C061C201CFFF777FF391C4D
:106160000090331C20690122FFF78CFC231CA7330D
:106170001978013B1A782069FFF7A0FC2069FFF726
:10618000BEFC05B0F0BDC046988700001844004131
:1061900014440041026C436CD01A00D54030704763
:1061A00010B5041C201C5C30FFF7F4FF0028F9D167
:1061B0002069FFF7AEFC10BD08B51430FFF7EAFF09
:1061C00008BD026C436C9A4204DB036C406CC01A3D
:1061D0003F3003E0426C036CD01A0138704708B5B9
:1061E0005C30FFF7EEFF08BD38B5041C0069FFF70F
:1061F0009CFC00281FD02069FFF7ACFC636D3F2298
:1062000001331340A26D934203D0626DA218107542
:106210006365231CA8331B78FF2B0CD0201C143083
:10622000FFF7CFFF092806DC231C221CAC33B43255
:106230001B6812681A602069FFF787FC002820D0CD
:10624000251C5C35281CFFF7A5FF031C2069002BCB
:1062500015D0231C221CA0339C321968126891426D
:1062600007D01A68A95C1A683F2501322A401A60D3
:1062700001E001214942C9B2FFF770FC01E0FFF7DC
:1062800078FC2069FFF756FC002805D02069FFF74D
:1062900055FC2069FFF745FC38BD000070B5041CB3
:1062A00000690D1CFFF751FC00280FD0201C5C304A
:1062B000FFF770FF002840D008E0EFF31083DA0703
:1062C00023D4214B5A68D205D20D0BD1231C9C3309
:1062D000211C1E68A0310A6801363F200640964204
:1062E000EBD01BE0103AD2B253B2002B08DA0F23E6
:1062F0001A40083A154B92089200D218536804E0ED
:106300009B08C033124A9B009B582069FFF71DFC75
:106310000028DBD0201CFFF767FFD7E71A68096861
:10632000013202408A4204D01968201C5C30455476
:106330001A602069FFF719FC03E02069291CFFF7A8
:106340000DFC012070BDC04600ED00E018ED00E03E
:1063500000E100E038B5826D436D041C9A4208D01C
:10636000836D3F22C3181D7D836D01331340836508
:1063700001E001256D42231CA8331B78FF2B0BD0B5
:10638000201C1430FFF71DFF0A2805DD231CB03345
:10639000B4341B6822681A60281C38BD704700009E
:1063A00010B5FEF77FFF01F023FAFFF7F7FF01209A
:1063B000FEF7A6FE084C201C00F08AFB201C00F013
:1063C000FFFBFBF7E7FEFBF793FF044B002BFAD034
:1063D00000E000BFF7E7C0466B1600200000000099
:1063E0003F20704713B502686B46D9710733546874
:1063F000191C0122A04716BD08B50069022100F052
:10640000C9FC08BD08B50069032100F0D9FC08BD2E
:1064100038B50D1C041C131C006903212A1C00F054
:10642000CBFD002801D10123636038BD10B5054CB8
:1064300023685A1C04D103685B6998472060031CD9
:10644000181C10BD08010020074A08B51368591C24
:1064500004D0012149421160181C03E000690221A7
:1064600000F09CFD08BDC0460801002008B5037877
:106470000349023303704222024800F053FE08BD74
:10648000C40000206B16002010B50178031C427870
:106490000020A12908D1212A2FD118481849072204
:1064A00000F040FE012028E0212926D1202A05D134
:1064B00013490722114800F0C9FC04E0222A10D138
:1064C0009A780F4BDA710E4B96221968D2009142DE
:1064D00010D1DC7901231C400CD1FA20FFF788FA97
:1064E0000AE0232A09D1DA789B7812021A43054B75
:1064F0001A6002E0FFF782FA002010BD6B16002040
:10650000B8000020C000002070470000064BFA21B0
:1065100089009960054900220831196004495A60D0
:1065200019611A767047C04694110020108C000043
:106530006B16002070B544680E1C0025002C09D095
:106540002368201C5B68311C9847002804DB2D1849
:10655000E468F3E7281C01E00120404270BD38B533
:1065600044680D1C002C08D02368201C9B68291C43
:106570009847002802D1E468F4E7201C38BD38B5FC
:1065800044680D1C002C07D02368201C291CDB68E4
:106590009847E4682D18F5E72C7038BD38B5446885
:1065A0000D1C002C08D02368201C1B68291C984750
:1065B000002803D1E468F4E7201C00E0012038BD86
:1065C00030B5031C8A79407882180020072A24DC21
:1065D0005A68824201D1596005E0D068002801D094
:1065E000021CFAE7D1601A78C8790A715A784A71A0
:1065F0001A7882181A700022887990420CD98C6817
:10660000900005595C780548A4002550587801325F
:1066100001305870D2B2EFE7012030BD0C010020EC
:10662000064B0122196810B51140054805D1022416
:1066300004700424447041601A6010BDB811002039
:10664000B011002010B507230F220240141C0009CE
:106650003034092A00DD0734CC54013BF4D210BD9C
:1066600070B582291ED1C2B22A495301CB189D6947
:10667000294C80012C40C025AD052C439C61274C42
:106680000832201858610B68520199180C79802043
:10669000404220430871D15C702081433020014387
:1066A000D15435E0002933D1C2B21A495301CB1875
:1066B0009E68194DC0242E40A40526439E60184EA6
:1066C000800109683018083258605201505C072672
:1066D000B0430126304350549E6935402C439C61A1
:1066E0000E4C5C61505C7024A04310242043505435
:1066F0009C680C488A1820408024640320439860DA
:1067000098684021800B8003986053790B43537144
:1067100070BDC04674160020FFFFFF8FC812002016
:106720008C140020FF3F00F038B5041C08CC012178
:106730001A78051C0A431A708022201C002152007E
:1067400001F09EF82B689A78D107FCD45C6238BDC2
:10675000134BF0B51B6899035A029B01C90ED20E68
:106760005B0F1F2900D105211F2A00D11D22072BF5
:1067700000D1032304688E01278D0A491F25394063
:106780003143218501682A400C8DAC4322430A85A0
:1067900002681903108D044B03400B431385F0BDB1
:1067A000246080003FF8FFFFFF8FFFFFEFF31083AF
:1067B00003600123436072B670470368002B02D167
:1067C00062B6BFF36F8F704737B50569041C684622
:1067D000002D12D1FFF7EAFF019B013B03D3621D9D
:1067E000D57FEDB2F9E768460193FFF7E6FF002099
:1067F000854217D0206AE36913E0FFF7D7FF019BBA
:106800000025013B04D3221C34321578EDB2F8E7A1
:1068100068460193FFF7D1FF0020854202D0206B2C
:10682000E36AC01A3EBD0000436810B51A68037AD7
:1068300001215B01D318FF339A7A0A439A72037AD3
:1068400042685B01D318C2689C6891040B4A09092D
:1068500022400A439A60037A42685B01D3189A681F
:106860004021920B92039A6043681A68037A0833B6
:106870005B01D3181A790A431A7110BDFF3F00F06B
:10688000F7B50569041C0E1C171C6846002D1FD1A6
:10689000FFF78CFF019B013B5A1C06D0621DD17F84
:1068A0005A1E00293AD0131CF6E768460193FFF7F9
:1068B00084FF0025E369BD4235D0226A934232D27B
:1068C0005A1CE261A269D3181B7873550135F1E7B0
:1068D000FFF76CFF019B013B5A1C08D0221C34328D
:1068E00015785A1EEDB2002D18D0131CF4E7684637
:1068F0000193FFF762FF0025E36ABD4226D0226BB9
:10690000934241D322E0621D0021D17730321678C4
:10691000581E8E4214D1031C5A1CF4D168460193B0
:10692000FFF74BFF38E0226A934235D10023E36141
:10693000012323616846FFF739FF019B013BEBE729
:106940001170201C0193FFF76FFFF6E7226B934253
:1069500022D10023E36223616846FFF727FF019BF2
:10696000013B5A1CDAD0221C343200211170013252
:106970001678581E8E4201D1031CF2E71170201CBC
:106980000193FFF751FFEAE75A1CE262A26AD318AB
:106990001B7873550135AFE7281CFEBD37B543683A
:1069A000027A1B68083252019A18041CD07901231C
:1069B000FF21184255D0D371A06865696268014013
:1069C000002D1FD14901521891688904890C216258
:1069D000216A002942D06361A36A68465360FFF7C9
:1069E000E5FE019B013B5D1C34D0621D0120D07788
:1069F0002F3211785D1EC9B21218002915D11170FD
:106A00002B1CF0E74B01D3189A689204920C226376
:106A1000226B002A22D000226261A26968465A6075
:106A2000FFF7C4FE019B013B12E001931070684622
:106A3000FFF7C3FE15E0221C343201201070621DE6
:106A4000D17F5D1EC9B230320029EED111702B1CEE
:106A50005D1CF0D168460193FFF7AFFE201CFFF7E5
:106A6000E3FE37BD37B500236C46E3710734201CC5
:106A70000D1CFFF7FBFC2B6818182860FFF7D0FDF2
:106A8000211CFFF757FD2B681818286020783EBDA1
:106A900003290BD10D4BB2221B685200985C802158
:106AA000494201439954022168220CE001290CD18A
:106AB000064B92221B685200985C80214942014398
:106AC000995402212822FF329954704774160020ED
:106AD00038B5304B00240121051C1A201C70FEF72C
:106AE000EFFD1A200121FEF745FE2B4B1920012155
:106AF0001C70FEF7E5FD19200121FEF73BFE274B38
:106B00002021DA6901200A43DA61254B06241A782C
:106B100002431A70234B0F22197891431970197888
:106B20002143197020490C782043087019780A40D5
:106B30001A701A7860210A431A701C4B1C4A5A803A
:106B40005A78D209FCD11B48FEF7CEFA1A4C201C09
:106B5000FFF7EAFD201CFFF7FBFD23687F22197871
:106B60000A401A701A7804210A431A701A890C21F3
:106B70008A431A81C121114A890050580002000A33
:106B80005050802111601A7802210A431A700123A3
:106B90002B7038BD881400207016002000040040BF
:106BA000584400413C44004159440041000C00401D
:106BB000064000000D7600007416002000E100E0A1
:106BC0000078002810D0094B01211B681A898A43DC
:106BD0001A811A8B08210A431A831A8B04210A434B
:106BE0001A83034B00221A607047C04674160020B7
:106BF000781700200F4B9A69920B92039A611B68D9
:106C00000222FF331A7298798022524202439A710B
:106C10001A7A9007FCD5084B081C997A7F221040FD
:106C2000914301439972997A802252420A439A729F
:106C30007047C046741600200050004110B50B7913
:106C40000C1C002B0BD1081CFFF71EFC002804D1E4
:106C5000094B9A69920B92039A6101200BE0FFF7AE
:106C6000DFFC211CFFF79AFC0028F6D1024B9A6941
:106C7000920B92039A6110BD74160020F7B50E1C9A
:106C8000832A18D1CAB235495301CB189C693448BC
:106C9000B6012040C024A405204398613148083241
:106CA00086195E610B685201D15C702081434020DF
:106CB0000143D15450E0022A4AD12B4A89008D5811
:106CC0000191002D48D1382000F0B0FC274B8027DF
:106CD0000360224B7F004360431D056286600561AF
:106CE0004561C561C760DD772F33041CC56205634C
:106CF0001D70381C5D7000F0A1FDA061381C00F013
:106D00009DFDFF2315491E407601A0628E19B168D2
:106D1000134A07250A40C02189050A43B260A168C9
:106D200062681940126808314901885CA84303254C
:106D300028438854A268616813405B01A269CB189C
:106D40005A60201CFFF770FD019B07495C5003E06F
:106D5000081C111CFFF784FCF7BDC0467416002008
:106D6000FFFFFF8FC81200204C160020408C00004F
:106D700038B5051C0124064BA200D258002A06D0C3
:106D8000211C281C0134FFF779FFE4B2F3E738BD7A
:106D90000C01002008B5084B8A00D058002803D009
:106DA00003689B68984706E0C9B2044B490159182B
:106DB00088688004800C08BD4C16002074160020E2
:106DC00010B50C1CFFF7E6FF00280CD0064BE1B213
:106DD0001B680831490159184A7980235B421343E3
:106DE0004B710223CB7110BD7416002070B5CAB26E
:106DF000134B1448540189015918031959609D68AF
:106E00001149083229408025AD02294399609968CB
:106E10004026890B890399600368510159180D793F
:106E200035430D715101591889794D06FAD5510133
:106E30005918C979CD07FAD50419A068C0B270BD38
:106E40008C14002074160020FF3F00F038B50C4B66
:106E5000141C1B680D1CFF335A7940210A435A71D8
:106E60000021FFF7C3FFA04200D9201C0023A3424A
:106E700004D0044A9A5CEA540133F8E738BDC046AE
:106E8000741600208C14002010B5C9B20C484901BA
:106E900043189A689204920C3F2A08D9141C9A68E5
:106EA000403CA404920BA40C9203224302E09A6893
:106EB000920B92039A6041188868C0B210BDC04618
:106EC00074160020F0B51C1C2F4B85B01B68061CE7
:106ED0000D1C0292002B51D02C4F3978C9B20029D9
:106EE00002D11920FEF746FC64233B70284BAA0010
:106EF000D058002805D0036802995B68221C984787
:106F000040E0301C291CFFF745FFA04204D2301C92
:106F1000291CFFF73FFF041C291C301CFFF7B4FF9E
:106F20001C4FE9B24A010191396803928B18FF3373
:106F30005A7A01210A4318495A72AB01C9180298BA
:106F4000221C00F094FC002C1BD0301C291CFFF7E5
:106F500021FF002815D1019B3A6808335B01D31843
:106F600019794020014319710121D97103995318EE
:106F7000FF339A7A01210A439A7202E001204042CB
:106F800000E0201C05B0F0BD78170020701600202E
:106F90004C160020741600208C14002013B56C468B
:106FA0000734221C0123FFF78DFF012801D120782F
:106FB00001E00120404216BDF0B51C1C3F4B85B0DE
:106FC0001B680E1C0292002B6AD08023DB019C42BE
:106FD00066D83B4D2978C9B2002902D11A20FEF7A4
:106FE000C9FB642300222B700092002C56D0354D33
:106FF000F7B22B6801933B1C0833019A5B01D3184D
:107000009B79DB091AD0304B3049186800F01CFB23
:107010002F4B1721584300F017FB3B1C0833019AF4
:107020005B01D318DB799A0708D42A4B9A5D002AB2
:1070300038D1421E002835D0101CEEE7254B002227
:107040009A55251E3F2D00D93F25234AB301D31859
:10705000181C02992A1C039300F009FC194A7B01B1
:10706000D318039AA9045A619A69890C920B920366
:107070000A439A613B1C019A08335B01D318022230
:10708000DA715979802252420A435A71009B029A5E
:107090005B1952190093641B0292A6E700980BE05B
:1070A000012008E001229A557B01ED18AB69101C04
:1070B0009B0B9B03AB61404205B0F0BD78170020ED
:1070C0008814002074160020A400002040420F0005
:1070D00070110100C0120020C812002070B50E4DC2
:1070E0001C1C8B01ED18281C0E1C111C221C00F00E
:1070F000BEFBF6B20949760189194D618A69084BD0
:10710000201C13408B618B69A2049B0B920C9B0388
:1071100013438B6170BDC046C81200207416002056
:10712000FF3F00F0F7B5114B01901B780F1C141CAA
:10713000002B19D10E4B1E78002E01D1151C08E032
:107140000C4D0D482E888019361900F090FB2E80CA
:107150000AE0002D08D0BA192B1C01980021FFF776
:10716000BDFF36182D1AF4E7201CFEBD6A1600205C
:1071700068160020BE120020BD110020F8B50E1CBC
:1071800000AF151E012D28D9D31DDB08DB006A4690
:10719000D21A9546081C00F0EBFB01306C4640000B
:1071A0000323207063700222AA420ED23378002B90
:1071B0000BD0511CC9B20136A354A94204D00023FC
:1071C00002326354D2B2EFE72A1C0548211CFFF7B4
:1071D000A9FF431E9841C0B200E00020BD46F8BDA3
:1071E0006B16002008B5044B00221A70034B0449AB
:1071F0001A88FFF797FF08BD68160020BE1200200E
:10720000BD11002008B5002906D0054B01221A70D7
:10721000044B00221A8001E0FFF7E4FF08BDC046DE
:1072200068160020BE120020F0B5204A87B0012366
:107230000026009102A91370051C0296FFF712FCAC
:1072400003AC092701903A1C201C311C00F018FBEC
:1072500002236370A023E371FA232372029B0122AD
:10726000DB196380019B62712371104A009B2770B8
:107270001670BB4205D1281C211C1A1CFFF752FFB7
:1072800011E00B4B01221A700A4B211C3A1C281CDE
:107290001E800296FFF746FF281C02A9FFF7E2FBBB
:1072A000281CFFF79FFF012007B0F0BD6A160020E1
:1072B00068160020BE12002070B5CE7892B0051C72
:1072C0000C1C022E08D1C9882D48FFF7ADFF031C06
:1072D000581E8341D8B251E0FFF7A2F9211CFFF7F5
:1072E0003EF9002803D0C3171B1AD80F46E0012E21
:1072F00004D1E2882349112A3BD837E0032E3DD13F
:10730000A278002A05D12049E2880B7893422DD833
:107310002FE0022A03D1A279281C1C4904E0012A8B
:1073200005D1A2791A49281CFFF728FF26E0032A75
:1073300024D1184B01A91868FFF784F9164B03A94B
:107340001868FFF77FF9154B05A91868FFF77AF958
:10735000134B07A91868FFF775F9FFF761F909A939
:10736000FFF70DF9A279281C01A9DDE7D2B2002AA6
:1073700000D10A78281CFFF7D5FE012012B070BD9D
:107380006B160020608C00005C8C0000728C00008A
:10739000508C00000CA0800040A0800044A0800021
:1073A00048A0800073B5051C48780C1C0B2878D8C1
:1073B00000F040F9081C7728773E4306474B686F7A
:1073C00000206FE0097801AA002903D111705170E3
:1073D000281C09E0002313705370334B1B78012BDA
:1073E00000D11370281C002102234FE08A7800236B
:1073F000012A04D101AA137053702C4BEEE72A4ADC
:10740000137049E08E78012E07D1284B01AA002184
:107410001E701170281C331C38E0002E08D1224A3F
:1074200001231370224A9169890B8903916138E025
:10743000A178281CFFF7DEFB33E0281CFFF73CFF98
:1074400030E0281C00211B4A1FE00A780020D306E8
:1074500028D1281CFFF78CFCA2781549154B022473
:107460001A600A682A23FF33D05C2043D0544A2094
:10747000FF30145C01231C4314548A69920B92035D
:107480008A610EE00C4A281C00210123FFF726FE2A
:1074900007E08A78084B1A60054B9A69920B9203B1
:1074A0009A61012076BDC046BC11002069160020FB
:1074B00074160020781700206C160020F8B54B4B8E
:1074C000071C1C78002C00D08FE0494D2868838B66
:1074D00019070ED5201C211CFFF7C2F82B681020BD
:1074E0001A1CFF32917A01439172424A14600822B9
:1074F0009A832B689A8B50071FD504229A833E4BA0
:107500001A78002A0AD01A78013AD2B21A701B7877
:10751000002B03D11A200121FEF72CF9374B1A78E2
:10752000002A0AD01A78013AD2B21A701B78002BBE
:1075300003D119200121FEF71DF92B68FF331A7AB8
:10754000D10626D510221A725A7940210A432C49B5
:107550005A710A786023381C1A4202D1FFF722FFC1
:1075600001E0FFF76BFB002806D02B688022FF3379
:10757000997952420A4301E0224B20229A712B68EA
:10758000FF331A7A500604D540221A72597A0A43F8
:107590005A722968FE230E8C00241E40E1B2002E90
:1075A00023D0321C012322411A4216D0221C286803
:1075B000083252018218D079184203D1D279DA40C8
:1075C0001A4207D0104BA200D058002809D00368F7
:1075D0001B6898470123A3409E430134092CDDD149
:1075E00003E0381CFFF754FAF4E7F8BD68160020F2
:1075F00074160020781700208814002070160020D0
:107600008C140020FF5000414C16002008B50248A1
:10761000FFF754FF08BDC0466B160020014A024B1D
:107620001A607047005000417416002008B500F041
:1076300005F908BD02B4714649084900095C4900D2
:107640008E4402BC7047C046002934D0012300227A
:1076500010B488422CD301242407A14204D28142D1
:1076600002D209011B01F8E7E400A14204D28142E1
:1076700002D249005B00F8E7884201D3401A1A435E
:107680004C08A04202D3001B5C0822438C08A04295
:1076900002D3001B9C082243CC08A04202D3001B4B
:1076A000DC082243002803D01B0901D00909E3E7C5
:1076B000101C10BC7047002801D00020C04307B444
:1076C000024802A14018029003BDC046D900000044
:1076D0000029F0D003B5FFF7B9FF0EBC4243891A69
:1076E0001847C046002941D010B4041C4C40A446A1
:1076F00001230022002900D54942002800D540423C
:1077000088422CD301242407A14204D2814202D210
:1077100009011B01F8E7E400A14204D2814202D230
:1077200049005B00F8E7884201D3401A1A434C082D
:10773000A04202D3001B5C0822438C08A04202D363
:10774000001B9C082243CC08A04202D3001BDC088B
:107750002243002803D01B0901D00909E3E7101CCC
:107760006446002C00D5404210BC7047002806D06B
:1077700003DB0020C043400801E08020000607B47E
:10778000024802A14018029003BDC0461900000043
:107790000029EBD003B5FFF7A7FF0EBC4243891ABF
:1077A0001847C0467047C046D0400B1CD1409C468D
:1077B000203AD340184352426346934018437047DF
:1077C00008B5031C081C191C00F002F808BD0000D5
:1077D00038B5051C05480C1C131C002804D00220D9
:1077E000291C221C00E000BF38BDC046000000007C
:1077F00070B50E4B0E4D0024ED1AAD101E1CAC42A0
:1078000004D0A300F35898470134F8E700F0E8F8F3
:10781000084B094D0024ED1AAD101E1CAC4204D0DB
:10782000A300F35898470134F8E770BD9801002091
:1078300098010020980100200402002008B5034BA5
:10784000011C186800F024F808BDC046940100200F
:1078500030B50023934208D0C55C0133CC18013CFD
:107860002478A542F6D0281B00E0002030BD10B5DA
:107870000023934203D0CC5CC4540133F9E710BD1C
:10788000031C8218934202D019700133FAE7704743
:1078900070B50323CD1C9D430835061C0C2D01D269
:1078A0000C2501E0002D3FDB8D423DD3204B1C68B1
:1078B0001A1C211C002913D00868431B0DD40B2B64
:1078C00002D90B60CC181EE08C4202D163681360B1
:1078D0001AE0486860600C1C16E00C1C4968E9E777
:1078E000144C2068002803D1301C00F025F82060DB
:1078F000301C291C00F020F8431C15D0C41C0323A5
:107900009C4384420AD12560201C0B300722231D92
:107910009043C31A0BD05A42E25008E0211A301C9F
:1079200000F00AF80130EED10C233360002070BD66
:10793000801700207C17002038B5074C0023051C59
:10794000081C236000F032F8431C03D12368002B8D
:1079500000D02B6038BDC0468817002002780B7815
:1079600001300131002A01D09A42F7D0D01A704775
:107970000023C25C0133002AFBD1581E7047031C50
:10798000002010B582420FD01C780878A04201D1A7
:10799000012A03D118780B78C01A05E0013A0028B3
:1079A000F8D001330131EFE710BD0000094A136838
:1079B000002B0CD018186946884202D81060181C99
:1079C0007047054B0C2201201A604042F8E7034B38
:1079D0001360EFE784170020881700208C17002021
:1079E000F8B5C046F8BC08BC9E467047F8B5C0461E
:1079F000F8BC08BC9E46704729001E001F002000EE
:107A00002100220023000000000000432500260082
:107A100027002D002E004C002B0014001A00080037
:107A200015001700000000001E001C0018000C00CC
:107A3000120013002F002A0039000043160007002F
:107A400009000A000000000000000B000D000E00FD
:107A50000F00330034002800E1001D001B00060069
:107A600019000500000000000000000011001000D7
:107A7000360037003800E500E000E300E200014492
:107A80002C000043280000001E00040005002C000C
:107A9000E600E7007600E40029001E001F00200039
:107AA0002100220023000000000024002500260001
:107AB0002700040004004C002B00140052000800B2
:107AC00015001700000000001E001C0018000C002C
:107AD0001200130010002A00E000500051004F0077
