:10000000AAC0C4C0C3C0C2C0C1C0C0C0BFC0BEC0FF
:10001000BDC0B2C1BBC0BAC0B9C0B8C0B7C070C261
:10002000B5C0B4C0B3C0B7C109C121C122C140C16C
:100030003FC13EC123C13CC123C125C128C130C13C
:100040008FC161C16BC179C194C193C192C18AC191
:100050008BC18CC183C1FFFF000306090C0F121571
:10006000181B1E212427FFFF0104070A0D10131679
:10007000191C1F222528FFFF0205080B0E1114175B
:100080001A1D202326292A2D30FFFF3336393C3F05
:100090004245484B4E512B2E31FFFF34373A3D40FD
:1000A0004346494C4F522C2F32FFFF35383B3E41DF
:1000B00044474A4D505354575A5D6063FFFF666989
:1000C0006C6F7275787B55585B5E6164FFFF686B7F
:1000D0006E7174777A7D56595C5F6265FFFF676A5F
:1000E0006D707376797C7E8184878A8D909396FF7C
:1000F000FF999C9FA2A5808386898C8F929598FFFB
:10010000FF9B9EA1A4A77F8285888B8E919497FFE9
:10011000FF9A9DA0A3A6A8ABAEB1B4B7BABDC0C3A9
:10012000C6C9FFFFCCCFAAADB0B3B6B9BCBFC2C57C
:10013000C8CBFFFFCDD0A9ACAFB2B5B8BBBEC1C470
:10014000C7CAFFFFCED1FFFFFFFFFFFFFFFFFFFF8B
:10015000FFFFFFFFFFFF11241FBECFEFD2E0DEBF86
:10016000CDBF11E0A0E0B1E0EEE3F8E002C0059001
:100170000D92A035B107D9F722E0A0E5B1E001C0AA
:100180001D92A73DB207E1F72FD257C339CFE091B7
:100190009602E03470F49091950221E02E0F2093A6
:1001A0009602F0E0E90FF11DEF73FF27EB56FD4FCC
:1001B000828308958EBD0DB407FEFDCF0895CF93C1
:1001C000DF9300D0CDB7DEB72A98805E4A8369837B
:1001D000F1DF6981862FEEDF4A81842FEBDF2A9AD7
:1001E0000F900F90DF91CF91089580919602882310
:1001F00079F090919502E92FF0E0EB56FD4F2281C6
:100200008150809396029F5F9F7390939502822FF7
:1002100008950F931F93CF93DF93DC01EB01888147
:10022000882309F448C0E0916E024E2F50E04C3014
:100230005105F0F5FA01EC5EFF4F099480919602AA
:10024000811103C01C9281E035C08B01ED0181E07A
:100250008883CBDF8983C9DF8A83C7DF8B83C5DFD0
:100260008C83C3DF8D8386E0F801808324C083E024
:1002700019C0809188009091890014C084E012C058
:1002800080916D020FC080E2EDE4F2E003C080E2F5
:10029000EDE2F2E001900D928A95E1F780E204C070
:1002A0008CB182708C9381E0888310926E0203C0BF
:1002B00081E08C938883DF91CF911F910F910895F6
:1002C000CF93DF93EC01E8819E2F907F903889F4E3
:1002D0008E2F8F7090E068E170E09ED2DC01AB5A07
:1002E000BE4F98E1FE01319601900D929A95E1F78B
:1002F00040C04E2F50E0FA013197EB30F105C8F5C0
:10030000E05EFF4F0994623039F4898190E0909368
:100310008900809388002DC082E029C0643049F5AF
:10032000E5E5F1E089819A81AB8181939193A19375
:1003300082E0ED32F807B1F71CC06530D1F4898155
:1003400090E063E070E068D28B5A9E4F2A813B8137
:100350004C81FC012083318342830BC08BE007C0BA
:1003600081E005C088E003C089E001C08AE0809395
:100370006E02DF91CF9108951F920F920FB60F92E8
:1003800011248F9381E080930F018F910F900FBE06
:100390000F901F9018951F920F920FB60F92112475
:1003A0002F933F934F935F936F937F938F939F937D
:1003B000AF93BF93EF93FF938091B900883909F40D
:1003C00083C0C0F4883709F45CC050F4883609F45F
:1003D00058C0803709F455C0803609F079C051C043
:1003E000883809F471C0803909F44EC0803809F0AA
:1003F0006FC04AC0883B91F158F4883A99F0803B2D
:1004000089F0803A09F064C085ED8093BC004BC050
:10041000883C09F457C0883F09F461C0803C09F06A
:1004200057C050C010929402E0919202F091930252
:10043000309749F080E28093910261E972E081E7B0
:1004400092E0099502C0109291028091910281116F
:1004500005C081E08093910210927102E0919402B4
:1004600081E08E0F80939402F0E0EF58FD4F808181
:100470008093BB009091940280919102981720F58F
:1004800021C0109294021EC0E0919402E032E0F488
:1004900081E08E0F809394028091BB00F0E0EF58D2
:1004A000FD4F80830FC08091BC0084FDFCCFE091A4
:1004B0006F02F0917002309729F06091940281E709
:1004C00092E0099585EC01C085E88093BC0007C0E7
:1004D00085ED8093BC008091BC0084FDFCCFFF9132
:1004E000EF91BF91AF919F918F917F916F915F91AC
:1004F0004F913F912F910F900FBE0F901F90189525
:100500001F920F920FB60F9211248F939F93EF9328
:10051000FF9380915301909154018130910599F09E
:1005200048F082309105C1F0039709F050C01EBC1D
:100530002A9A4DC02A98000080915201805E8EBD9B
:1005400081E090E004C080E28EBD82E090E0909374
:100550005401809353013FC0E091520180915101B9
:10056000F0E0F695FE2FEE27F795E795E80FF11DE1
:10057000EA5AFF4FE491E0935001809150018F3F80
:1005800011F41EBC07C0E0915001F0E0EB5AFE4FA1
:1005900080818EBD809151018F5F80935101809148
:1005A00051018038C1F483E090E09093540180932E
:1005B000530110925101809152018F5F809352013B
:1005C00080915201823039F41092520104C010928D
:1005D000540110925301FF91EF919F918F910F90D1
:1005E0000FBE0F901F9018958CE684B92E9A2A9A08
:1005F0002A9A8FEC97E00197F1F700C0000083E59D
:100600008CBD9DB581E089278DBD40E06AE08BE01F
:10061000D6DD2A988BEACEDD8BE1CCDD80E0CADD29
:100620002A9A8EB580936D0240E060E08BE0C7DDD2
:1006300040E161E08BE0C3DD41E06EE08BE0BFDDD7
:1006400047E064E18BE0BBDD40E465E18BE0B7DDD2
:100650002A988DE2AFDD80E0ADDDC0E1D1E0899187
:10066000A9DD91E0C035D907D1F72A9A4FEB6FE0A9
:100670008BE0A5DDC0E240E06C2F80E0A0DDCF5F25
:10068000CF39C9F7C0E240E06C2F81E098DDCF5F41
:10069000CF39C9F7C0E04FEF6C2F80E090DDCF5F1E
:1006A000CF30C9F7C0E04FEF6C2F81E088DDCF5F1E
:1006B000CF30C9F741E06AE08BE081DD8CB580681E
:1006C0008CBD789487B18F6887B988B18F6888B9F5
:1006D0001AB89FEF9BB9809181008C608093810054
:1006E00010928500109284002FE030E03093890052
:1006F0002093880080916F00826080936F007894CF
:1007000020E631E03093700220936F0229E031E05F
:10071000309393022093920284B1836084B920982D
:1007200021982898299886EB8093BA009093BB0073
:100730008091B9008E7F8093B9008091B9008D7F40
:100740008093B90085EC8093BC007894399A6998BD
:10075000719AEE24E394F12C80910F018823E1F348
:10076000E2E0F1E0A0E0B1E040E050E070E030E035
:10077000343011F447980BC098B18701042E01C0A2
:10078000000F0A94EAF7802F8095892388B900002A
:1007900089B1343011F4479A09C098B18701042E09
:1007A00001C0000F0A94EAF7092B08B96081862777
:1007B0002C91EF019A9192279823988320952823D2
:1007C0002C93209528239095822F89236827608376
:1007D000780F3F5F4F5F5F4F33961396353041F68A
:1007E000711103C010920F01B7CFF89480910201EC
:1007F0008095CDDC809105018095C9DC8091080150
:100800008095C5DC80910B018095C1DC80910E0143
:100810008095BDDC7894A0CF0024552704C0080E35
:10082000591F880F991F009729F076956795B8F39F
:0E0830007105B9F7802D952F0895F894FFCF2C
:10083E000000FF0000FF0000FF0000FF0000FF01AE
:10084E005055555500000000000000001554555538
:10085E000000000000000000550555550000000086
:10086E00000000005555415500000000000000003A
:10087E00555555500000000000000000000000001B
:00000001FF
