:1020000000800020F58A0000DD8A0000DD8A0000E3
:1020100000000000000000000000000000000000C0
:10202000000000000000000000000000DD8A000049
:102030000000000000000000DD8A0000498B000065
:10204000DD8A0000DD8A0000E16A0000DD8A000010
:10205000DD8A0000DD8A0000DD8A0000E18A0000E0
:10206000DD8A0000AD6C0000DD8A0000DD8A000022
:10207000816A0000DD8A0000BD6C0000DD8A00007E
:10208000DD8A0000DD8A0000DD8A0000DD8A0000B4
:1020900000000000DD8A0000DD8A0000DD8A00000B
:1020A000DD8A0000DD8A0000DD8A0000DD8A000094
:1020B0000000000010B5064C2378002B07D1054B1B
:1020C000002B02D0044800E000BF0123237010BDA4
:1020D000600D002000000000E4CA000008B5084BB5
:1020E000002B03D00748084900E000BF07480368F9
:1020F000002B03D0064B002B00D0984708BDC046EC
:1021000000000000E4CA0000640D0020540D00200F
:10211000000000007047704770477047002802D0E9
:10212000014B416003607047C89A0000002802D04C
:10213000024B416003600A707047C046009900007E
:1021400070B5041C0D1C161C002801D001F04CFBBE
:102150002E70201C70BD0000002809D0054B012204
:102160000360002303818381FF23416082728373B4
:102170007047C046B09A0000002809D0054B0122E4
:102180000360002303818381FF2341608272837394
:102190007047C046989A000010B500280CD1032360
:1021A0001940022908D1054C0549201C01F000FF07
:1021B000201C044901F0FCFE002010BD93100020FB
:1021C00084980000A098000008B5084800F08EFD33
:1021D000074800F02FFC074801F05AFC064804F0BD
:1021E0004FF9064801F024F8002008BD3410002003
:1021F000301000207E1000202034002068100020C5
:1022000008B5044800F016FE034800F0B5FF0020B2
:1022100008BDC046341000206810002008B50248F0
:1022200000F0A8FB002008BD2A10002008B50648D1
:1022300001F002FF054801F087FB054804F056F95C
:10224000044800F05BFF08BD931000207E100020C2
:10225000203400206010002008B5024801F0E6FE9E
:10226000002008BD931000200920704708B50B1C02
:102270000349C00009180822181C07F056F908BDC8
:10228000AE98000008B5024803681B68984708BD6F
:102290002034002070B50F4800F052F90A2000F0F9
:1022A000E7FB0D480A2100F055FB0C48FF2101F027
:1022B000ABFD0B48FF2101F0A9FD0A4D01262B685B
:1022C000094C334203D1201C01F0BAFA2E60074BAF
:1022D0001C6070BD2E0F00202A1000208A100020E4
:1022E0008E100020E40D0020DC0D00207410002072
:1022F00008B5024800F00CF908BDC0462E0F0020BA
:10230000F7B51D1C161C0F1C0A782978041C0091B7
:1023100033781348211C01F067FE01281ED029786C
:102320003A78337800910F48211C01F091FB012885
:1023300014D029783A78337800910B48211C01F0A9
:1023400063FA01280AD029783A783378009107484F
:10235000211C00F035FF013843425841FEBDC04604
:10236000931000207E1000207010002068100020C4
:1023700073B5151C1E1C0C1C6A4669466B4607315A
:102380000632053315701E700C70FFF7B9FF76BD6D
:1023900010B5041C21681D4800F0C8FB012833D08B
:1023A0001B48216800F052FD01282DD019482168F2
:1023B00000F0C6FD012827D01748216801F0AAFBCC
:1023C000012821D01548216801F08AF801281BD086
:1023D0001348216804F000F9012815D0114821683C
:1023E00000F0D8FA01280FD00F48216800F060FFF4
:1023F000012809D00D48216802F006FB012803D00E
:1024000021680B4800F04EFE10BDC0463010002081
:102410003C1000203B100020881000206C10002091
:10242000203400202A10002068100020FF12002015
:102430006010002007B5019001A8FFF7A9FF0EBDAD
:1024400070B52B4D2B4E2024281C311C221C07F06C
:102450006CF831192819221C07F067F8281C311C68
:10246000221C4031403007F060F8281C311C221C2F
:102470006031603007F059F81F4E281C311C221CB7
:10248000803007F052F8281C3119221CA03007F0C8
:102490004CF8281C311C221C4031C03007F045F894
:1024A000281C311C221C6031E03007F03EF8134E2E
:1024B000681C311C221CFF3007F037F890235B00AA
:1024C000E8183119221C07F030F80D49FF230022CB
:1024D0004A708A700B700B490A704A708B700A49F7
:1024E0000A708A70094A4B7013705370937070BDF4
:1024F000EE0D002044970000C497000044980000AF
:10250000E80D0020E00D0020D80D0020EB0D00208C
:1025100008B506F027FB084B1860FFF771FE074867
:1025200002F02EF8FFF782FE03F05AF903F0FEF8EE
:10253000FFF792FE08BDC046300F0020B810002003
:10254000962138B58901124806F084F8FFF73CFE61
:10255000104802F09DF903F05FF803F085F903F0ED
:1025600095F9FF2100200A1C002300F015F800F067
:10257000EBF800250024211C0134281CE4B200F0F3
:10258000ABF8102CF7D10135EDB2052DF2D138BDE5
:1025900060360020B8100020F7B501AF38800E1C5F
:1025A000151C1C1C04292FD80F2A2DD803232340C7
:1025B0000093022B10D183B2002B03D0A20901217A
:1025C0000A4204D0301C291C00F086F804E03101D6
:1025D0004919394A49008B523848311C2A1C01F0EC
:1025E000F5FF002807D00098012864D13348311C3A
:1025F0002A1C01F0D3FF3B88002B05D13201521970
:102600002D4B5200D35A3B80381C311C2A1C231CF2
:10261000FFF7AEFE00284ED12A1C3888311C231C3F
:1026200000F061F985B23880FF22002D43D06B465F
:1026300005331B78402119401FD01902154058B2AC
:102640000D43002837DB1E0707D5A00733D51540FB
:10265000081C284303F010F92DE0012003422AD082
:10266000A30728D4044226D015400D43281C03F0AC
:1026700015F9281C03F01AF91DE003202040022858
:1026800005D12A401B02101C1843012105E0A607B2
:1026900006D52A401B02101C184302F0FBFF0AE07B
:1026A000012808D164B2002C05DA2A401B02101C54
:1026B000184303F055F8F7BD8A0F0020B81000202A
:1026C00005235843411809015118024B4900585A33
:1026D0007047C046EE0D002038B50A1C031C0101EE
:1026E000054889184C00085C04490D68191CA84766
:1026F000034BE05238BDC046380F002008000020D0
:102700008A0F0020084B094A1B781268013BDBB294
:10271000002B06D0111CD940C80702D4013BDBB204
:10272000F6E7034A1370704704000020340F0020BE
:10273000880F0020034B1B68C340181C012318405E
:102740007047C046340F0020F7B5184C0021201CFC
:10275000502206F0F3FE0025EBB2144A00932B0141
:10276000D31801930024124BE7B21E7873B2002BEA
:1027700015DDF6B2301CFFF7DDFF00280CD00D4B45
:10278000301C1B6800993A1C98470B4B80B298424A
:1027900002D0019A165502E0013EF6B2E6E7013496
:1027A000102CE0D10135052DD6D1F7BD380F002012
:1027B000880F002008000020FFFF00000A4B10B522
:1027C0001A680121141CC4400C420CD081408A4379
:1027D0001A60064B1B78834201D1FFF793FFFFF786
:1027E000B3FFFFF71BFD10BD340F0020880F002042
:1027F00010B50D4B041C1B78834213D9FFF79AFFC9
:1028000000280FD1094B01221968A2400A431A601F
:10281000074B1B78A34201D2FFF774FFFFF794FF29
:10282000FFF7FCFC10BDC04604000020340F002060
:10283000880F002008B5034B00221A60FFF7D8FF6D
:1028400008BDC046340F002008B5034B187801308E
:10285000C0B2FFF7CDFF08BD880F002008B5024BBE
:102860001878FFF7ABFF08BD880F002010B5C4B281
:10287000292C25D92A3CE4B2212C0DD0222C12D1AE
:1028800003231940022902D1FFF7DEFF2AE00129C4
:1028900028D1FFF7E3FF25E0032319400229F8D0F0
:1028A00001291FD1F0E78B0705D5201CFFF742FF58
:1028B000002817D113E003231940012912D10AE09F
:1028C0000323194002290DD1201CFFF733FF0028F4
:1028D00005D0002C03D0201CFFF770FF02E0201C65
:1028E000FFF786FF10BD020408B5120E442A03D17B
:1028F000191CFFF7BBFF002008BD000008B5064B00
:102900001978064B1970064B1B788B4203D3054B85
:10291000188800F0A3FD08BD880F00202E100020AD
:102920002B1000202C10002010B5131C064A0C1C84
:102930001178064A12788A4204D3054A1088221C6C
:1029400000F0A6FD10BDC0462E1000202B10002068
:102950002C10002010B5054C2388002B05D1044B0A
:10296000081C197000F018FD208010BD2C100020EC
:102970002B10002008B5054B1A7803789A4203D132
:10298000034B1868FFF7BAFF002008BD7C10002039
:102990008410002007B5054A054B12781B880548AE
:1029A0000092054A00F016FE0EBDC0462B10002016
:1029B0002C1000206C10002010990000014BFF2209
:1029C0001A7070472A100020F8B50F4B1B7883420D
:1029D00001D8002017E0052545436D180B4E2D0149
:1029E000AD180B4C31886D00ADB24919201C02F0B6
:1029F00095FF3188071C4D19691C201C02F08EFFC1
:102A00003F02C0B23843F8BD311000203210002020
:102A10001C13002008B5064B1B78984202D2FFF722
:102A20004FFE03E0C01AC0B2FFF7CEFF08BDC0469C
:102A30002F10002008B5044800F058F9034B00207F
:102A40001A78034B1A7008BD3410002004000020CF
:102A50002F10002008B5044B1870A023584300F035
:102A600019F9024B188008BD3110002032100020E7
:102A700008B5094B094A19781070C909084B01D0EB
:102A8000084A04E00849097841181170074A1A6099
:102A9000FFF7E0FF08BDC04636100020040000200C
:102AA00008000020C92900002F100020152A00006E
:102AB000F8B5094F0D1C094C398846002A048919BC
:102AC000201C120E02F036FF3988EAB28E19711CF2
:102AD000201C02F02FFFF8BD321000201C13002034
:102AE000F7B5002500900191009B9D421BD000246A
:102AF0000026321C019B211C281C98470A4F81B2DA
:102B00000A22381C013604F0C2F9F6B2381C202122
:102B100004F056F9102EECD10134E4B2052CE7D1C3
:102B20000135EDB2E0E7F7BDF03A002038B53C489A
:102B30003C4A0D1C00F0A2FA0024A0426ED1281CD1
:102B40003949072206F0C1FDA04267D10735281C8C
:102B5000364906F0A9FDA0422AD1354D281C04F0C3
:102B60005FFC021E0A2A0AD1324B281C1978C909B7
:102B700004F0A5F9281C202104F022F94DE0211CC5
:102B80000122281C04F0FAFBC4B2201C00F00EF94C
:102B9000294B2A4A19782A4B1170002C01D0294A56
:102BA00004E02948007809181170284A1A6034E0B6
:102BB000281C274906F078FD002803D1224B25491F
:102BC00018780EE0281C244906F06EFD002825D157
:102BD000174D281C04F024FC0A2816D1164B19495D
:102BE0001878FFF77DFF18E0134B50221B785343F2
:102BF0009C420FDA00210122281C04F0BFFB011CBB
:102C0000201CFFF755FF0134A4B2281C04F008FC77
:102C10000A28E9D1114802F0A5FE0124201C38BD84
:102C2000601000201D9900004C990000419900009F
:102C3000F03A00203610002031100020040000205F
:102C400008000020C92900002F100020152A0000CC
:102C500054990000C12600005C9900001C1300205C
:102C600010B5054C011C0A22201C04F028F9201C78
:102C7000202104F0A5F810BDF03A0020034B0020FD
:102C80001B78834201D0024B5888704735100020D2
:102C90003610002013B5094B694606311B780880B1
:102CA0000020834209D1064B0A881C880548A218D7
:102CB0001A80022200F0BAF9201C16BD351000203F
:102CC0000C0000203E100020F8B5071C0D1C0E1D46
:102CD0000C1C791B091922780348013402F03EFECE
:102CE000B442F6D1F8BDC0461C13002038B500210F
:102CF000114D4C1C281C02F011FE10490B19013B10
:102D00001870042C01D0211CF2E74B78FF2B10D156
:102D10000B785A06520E7F2A03D1DB0901D000231B
:102D20000B70012300204B70FFF7CEFF281C02F030
:102D300019FE002038BDC0461C13002036100020AC
:102D400008B505490020FFF7BFFF044802F00AFE5E
:102D5000034B01221A7008BD361000201C130020FE
:102D60003A10002038B50F4B051C1B780E4C8342DF
:102D700009D9FFF75FFD21787F232A1C99431A4068
:102D80000B1C134323707D2D05D923787F22934399
:102D90007E2213432370FFF7D3FF20784006400EB6
:102DA00038BDC046040000203610002008B5094B8D
:102DB000C20118787F21084010431870C0B2420643
:102DC000520E8A4203D190437E2210431870FFF7BF
:102DD000B7FF08BD3610002038B5114D114B012248
:102DE000281C10211A7000F00DF90F4C6378012B8C
:102DF00003D00E4B00221A7011E063880C492A8818
:102E00008B4203D16280FFF79BFF01E09A4206D11B
:102E100020784006400E7D2801DCFFF70BFD38BD11
:102E20003E10002035100020361000203A100020FF
:102E3000FFFF000008B5044B1B78002B01D1FFF702
:102E4000CBFF002008BDC0463510002070B53048CB
:102E5000304A0D1C00F012F90024A04256D1281C63
:102E60002D49092206F031FCA0424FD10935281C1A
:102E70002A4906F019FCA04226D0281C284906F051
:102E800013FCA04234D0281C264906F00DFCA042B9
:102E900037D0281C244906F007FCA04236D1234B2A
:102EA0001E88FFF7EBFE224C051C311C0A22201C59
:102EB00003F0EDFF201C1F4903F07AFF201C291CA2
:102EC0000A2203F0E4FF20E0194D281C04F0A8FAC0
:102ED0000A2804D1184B18784006400E13E0281C2D
:102EE000211C012204F04AFAC0B2FFF73BFF0CE0BC
:102EF000124B187800F0DEF820210D4803F060FF37
:102F000003E00D4B5878FFF7ABFE0124201C70BD89
:102F10006010002063990000A7990000B19900009B
:102F2000BE990000B6A00000A39900003E1000204A
:102F3000F03A0020C5990000361000203A10002019
:102F4000F8B52948294A0D1C00F098F80024A04241
:102F500047D1281C264906F0A7FB061EA64214D01E
:102F6000281C244906F0A0FBA0423AD1224B234C56
:102F70001B8880218901C91A201C0A2203F087FFBF
:102F8000201C202103F01CFF2AE01C4F341C381C9D
:102F900004F046FA1A4D0A281AD1211C281C02F006
:102FA000BDFCFFF75DFE013480239B019C42F4D100
:102FB00016E000210122381C04F0E0F9211CC2B205
:102FC000281C02F0B7FC013480239B019C4204D0F2
:102FD000381C04F025FA0A28EBD1281C02F0C2FCA8
:102FE0000124201CF8BDC04660100020C7990000D5
:102FF000E3990000D79900000C000020F03A00206F
:103000001C13002030B50388012213408A420AD2E3
:1030100004880125641004805B002C40234352196E
:103020009BB2D2B2F2E7038030BD0000F7B5013A9F
:10303000D2B2FF2A18D00B78012401930823068806
:10304000019FF50B274201D001277D407600B6B2E3
:10305000002D01D0054D6E406400013B0680E4B2B6
:10306000002BECD10131E2E7F7BDC0460580FFFF40
:10307000014B00221A8070473E10002010B5081C3A
:103080000649141C06F010FB0023984204D10448A2
:10309000211C03F0A3FE0123181C10BDF3990000AE
:1030A000F03A002008B5024AFFF7E8FF002008BD0B
:1030B000F399000008B5002801D0034900E0034956
:1030C000034803F075FE08BDF8990000FD99000063
:1030D000F03A002010B5084C201C04F087F90028B5
:1030E00008D0201C04F09CF90A2803D0201C04F00E
:1030F000A5F9F6E710BDC046F03A0020F7B51B4D24
:103100000024281C04F072F9A0422DD0631C281C56
:103110000193DEB204F092F9154FE055281C04F03B
:103120007FF93B1C0A2806D03A5D202A03D0019C77
:10313000202CEBD1261C711E585C0022202801D1C6
:103140005A5400E09A55181CFFF774F90949281CD5
:1031500003F044FEFFF7BEFF281C04F061F90A28C3
:1031600002D1281C04F06AF90020FEBDF03A0020CC
:1031700040100020039A000013B50D4C2378002B5B
:1031800014D10C4A1288002A10D00B4A11680B4A3D
:10319000126891420AD301AA137053709370019878
:1031A00000F08AFB00F0C2FB01232370002016BD53
:1031B000781000200E000020300F00206410002046
:1031C00007B50F4A1378002B0DD00023137001AA06
:1031D000137053709370019800F06EFB094B1868E0
:1031E00003685B689847084BFA221B8892005A4391
:1031F000064B00201B68D218054B1A600EBDC04656
:1032000078100020841000200E000020300F0020D5
:103210006410002070B5051C0E1C141C127802F0FE
:103220009DFB281C711C627802F098FB201C70BD6D
:10323000F7B50220FFF72EFD184C194F061C311C64
:103240003880201C02F06AFB6D46A871711C201C9E
:1032500002F064FBE871EE88124B134D9E4207D1D9
:103260003988201C2A1CFFF7D5FF201C02F07AFBAE
:103270003F88201C391C02F051FB791C2870201C4F
:1032800002F04CFB687005F06DFCFA239B005E4376
:10329000064B86191E600020FEBDC0461C13002090
:1032A0006A100020FFFF00000E00002064100020C4
:1032B00070B51F481F4A0C1CFFF7E0FE061C0020DB
:1032C000864233D1201C1C49092206F0FEF9051C58
:1032D000301C002D2AD1201C0930184906F0E4F9D1
:1032E000061C281C002E21D1154C201C04F098F837
:1032F000144D021E0A2A08D12988201C03F0C7FD9C
:10330000201C202103F05CFD05E0201C311C012263
:1033100004F034F828800C4C0C4B2A1C1988201C13
:10332000FFF778FF201C02F01DFB012070BDC04696
:1033300060100020079A00001E9A0000109A0000FA
:10334000F03A00200E0000201C1300206A1000201C
:1033500010B5054C011C0A22201C03F0B0FD201CF6
:10336000202103F02DFD10BDF03A0020084B07B5D9
:103370001B78002B0BD101AA137053709370019826
:1033800000F09AFA034B186803685B68984707BD1A
:10339000781000208410002038B5074C051C2388C5
:1033A000002B03D13020FFF775FC208042206843BA
:1033B000FFF770FC38BDC0466E10002010B50C1C25
:1033C00049084118054802F0A9FA031C0011C0B2CF
:1033D000E20701D50F20184010BDC0461C13002085
:1033E00037B503254543104B00241B88ED18ADB2BB
:1033F00061190E4802F092FA6A46A0540134032C77
:10340000F6D113789178DB4313705378DB43537014
:103410001288FF23101C120A184012028B431B044F
:10342000104318433EBDC0466E1000201C13002000
:1034300007B5FFF7C3FFFFF7D3FFFF23010A021C05
:1034400019401A4009021143000C034A0340081CAA
:103450001B04104018430EBDFFFF00FF37B5422587
:103460004D434519ADB20024211C281CFFF7E0FF95
:1034700001AB1870020A000C98705A70E0B2013467
:103480000199A4B200F00EFA842CEDD137BD0000F2
:1034900037B542254D43111C45191A1C094800F047
:1034A0003BFFADB2041C211C281CFFF7C1FF01AB80
:1034B000020C010A187059709A70201C019900F0D2
:1034C000F1F937BDB810002008B5044803F0A8FF93
:1034D0000A3843425841C0B208BDC046F03A002005
:1034E000F0B5374C85B03748221C0E1CFFF7C6FDDF
:1034F000051C0020854260D1211C301C06F0D4F848
:10350000041C281C002C58D1FFF7DEFF051E28D014
:10351000201CFFF765FF03AA031C107000041902AA
:10352000000E090E5070C5B2D8B2CEB291700134FF
:10353000FFF70EFF281CFFF70BFFE4B2301CFFF76C
:1035400007FF102CE4D137E0009A381CA118325D37
:10355000013402F003FA032CF6D10335ADB2302D5D
:1035600025D0FFF7B1FF184F041E20D1174E211CA4
:10357000301C012203F002FF211C00900122301CAC
:1035800003F0FCFE01220190211C301C03F0F6FE2A
:10359000009A03AED343019A3370D34373700C4B3C
:1035A000C0431B88B070EB189BB20093CCE7381C6B
:1035B00002F0D8F9FFF7DAFE012005B0F0BDC046F1
:1035C000289A0000601000201C130020F03A002010
:1035D0006E100020F0B585B002932F480AAB0E1C88
:1035E000141C1F78FFF74AFD051C0020854251D1AD
:1035F000211C301C06F058F8041C281C002C49D152
:1036000042237B430193FFF75FFF00281BD0019A01
:10361000A3B293423DD2029A2048A11802F07EF94B
:10362000061C0011C0B2FFF793FE1D4DF023311CA4
:1036300099430A22281C03F02AFC281C202103F0AD
:10364000BFFB0134E3E7041CFFF73EFF134E051EEA
:103650001AD1019AA3B2934216D2114F291C01220A
:10366000381C03F08BFE291C03900122381C03F048
:1036700085FE029BE118039B01341A011218D2B295
:10368000301C02F057F9DFE7301C02F06BF9FFF74E
:103690006DFE012005B0F0BD601000201C1300205D
:1036A000F03A0020F0B5087885B00C1CE0280CD961
:1036B000FF22101A111C80B200F0F4FA6A460104CD
:1036C000030C9372C5B2090E1DE0FF210A1C1E20D7
:1036D00000F0E8FA07043F0E01972778030CC0B208
:1036E0007843154E6A469372FF25B04203D0291CD9
:1036F00005F04CFEC5B20198FF217843B04202D0DC
:1037000005F044FEC1B22378E02B01D9013B08E06B
:103710003F2B01D9103B04E01F2B01D9203B00E0D7
:10372000002323706B46987A1D7259721B8900041E
:10373000184305B0F0BDC04601FE0000F0B5264BB1
:1037400085B01B68061C002B43D0244B1A680389E4
:10375000D31A234A9BB212889A423AD8071C0025F2
:1037600000243B19694600939B7AE2B20B31019227
:103770000B70002B0FD0184B186803681B68984714
:1037800003AB020A1870000C98705A70281C01993B
:10379000039A00F0A7F86B460B331B78009A9372DC
:1037A000002B0BD10F4B281C5A7819789B781202EA
:1037B0000A431B041A43019900F094F80134102CB9
:1037C000CFD10135EDB21037052DC9D1034B1B68A0
:1037D000338105B0F0BDC04674100020300F0020CA
:1037E000100000207110002010B5064B4160083316
:1037F0000021041C0360018150220A3005F09EFE66
:10380000201C10BD409A000010B502A90978042AB6
:103810000FD80F2B0DD8084C00782478844208D19B
:10382000880706D50549120109688A18D318FF22AE
:103830009A72002010BDC0467C1000208410002029
:10384000014B083303607047309A0000014BFF22A0
:103850001A7070477010002038B50A4D041C002102
:10386000281C012203F08AFD002120700122281C5F
:1038700003F084FD002160700122281C03F07EFD0E
:10388000A07038BDF03A002010B5054C011C0A228A
:10389000201C03F014FB201C202103F091FA10BD22
:1038A000F03A002007B5031C0A1C0248191C00F05E
:1038B000B5FC07BDB810002013B500240190201CF2
:1038C00001340199E4B2FFF7EDFF842CF7D113BD69
:1038D00007B501AB187059709A700198FFF7ECFFAB
:1038E00007BD000037B5051C0C1C131C291C024821
:1038F000221C00F005FD37BDB810002007B5011CE3
:10390000084800F011FDFF23010A021C19401A406B
:1039100009021143000C044A0340081C1B04104018
:1039200018430EBDB8100020FFFF00FF08B5044B80
:103930001B78002B02D1034800F026FD08BDC046CD
:1039400078100020B810002038B50D4B1B78002BE4
:1039500014D10C4B0C4C1A680C4D2388D31A2A88AE
:103960009BB29A420AD2FFF7E1FF23882A88D31834
:103970002380074B186803689B689847002038BD70
:1039800078100020300F002080100020120000204E
:103990008410002010B5141C127801F0DFFF201CE9
:1039A00010BD000073B5124B1B7883421ED9114E17
:1039B000307000F073FB104B104D114C19882060D3
:1039C000321C281CFFF7E6FF281C01F0CBFF0D4B33
:1039D0001B78002B0AD101AA1370537093700198C1
:1039E000FFF76AFF206803685B68984773BDC046AD
:1039F0007D1000207C1000207A1000201C13002075
:103A0000841000207810002008B5064B187801308B
:103A1000C0B21870044B1B78834200D80020FFF717
:103A2000C1FF08BD7C1000207D10002008B5064BAA
:103A30001A78002A01D1054A1278013A1A701878CA
:103A4000FFF7B0FF08BDC0467C1000207D100020AD
:103A500010B502AB1A784B780020432B16D1032304
:103A60001340022B01D0012010E00B888622D201E6
:103A70000124934202D1FFF7C7FFF4E7FF21214061
:103A80000A439342EFD1FFF7D1FF201C10BD000085
:103A900073B5002201AB1A705A709A700198FFF743
:103AA0000BFFFEF7EFFB05F05DF8114B1B88C0180C
:103AB000104B18800120FFF7EDF80F4E0F4C011C42
:103AC0003080201C01F02AFF0D4DFF2807D13188DE
:103AD000201C2A1CFFF75EFF201C01F043FF3188E9
:103AE000201C01F01BFF2870FFF75CFF002076BD53
:103AF00012000020801000207A1000201C130020EB
:103B00007C10002008B5FEF7AFFB014B187008BD14
:103B10007D10002073B55A4A5A480D1CFFF7AEFAC3
:103B20000024A04200D0A8E0281C5749042205F038
:103B3000CCFDA04200D0A0E00435281C534905F07C
:103B4000B3FDA04235D0281C514905F0ADFDA0427F
:103B500000D18BE0281C4F4905F0A6FDA04207D0FC
:103B6000281C4D4905F0A0FD051EA5424BD084E060
:103B70004A4D281C03F054FCC3B20A2B04D1484B15
:103B80001878FFF781FE77E06E2B02D1FFF73CFF3C
:103B900072E0702B02D1FFF749FF6DE0281C211C59
:103BA000012203F0EBFB3E4BC0B21870FFF7FAFEA8
:103BB00062E03A4E211C0122301C03F0DFFBC5B24B
:103BC000301C03F02DFC01AC0A2814D1281CFFF78F
:103BD00095FE031C20700004000E1A02120E607085
:103BE000C5B2D8B2A270D4B2FFF74EFE281CFFF7C0
:103BF0004BFE201CC5E7201CFFF72EFE281C019958
:103C0000FFF750FE38E0254C201C03F009FC0A2881
:103C10000FD0201C03F004FC0A282DD001A8EDB21F
:103C2000FFF71AFE281C01990135FFF73BFEEDB2A4
:103C3000EFE72C1C201CFFF761FE01AA031C10708B
:103C400000041902000E090E5070C5B2D8B2CEB2EF
:103C500091700134FFF718FE281CFFF715FEE4B23F
:103C6000301CFFF711FE842CE4D105E001A8FFF71A
:103C7000F3FD0198FFF720FE0124201C76BDC0460D
:103C8000589A000060100020C7A000007D9A000034
:103C9000809A0000879A0000779A0000F03A00208E
:103CA0007C100020F0B585B0D3B203AC002903D15D
:103CB0006A462370537337E0FF26771A062545437B
:103CC000574328123F1201970702ED1BADB2AC46D5
:103CD0006746F71B4D4379432D120912751B761A5F
:103CE0005543564301992D123612CAB2042815D8ED
:103CF00005F0F4FA03060A0E1100181CF1B201E0F7
:103D0000E8B2191C131C0CE0191C101CF3B208E0DB
:103D1000101CE9B205E0F0B2111C02E0181C111CE5
:103D2000EBB26A46207051736A46937362782078CA
:103D3000A37812021B041043184305B0F0BD000025
:103D400013B5114B81891A884368041C511A1888CD
:103D500089B2884216D8A2819A782089A17BFFF780
:103D6000A1FF01AB1870020A000C5A709870A27A79
:103D70002389D3189BB2FE2B00D9FF3B23810198E6
:103D8000FFF79AFD13BDC046300F002037B51C4B1E
:103D90008289041C1B8840689A1A018892B2914259
:103DA0002CD8A38100252389A8080001C01880B25F
:103DB000FF235B00984202D91249401880B2FE28C6
:103DC00001D9FF3880B26368A17B9A78FFF76AFF58
:103DD00001AB1870020A000C98705A70281C01354B
:103DE0000199EDB2FFF75EFD842DDCD1A27A238923
:103DF000D3189BB2FE2B00D9FF3B238137BDC046B1
:103E0000300F002001FEFFFF817070478170704706
:103E1000044B2821322219809A70034B19809A7022
:103E20007047C0468A1000208E10002008B54368F5
:103E3000187859789A78FFF74BFD08BD13B5446898
:103E400001AB2078187060785870A0789870081CC2
:103E5000111C019AFFF746FD13BD80230B43FF2180
:103E600010B5141C0A1CFEF797FB002C03D101F0BF
:103E7000B7FC01F023FD10BD70B50D020221161C28
:103E80001C1C05430A4203D0281C1A1CFFF7E5FF3F
:103E900001210E4203D0281C221CFFF7DEFF70BD5B
:103EA00070B5002944D000252E1C08784C1C013820
:103EB0000A283DD805F012FA0D1015191D23282ED9
:103EC0000636080001252EE001F08AFC01F0F6FC20
:103ED00029E08C1C4E7826E048788C1C04F048FEC3
:103EE00021E0CC1C887849780CE0CC1C8878497893
:103EF0000DE0CC1C88780322497800230FE08C1C4D
:103F000048780021022203E08C1C4878002101221D
:103F10002B1C04E08C1C4878002103220B1CFFF7AB
:103F2000ABFF00E00025301C04F022FE211CBCE7A2
:103F300070BD00000020402914D83A292BD2202936
:103F400023D00BD80A291ED004D808292DD3081C49
:103F500022301EE01B2928D1292026E0302916D83E
:103F600021391FE0602908D85B2916D2081C3D388A
:103F70008023C0B21B01184317E07A290FD97E298C
:103F800013D85E390EE028200FE02C200DE0081C2D
:103F90001338C0B209E02A3904E0443902E0081CB1
:103FA0005D38F6E7014B4900585A7047D89A00002F
:103FB00070B5061C0D1C2978002912D0301CFFF7A3
:103FC000B9FF83B2041C002B01D10135F3E70221B4
:103FD0000022FFF742FF201C01210022FFF73DFFD6
:103FE000F3E7081C70BD0000F7B508A80078019041
:103FF0004C780020602C13D109780A4C8C4621782B
:10400000012007290CD803254D43074E12019A18A9
:104010006746019BAF55091875196A70AB7021701E
:10402000FEBDC046AD10002094100020014B0020C2
:1040300018707047AD10002070B50024124B1B782B
:10404000A3421ED903236343104A1148D3185B7857
:10405000151C1049FF2B01D1037003E01E090670E7
:104060000F2003400B7003236343D05CEB18997857
:10407000FEF792F80134011C0748FFF711FFE4B284
:10408000DCE7002070BDC046AD1000209410002079
:1040900092100020AC1000209310002037B50D4B7B
:1040A000051C1A780C4C824212D069461870FEF733
:1040B000DDF8019B094A002B03D11370009B23609C
:1040C00006E001211170064800992A1C98472060DB
:1040D00020683EBD14000020B0100020B410002065
:1040E0007C0D002070B50E4E0E4D33788024E95CB7
:1040F0006400611A09020139032004F0E9FE7378B3
:104100000520E95C611A0902013904F0E1FEB37887
:104110000420E95C611A0902013904F0D9FE70BD7E
:10412000E0110020229C000008B50120011C05F0D0
:104130001BF8024B01221A7008BDC046F512002080
:1041400008B50120002105F00FF8024B00221A707B
:1041500008BDC046F512002008B5FFF7F1FF152095
:10416000012104F0A7FF1420012104F0A3FF152072
:10417000002104F0F9FF1420002104F0F5FF08BD30
:1041800008B5FA210248C900002202F0E5FC08BD8A
:104190005C36002073B51B4E1B4C3178201C01F09F
:1041A000F7F81A4D3178281C01F0F2F8201C01F0C4
:1041B00001FA061C281C01F0FDF9F6B2C0B2144B3E
:1041C000012E02D00022012800D101221A70221CE7
:1041D000002339321370221C3A323B34137023709F
:1041E0000C4B1B78002B0BD101AA137053709370EA
:1041F0000198FFF761FB084B186803685B689847F4
:1042000073BDC04616000020F0110020E810002009
:10421000150000207810002084100020F7B5131C32
:10422000101C000A1B0C0192D4B2C0B2DBB283296D
:1042300055D814D12A4A2B4D17782E780121A74240
:1042400007D15778874204D19178C91A4F1EB941D6
:10425000C9B2314329701470507093703FE0224A04
:10426000842512786A435118204A8A5C472A19D853
:10427000032151431E4DD20869180D784F788E786E
:104280000C7048708B701B49AC468D5C0121A445B5
:1042900005D1874203D1F31A5E1EB341D9B2294337
:1042A000144B1BE08F2A1AD8483A03215143124D70
:1042B000D21069180D784F788E780C7048708B701A
:1042C0000E49AC468D5C0121A44505D1874203D13E
:1042D000F31A5E1EB341D9B2084B29439954F7BD76
:1042E000E0110020E8120020150000201A9B0000B9
:1042F000F0110020EC120020E8100020F61200203F
:1043000013B5044C09018A18115D1A1CFFF786FFCA
:1043100013BDC046229D0000024B09018918585C5C
:104320007047C046229D000013B501AC832904D913
:10433000002323706370A37016E00F4B84221B7858
:10434000534359180D4BC95C472903D803225143E5
:104350000B4B05E08F29EBD8483903225143094B19
:104360005918201C05F0E1F862782078A378120231
:104370001B041043184316BD150000201A9B0000B3
:10438000F0110020E8100020F8B5061C0024114DA3
:10439000E7B2635D002B05D00F48391C01F016F819
:1043A000002363550D4D635D002B05D00C48391C6F
:1043B00001F00CF8002363550134092CE7D1094CB6
:1043C0002378002B04D0301CFFF78CFE00232370D1
:1043D000F8BDC046EC120020F0110020F6120020BB
:1043E000E8100020E8120020F7B5041C211C082268
:1043F0001030251C05F099F80835201C1830291CB0
:10440000082205F092F8334F381C01F0D8F8002844
:1044100012D06846391C00F06CFF201C6946082247
:1044200005F083F82C4B1B78012B05D1E378032290
:10443000134201D05340E370284E301C01F0BFF806
:10444000002816D06846311C00F053FF281C69462E
:10445000082205F06AF8204B1B78012B09D1A27ABB
:10446000617A101C4840184203D059405340617291
:10447000A3723B1CD8331B78194D002B02D02B782C
:10448000002B08D0331CD8331B78002B06D0154ADC
:104490001378002B02D1201CFFF77CFED837397827
:1044A000002906D12B78002B03D0002200232260A4
:1044B0006360D8363078002807D10A4A1378002B79
:1044C00003D000220023A260E360064B297018701D
:1044D000F7BDC046F011002015000020E8100020B4
:1044E000E3110020E9120020F0B5051C85B000247E
:1044F000E300DBB20393002300930099039AC9B24F
:104500008E18F6B20191321C2868696804F0A0FF89
:1045100001273840B8400290321C2869696904F0CC
:1045200097FF029B07403B4304D00020211C019AC7
:10453000FEF732F8A868E968321C04F089FF012709
:104540003840B8400290321CA869E96904F080FF45
:10455000029B07403B4307D001990F22521AD2B267
:104560000020211CFEF718F8009A01320092082A58
:10457000C3D10134E4B2052CBAD105B0F0BD0000BE
:1045800010B5041CFFF730FF201CFFF7ADFF0248F9
:1045900002F090FA10BDC0465C36002010B5042928
:1045A0000ED80F2A0CD80120072A02D9054B0F2458
:1045B00001E0054B0724A21A90405A5C82435A54EA
:1045C00010BDC046E0100020E811002000200429A2
:1045D0000ED80F2A0CD8072A03D9064B585C0F2394
:1045E00002E0054B585C07239A1A1041012318403A
:1045F0007047C046E0100020E8110020072A04D9C7
:1046000040180F23007A9A1A00E0405C1041012301
:1046100018407047F0B585B0036844680093019472
:104620008368C468029303940024251C221C02980A
:10463000039904F00DFF221C071C0098019904F057
:1046400007FF012637400640BF19ED190134EDB2CE
:10465000502CEBD1281C05B0F0BD000008B5024875
:1046600000F04CFF80B208BDE810002008B50248F9
:1046700000F091FFC0B208BDF011002008B502485B
:1046800000F089FFC0B208BDE810002008B502485C
:1046900000F086FFC0B208BDE810002008B502484F
:1046A00000F07EFFC0B208BDF011002008B502483E
:1046B00000F07BFFC0B208BDF011002008B5024831
:1046C00000F073FFC0B208BDE8100020014BD933E1
:1046D00018787047F0110020014BD93318787047D3
:1046E000E8100020014B18787047C04615000020E4
:1046F00010B504480C1C00F059FE211C024800F0C3
:1047000055FE10BDE8100020F0110020014B187874
:104710007047C04616000020014B18787047C0460D
:10472000F512002008B5002902D0FFF7FDFC01E0DA
:10473000FFF706FD08BD000070B5041C17480D1CEE
:1047400002F0C2F900F0AEFD201CFFF705FD0022CB
:10475000002322606360A260E36000F0E7FF01F0E5
:104760003FF8642004F004FA201CFFF7DDFC64200D
:1047700000F0A0FD642004F0FBF9281C00F04AFDC5
:104780000321061C281C00F0B7FA201CFFF7F8FCD8
:10479000C82000F08FFD301C70BDC0465C36002084
:1047A00008B55021FFF7C8FF08BD08B55121FFF734
:1047B000C3FF08BD70B5041C17480D1C02F084F936
:1047C00000F070FD201CFFF7C7FC002200232260D0
:1047D0006360A260E36000F0A9FF01F001F86420CB
:1047E00004F0C6F9201CFFF79FFC642000F062FD76
:1047F000642004F0BDF9281C00F09AFC0321061C7B
:10480000281C00F079FA201CFFF7BAFCC82000F041
:1048100051FDF0B270BDC0465C36002008B5502195
:10482000FFF7C8FF08BD08B55121FFF7C3FF08BD5A
:1048300070B5074C061C0D1C0A78201C311C01F0B9
:104840008DF8201C711C6A7801F088F870BDC04694
:104850001C130020094B10B50C1C094918880C804A
:10486000FFF7E6FF074801F07DF8211C064800F03D
:104870008FFD211C054800F08BFD10BDEA120020C1
:10488000160000201C130020E8100020F01100206A
:10489000F7B5041C0225281C012104F00BFC281C80
:1048A0000021013504F060FC1B2DF4D11E25281CCD
:1048B000012104F0FFFB281C0021013504F054FC09
:1048C0002B2DF4D10120011C04F0F4FB201CFFF778
:1048D00037FC102004F0C8FA201CFFF703FC0A2064
:1048E00004F046F9201CFFF71FFCFA20400004F0FA
:1048F0003FF90022002322606360A260E360C820C9
:1049000000F0D8FC0220FEF7C5F9174B174D071C25
:104910001880391C281C01F001F86E46B071791C12
:10492000281C00F0FBFFF071F288114B0E4F114E66
:104930009A4206D13888311CFFF77AFF281C01F013
:1049400011F83F88281C391C00F0E8FF791C3070F2
:10495000281C00F0E3FF7070201CFFF71BFC201CDC
:10496000FFF70EFCF7BDC046EA1200201C13002022
:10497000FFFF00001600002070B50B4E0021301C18
:1049800000F0A9FC094D0A4C291C221C301C04F023
:104990006BFD084E0121301C00F09DFC301C291CD1
:1049A000221C04F061FD70BDF0110020D552000002
:1049B00000000020E810002010B50021041C012296
:1049C000024802F0DBFC207010BDC046F03A002027
:1049D00010B5054C011C201C02F0EEF9201C202112
:1049E00002F0EEF910BDC046F03A002010B5054CBB
:1049F000011C0A22201C02F062FA201C202102F075
:104A0000DFF910BDF03A002037B58848884A0C1C01
:104A1000FEF734FB051C0020002D00D005E1201C12
:104A20008449092204F051FE002800D0FCE009343A
:104A3000201C814904F038FE002801D17F4806E09F
:104A4000201C7F4904F030FE002804D17D48FFF788
:104A5000BFFF0120E9E0201C7B4904F025FE00286F
:104A600003D17A48FFF79CFED0E0201C784904F07F
:104A70001BFE002803D17548FFF797FEC6E0201CF7
:104A8000744904F011FE002803D17048FFF7C6FEF8
:104A9000BCE0201C704904F007FE002803D16B48DD
:104AA000FFF7C1FEB2E0201C6C4904F0FDFD0028B8
:104AB00013D16B4802F0B4FC644C0A2803D1201CCB
:104AC000FFF72AFEA2E06D460735281CFFF774FFAA
:104AD0002978201CFFF726FEBBE7201C614904F063
:104AE000E3FD00280FD16048FFF772FF574C201CF0
:104AF000FFF7BCFDFFF77AFF5C48FFF769FF201C5A
:104B0000FFF7BCFD82E0201C594904F0CDFD0028D0
:104B10000FD15548FFF75CFF4C4C201CFFF7D6FD2A
:104B2000FFF764FF5148FFF753FF201CFFF7D4FD48
:104B30006CE0201C4F4904F0B7FD00280FD14A4813
:104B4000FFF746FF414C201CFFF7A8FDFFF74EFF83
:104B50004648FFF73DFF201CFFF798FD56E0201C5C
:104B6000454904F0A1FD00281ED13D4802F058FC43
:104B7000364C0A280ED13C48FFF72AFF201CFFF7CD
:104B800095FDFFF733FF3948FFF722FF201CFFF7A1
:104B900095FD3BE06D460735281CFFF70DFF297892
:104BA000201CFFF7A5FD54E7201C344904F07CFDD0
:104BB000002808D12548FFF795FD012801D130488C
:104BC00045E7304843E7201C2F4904F06DFD0028DD
:104BD0000DD11E48FFF742FD214C011C0A22201C6A
:104BE00002F055F9201C202102F0EAF831E7201CE0
:104BF000264904F059FD002815D1194802F010FC8F
:104C0000124C0A2805D1201CFFF780FDFFF7EEFEAD
:104C10001FE76D460735281CFFF7CEFE2978201CBC
:104C2000FFF718FE15E700E0281C3EBD60100020CD
:104C30007B9D0000989E0000B6A00000A29E000090
:104C40008F9E0000AE9E0000D69E0000B81000208F
:104C5000E69E0000F79E0000089F00001A9F0000DB
:104C6000F03A0020259F00002E9F0000349F000096
:104C70003C9F0000479F0000509F00005D9F000088
:104C8000729D0000779D0000649F00006A9F0000F5
:104C900008B50368C9B21B68984708BD70B5124CC7
:104CA000061C1249201C02F0A3F8114D311C281CCF
:104CB00001F097FD0421281CFFF7EAFF281C01F0F2
:104CC00047FE0C49051C201C02F076F8291C0A221C
:104CD000201C02F0F8F8FA206B1E9D41800003F0C2
:104CE00047FF684270BDC046F03A0020729F000046
:104CF000283400207A9F000038B5094C031C0D1C95
:104D0000201C191C01F06DFD291C201C01F0C2FDA6
:104D10000021201CFFF7BCFF201C01F019FE38BD4C
:104D200028340020F0B5002287B003900192674C30
:104D30000399201C01F055FD0121201CFFF7A8FF5D
:104D4000634D019B201CE95CFFF7A2FF019A201C28
:104D5000515B0912FFF79CFF201C01F0F9FD051CB7
:104D6000012003F005FF002D02D05A485A4997E070
:104D7000019B5B010493574C5849201C02F01CF81E
:104D8000534F019AEEB2D35B092B02D8201C544931
:104D900009E0632B02D8201C524904E0524A934296
:104DA00003D85249201C02F007F8019B0A22F95A45
:104DB000201C02F06CF8201C4D4901F0FDFF0A2276
:104DC000311C201C02F07BF8201C4A4901F0F4FF42
:104DD0003E4C0399201C01F004FD0135201C0221EA
:104DE000FFF756FF36012A01434CF7B202950592B0
:104DF000059B364D9F4224DA404B049ADB199E5C9A
:104E0000281C311C01F046FD324D0F2E03D8281C02
:104E1000364901F0D1FF281C311C102202F04FF856
:104E20007440082301216210214094B2002902D06D
:104E3000334C624094B2013B002BF3D10137FFB2F7
:104E4000D6E7E1B2281CFFF723FF2112281CFFF749
:104E50001FFF0021281CFFF71BFF281C01F078FD15
:104E60001C4D061C2749281C01F0A6FF0F2C02D858
:104E7000281C1B4909E0FF2C02D8281C194904E012
:104E8000214B9C4203D81949281C01F095FF281C8E
:104E9000211C102201F0FFFF032E06D01B49281C05
:104EA00001F0A6FF012040420EE0012003F060FE69
:104EB000029A042A01D0151C5DE7019B023301937D
:104EC0005C2B00D033E7002007B0F0BD2834002071
:104ED00018000020F03A0020849F0000A39F0000EB
:104EE000AB9F0000AC9F0000E7030000AD9F0000F7
:104EF000AF9F000036A10000FFFF000074000020FB
:104F000001A0FFFFB79F0000FF0F0000BF9F000040
:104F1000F0B585B01F1C374E0AAB1B88051C0291EB
:104F2000301C35490193039201F046FF1022291CE1
:104F3000301C01F0C8FF314C291C201C01F051FC31
:104F40000621201CFFF7A4FEFF213940201CFFF79B
:104F50009FFE3912201CFFF79BFE0199FF23194089
:104F6000201CFFF795FE019B201C1912FFF790FEF5
:104F7000201C002101F0B3FC071E05D0301C204985
:104F800001F036FF381C32E0642003F0F1FD291CEB
:104F90000322201C01F079FC201C01F0B7FB201C2F
:104FA00001F0DBFC029B1870201C01F0AFFB002815
:104FB00001D1FF201BE0201C01F0CFFC051C201CB0
:104FC00001F0A4FB0028F4D0201C01F0C6FC061C54
:104FD000201C01F09BFB002803D0201C01F0BDFC2D
:104FE000F6E7F6B23602EDB2039B35431D8005B0FD
:104FF000F0BDC046F03A0020E49F000028340020B5
:10500000F39F0000F0B587B003903B493B4801F0A7
:10501000EFFE3A4C3A49201C01F0CEFE394E3A4A96
:1050200033886F46163704336946009215313A1CAF
:105030009BB20398FFF76CFF051C291C201C0A2259
:1050400001F041FF002D03D0642003F091FDE0E763
:105050002E49201C01F0B0FE6B46597D0A22201C0F
:1050600001F031FF2A49201C01F0A6FE31881022F0
:105070000431201C01F00BFF2649201C01F09CFE8E
:105080003188214A201C8918102201F000FF224992
:10509000201C01F091FE3988201C102201F0FBFE3B
:1050A0002B1C1E4D1E4A0826D2181279554001218C
:1050B0006A10294095B2002902D01A4D6A4095B273
:1050C000013E002EF3D1104A01339342EAD13B88CE
:1050D000201CAB420AD0144901F06EFE201C291C92
:1050E000102201F0D8FE0120404203E00F4901F0F8
:1050F0007FFE301C07B0F0BD02A00000F03A002097
:1051000025A00000180000207C0B00002DA000004E
:1051100037A0000045A0000035A10000FFFF0000FF
:105120007400002001A0FFFF47A0000061A0000064
:10513000F0B52E49041C85B02D4801F03DFE2D4EE2
:10514000211C301C032201F0A0FB301C01F0DEFA10
:10515000051E03D0301C01F000FCF6E7264A274E5E
:105160001388694604336A460E329BB2201C0D3107
:105170000096FFF7CDFE1E4C071C2149201C01F0B4
:105180001BFE201C391C0A2201F085FE002F28D1AD
:10519000201C1C4901F010FE6B46597B0A22201C82
:1051A00001F091FE201C184901F006FE124A201C55
:1051B00011880A22043101F06AFE201C134901F013
:1051C000FBFD311C1022201C01F061FE201C104947
:1051D00001F0F2FD6B46D989201C102201F05BFE24
:1051E00001E001256D42281C05B0F0BD6FA0000054
:1051F000F03A002028340020180000207C0B00002A
:1052000080A000002DA0000088A0000045A00000A4
:1052100015A1000038B51B4C051C1B49201C01F0D2
:10522000E7FD281CFFF784FF013002D1201C17493D
:1052300006E0281CFFF732FD013005D11449201C7F
:1052400001F0D6FD00201CE0281CFFF76BFD0130AB
:1052500002D1201C0F49F3E7281CFFF7D3FE0130D1
:1052600002D1201C0C49EBE70C49201C01F0C0FDC9
:105270000321281CFFF740FD201C094901F0B8FD5F
:10528000012038BDF03A00209BA00000A9A000003A
:10529000BEA00000CCA00000E3A00000FAA0000027
:1052A0000BA1000008B5024801F096FA08BDC046FF
:1052B0002834002038B5064C051C201C01F05EFA8D
:1052C000FA2189006943201C01F078FA38BDC046F4
:1052D000283400207047021CD8320023137053700A
:1052E0001376031CE03358221960043B1143196004
:1052F000704710B5E831041C082204F016F9201C90
:1053000010BD0000F0B585B01F4C171C0AAA031C85
:1053100012780E1C201C191C019201F062FA1B4B22
:10532000321C911BC9B2B9420ED2117801325940D8
:10533000C9B208014140C9B2CD0008111B120902CF
:1053400068400B434340ECE703AD1A122A70201C5F
:10535000311C3A1C6B7001F0B9F9002801D1012011
:1053600010E0201C291C022201F0B0F90028F6D020
:105370000199201C4B1E9941C9B201F0B0FA431E9D
:105380009841C0B205B0F0BD28340020FFFF0000F6
:105390001FB5022203AC0123DC306170227000785B
:1053A000211C0093FFF7AEFF04B010BD1FB50D2305
:1053B00003AA1370DC30012351700078111C009394
:1053C0000222FFF79FFF05B000BD000070B50B1C67
:1053D0008AB0803B03AA1370182359430023411855
:1053E000CD5C084ED418755D01336570182BF7D16C
:1053F0000123DC30111C007819220093FFF782FF93
:105400000AB070BD47A10000F0B5354E85B00390DD
:105410000C1C591E8B41171CDBB20232301C039945
:1054200001F0F8F9251C002857D0E2B2AB1ADBB224
:1054300002920193301CBB4204D201F08EFA287014
:105440000135F2E701F089FA051C301C01F085FAFC
:105450002E023618234DB6B2029AA31ADBB2BB4213
:105460000ED2237801346B40DBB21A015340DBB219
:10547000D9001A112D121B024A401D435540EBE77B
:10548000F8B2B54229D00A9A174C1378174901335C
:105490001370201C01F090FC10220399201C01F0D5
:1054A0000EFD1349201C01F087FC1022291C201C32
:1054B00001F0EDFC0F49201C01F07EFC1022311C94
:1054C000201C01F0E8FC0C49201C01F075FC201C9C
:1054D00001990A2201F0F7FC002005B0F0BDC0469A
:1054E00028340020FFFF0000F03A002011A1000046
:1054F00017A1000038A100003AA1000030B585B026
:105500000B23041C02A90B70DC340123051C1A1C9C
:1055100020780093FFF7F6FE012802D101204042D7
:1055200012E0A0239B00013BFDD12078D93503ACCC
:105530000095211C02220123FFF766FF0228EDD10E
:10554000607823780002181805B030BD30B5041C0F
:1055500085B002AA0123DC341170051C111C2078CF
:105560001A1C0093FFF7CEFE012802D10120404211
:105570000FE0A0239B00013BFDD101222078D9350B
:1055800003AC0095211C131CFFF73EFF0028EDD053
:10559000207805B030BD08B50121FFF7D7FF08BD61
:1055A00008B50821FFF7D2FF08BD08B50D21FFF7A8
:1055B000CDFF08BD08B50C21FFF7C8FF08BD7FB5BA
:1055C000031CDC33051C02AC18780026033BA680C4
:1055D00006220093211C01230296FFF715FF821F6C
:1055E00053425A412B1CD8331A70062810D1237805
:1055F000012B0DD161782A1CE8321170A178EC35AD
:105600005170E1781E1C91702179D17062792A70F5
:10561000301C04B070BD000008B5034800F0B2FCB7
:10562000024800F08CFB08BD7C33002020330020B2
:1056300038B5084DC4B2281C00F00EFB002804D178
:10564000281C211C00F02CFB03E00348211C00F067
:105650005AFC38BD203300207C33002010B5041CD8
:10566000030702D5E120FFF7E3FFE30702D5E020BF
:10567000FFF7DEFFA30702D5E220FFF7D9FF63079C
:1056800002D5E620FFF7D4FFE30602D5E320FFF7BB
:10569000CFFF10BD38B5041C2304C2B21B0E002975
:1056A00013D0144908780D1C1349002800D1087044
:1056B0000878184308703F21181C884304D1111C36
:1056C0002031C9B2072900D92A703F21181C88430C
:1056D00007D12032D2B2072A03D8181CFFF7BEFF29
:1056E00003E0064A11780B431370201CFFF7A0FF5C
:1056F00038BDC04601130020001300200213002013
:1057000038B5084DC4B2281C00F0A6FA002804D110
:10571000281C211C00F0E3FA03E00348211C00F0E0
:105720000FFC38BD203300207C33002008B507482B
:1057300000F0FEFA064A00231370064A064813706A
:1057400000F01AFC054800F039FB08BD20330020AA
:1057500001130020021300207C3300205833002066
:1057600038B51C4B051C19782C04240E61401970A7
:105770003F23211CC2B2994304D1131C2033DBB256
:10578000072B09D9144B1978914201D100221A70C4
:10579000124B1A7862401A70230702D5E120FFF7F6
:1057A000AFFFE10702D5E020FFF7AAFFA30702D56C
:1057B000E220FFF7A5FF610702D5E620FFF7A0FF73
:1057C000E30602D5E320FFF79BFF281CFFF798FFB5
:1057D00038BDC04600130020011300200213002032
:1057E00070B51B4A1B4B10781B781840FFF736FF2B
:1057F000194D281C00F030FA184C061C217800289E
:1058000010D100290AD0281C00F069FA281C00F0E9
:1058100027FA2178281C00F043FA2670281C00F093
:105820001FFA14E00E4D00290BD0281C00F088FB55
:10583000281C00F023FB2178281C00F064FB0023C7
:105840002370281C00F01AFB064800F0C7FA70BD50
:105850000213002000130020203300200113002039
:105860007C3300205833002008B5024800F0D4FAF9
:1058700008BDC0465833002008B58105890D02488F
:1058800000F090FA08BDC0465833002008B5024821
:1058900000F0DEFB08BDC046C533002008B5C1B22C
:1058A000014800F0DDFB08BDC533002008B5024803
:1058B00000F0D2FB08BDC046C533002008B5024841
:1058C00000F07AFB08BDC046B633002070B50F4C1F
:1058D0000F4EA544041C0F4801AA43690169651CC9
:1058E00000F006F9281C01A9321C03F01EFEA35D7E
:1058F000002B05D18022281CFF21920103F01EFEFF
:1059000001232370044B9D4470BDC046F8DFFFFFA8
:1059100001200000041300200820000038B503789F
:10592000041C0D1C002B01D1FFF7D0FF6419607817
:1059300038BD0000037870B5041C0E1C151C002B2C
:1059400001D1FFF7C3FFA1194B78AB4203D0024B43
:105950000122E2544D7070BD0220000008B5FFF72F
:10596000E9FF08BD10B5114C0378A544041C002BB9
:1059700001D1FFF7ABFF0E4BE35C002B12D00D4AB9
:105980000123A354E11801A803F0CFFD0A4C201C09
:105990002169626900F09AF821696369201C01AAF3
:1059A00000F03CF8054B9D4410BDC046F8DFFFFFFA
:1059B0000220000001200000041300200820000045
:1059C00008B50549054A064800F010F8054B064998
:1059D00000221A705A5408BD00A3000001200000E4
:1059E000041300201C1300200220000030B5094CD5
:1059F000094BA5686D036D0FAD00EB580360A468FB
:105A00000161A4B244605C439B008460C360426156
:105A100030BDC0460040004100C40000F7B51F4E35
:105A20008027756803333D439B087560002B34D095
:105A30001B4D3580357DEF07FCD51D1C5F1B019785
:105A40000768BF08BC46019F67451FD2002D1DD0C7
:105A50001778013D0197FF27BC43019F3C435778CE
:105A60003F0201970F4F3C40019F3C4397783F0412
:105A7000BC460D4F3C40D778A4B23F06009767461E
:105A80003C43009F04323C4310C1D7E7074B3380AF
:105A9000337DDF07FCD52B1CC8E7F7BD0040004174
:105AA00044A5FFFFFF00FFFFFFFF00FF04A5FFFF6E
:105AB000044B054A4908D9611A801A7DD107FCD5E3
:105AC0007047C0460040004102A5FFFF70B5051CAD
:105AD0000C1C161CEB68281C211C9E4205D9FFF7E4
:105AE000E7FFEB68E418F61AF4E7FFF7E1FF70BD93
:105AF00008B5101C1A1C03F018FD08BD03794133CA
:105B000001200B70704770B50B7888B001AC013381
:105B10001925061C0B702A1C201C002103F00EFD09
:105B200004236370012309212371A371E371E372DC
:105B30002373A373237633792170032261722121A9
:105B40006271A1726275A370222140223F23E1732A
:105B5000E2822374727907218023A1745B420521BC
:105B60001343E1742A1C211C0020237500F03AFB2A
:105B700008B070BD08B50A78031C0020812A0ED138
:105B8000CA78222A0BD189881A79914207D11A1C26
:105B90001B7C2832137002493F2200F023FB08BD12
:105BA00020C4000038B504798A880023944236D195
:105BB0000C784A78A12C0AD10223111C99430B1EA0
:105BC000012B2CD0931E5A425341DBB227E0212CEB
:105BD00025D10B2A02D18B78283002E00A2A03D182
:105BE0002930037001231AE0092A18D1CD78CC8816
:105BF000022D09D1012C12D1011C2A310948221C85
:105C000002F036F9231C0AE0012D08D1082C06D138
:105C1000011C11310348221C02F02AF92B1C181C0C
:105C200038BDC046C73F00200A49021C0831016048
:105C30002432011C01238260283100228371C37148
:105C40000374C2600B704B70031C2A331A708323D9
:105C50004362704760C4000028300078704700003D
:105C600070B5061C041C19361134051C211C301C8F
:105C7000082203F04BFC00280DD06979221C082370
:105C8000064802F0ABF9211C051C0822301C03F069
:105C90004CFC281C01E00120404270BDC73F0020A1
:105CA0000A1C2032D2B210B50023072A08D80123DB
:105CB000E0391A1C8A40111C427C114341740CE0EB
:105CC000C218D47C8C4208D0002C01D1D17404E0DD
:105CD0000133062BF4D1002000E0012010BD0A1C86
:105CE0002032D2B270B50023072A07D8E039012349
:105CF0008B40191C437C8B43437417E0C218D47C3F
:105D00008C4201D10024D4740133062BF6D1031C3C
:105D1000851D0022DC7C002C05D08118CE7C013250
:105D2000CC74D2B2DE740133AB42F3D1012070BD2A
:105D300008B511300021082203F000FC08BD10B5A1
:105D4000041C01F065FC211C01F032FC201CFFF753
:105D5000EFFF201CFFF784FF10BD000008B50248CC
:105D6000FFF762FF08BDC0462033002038B50A4B5C
:105D700001221968051C1140084C05D12160084911
:105D80001A6061601921218100F018FB211C00F0CC
:105D9000D3FA281C38BDC046683300204C3300209D
:105DA00078C4000010B500235A00845A002C01D199
:105DB000115202E00133042BF6D110BD08B50021C9
:105DC000082203F0BBFB08BD10B5041C00F0F6FA76
:105DD0000421221C082300F0BFFA10BD38B5051CB1
:105DE000041C0835281C211C082203F08FFB002806
:105DF00007D0201CFFF7E8FF281C211C082203F015
:105E000094FB38BD10B50021041C082203F096FB5A
:105E1000201CFFF7E3FF10BD08B5FFF7F3FF08BD37
:105E200008B50248FFF7A2FF08BDC046583300205E
:105E300038B50A4B01221968051C1140084C05D1E0
:105E4000216008491A6061604121218100F0B6FAA1
:105E5000211C00F071FA281C38BDC0466C330020AC
:105E60007033002091C4000010B5041C00F0A6FAA5
:105E70000821221C1D2300F06FFA10BDF8B5071C85
:105E8000041C1D37381C211C1D2203F03FFB002879
:105E900035D02578667F2B1CB34311D0201C611CA4
:105EA0001E301C2203F032FB002809D0657700F079
:105EB00085FA08213A1C1D2300F04EFA667713E09C
:105EC000331CAB4310D0201C611C1E301C2203F07D
:105ED0001DFB002808D0267000F070FA0821221C53
:105EE0001D2300F039FA2570201CFFF7BDFF051EA9
:105EF00007DD381C211C1D2203F017FB01E00125E2
:105F00006D42281CF8BD10B5031CDD290BD80720F5
:105F1000CA08014001209B18041C5A788C40211C9F
:105F2000114359700BE02031C9B20020072906D86F
:105F30000120021C8A40111C1A781143197010BDEF
:105F400010B5031CDD290AD8CA08072001409B1898
:105F500001205A78041C8C40A2435A700BE0203177
:105F6000C9B20020072906D80120021C8A40111C52
:105F70001A788A431A7010BD08B500211D2203F05B
:105F8000DDFA08BD10B5041CFFF7F6FF201CFFF773
:105F90006BFF10BD08B50248FFF74AFF08BDC046B9
:105FA0007C33002010B5041C00F008FA0121221CEB
:105FB000052300F0D1F910BD38B5041C451D281C7F
:105FC000211C052203F0A2FA002806D1201C074953
:105FD000052203F09BFA002807D0201CFFF7E2FF00
:105FE000281C211C052203F0A0FA38BDC033002074
:105FF00038B50A4B01221968051C1140084C05D11F
:10600000216008491A6061601821218100F0D6F9E9
:10601000211C00F091F9281C38BDC046C83300206F
:10602000CC330020D2C4000038B50D1C141C00F085
:10603000C5F92A1C0521231C00F08EF938BD07B5CF
:1060400069460731002301220B70FFF7EDFF07BD02
:1060500008B5FFF7F4FF08BD08B5FFF7F0FF08BD6E
:1060600007B56B46D9710733832903D0191C012268
:10607000FFF7DAFF07BD000008B50248FFF7B8FFD9
:1060800008BDC046C533002070B50B7888B001ACA0
:1060900001331925061C0B702A1C201C002103F05B
:1060A0004DFA04236370012309212371E3722373E2
:1060B000A3732376337921700322617221216271E7
:1060C000A1726275A370222140223523E173E2821E
:1060D0002374727907218023A1745B420521134345
:1060E000E1742A1C211C0020237500F07BF808B005
:1060F00070BD000010B50C1C131C4179221C024815
:1061000001F06CFF10BDC046C73F002008B4024B31
:106110009C46103808BC6047F560000010B58A88BE
:1061200004790023944219D10C784A78A12C06D125
:10613000012A12D0D31E5A425341DBB20EE0212C69
:106140000CD10B2A02D18B78013003E00A2A05D149
:106150008B780230C377012300E0131C181C10BD9C
:1061600008B50A78031C0020812A0DD1CA78222A9A
:106170000AD189881A79914206D101220133DA774E
:106180000249352200F02EF808BDC046EAC40000DE
:10619000021C1C3210B582600022C2608282C28260
:1061A00002760B4A0123111C243202610831C21805
:1061B0008371C3710160D377821CD3778323041C5E
:1061C000C36101F025FA211C01F0F2F9201C10BD79
:1061D00020C5000008B50248FFF7DAFF08BDC04639
:1061E000D833002008B5024801F0AEFF08BDC04614
:1061F000C73F002048230B7049234B7044238B700A
:10620000028B0F231A404132CA70028B12111340C5
:10621000413305200B71704770B50B7888B001AC25
:1062200001331926051C0B70321C201C002103F0C1
:1062300085F90423637001232371E3722373A3732D
:1062400023762B790921A3702B8B21700322617295
:1062500021216271A17262752374222140221B12D6
:10626000E173E28263746A7907218023A1745B423F
:1062700005211343E174321C211C0348237501F0EE
:1062800063FF08B070BDC046C73F002070B50B78F3
:10629000041C0025812B1ED1CB78222B1BD18A8890
:1062A00003799A4217D10D4E0121301C01F0BCFF39
:1062B0006469002C09D02289301C616801F044FF18
:1062C000431C07D02D182468F3E7301C211C01F073
:1062D000ABFF00E0051C281C70BDC046C73F002076
:1062E00010B504798A880023944220D10C784A782A
:1062F000A12C0ED10221141C8C43012C16D0022A91
:1063000015D1021C191C1B3201230A4801F0F8FEAA
:1063100005E0212C0BD10B2A03D18B788376012346
:1063200005E00A2A03D18B78C376F8E7231C181CF2
:1063300010BDC046C73F00204369002B01D1416119
:1063400005E01A68002A01D0131CFAE719600A89CF
:10635000038BD3180383704730B591B01C1C051C08
:106360006B46684619700130111C221C03F0DDF8E1
:106370006979631C6A46024801F030FE11B030BDF5
:10638000C73F002010B5021C0B4901231032083111
:106390008371C371826083760022C3768323041CD9
:1063A000C260426102830361016001F031F9211C86
:1063B00001F0FEF8201C10BD48C5000070B5064D68
:1063C00001262B68054C334203D1201CFFF7DAFF6E
:1063D0002E60201C70BDC046FC330020003400201D
:1063E00038B5124B124D1A78511C1970E988914238
:1063F0001AD800240F481C70FEF730F9AA880E4BFB
:10640000904205DD1A680A32FF2A04DDFF2202E00D
:106410001A680A3A01D41A6000E01C601978002258
:10642000C843C0B2FDF754FA38BDC0461E34002040
:10643000F40B0020B81000202434002010B5054CC7
:10644000011C0A22201C00F022FD201C202100F04B
:10645000B7FC10BDF03A0020F7B50B1C0833071C41
:106460000D1C161C01930C1C731B1A5D211C381C7F
:10647000FFF774FA019B01349C42F5D1301CFEBD3C
:10648000F7B50820FCF706FC144F154D061C311C0F
:106490003880281CFFF742FA6C46A071711C281C3A
:1064A000FFF73CFAE071E2880E4B3C1C0E4E9A421C
:1064B00007D13988281C321CFFF7CEFF281CFFF7B4
:1064C00051FA27880024E119281CFFF727FA3055D4
:1064D0000134082CF7D10020FEBDC0461C3400203A
:1064E0001C130020FFFF0000F40B002038B5314CD6
:1064F0000021201C0D22FEF781F8002853D0201C1B
:1065000000210E22FEF77AF800284CD0201C002132
:106510000F22FEF773F8002845D0201CFEF77AF80A
:10652000032840D1201CFEF799F8234B0125588001
:10653000201C01210D22FEF761F8002835D0201C17
:1065400001210E22FEF75AF800282ED0201C02212D
:106550000F22FEF753F8002827D0201CFEF75AF828
:10656000032822D1201CFEF779F8134B1880124A19
:10657000138851888B4206D95B1AD80FC3185B1059
:10658000C918918005E0C91AC80F411849105B1855
:1065900093800A4C0A4B201C1988FFF75DFF201CD2
:1065A000FFF7E0F903E00025C2E7002DDFD100206E
:1065B00038BDC046B8100020F40B00201C1300208A
:1065C0001C340020024A034B08321A607047C04650
:1065D000B8C500002034002070B53048304A0C1C8B
:1065E000FCF74CFD061C0020864255D1201C2D498D
:1065F000062203F06AF8051C301C002D4CD106342D
:10660000201C294903F050F8002802D1274B188894
:1066100016E0201C264903F047F8002802D1234B3E
:1066200058880DE0201C234903F03EF8061E11D1C6
:10663000214D281C00F0F4FE1C4C0A2803D1A08830
:10664000FFF7FCFE1DE0281C311C012200F096FE25
:10665000A08016E0201C194903F026F8061C281C0F
:10666000002E19D1144D281C00F0DAFE0F4C0A2818
:1066700001D1E088E4E7281C311C012200F07EFEF5
:10668000E0800F4C0F4B094A1988201CFFF7E4FEED
:10669000201CFFF767F9012070BDC0466010002084
:1066A00060C500009AC50000A1C50000F40B0020E1
:1066B000A7C50000AEC50000F03A00208FC500005D
:1066C0001C1300201C34002000207047F8B5051C66
:1066D0000F1C161C0024B44208D02B68395D1B68BF
:1066E000281C9847002801D00134F4E7201CF8BD8D
:1066F0007047031CFC33196ADA69914203D01B6AA4
:10670000C018007E01E0012040427047031CFC33AA
:10671000D8691B6AC01A01D50130FF3070470000EC
:10672000F7B50193FA239B008360134B8026002565
:1067300076000833041C0F1C4560291C009203607E
:10674000321C183002F0FAFE231C9022FC33520057
:10675000DD61A0181D62321C291C02F0EFFE8722A9
:106760009200A3185D60019A9D60009B2761A5754A
:10677000201C23756275FEBDD0C5000070B50D49A3
:10678000041C006900F08EFD206900F03CFC182616
:10679000207D331C4343084D0821EB18595602F065
:1067A00013FD607D08214643AD19695602F00CFDCA
:1067B00070BDC046A0860100F8C5000038B5041CB5
:1067C0000D1C006900F033FC291C206900F06AFDF3
:1067D000206900F018FC38BD08B5006900F027FCFE
:1067E00008BD8A2387229B009200C154831800228F
:1067F0005A609A60012383757047031CFC335A6802
:1068000010B501329C68D2B2A24202D05C68015538
:106810005A6010BDF7B501930023041C151C181C09
:106820009A4231D0221CFC32D361206913620122CA
:1068300000F030FC002825D0206900F09AFC271CCD
:106840001837011C381CFFF7D8FF01262069AE421B
:106850000ED000F0FFFB0221206900F005FC20694A
:1068600000F087FC011C381CFFF7C7FF0136EDE77D
:1068700000F0E7FB019B002B05D02069032100F00D
:10688000F3FB00E0051CE8B2FEBD08B50123FFF7ED
:10689000C1FF08BD10B5827D00239A420DD0872428
:1068A000A4000219546892680134E4B2944204D0FE
:1068B0002130FF30FFF7A1FF0123181C10BD031C7E
:1068C000FC3399685A68914206D09A68805C9A684D
:1068D0000132D2B29A6001E001204042704770B5A7
:1068E00000228A2382759B00041C0E1CC15C006977
:1068F00000F0D0FB002805D12069032100F0B4FB93
:10690000022523E090235B00E01887239B00E21818
:1069100051689368CB1A01D50133FF33002B0ED099
:106920002569FFF7CCFFC1B2281C00F0E2FB00286C
:10693000E8D12069032100F097FB032506E01D1C28
:10694000002E03D02069032100F08EFB281C70BDAF
:1069500008B50121FFF7C3FF08BD08B51830FFF7E0
:10696000AEFF08BD38B5041C006900F0E0FB00284C
:1069700000D184E0206900F0E8FB00280ED12069F6
:1069800000F0EDFB00281FD0206900F0E3FB002899
:106990001AD0206900F0E8FB002815D1206900F02A
:1069A00059FB2069032100F05FFB8C239B00E55815
:1069B000002D04D02368201C1B699847A847FC348D
:1069C0000023E36123625AE0206900F0C8FB031C46
:1069D0002069002B19D000F03DFB2069032100F055
:1069E00043FB206900F0C0FB002848D087229200BA
:1069F000A31800225A609A600123A3758B239B0081
:106A0000E35893423BD0984739E000F099FB0028C7
:106A100035D0206900F0A8FB002816D087239B0002
:106A2000E21851689368CB1A01D50133FF33FF2177
:106A3000002B05D090225200A018FFF740FFC1B2F2
:106A4000206900F067FBA07519E0231CFC33DA69AC
:106A50001B6A0132D2B220699A4202D100F0F1FAE7
:106A600009E000F086FB011C201C1830FFF7C5FE72
:106A7000206900F0EFFA2069032100F0F5FA38BD33
:106A800008B50248FFF76EFF08BDC0462834002055
:106A900008B50348034914221523FFF741FE08BD3A
:106AA00028340020D83A0020014B00221A70704789
:106AB0005C360020034BA5221A72DA79D209FCD188
:106AC0007047C04600100040044B02211A788A43E8
:106AD0001A70DA79D209FCD17047C0460010004024
:106AE000064B02211A788A431A70D979034AC909D8
:106AF000FBD1937901210B43937170470010004043
:106B00000E4B0F4A30B59A600E4A5A605A78D20935
:106B1000FCD10D4A094B0D495A800422CA670C4B1F
:106B2000C02149005A50C02189005D58094C2C40B1
:106B30005C501A600123037030BDC046000C004059
:106B400002040000020311000342000004E100E01F
:106B500000E100E0FFFF00FFF8B50378061C0D1C04
:106B6000171C002B01D1FFF7CBFF494C00232370EA
:106B7000E379DB09FCD1474B9D4225DC002D23D076
:106B8000FA235B00AD02FA21E818890002F0FEFB4F
:106B9000414B98421CDC414B98421DDC404B9842D3
:106BA0001EDC404B98421FDC3F4B984220DCFF2804
:106BB00022DC7F2824DC3F2825DC1F2826DC0F2848
:106BC00027DD0123102526E080250B23ED0122E09F
:106BD00080250A23AD011EE0802509236D011AE0FE
:106BE000802508232D0116E080250723ED0012E003
:106BF00080250623AD000EE0802505236D000AE008
:106C00000423802507E00323402504E002232025F8
:106C100001E0002308250122002F1DD061790B20FF
:106C20000A43627161780F22914301436170617878
:106C300013401B010A401A43627023780422134355
:106C40002370E379DB09FCD1301CFFF733FF237895
:106C500002221343237010E021790A4322716178E4
:106C60000F22134091430B43637023780422934314
:106C70002370E379DB09FCD1E6E7E379DB09FCD19A
:106C8000FA208000684380239B00C0188012F8BD62
:106C9000001000407F3E0000FF1F0000FF0F0000BB
:106CA000FF070000FF030000FF01000008B50248D5
:106CB00001F030FE08BDC0469C38002008B50248EF
:106CC00001F028FE08BDC04660360020F7B5164F1B
:106CD0001649381C00F001F91549164800F0FDF876
:106CE0001549164800F0F9F81549164800F0F5F86E
:106CF0001549164800F0F1F8154D03260124281C0B
:106D0000144900F0EAF8391C0096231C0194002273
:106D1000114801F017FD0096291C01941F221E2323
:106D20000E4801F00FFDF7BDDC3A002000080042DC
:106D3000000C0042E03A002000100042E43A00203B
:106D400000140042D83A002000180042E83A00201F
:106D5000EC3A0020001C00429C38002060360020E5
:106D6000F7B58A18061C0D1C01920C1C019B671BB1
:106D70009C4207D0336821781B68301C9847013447
:106D80000028F3D1381CFEBD08B50368C9B21B68E2
:106D9000984708BD38B5051C0C1C081E07D002F02A
:106DA0008DFC2B68021C5B68281C211C984738BD91
:106DB00008B5FFF7EFFF08BD08B5FFF7EBFF08BD0B
:106DC00008B503681B68984708BD000008B502496C
:106DD000FFF7E0FF08BDC04618CA000038B5041C24
:106DE000FFF7D8FF051C201CFFF7F0FF281838BD5F
:106DF00038B5041CFFF7CEFF051C201CFFF7E6FF8B
:106E0000281838BDF0B58DB0161C0BAB00220190D0
:106E10000C1C1A70012E00D80A266D462B35201C3A
:106E2000311C02F0A9FA201CCFB2311C02F060FA2A
:106E3000291C041C092F01D8303700E03737FFB276
:106E40002F70013D002CEAD10198FFF7A3FF0DB090
:106E5000F0BDF8B5041C0D1C161E04D10368C9B2A0
:106E60001B68984712E00A2A0DD100290ADA2D2161
:106E7000FFF7A6FF6942071C321C201CFFF7C2FF68
:106E8000C01903E000E0D2B2FFF7BCFFF8BD08B5BF
:106E9000FFF7DFFF08BD38B5041CFFF7DAFF051C5C
:106EA000201CFFF793FF281838BD08B5002A02D12F
:106EB000FFF76AFF02E0D2B2FFF7A4FF08BD08B5F2
:106EC000FFF7F3FF08BD38B5041CFFF7EEFF051C04
:106ED000201CFFF77BFF281838BD01607047F7B50D
:106EE00008AC267804689D1E27686C1EA541ECB28C
:106EF000920705683A4327063A432A600268072545
:106F000029405068B501002C00D05C03294301439F
:106F10000C435460F7BD30B50368C0251C68AD0351
:106F200012052A402243C024A4020904214011432F
:106F3000196003685A6814435C6030BD036801211E
:106F40001A680A431A600268116801231942FBD1CA
:106F5000D1691942F8D17047036802211A680A43BF
:106F60001A600268D3699907FCD4704703681A7ED7
:106F7000D10702D41A7E9107FCD57047036800221E
:106F80005A8370470368187E4007C00F7047036834
:106F9000187EC009704703688022197E52420A4356
:106FA0001A7670470368588B8007C00F70470368D4
:106FB00002215A8B0A435A8370470368187E0123C3
:106FC000184070470368188DC0B2704703681A7E76
:106FD00001200242FBD019857047036801229A758F
:106FE0007047036801221A757047036801211A6807
:106FF0000A431A600268116801231942FBD1D16962
:107000001942F8D17047036802211A680A431A60CE
:107010000368DA699107FCD45A8B30218A43102126
:107020000A435A830268D3695907FCD4704703683E
:1070300002211A688A431A600268D3699907FCD44E
:1070400070470368802219685968D2020A435A605F
:10705000704700000368034A196859680A405A607B
:107060007047C046FFFFFBFF30B5036803241D686F
:107070000C40074A596824040A40ED0622436D0F6C
:107080005A60052D03D10268D3695907FCD430BD7D
:10709000FFFFFCFF49001143036830B5CDB2598BA7
:1070A000032409092140012904D0598B09090C4006
:1070B000022CF4D1596AC90AC902294359620368EA
:1070C000002A03D11A7ED107FCD50DE0187E0122DB
:1070D0004008104008D1197E1142F7D05968C022EB
:1070E00092020A435A6003E05B8B01209B0898439D
:1070F00030BD0368283319700268107E01231840E0
:1071000003D1518B1942F8D003E0528B181C92081E
:1071100090437047036828331970036800201A7E73
:10712000510703D55B8B01209B0898437047036888
:107130001868C006400F043843425841C0B2704737
:107140000368187E4007C00F70470368187E01234C
:10715000184070470368588BC006C00F704703681B
:10716000187E8007C00F70470368588B0007C00F58
:10717000704703681A68D206520F052A02D11A7E98
:107180009107FCD528331878C0B270470368224AAB
:1071900030B5934211D0214A934211D0204A9342F4
:1071A00011D0204A934211D01F4A934211D01F4A56
:1071B000934230D10E2319220DE0092314220AE054
:1071C0000A23152207E00B23162204E00C231722C2
:1071D00001E00D231822DCB2154901209B08A040D4
:1071E0009B0008605B180320C021890004405D58A3
:1071F000E000FF248440A5432C1CC0258540281CAA
:10720000204358508023DB011A430A4B5A805A7896
:1072100052B2002AFBDB30BD00080042000C0042E5
:10722000001000420014004200180042001C0042FE
:1072300000E100E0000C0040F8B5041C151C0E1C19
:107240001F1CFFF7A3FF201CFFF778FEB1001C22D4
:107250000A4069072368090C0A431A6022688423DC
:107260009375012E1AD10821012D00D110210C4B4C
:1072700079431868C00002F03BF8236807219A8917
:107280000140D2044903D20C0A439A8123680004C6
:10729000C20C9889400B400310439881F8BDC0464A
:1072A000900C002070B5041C0E1CFFF76FFF201C13
:1072B000FFF79BFE236814221A600D4B71001D68B6
:1072C0002468281C02F014F80A49061C281C02F045
:1072D0000FF87D23FA215843C90002F009F8301A4B
:1072E000E668FF23053818409E430643E66070BDFC
:1072F000900C002040420F0010B5041C01F032FC3D
:10730000E0602368201C9B699847002808DA01F098
:1073100029FCE368C01AA3689842F2D301204042D6
:1073200010BD000070B5041C0D1C161C201CFFF7BE
:10733000E3FF00281EDB2D281CD0021C303A092A4E
:1073400018D9002E01D02E2814D0012D10D0022DD6
:1073500009D1031C093B172B0AD801229A40131CA0
:10736000054A134204D02368201C5B699847DDE777
:107370000123584270BDC04613008000F8B5171CA9
:107380000022051CFFF7CEFF002821DB0024261C6D
:10739000B8420BD02D2808D0031C303B092B05D850
:1073A0000A235C432418303C00E001262B68281C8B
:1073B0005B699847281CFFF79FFF031C303B092B94
:1073C000E6D9B842E4D0201C002E02D0604200E092
:1073D0000020F8BD3F20704713B502686B46D97195
:1073E00007335468191C0122A04716BD08B500696F
:1073F000022100F0E1FC08BD08B50069032100F09E
:10740000F1FC08BD38B50D1C041C131C00690321D8
:107410002A1C00F0E3FD002801D10123636038BD80
:1074200010B5054C23685A1C04D103685B69984762
:107430002060031C181C10BD640C0020074A08B50E
:107440001368591C04D0012149421160181C03E043
:107450000069022100F0B4FD08BDC046640C0020A4
:1074600008B503780349023303704222024800F052
:107470006BFE08BD200C0020C73F002010B501782E
:10748000031C42780020A12908D1212A2FD11848B5
:107490001849072200F058FE012028E0212926D1B2
:1074A000202A05D113490722114800F0E1FC04E02D
:1074B000222A10D19A780F4BDA710E4B9622196856
:1074C000D200914210D1DC7901231C400CD1FA206A
:1074D00001F0DCFE0AE0232A09D1DA789B78120257
:1074E0001A43054B1A6002E001F0D6FE002010BDE1
:1074F000C73F0020140C00201C0C0020064BFA2172
:1075000089009960054900220831196004495A60D0
:1075100019611A767047C046F03A002028CA000068
:10752000C73F002070B544680E1C0025002C09D010
:107530002368201C5B68311C9847002804DB2D1849
:10754000E468F3E7281C01E00120404270BD38B533
:1075500044680D1C002C08D02368201C9B68291C43
:107560009847002802D1E468F4E7201C38BD38B5FC
:1075700044680D1C002C07D02368201C291CDB68E4
:107580009847E4682D18F5E72C7038BD38B5446885
:107590000D1C002C08D02368201C1B68291C984750
:1075A000002803D1E468F4E7201C00E0012038BD86
:1075B00030B5031C8A79407882180020072A24DC21
:1075C0005A68824201D1596005E0D068002801D094
:1075D000021CFAE7D1601A78C8790A715A784A71A0
:1075E0001A7882181A700022887990420CD98C6817
:1075F000900005595C780548A40025505878013260
:1076000001305870D2B2EFE7012030BD680C002085
:10761000064B0122196810B51140054805D1022416
:1076200004700424447041601A6010BD143B0020B3
:107630000C3B002010B507230F220240141C000948
:107640003034092A00DD0734CC54013BF4D210BD9C
:1076500010B5054B041C0360806901F04DFFA06A62
:1076600001F04AFF201C10BD58CA000010B5041CD0
:10767000FFF7EEFF201C01F0BDFA201C10BD00003A
:1076800070B582291ED1C2B22A495301CB189D6917
:10769000294C80012C40C025AD052C439C61274C12
:1076A0000832201858610B68520199180C79802013
:1076B000404220430871D15C702081433020014357
:1076C000D15435E0002933D1C2B21A495301CB1845
:1076D0009E68194DC0242E40A40526439E60184E76
:1076E000800109683018083258605201505C072642
:1076F000B0430126304350549E6935402C439C6171
:107700000E4C5C61505C7024A04310242043505404
:107710009C680C488A1820408024640320439860A9
:1077200098684021800B8003986053790B43537114
:1077300070BDC046D03F0020FFFFFF8F243C0020DB
:10774000E83D0020FF3F00F038B5041C08CC0121C3
:107750001A78051C0A431A708022201C002152004E
:1077600001F0ECFE2B689A78D107FCD45C6238BD3E
:10777000134BF0B51B6899035A029B01C90ED20E38
:107780005B0F1F2900D105211F2A00D11D22072BC5
:1077900000D1032304688E01278D0A491F25394033
:1077A0003143218501682A400C8DAC4322430A8570
:1077B00002681903108D044B03400B431385F0BD81
:1077C000246080003FF8FFFFFF8FFFFFEFF310837F
:1077D00003600123436072B670470368002B02D137
:1077E00062B6BFF36F8F704737B50569041C6846F2
:1077F000002D12D1FFF7EAFF019B013B03D3621D6D
:10780000D57FEDB2F9E768460193FFF7E6FF002068
:10781000854217D0206AE36913E0FFF7D7FF019B89
:107820000025013B04D3221C34321578EDB2F8E771
:1078300068460193FFF7D1FF0020854202D0206BFC
:10784000E36AC01A3EBD0000436810B51A68037AA7
:1078500001215B01D318FF339A7A0A439A72037AA3
:1078600042685B01D318C2689C6891040B4A0909FD
:1078700022400A439A60037A42685B01D3189A68EF
:107880004021920B92039A6043681A68037A083386
:107890005B01D3181A790A431A7110BDFF3F00F03B
:1078A000F7B50569041C0E1C171C6846002D1FD176
:1078B000FFF78CFF019B013B5A1C06D0621DD17F54
:1078C0005A1E00293AD0131CF6E768460193FFF7C9
:1078D00084FF0025E369BD4235D0226A934232D24B
:1078E0005A1CE261A269D3181B7873550135F1E780
:1078F000FFF76CFF019B013B5A1C08D0221C34325D
:1079000015785A1EEDB2002D18D0131CF4E7684606
:107910000193FFF762FF0025E36ABD4226D0226B88
:10792000934241D322E0621D0021D1773032167894
:10793000581E8E4214D1031C5A1CF4D16846019380
:10794000FFF74BFF38E0226A934235D10023E36111
:10795000012323616846FFF739FF019B013BEBE7F9
:107960001170201C0193FFF76FFFF6E7226B934223
:1079700022D10023E36223616846FFF727FF019BC2
:10798000013B5A1CDAD0221C343200211170013222
:107990001678581E8E4201D1031CF2E71170201C8C
:1079A0000193FFF751FFEAE75A1CE262A26AD3187B
:1079B0001B7873550135AFE7281CFEBD37B543680A
:1079C000027A1B68083252019A18041CD0790123EC
:1079D000FF21184255D0D371A068656962680140E3
:1079E000002D1FD14901521891688904890C216228
:1079F000216A002942D06361A36A68465360FFF799
:107A0000E5FE019B013B5D1C34D0621D0120D07757
:107A10002F3211785D1EC9B21218002915D11170CC
:107A20002B1CF0E74B01D3189A689204920C226346
:107A3000226B002A22D000226261A26968465A6045
:107A4000FFF7C4FE019B013B12E0019310706846F2
:107A5000FFF7C3FE15E0221C343201201070621DB6
:107A6000D17F5D1EC9B230320029EED111702B1CBE
:107A70005D1CF0D168460193FFF7AFFE201CFFF7B5
:107A8000E3FE37BD37B500236C46E3710734201C95
:107A90000D1CFFF7E5FC2B6818182860FFF7B8FDF0
:107AA000211CFFF73FFD2B681818286020783EBD89
:107AB00003290BD10D4BB2221B685200985C802128
:107AC000494201439954022168220CE001290CD15A
:107AD000064B92221B685200985C80214942014368
