:10000000ffcdccc0cbc0cac0c9c0c8c0c7c0c6c065
:10001000c5c0b2c2c3c0c2c0c1c0c0c0bfc070c32f
:10002000bdc0bcc0bbc0b7c22ac14bc155c17bc19a
:100030007ac179c146c177c154c159c15cc16bc194
:1000400064c152c170c164c12ac2e4c100c20fc2fe
:1000500088c287c286c227c228c229c21ec221c244
:10006000e4c127c216c2ffff000306090c0f1215d8
:10007000181b1e212427ffff0205080b0e11141761
:100080001a1d20232629ffff0104070a0d1013164d
:10009000191c1f2225282a2d30ffff3336393c3ffb
:1000a0004245484b4e512c2f32ffff35383b3e41e5
:1000b00044474a4d50532b2e31ffff34373a3d40d1
:1000c0004346494c4f5254575a5d6063ffff66697f
:1000d0006c6f7275787b56595c5f6265ffff686b69
:1000e0006e7174777a7d55585b5e6164ffff676a55
:1000f0006d707376797c7e8184878a8d909396ff6c
:10010000ff999c9fa2a5808386898c8f929598ffea
:10011000ff9b9ea1a4a77f8285888b8e919497ffd9
:10012000ff9a9da0a3a6a8abaeb1b4b7babdc0c399
:10013000c6c9ffffcccfaaadb0b3b6b9bcbfc2c56c
:10014000c8cbffffced1a9acafb2b5b8bbbec1c45e
:10015000c7caffffcdd0ffffffffffffffffffff7d
:10016000ffffffffffff11241fbecfefd2e0debf76
:10017000cdbf11e0a0e0b1e0e6e1fbe002c00590f8
:100180000d92a035b107d9f722e0a0e5b1e001c09a
:100190001d92a63ab207e1f727d3bbc431cf862719
:1001a000082e8295807f8025092e982f82958f704a
:1001b0000826869598278927880f880f880f80251d
:1001c00008958ebd0db407fefdcf0895cf93c82fbf
:1001d0002a988beaf6df8c2ff4df80e0f2df2a9a90
:1001e0008eb5cf910895cf93df9300d0cdb7deb712
:1001f0002a98805e4a836983e4df6981862fe1df84
:100200004a81842fdedf2a9a0f900f90df91cf91e1
:100210000895cf93c82f8cb58f778cbd40e06ae0ee
:100220008be0e1df4c2f4f7340686fe08be0dbdf4a
:100230008fe0ccdf8f738093770241e06ae08be040
:10024000d2df8cb580688cbdcf910895ef92ff927c
:100250000f931f93cf93df93ec018b01fb01808100
:10026000882309f47ac0e0917f028e2f90e08031dc
:10027000910508f058c0fc01ec5eff4f0994809195
:100280007e02811107c0188219821a821b821c8289
:100290001d8213c081e088838091790289838091d7
:1002a0007a028a8380917b028b8380917c028c838b
:1002b00080917d028d8310927e0286e0f80180831a
:1002c00007c084e0888381e0f801808310927f0278
:1002d0007e018fef9fef2ac0809188009091890066
:1002e000f1cf80917802eecf80917702ebcf80e260
:1002f000e7e5f2e003c080e2e7e3f2e0de0101902f
:100300000d928a95e1f780e2dfcf80913602dacf55
:1003100080913502d7cf9091330280913402988337
:10032000898382e0d1cf81e08883c8cff801208122
:100330003e2d3c1b321728f4f70161917f012fdf1e
:10034000f5cffe01e20ff11d9083f8019081c90ff6
:10035000d11d898380818e5f8083df91cf911f9132
:100360000f91ff90ef900895af92bf92cf92df92de
:10037000ef92ff920f931f93cf93df93ec01162f11
:100380008881982f907f903881f48f7090e068e199
:1003900070e0aed3dc01a55abe4f98e1fe01319664
:1003a00001900d929a95e1f7dcc0623008f4d9c053
:1003b000c62ed12cce018c0d9d1dfc013297e08004
:1003c000f12cfe2cee2431968081e80ef11c5e01aa
:1003d0008fef9fef22e0c21ad1082a2d2c1b30e0ac
:1003e0002c153d052cf4f50161915f01d8def5cfa8
:1003f0008e159f0509f0b5c06eef610fe8818e2f55
:1004000090e0fc013197ef30f10508f0aac0ec5df7
:10041000ff4f0994623039f4898190e0909389000c
:10042000809388009ec082e035c08de080937f027b
:10043000623009f096c08981df91cf911f910f91b1
:10044000ff90ef90df90cf90bf90af90e2ce6430fe
:1004500009f087c0ebe5f1e089819a81ab81819356
:100460009193a19322e0e333f207b1f77ac06530ac
:1004700009f077c0898190e063e070e039d3855a54
:100480009e4f2a813b814c81fc0120833183428332
:1004900068c08fe080937f0264c08be0fbcf81e077
:1004a000f9cf8ce0f7cf88e0f5cf89e0f3cf8ae091
:1004b000f1cf623009f055c0c9818cb58f778cbd02
:1004c00040e061e18be08fde40e84c0f60e18be0c3
:1004d0008ade81e17bde803839f08fec97e001978e
:1004e000f1f700c00000f5cf2a988cea6ade80e0c0
:1004f00068de07e512e080e064de8eb5f8018193e6
:100500008f01f2e007371f07b1f72a9a40e061e157
:100510008be069de40e44c0f60e18be064de81e15a
:1005200055de803439f08fec97e00197f1f700c089
:100530000000f5cf2a988cea44de80e242dec7e371
:10054000d2e080e03ede8eb5899392e0c735d907d0
:10055000c1f72a9a40e061e18be045de8cb5806806
:100560008cbddf91cf911f910f91ff90ef90df90a5
:10057000cf90bf90af9008951f920f920fb60f9239
:1005800011248f9381e080930f018f910f900fbe04
:100590000f901f9018951f920f920fb60f92112473
:1005a0002f933f934f935f936f937f938f939f937b
:1005b000af93bf93ef93ff938091b900883909f40b
:1005c00083c0c0f4883709f45cc050f4883609f45d
:1005d00058c0803709f455c0803609f079c051c041
:1005e000883809f471c0803909f44ec0803809f0a8
:1005f0006fc04ac0883b91f158f4883a99f0803b2b
:1006000089f0803a09f064c085ed8093bc004bc04e
:10061000883c09f457c0883f09f461c0803c09f068
:1006200057c050c01092a502e091a302f091a4021d
:10063000309749f080e28093a20262ea72e082e899
:1006400092e0099502c01092a2028091a20281114b
:1006500005c081e08093a20210928202e091a5027f
:1006600081e08e0f8093a502f0e0ee57fd4f808170
:100670008093bb009091a5028091a202981720f56b
:1006800021c01092a5021ec0e091a502e032e0f464
:1006900081e08e0f8093a5028091bb00f0e0ee57c1
:1006a000fd4f80830fc08091bc0084fdfccfe091a2
:1006b0008002f0918102309729f06091a50282e8d2
:1006c00092e0099585ec01c085e88093bc0007c0e5
:1006d00085ed8093bc008091bc0084fdfccfff9130
:1006e000ef91bf91af919f918f917f916f915f91aa
:1006f0004f913f912f910f900fbe0f901f90189523
:100700001f920f920fb60f9211248f939f93ef9326
:10071000ff938091590190915a018130910599f090
:1007200048f082309105c1f0039709f050c01ebc1b
:100730002a9a4dc02a98000080915801805e8ebd93
:1007400081e090e004c080e28ebd82e090e0909372
:100750005a01809359013fc0e0915801809157019f
:10076000f0e0f695fe2fee27f795e795e80ff11ddf
:10077000ea59ff4fe491e0935601809156018f3f73
:1007800011f41ebc07c0e0915601f0e0e55afe4f9f
:1007900080818ebd809157018f5f8093570180913a
:1007a00057018038c1f483e090e090935a01809320
:1007b000590110925701809158018f5f8093580121
:1007c00080915801823039f41092580104c010927f
:1007d0005a0110925901ff91ef919f918f910f90c3
:1007e0000fbe0f901f9018958ce684b92e9a2a9a06
:1007f0002a9a8fec97e00197f1f700c0000081e59d
:100800008cbd9db581e089278dbd40e06ae08be01d
:10081000eadc8be1dbdc8093780287e1d7dc809334
:10082000350240e060e08be0dedc40e161e08be03f
:10083000dadc44ee6de08be0d6dc41e06ee08be08c
:10084000d2dc47e064e18be0cedc40e465e18be0a4
:10085000cadc2a988de2b5dc80e0b3dcc0e1d1e0ef
:100860008991afdc91e0c035d907d1f72a9a8fe39f
:10087000d0dcc0e240e06c2f80e0b5dccf5fc03a56
:10088000c9f7c0e240e06c2f81e0addccf5fc03a39
:10089000c9f7c0e04fef6c2f80e0a5dccf5fc0311f
:1008a000c9f7c0e04fef6c2f81e09ddccf5fc03116
:1008b000c9f741e06ae08be096dc8cb580688cbdbe
:1008c000789487b18f6887b988b18f6888b91ab86a
:1008d0009fef9bb9809181008c6080938100109282
:1008e0008500109284002fe030e03093890020933f
:1008f000880080916f00826080936f007894219ac5
:1009000029982198000083b18695817080933602e2
:100910002ce088e10fb6f894a895809360000fbe94
:100920002093600024eb31e0309381022093800219
:1009300026e231e03093a4022093a3022098289865
:1009400083b181708865880f8093ba009093bb0053
:100950008091b9008e7f8093b9008091b9008d7f1e
:100960008093b90085ec8093bc00789441e050e01e
:1009700067e4c62e76e8f72ebb24b39480910f016e
:10098000882309f4a8c0e2e0f1e0a0e0b1e060e073
:1009900070e0d12c30e0343011f447980bc098b19e
:1009a0008a01062e01c0000f0a94eaf7802f809575
:1009b000892388b9000089b1343011f4479a09c0fd
:1009c00098b18a01062e01c0000f0a94eaf7092b9c
:1009d00008b9e0808e252c91ef019a9192279823f7
:1009e0009883209528232c93209528239095822f57
:1009f0008923e826e082d80e3f5f6f5f7f4f3396f2
:100a00001396353041f6d11003c010920f011dc06e
:100a1000f89480910201809580937902809105017c
:100a2000809580937a0280910801809580937b0263
:100a300080910b01809580937c0280910e018095be
:100a400080937d02b0927e027894809152019091c1
:100a500053019093550180935401809150019091de
:100a600051019093530180935201809164008e7fd5
:100a700080936400c0927c00f0927a0080917a00aa
:100a8000806480937a0080917a0086fdfccf20916b
:100a900078008091790090e0982f8827820f911d2f
:100aa0009093510180935001e0915401f0915501d0
:100ab00060915201709153016817790770f0e8173f
:100ac000f90758f0cb01e817f90708f4cf01909324
:100ad000340280933302a89551cf8617970718f0f8
:100ae000e617f70780f76817790788f7cb01efcf8c
:100af0000024552704c0080e591f880f991f00971e
:100b000029f076956795b8f37105b9f7802d952f83
:060b10000895f894ffcfe8
:100b16000000ff0000ff0000ff0000ff0000ff01d3
:100b2600505555550000000000000000155455555d
:100b360000000000000000005505555500000000ab
:100b4600000000005555415500000000000000005f
:100b56005555555000000000000000000000000040
:101c000013c022c021c020c01fc01ec01dc01cc0e8
:101c10001bc01ac019c018c017c016c015c0f9c023
:101c200013c012c011c010c011241fbecfefd2e0ec
:101c3000debfcdbf21e0a0e0b1e001c01d92a33422
:101c4000b207e1f7f1d0cec1dbcfe0e0f1e09fefea
:101c500080e48e0f91938e13fdcf0895e3e0f0e0c2
:101c60008491df01a050bf4f8c933197c8f708953e
:101c700040e050e061e0fa01e050ff4f218130e0a8
:101c8000322f22277081272b07b600fcfdcffa01e7
:101c9000e80ff91f090160935700e89511244e5f82
:101ca0005f4f4034510539f707b600fcfdcf25e002
:101cb000fc0120935700e895089584e98093bc00c7
:101cc0000895fc01603811f094e801c094ec909301
:101cd000bc008091bc0087fffccfa8958091b90023
:101ce000861719f0eadf80e008958091bb008083b9
:101cf000683819f484e88093bc0081e00895cf939c
:101d0000df9300d0cdb7deb760e8ce010296d9df11
:101d100060e8ce010196d5df898190e0982f882771
:101d20002a81822b0f900f90df91cf91089580939d
:101d3000bb0084ec8093bc008091bc0087fffccf8b
:101d4000a8958091b900883b09f0b7cf089583b179
:101d500081708065880f8093ba0084e48093bc0012
:101d600008958627682f62956827062e66956695e2
:101d70006025062e669560256770082e892f66956a
:101d800007946795902d862706946795902586275a
:101d90000895cf92df92ef92ff920f931f93cf930c
:101da000df9387b7082f017080ff03c086df00e054
:101db00026c010914001c12fd0e084e0cc0fdd1f80
:101dc0008a95e1f7c050df4f6e0180e1c80ed11c4b
:101dd000ee24ea94fe2c60e8ce0173df882379f0cc
:101de0006991c701bedf7c01cc15dd05a1f787df56
:101df000e816f90621f41f5f1093400101e0802fdf
:101e0000df91cf911f910f91ff90ef90df90cf90d6
:101e100008951f920f920fb60f9211241ebc0f90bf
:101e20000fbe0f901f901895cf93df9300d0cdb7c2
:101e3000deb7209881ed8cbd81e08dbd84b714bee6
:101e4000837009f4c2c083df9be088e10fb6f89489
:101e5000a895809360000fbe9093600084ec982e4c
:101e600098e1b92e29e2822e33e0a32ee12cf12c49
:101e700048e0742ecc24ca94dc2c9092bc00809153
:101e8000bc0087fffccfa8950fb6f894a895b09238
:101e900060000fbe809260008091b900803669f0ca
:101ea000883a09f090c081e042df809141013fdf34
:101eb000809142013cdf4bdfe0cf60e8ce0102962b
:101ec00000df8823d1f28a818330a9f128f48130a0
:101ed00049f0823081f077c08430b1f1863009f466
:101ee00051c071c010924001b0de09df90934201f1
:101ef00080934101c2cf81e491e04bdf811102c0a8
:101f000060e815c080914001843081f40091410166
:101f100010914201007c0115110511f49fde04c0ef
:101f200001158ce1180710f4c801a2de68e8ce01a3
:101f30000196c7dea2cf0fb6f894a895b0926000c4
:101f40000fbe70926000ffcf80de88de07b600fc17
:101f5000fdcff701a0925700e89580e090e088de81
:101f600080e490e085dee0e4f0e007b600fcfdcf21
:101f7000a0925700e895e05cff4fe1158ce1f8076f
:101f8000a1f77bcfbcde8c01bade2c01400e511ec6
:101f90004114e0e25e0608f070cfd0924201c09298
:101fa00041010415150508f068cff801649180918e
:101fb000410190914201d5de90934201809341010d
:101fc0000f5f1f4feecf79de58cf0fb6f894a8956c
:101fd00080916000886180936000109260000fbe65
:081fe000bac0ffcff894ffcf57
:00000001ff
