:1020000000800020C98E0000B18E0000B18E00005B
:1020100000000000000000000000000000000000C0
:10202000000000000000000000000000B18E000071
:102030000000000000000000B18E00001D8F0000B5
:10204000B18E0000B18E0000B56E0000B18E0000B0
:10205000B18E0000B18E0000B18E0000B58E000080
:10206000B18E000081700000B18E0000B18E0000C2
:10207000556E0000B18E000091700000B18E00001E
:10208000B18E0000B18E0000B18E0000B18E000054
:1020900000000000B18E0000B18E0000B18E000083
:1020A000B18E0000B18E0000B18E0000B18E000034
:1020B0000000000010B5064C2378002B07D1054B1B
:1020C000002B02D0044800E000BF0123237010BDA4
:1020D000600D002000000000E4CE000008B5084BB1
:1020E000002B03D00748084900E000BF07480368F9
:1020F000002B03D0064B002B00D0984708BDC046EC
:1021000000000000E4CE0000640D0020540D00200B
:10211000000000007047704770477047002802D0E9
:10212000014B416003607047C89E0000002802D048
:10213000024B416003600A707047C046D89C0000A3
:1021400070B5041C0D1C161C002801D001F040FDC8
:102150002E70201C70BD0000002809D0054B012204
:102160000360002303818381FF23416082728373B4
:102170007047C046B09E0000002809D0054B0122E0
:102180000360002303818381FF2341608272837394
:102190007047C046989E000010B500280CD103235C
:1021A0001940022908D1054C0549201C02F0F4F819
:1021B000201C044902F0F0F8002010BDD7100020C8
:1021C000589C0000749C000008B5084800F082FF8D
:1021D000074800F023FE074801F04EFE064804F0D1
:1021E00039FB064801F018FA002008BD78100020DD
:1021F00074100020C210002068340020AC100020B1
:1022000008B5044801F00AF8034801F0A9F90020D4
:1022100008BDC04678100020AC10002008B5024868
:1022200000F0C0FB002008BD2A10002008B50648B9
:1022300002F0F6F8054801F07BFD054804F040FB8C
:10224000044801F04FF908BDD7100020C21000204B
:1022500068340020A410002008B5024802F0DAF823
:10226000002008BDD71000200920704708B50B1CBE
:102270000349C00009180822181C07F040FB08BDDC
:10228000829C000008B5024803681B68984708BD97
:102290006834002070B5114800F06AF90A2000F097
:1022A000DBFDFA20C00000F0FDFC0D480A2100F023
:1022B00069FB0C48FF2101F09BFF0B48FF2101F057
:1022C00099FF0A4D01262B68094C334203D1201C8B
:1022D00001F0AAFC2E60074B1C6070BD2E0F002081
:1022E0002A100020CE100020D2100020E40D002083
:1022F000DC0D0020B810002008B5024800F020F9DD
:1023000008BDC0462E0F0020F7B51D1C161C0F1C63
:102310000A782978041C009133781848211C02F0AF
:1023200057F8012828D029783A7833780091144852
:10233000211C01F081FD01281ED029783A783378DC
:1023400000911048211C01F053FC012814D0297879
:102350003A78337800910C48211C01F025F90128C6
:102360000AD029783A78337800910848211C00F087
:1023700081FC013843425841FEBDC046D7100020C1
:10238000C2100020B4100020AC10002072100020F9
:1023900073B5151C1E1C0C1C6A4669466B4607313A
:1023A0000632053315701E700C70FFF7ADFF76BD59
:1023B00010B5041C2168204800F0ACFD012839D07C
:1023C0001E48216800F036FF012833D01C482168E0
:1023D00000F0AAFF01282DD01A48216801F08EFDD7
:1023E000012827D01848216801F06EFA012821D071
:1023F0001648216804F0DAFA01281BD01448216835
:1024000000F0E0FA012815D01248216801F044F9E3
:1024100001280FD01048216802F0E0FC012809D003
:102420000E48216800F04EFC012803D021680C48BA
:1024300001F02CF810BDC046741000208010002060
:102440007F100020CC100020B01000206834002045
:102450002A100020AC10002047130020721000202A
:10246000A410002007B5019001A8FFF7A1FF0EBD41
:1024700070B52B4D2B4E2024281C311C221C07F03C
:102480003EFA31192819221C07F039FA281C311C90
:10249000221C4031403007F032FA281C311C221C2B
:1024A0006031603007F02BFA1F4E281C311C221CB3
:1024B000803007F024FA281C3119221CA03007F0C4
:1024C0001EFA281C311C221C4031C03007F017FABC
:1024D000281C311C221C6031E03007F010FA134E2A
:1024E000681C311C221CFF3007F009FA90235B00A6
:1024F000E8183119221C07F002FA0D49FF230022C7
:102500004A708A700B700B490A704A708B700A49C6
:102510000A708A70094A4B7013705370937070BDC3
:10252000EE0D0020189B0000989B0000189C0000F6
:10253000E80D0020E00D0020D80D0020EB0D00205C
:1025400008B506F0F9FC084B1860FFF759FE07487C
:1025500002F000FAFFF76AFE03F02CFB03F0D0FA5A
:10256000FFF77AFE08BDC046300F002000110020A2
:10257000962138B58901124806F056FAFFF724FE75
:10258000104802F06FFB03F031FA03F057FB03F041
:1025900067FBFF2100200A1C002300F015F800F063
:1025A000EBF800250024211C0134281CE4B200F0C3
:1025B000ABF8102CF7D10135EDB2052DF2D138BDB5
:1025C000A836002000110020F7B501AF38800E1C9E
:1025D000151C1C1C04292FD80F2A2DD80323234097
:1025E0000093022B10D183B2002B03D0A20901214A
:1025F0000A4204D0301C291C00F086F804E03101A6
:102600004919394A49008B523848311C2A1C02F0BA
:10261000C7F9002807D00098012864D13348311C3D
:102620002A1C02F0A5F93B88002B05D13201521972
:102630002D4B5200D35A3B80381C311C2A1C231CC2
:10264000FFF7A6FE00284ED12A1C3888311C231C17
:1026500000F061F985B23880FF22002D43D06B462F
:1026600005331B78402119401FD01902154058B27C
:102670000D43002837DB1E0707D5A00733D51540CB
:10268000081C284303F0E2FA2DE0012003422AD07F
:10269000A30728D4044226D015400D43281C03F07C
:1026A000E7FA281C03F0ECFA1DE003202040022882
:1026B00005D12A401B02101C1843012105E0A60782
:1026C00006D52A401B02101C184303F0CDF90AE07E
:1026D000012808D164B2002C05DA2A401B02101C24
:1026E000184303F027FAF7BD8A0F002000110020DD
:1026F00005235843411809015118024B4900585A03
:102700007047C046EE0D002038B50A1C031C0101BD
:10271000054889184C00085C04490D68191CA84735
:10272000034BE05238BDC046380F0020080000209F
:102730008A0F0020084B094A1B781268013BDBB264
:10274000002B06D0111CD940C80702D4013BDBB2D4
:10275000F6E7034A1370704704000020340F00208E
:10276000880F0020034B1B68C340181C012318402E
:102770007047C046340F0020F7B5184C0021201CCC
:10278000502207F0C5F80025EBB2144A00932B0144
:10279000D31801930024124BE7B21E7873B2002BBA
:1027A00015DDF6B2301CFFF7DDFF00280CD00D4B15
:1027B000301C1B6800993A1C98470B4B80B298421A
:1027C00002D0019A165502E0013EF6B2E6E7013466
:1027D000102CE0D10135052DD6D1F7BD380F0020E2
:1027E000880F002008000020FFFF00000A4B10B5F2
:1027F0001A680121141CC4400C420CD081408A4349
:102800001A60064B1B78834201D1FFF793FFFFF755
:10281000B3FFFFF703FD10BD340F0020880F002029
:1028200010B50D4B041C1B78834213D9FFF79AFF98
:1028300000280FD1094B01221968A2400A431A60EF
:10284000074B1B78A34201D2FFF774FFFFF794FFF9
:10285000FFF7E4FC10BDC04604000020340F002048
:10286000880F002008B5034B00221A60FFF7D8FF3D
:1028700008BDC046340F002008B5034B187801305E
:10288000C0B2FFF7CDFF08BD880F002008B5024B8E
:102890001878FFF7ABFF08BD880F002010B5C4B251
:1028A000292C25D92A3CE4B2212C0DD0222C12D17E
:1028B00003231940022902D1FFF7DEFF2AE0012994
:1028C00028D1FFF7E3FF25E0032319400229F8D0C0
:1028D00001291FD1F0E78B0705D5201CFFF742FF28
:1028E000002817D113E003231940012912D10AE06F
:1028F0000323194002290DD1201CFFF733FF0028C4
:1029000005D0002C03D0201CFFF770FF02E0201C34
:10291000FFF786FF10BD020408B5120E442A03D14A
:10292000191CFFF7BBFF002008BD000008B5064BCF
:102930001978064B1970064B1B788B4203D3054B55
:10294000188800F07FFF08BD880F00202E1000209F
:102950002B1000202C10002010B5131C064A0C1C54
:102960001178064A12788A4204D3054A1088221C3C
:1029700000F082FF10BDC0462E1000202B1000205A
:102980002C10002010B5054C2388002B05D1044BDA
:10299000081C197000F0F4FE208010BD2C100020DF
:1029A0002B10002008B5054B1A7803789A4203D102
:1029B000034B1868FFF7BAFF002008BDC0100020C5
:1029C000C810002007B5054A054B12781B8805483A
:1029D0000092054A00F0F2FF0EBDC0462B10002009
:1029E0002C100020B0100020E89C0000014BFF22BA
:1029F0001A7070472A10002070B5051C0E1C141C9C
:102A00008B070AD5FF210A1C8223FFF7DDFD002C6E
:102A100003D103F0CFF803F03BF9F3070BD5FF2107
:102A2000281C0A1C8123FFF7CFFD002C03D103F0E3
:102A3000C1F803F02DF970BDF8B5071C0E02064869
:102A4000391C151C1C1C03F053F9291C3043221C93
:102A5000FFF7D2FFF8BDC04664130020F7B5284A3F
:102A6000284B002516881D800195254B1A88264B7A
:102A70001B88D3189E4242DA244F741C381C311C28
:102A8000A4B203F035F90D2837D806F011FE270758
:102A9000070909090707073535350C1EB41C00E086
:102AA000F41CA4B228E0211C381C03F021F9651C99
:102AB000ADB2061C291C381C03F01AF90643023477
:102AC000F5B2A4B2002DEED117E0211C381C013460
:102AD000A4B203F00DF90028F7D10DE0019B0849DD
:102AE00001330A88DBB207490193A21A5B00CA527C
:102AF000002D04D1012500E00025261CB5E7F7BD17
:102B000070100020301000206E1000206413002090
:102B1000554BF7B54900CF5A544B00251B882E1C46
:102B2000FF18BFB25248391C03F0E2F87C1C013890
:102B3000A4B24F4B0C2800D995E006F0B9FD0E1653
:102B4000202B39454B52078E095B7C00012585E01F
:102B500003F030F803F09CF880E0181C211C03F00F
:102B6000C7F80237BFB2061C07E00237181C211C49
:102B7000BFB203F0BDF806F0E5F93C1C6EE0211C85
:102B8000181C03F0B5F8FC1C0237011CA4B2B8B243
:102B9000022209E0211C181C03F0AAF8FC1C0237D1
:102BA000011CA4B2B8B201222B1CFFF745FF55E06F
:102BB000211C181C03F09CF8FC1C0237011CA4B259
:102BC000B8B203220023F0E70237BFB2201C002175
:102BD000022204E00237BFB2201C002101222B1C7C
:102BE00005E002370021BFB2201C03220B1CFFF7B7
:102BF00023FFC2E71E4F631C9BB2211C381C0193AC
:102C000003F076F801990090381C03F071F8009AEF
:102C1000071C1302C0B2184303210022FFF7ECFE89
:102C2000301C06F08FF9009B02341F43FFB2A4B2A0
:102C3000002FDFD112E0211C0D4803F059F80321C9
:102C4000071C0022C0B20134FFF7D6FE301CA4B22C
:102C500006F078F9002FEED100E00025301C06F0D8
:102C600071F9271C5EE7F7BD3010002070100020BE
:102C70006413002010B50A4C098802AB1A780B19AE
:102C80009BB200241F2B08D8032313400124022BDE
:102C900003D15C39C9B2FFF73BFF201C10BDC04611
:102CA000A42E000010B5041C00F0E8F9034B1880B6
:102CB000034B1C80FFF7D2FE10BDC04670100020F1
:102CC0006E100020F7B5314A019031480E1C00F01B
:102CD000C9FB0024051EA54255D1301C2D490722F1
:102CE00006F0DDFE2C1C00284DD10736301C2A4989
:102CF00006F0C4FE051E37D1284C201C04F07AFDD6
:102D00000A2815D1264B1B88AB422DD9254B2648C6
:102D10001988491902F0ECFF0A22011C201C04F05A
:102D2000B8FA0135201C202104F034FAADB2E9E7ED
:102D3000201C04F05FFD1C4F0A2810D00021012246
:102D4000201C04F005FD6B1C9BB20093154BC2B216
:102D50001988381C491902F0D7FF009DE8E7FFF7F2
:102D60007DFE381C02F0E8FF1049301C06F086FE9C
:102D70000124011E07D10948221C04F0E9FCC1B25C
:102D80000198FFF7C5FE201CFEBDC046F59C000063
:102D9000A41000200F9D0000F19C0000383B002093
:102DA0006E1000207010002064130020079D0000AA
:102DB000F8B50F4B1B78834201D8002017E005259A
:102DC00045436D180B4E2D01AD180B4C31886D002D
:102DD000ADB24919201C02F08BFF3188071C4D1938
:102DE000691C201C02F084FF3F02C0B23843F8BDCA
:102DF00075100020761000206413002008B5064BE3
:102E00001B78984202D2FFF773FC03E0C01AC0B2ED
:102E1000FFF7CEFF08BDC0467310002008B5044878
:102E200000F058F9034B00201A78034B1A7008BDC4
:102E300078100020040000207310002008B5044B17
:102E40001870A023584300F019F9024B188008BDF0
:102E5000751000207610002008B5094B094A197832
:102E60001070C909084B01D0084A04E008490978E4
:102E700041181170074A1A60FFF7E0FF08BDC0460D
:102E80007A1000200400002008000020B12D00006E
:102E900073100020FD2D0000F8B5094F0D1C094CE2
:102EA000398846002A048919201C120E02F02CFFD2
:102EB0003988EAB28E19711C201C02F025FFF8BD7A
:102EC0007610002064130020F7B5002500900191D2
:102ED000009B9D421BD000240026321C019B211C1C
:102EE000281C98470A4F81B20A22381C013604F088
:102EF000B8F9F6B2381C202104F04CF9102EECD1B0
:102F00000134E4B2052CE7D10135EDB2E0E7F7BDBD
:102F1000383B002038B53C483C4A0D1C00F0A2FA72
:102F20000024A0426ED1281C3949072206F0B7FDC3
:102F3000A04267D10735281C364906F09FFDA04204
:102F40002AD1354D281C04F055FC021E0A2A0AD14C
:102F5000324B281C1978C90904F09BF9281C202140
:102F600004F018F94DE0211C0122281C04F0F0FBAC
:102F7000C4B2201C00F00EF9294B2A4A19782A4BBA
:102F80001170002C01D0294A04E029480078091862
:102F90001170284A1A6034E0281C274906F06EFD9B
:102FA000002803D1224B254918780EE0281C24491B
:102FB00006F064FD002825D1174D281C04F01AFCEA
:102FC0000A2816D1164B19491878FFF77DFF18E02B
:102FD000134B50221B7853439C420FDA00210122ED
:102FE000281C04F0B5FB011C201CFFF755FF013421
:102FF000A4B2281C04F0FEFB0A28E9D1114802F013
:103000009BFE0124201C38BDA4100020179D000049
:10301000469D00003B9D0000383B00207A100020B8
:10302000751000200400002008000020B12D0000D1
:1030300073100020FD2D00004E9D0000F1260000C1
:10304000569D00006413002010B5054C011C0A2297
:10305000201C04F01EF9201C202104F09BF810BD58
:10306000383B0020034B00201B78834201D0024BE9
:1030700058887047791000207A10002013B5094B4A
:10308000694606311B7808800020834209D1064B2F
:103090000A881C880548A2181A80022200F0BAF992
:1030A000201C16BD791000200C000020821000208A
:1030B000F8B5071C0D1C0E1D0C1C791B0919227874
:1030C0000348013402F034FEB442F6D1F8BDC046E4
:1030D0006413002038B50021114D4C1C281C02F04F
:1030E00007FE10490B19013B1870042C01D0211C5C
:1030F000F2E74B78FF2B10D10B785A06520E7F2A3D
:1031000003D1DB0901D000230B70012300204B7099
:10311000FFF7CEFF281C02F00FFE002038BDC0468E
:10312000641300207A10002008B505490020FFF73D
:10313000BFFF044802F000FE034B01221A7008BDD5
:103140007A100020641300207E10002038B50F4B49
:10315000051C1B780E4C834209D9FFF783FB2178AD
:103160007F232A1C99431A400B1C134323707D2D87
:1031700005D923787F2293437E2213432370FFF7E0
:10318000D3FF20784006400E38BDC0460400002022
:103190007A10002008B5094BC20118787F21084039
:1031A00010431870C0B24206520E8A4203D19043B7
:1031B0007E2210431870FFF7B7FF08BD7A10002079
:1031C00038B5114D114B0122281C10211A7000F046
:1031D0000DF90F4C6378012B03D00E4B00221A70AF
:1031E00011E063880C492A888B4203D16280FFF783
:1031F0009BFF01E09A4206D120784006400E7D28D0
:1032000001DCFFF72FFB38BD821000207910002071
:103210007A1000207E100020FFFF000008B5044B4C
:103220001B78002B01D1FFF7CBFF002008BDC04663
:103230007910002070B53048304A0D1C00F012F9AA
:103240000024A04256D1281C2D49092206F027FC53
:10325000A0424FD10935281C2A4906F00FFCA04294
:1032600026D0281C284906F009FCA04234D0281C8E
:10327000264906F003FCA04237D0281C244906F05A
:10328000FDFBA04236D1234B1E88FFF7EBFE224CFC
:10329000051C311C0A22201C03F0E3FF201C1F49DF
:1032A00003F070FF201C291C0A2203F0DAFF20E043
:1032B000194D281C04F09EFA0A2804D1184B1878DE
:1032C0004006400E13E0281C211C012204F040FAA5
:1032D000C0B2FFF73BFF0CE0124B187800F0DEF8AD
:1032E00020210D4803F056FF03E00D4B5878FFF7FF
:1032F000ABFE0124201C70BDA41000205D9D0000C9
:10330000A19D0000AB9D0000B89D0000B6A4000088
:103310009D9D000082100020383B0020BF9D0000D2
:103320007A1000207E100020F8B52948294A0D1C8B
:1033300000F098F80024A04247D1281C264906F046
:103340009DFB061EA64214D0281C244906F096FBBD
:10335000A0423AD1224B234C1B8880218901C91AF3
:10336000201C0A2203F07DFF201C202103F012FF05
:103370002AE01C4F341C381C04F03CFA1A4D0A2871
:103380001AD1211C281C02F0B3FCFFF75DFE0134AA
:1033900080239B019C42F4D116E000210122381CBD
:1033A00004F0D6F9211CC2B2281C02F0ADFC013495
:1033B00080239B019C4204D0381C04F01BFA0A288D
:1033C000EBD1281C02F0B8FC0124201CF8BDC0463B
:1033D000A4100020C19D0000DD9D0000D19D0000D3
:1033E0000C000020383B00206413002030B5038817
:1033F000012213408A420AD2048801256410048005
:103400005B002C40234352199BB2D2B2F2E70380F7
:1034100030BD0000F7B5013AD2B2FF2A18D00B78C0
:103420000124019308230688019FF50B274201D050
:1034300001277D407600B6B2002D01D0054D6E40CB
:103440006400013B0680E4B2002BECD10131E2E7DD
:10345000F7BDC0460580FFFF014B00221A80704770
:103460008210002010B5081C0649141C06F006FB4B
:103470000023984204D10448211C03F099FE012343
:10348000181C10BDED9D0000383B002008B5024A15
:10349000FFF7E8FF002008BDED9D000008B50028FB
:1034A00001D0034900E00349034803F06BFE08BD67
:1034B000F29D0000F79D0000383B002010B5084C3D
:1034C000201C04F07DF9002808D0201C04F092F99B
:1034D0000A2803D0201C04F09BF9F6E710BDC04673
:1034E000383B0020F7B51B4D0024281C04F068F978
:1034F000A0422DD0631C281C0193DEB204F088F991
:10350000154FE055281C04F075F93B1C0A2806D01D
:103510003A5D202A03D0019C202CEBD1261C711E81
:10352000585C0022202801D15A5400E09A55181CFA
:10353000FEF798FF0949281C03F03AFEFFF7BEFF8B
:10354000281C04F057F90A2802D1281C04F060F95D
:103550000020FEBD383B002084100020FD9D0000AF
:1035600013B50D4C2378002B14D10C4A1288002A75
:1035700010D00B4A11680B4A126891420AD301AA73
:10358000137053709370019800F08AFB00F0C2FB37
:1035900001232370002016BDBC1000200E00002067
:1035A000300F0020A810002007B50F4A1378002B19
:1035B0000DD00023137001AA1370537093700198FB
:1035C00000F06EFB094B186803685B689847084B6E
:1035D000FA221B8892005A43064B00201B68D2181F
:1035E000054B1A600EBDC046BC100020C81000205C
:1035F0000E000020300F0020A810002070B5051C20
:103600000E1C141C127802F093FB281C711C6278AB
:1036100002F08EFB201C70BDF7B50220FFF72EFDD7
:10362000184C194F061C311C3880201C02F060FB1E
:103630006D46A871711C201C02F05AFBE871EE88DF
:10364000124B134D9E4207D13988201C2A1CFFF7CC
:10365000D5FF201C02F070FB3F88201C391C02F0B3
:1036600047FB791C2870201C02F042FB687005F0B3
:1036700063FCFA239B005E43064B86191E60002004
:10368000FEBDC04664130020AE100020FFFF000006
:103690000E000020A810002070B51F481F4A0C1C07
:1036A000FFF7E0FE061C0020864233D1201C1C4997
:1036B000092206F0F4F9051C301C002D2AD1201C2B
:1036C0000930184906F0DAF9061C281C002E21D111
:1036D000154C201C04F08EF8144D021E0A2A08D145
:1036E0002988201C03F0BDFD201C202103F052FD81
:1036F00005E0201C311C012204F02AF828800C4C23
:103700000C4B2A1C1988201CFFF778FF201C02F0A4
:1037100013FB012070BDC046A4100020019E0000D4
:10372000189E00000A9E0000383B00200E0000207A
:1037300064130020AE10002010B5054C011C0A22B5
:10374000201C03F0A6FD201C202103F023FD10BD4A
:10375000383B0020084B07B51B78002B0BD101AA82
:10376000137053709370019800F09AFA034B186825
:1037700003685B68984707BDBC100020C810002094
:1037800038B5074C051C2388002B03D13020FFF7E8
:1037900075FC208042206843FFF770FC38BDC046AE
:1037A000B210002010B50C1C49084118054802F061
:1037B0009FFA031C0011C0B2E20701D50F20184088
:1037C00010BDC0466413002037B503254543104B98
:1037D00000241B88ED18ADB261190E4802F088FA7A
:1037E0006A46A0540134032CF6D113789178DB4358
:1037F00013705378DB4353701288FF23101C120A96
:10380000184012028B431B04104318433EBDC046B0
:10381000B21000206413002007B5FFF7C3FFFFF7C5
:10382000D3FFFF23010A021C19401A400902114369
:10383000000C034A0340081C1B04104018430EBD33
:10384000FFFF00FF37B542254D434519ADB20024B7
:10385000211C281CFFF7E0FF01AB1870020A000CC6
:1038600098705A70E0B201340199A4B200F00EFAD7
:10387000842CEDD137BD000037B542254D43111CD6
:1038800045191A1C094800F031FFADB2041C211C77
:10389000281CFFF7C1FF01AB020C010A1870597018
:1038A0009A70201C019900F0F1F937BD0011002039
:1038B00008B5044803F09EFF0A3843425841C0B29D
:1038C00008BDC046383B0020F0B5374C85B03748BE
:1038D000221C0E1CFFF7C6FD051C0020854260D18E
:1038E000211C301C06F0CAF8041C281C002C58D1DE
:1038F000FFF7DEFF051E28D0201CFFF765FF03AA97
:10390000031C107000041902000E090E5070C5B29D
:10391000D8B2CEB291700134FFF70EFF281CFFF72A
:103920000BFFE4B2301CFFF707FF102CE4D137E0A7
:10393000009A381CA118325D013402F0F9F9032C09
:10394000F6D10335ADB2302D25D0FFF7B1FF184FBA
:10395000041E20D1174E211C301C012203F0F8FE5A
:10396000211C00900122301C03F0F2FE0122019084
:10397000211C301C03F0ECFE009A03AED343019AE5
:103980003370D34373700C4BC0431B88B070EB187B
:103990009BB20093CCE7381C02F0CEF9FFF7DAFEB9
:1039A000012005B0F0BDC046229E0000A4100020FA
:1039B00064130020383B0020B2100020F0B585B021
:1039C00002932F480AAB0E1C141C1F78FFF74AFD08
:1039D000051C0020854251D1211C301C06F04EF8F8
:1039E000041C281C002C49D142237B430193FFF780
:1039F0005FFF00281BD0019AA3B293423DD2029AE6
:103A00002048A11802F074F9061C0011C0B2FFF79B
:103A100093FE1D4DF023311C99430A22281C03F00C
:103A200020FC281C202103F0B5FB0134E3E7041C33
:103A3000FFF73EFF134E051E1AD1019AA3B293421F
:103A400016D2114F291C0122381C03F081FE291CBB
:103A500003900122381C03F07BFE029BE118039BBC
:103A600001341A011218D2B2301C02F04DF9DFE70E
:103A7000301C02F061F9FFF76DFE012005B0F0BDCA
:103A8000A410002064130020383B0020F0B5087813
:103A900085B00C1CE0280CD9FF22101A111C80B232
:103AA00000F0F4FA6A460104030C9372C5B2090EE1
:103AB0001DE0FF210A1C1E2000F0E8FA07043F0E5B
:103AC00001972778030CC0B27843154E6A4693726B
:103AD000FF25B04203D0291C05F042FEC5B2019873
:103AE000FF217843B04202D005F03AFEC1B22378FC
:103AF000E02B01D9013B08E03F2B01D9103B04E04A
:103B00001F2B01D9203B00E0002323706B46987ADD
:103B10001D7259721B890004184305B0F0BDC046E0
:103B200001FE0000F0B5264B85B01B68061C002B7B
:103B300043D0244B1A680389D31A234A9BB21288B4
:103B40009A423AD8071C002500243B196946009385
:103B50009B7AE2B20B3101920B70002B0FD0184B05
:103B6000186803681B68984703AB020A1870000CBA
:103B700098705A70281C0199039A00F0A7F86B46B8
:103B80000B331B78009A9372002B0BD10F4B281C20
:103B90005A7819789B7812020A431B041A43019938
:103BA00000F094F80134102CCFD10135EDB210376C
:103BB000052DC9D1034B1B68338105B0F0BDC0464C
:103BC000B8100020300F002010000020B510002099
:103BD00010B5064B416008330021041C03600181CD
:103BE00050220A3005F094FE201C10BD409E0000BB
:103BF00010B502A90978042A0FD80F2B0DD8084C4C
:103C000000782478844208D1880706D50549120136
:103C100009688A18D318FF229A72002010BDC04686
:103C2000C0100020C8100020014B0833036070470B
:103C3000309E0000014BFF221A707047B410002024
:103C400038B50A4D041C0021281C012203F080FD18
:103C5000002120700122281C03F07AFD00216070F1
:103C60000122281C03F074FDA07038BD383B0020F1
:103C700010B5054C011C0A22201C03F00AFB201C75
:103C8000202103F087FA10BD383B002007B5031C44
:103C90000A1C0248191C00F0ABFC07BD00110020F3
:103CA00013B500240190201C01340199E4B2FFF700
:103CB000EDFF842CF7D113BD07B501AB1870597017
:103CC0009A700198FFF7ECFF07BD000037B5051C9F
:103CD0000C1C131C291C0248221C00F0FBFC37BDE5
:103CE0000011002007B5011C084800F007FDFF2364
:103CF000010A021C19401A4009021143000C044A2F
:103D00000340081C1B04104018430EBD0011002086
:103D1000FFFF00FF08B5044B1B78002B02D10348BE
:103D200000F01CFD08BDC046BC10002000110020A2
:103D300038B50D4B1B78002B14D10C4B0C4C1A686A
:103D40000C4D2388D31A2A889BB29A420AD2FFF7D5
:103D5000E1FF23882A88D3182380074B186803685B
:103D60009B689847002038BDBC100020300F002011
:103D7000C410002012000020C810002010B5141C30
:103D8000127801F0D5FF201C10BD000073B5124B56
:103D90001B7883421ED9114E307000F073FB104B1C
:103DA000104D114C19882060321C281CFFF7E6FFCB
:103DB000281C01F0C1FF0D4B1B78002B0AD101AA72
:103DC0001370537093700198FFF76AFF20680368BF
:103DD0005B68984773BDC046C1100020C01000202A
:103DE000BE10002064130020C8100020BC1000206A
:103DF00008B5064B18780130C0B21870044B1B7818
:103E0000834200D80020FFF7C1FF08BDC01000208A
:103E1000C110002008B5064B1A78002A01D1054AC6
:103E20001278013A1A701878FFF7B0FF08BDC04643
:103E3000C0100020C110002010B502AB1A784B78DA
:103E40000020432B16D103231340022B01D0012065
:103E500010E00B888622D2010124934202D1FFF7A1
:103E6000C7FFF4E7FF2121400A439342EFD1FFF758
:103E7000D1FF201C10BD000073B5002201AB1A70E9
:103E80005A709A700198FFF70BFFFEF7FBF905F0E7
:103E900053F8114B1B88C018104B18800120FFF7F6
:103EA000EDF80F4E0F4C011C3080201C01F020FF5C
:103EB0000D4DFF2807D13188201C2A1CFFF75EFF1B
:103EC000201C01F039FF3188201C01F011FF2870FF
:103ED000FFF75CFF002076BD12000020C410002018
:103EE000BE10002064130020C010002008B5FEF7AB
:103EF000BBF9014B187008BDC110002073B55A4AB8
:103F00005A480D1CFFF7AEFA0024A04200D0A8E0EA
:103F1000281C5749042205F0C2FDA04200D0A0E0B1
:103F20000435281C534905F0A9FDA04235D0281CB2
:103F3000514905F0A3FDA04200D18BE0281C4F4958
:103F400005F09CFDA04207D0281C4D4905F096FDC8
:103F5000051EA5424BD084E04A4D281C03F04AFCC4
:103F6000C3B20A2B04D1484B1878FFF781FE77E0E3
:103F70006E2B02D1FFF73CFF72E0702B02D1FFF7EE
:103F800049FF6DE0281C211C012203F0E1FB3E4BA0
:103F9000C0B21870FFF7FAFE62E03A4E211C01220F
:103FA000301C03F0D5FBC5B2301C03F023FC01AC80
:103FB0000A2814D1281CFFF795FE031C207000046A
:103FC000000E1A02120E6070C5B2D8B2A270D4B23E
:103FD000FFF74EFE281CFFF74BFE201CC5E7201CF8
:103FE000FFF72EFE281C0199FFF750FE38E0254C04
:103FF000201C03F0FFFB0A280FD0201C03F0FAFB63
:104000000A282DD001A8EDB2FFF71AFE281C01994D
:104010000135FFF73BFEEDB2EFE72C1C201CFFF74C
:1040200061FE01AA031C107000041902000E090EA3
:104030005070C5B2D8B2CEB291700134FFF718FEFD
:10404000281CFFF715FEE4B2301CFFF711FE842C8C
:10405000E4D105E001A8FFF7F3FD0198FFF720FE8A
:104060000124201C76BDC046589E0000A4100020EC
:10407000C7A400007D9E0000809E0000879E000077
:10408000779E0000383B0020C0100020F0B585B0BE
:10409000D3B203AC002903D16A462370537337E0CF
:1040A000FF26771A06254543574328123F120197EA
:1040B0000702ED1BADB2AC466746F71B4D43794393
:1040C0002D120912751B761A5543564301992D126C
:1040D0003612CAB2042815D805F0EAFA03060A0E09
:1040E0001100181CF1B201E0E8B2191C131C0CE01D
:1040F000191C101CF3B208E0101CE9B205E0F0B284
:10410000111C02E0181C111CEBB26A46207051739E
:104110006A46937362782078A37812021B041043D6
:10412000184305B0F0BD000013B5114B81891A8802
:104130004368041C511A188889B2884216D8A28193
:104140009A782089A17BFFF7A1FF01AB1870020AC2
:10415000000C5A709870A27A2389D3189BB2FE2B58
:1041600000D9FF3B23810198FFF79AFD13BDC0469C
:10417000300F002037B51C4B8289041C1B88406817
:104180009A1A018892B291422CD8A38100252389E2
:10419000A8080001C01880B2FF235B00984202D932
:1041A0001249401880B2FE2801D9FF3880B26368F6
:1041B000A17B9A78FFF76AFF01AB1870020A000C26
:1041C00098705A70281C01350199EDB2FFF75EFD19
:1041D000842DDCD1A27A2389D3189BB2FE2B00D97F
:1041E000FF3B238137BDC046300F002001FEFFFF9B
:1041F0008170704781707047044B282132221980EA
:104200009A70034B19809A707047C046CE100020F8
:10421000D210002008B54368187859789A78FFF7CB
:104220004BFD08BD13B5446801AB20781870607869
:104230005870A0789870081C111C019AFFF746FD71
:1042400013BD80230B43FF2110B5141C0A1CFEF77D
:10425000BBF9002C03D101F0ADFC01F019FD10BD3C
:1042600070B50D020221161C1C1C05430A4203D026
:10427000281C1A1CFFF7E5FF01210E4203D0281C61
:10428000221CFFF7DEFF70BD70B5002944D0002569
:104290002E1C08784C1C01380A283DD805F008FA75
:1042A0000D1015191D23282E0636080001252EE0B5
:1042B00001F080FC01F0ECFC29E08C1C4E7826E03B
:1042C00048788C1C04F03EFE21E0CC1C88784978AC
:1042D0000CE0CC1C887849780DE0CC1C887803224F
:1042E000497800230FE08C1C48780021022203E06B
:1042F0008C1C4878002101222B1C04E08C1C48787F
:10430000002103220B1CFFF7ABFF00E00025301C4F
:1043100004F018FE211CBCE770BD000000204029FD
:1043200014D83A292BD2202923D00BD80A291ED001
:1043300004D808292DD3081C22301EE01B2928D1BF
:10434000292026E0302916D821391FE0602908D815
:104350005B2916D2081C3D388023C0B21B011843CC
:1043600017E07A290FD97E2913D85E390EE028206C
:104370000FE02C200DE0081C1338C0B209E02A39E8
:1043800004E0443902E0081C5D38F6E7014B4900BF
:10439000585A7047D89E000070B5061C0D1C29782D
:1043A000002912D0301CFFF7B9FF83B2041C002B88
:1043B00001D10135F3E702210022FFF742FF201C63
:1043C00001210022FFF73DFFF3E7081C70BD00004C
:1043D000F7B508A8007801904C780020602C13D124
:1043E00009780A4C8C462178012007290CD803252E
:1043F0004D43074E12019A186746019BAF550918A5
:1044000075196A70AB702170FEBDC046F1100020B6
:10441000D8100020014B002018707047F1100020C8
:1044200070B50024124B1B78A3421ED903236343AB
:10443000104A1148D3185B78151C1049FF2B01D185
:10444000037003E01E0906700F2003400B70032366
:104450006343D05CEB189978FDF79EFE0134011C94
:104460000748FFF711FFE4B2DCE7002070BDC0464B
:10447000F1100020D8100020D6100020F0100020ED
:10448000D710002037B50D4B051C1A780C4C824212
:1044900012D069461870FDF7E9FE019B094A002B0E
:1044A00003D11370009B236006E0012111700648C0
:1044B00000992A1C9847206020683EBD1400002007
:1044C000F4100020F81000207C0D002070B50E4E76
:1044D0000E4D33788024E95C6400611A09020139C9
:1044E000032004F0DFFE73780520E95C611A0902FD
:1044F000013904F0D7FEB3780420E95C611A09029F
:10450000013904F0CFFE70BD2812002022A0000067
:1045100008B50120011C05F011F8024B01221A70A8
:1045200008BDC0463D13002008B50120002105F05C
:1045300005F8024B00221A7008BDC0463D1300204A
:1045400008B5FFF7F1FF1520012104F09DFF1420AD
:10455000012104F099FF1520002104F0EFFF142041
:10456000002104F0EBFF08BD08B5FA210248C9009C
:10457000002202F0DBFC08BDA436002073B5164D06
:10458000164E281C317801F0EDF8154C3178201CBE
:1045900001F0E8F8281C01F0F7F9051C201C01F0D7
:1045A000F3F9EDB2C0B20F4B012D02D00022012869
:1045B00000D101221A700C4B1B78002B0BD101AAE1
:1045C0001370537093700198FFF76AFB074B1868DC
:1045D00003685B68984773BD3812002016000020FE
:1045E0003011002015000020BC100020C810002051
:1045F000F7B5131C101C000A1B0C0192D4B2C0B2F8
:10460000DBB2832955D814D12A4A2B4D17782E783E
:104610000121A74207D15778874204D19178C91A5E
:104620004F1EB941C9B23143297014705070937054
:104630003FE0224A842512786A435118204A8A5C56
:10464000472A19D8032151431E4DD20869180D7805
:104650004F788E780C7048708B701B49AC468D5C1F
:104660000121A44505D1874203D1F31A5E1EB3414F
:10467000D9B22943144B1BE08F2A1AD8483A032198
:104680005143124DD21069180D784F788E780C7006
:1046900048708B700E49AC468D5C0121A44505D154
:1046A000874203D1F31A5E1EB341D9B2084B2943A6
:1046B0009954F7BD28120020301300201500002067
:1046C0001A9F0000381200203413002030110020FF
:1046D0003E13002013B5044C09018A18115D1A1C01
:1046E000FFF786FF13BDC04622A10000024B09015F
:1046F0008918585C7047C04622A1000013B501AC70
:10470000832904D9002323706370A37016E00F4B34
:1047100084221B78534359180D4BC95C472903D891
:10472000032251430B4B05E08F29EBD84839032274
:104730005143094B5918201C05F0E1F862782078A4
:10474000A37812021B041043184316BD1500002065
:104750001A9F00003812002030110020F8B5061C06
:104760000024114DE7B2635D002B05D00F48391CC2
:1047700001F016F8002363550D4D635D002B05D045
:104780000C48391C01F00CF8002363550134092C46
:10479000E7D1094C2378002B04D0301CFFF796FE9C
:1047A00000232370F8BDC0463413002038120020C7
:1047B0003E1300203011002030130020F7B5041CF8
:1047C000211C08221030251C05F099F80835201C02
:1047D0001830291C082205F092F8334F381C01F0DC
:1047E000D8F8002812D06846391C00F06CFF201C55
:1047F0006946082205F083F82C4B1B78012B05D164
:10480000E3780322134201D05340E370284E301C5A
:1048100001F0BFF8002816D06846311C00F053FFA5
:10482000281C6946082205F06AF8204B1B78012BEA
:1048300009D1A27A617A101C4840184203D059402D
:1048400053406172A3723B1CD8331B78194D002B67
:1048500002D02B78002B08D0331CD8331B78002BC8
:1048600006D0154A1378002B02D1201CFFF786FED4
:10487000D8373978002906D12B78002B03D00022B5
:10488000002322606360D8363078002807D10A4AB6
:104890001378002B03D000220023A260E360064BB4
:1048A00029701870F7BDC04638120020150000208E
:1048B000301100202B12002031130020F0B5051C10
:1048C00085B00024E300DBB203930023009300993A
:1048D000039AC9B28E18F6B20191321C2868696831
:1048E00004F0A0FF01273840B8400290321C28692C
:1048F000696904F097FF029B07403B4304D0002006
:10490000211C019AFDF760FEA868E968321C04F0DA
:1049100089FF01273840B8400290321CA869E96934
:1049200004F080FF029B07403B4307D001990F2210
:10493000521AD2B20020211CFDF746FE009A013225
:104940000092082AC3D10134E4B2052CBAD105B0D3
:10495000F0BD000010B5041CFFF730FF201CFFF76E
:10496000ADFF024802F090FA10BDC046A436002008
:1049700010B504290ED80F2A0CD80120072A02D915
:10498000054B0F2401E0054B0724A21A90405A5C06
:1049900082435A5410BDC046281100203012002016
:1049A000002004290ED80F2A0CD8072A03D9064B59
:1049B000585C0F2302E0054B585C07239A1A1041FC
:1049C000012318407047C0462811002030120020F3
:1049D000072A04D940180F23007A9A1A00E0405C95
:1049E0001041012318407047F0B585B00368446852
:1049F000009301948368C468029303940024251CE7
:104A0000221C0298039904F00DFF221C071C009839
:104A1000019904F007FF012637400640BF19ED1940
:104A20000134EDB2502CEBD1281C05B0F0BD0000D4
:104A300008B5024800F04CFF80B208BD30110020DC
:104A400008B5024800F091FFC0B208BD381200203E
:104A500008B5024800F089FFC0B208BD301100203F
:104A600008B5024800F086FFC0B208BD3011002032
:104A700008B5024800F07EFFC0B208BD3812002021
:104A800008B5024800F07BFFC0B208BD3812002014
:104A900008B5024800F073FFC0B208BD3011002015
:104AA000014BD9331878704738120020014BD933A5
:104AB0001878704730110020014B18787047C046B5
:104AC0001500002010B504480C1C00F059FE211CF4
:104AD000024800F055FE10BD3011002038120020B1
:104AE000014B18787047C04616000020014B18781B
:104AF0007047C0463D13002008B5002902D0FFF7DB
:104B000007FD01E0FFF710FD08BD000070B5041CB3
:104B100017480D1C02F0C2F900F0AEFD201CFFF793
:104B20000FFD0022002322606360A260E36000F0BA
:104B3000E7FF01F03FF8642004F004FA201CFFF7BF
:104B4000E7FC642000F0A0FD642004F0FBF9281CC1
:104B500000F04AFD0321061C281C00F0B7FA201CB7
:104B6000FFF702FDC82000F08FFD301C70BDC0466D
:104B7000A436002008B55021FFF7C8FF08BD08B5CE
:104B80005121FFF7C3FF08BD70B5041C17480D1C69
:104B900002F084F900F070FD201CFFF7D1FC002228
:104BA000002322606360A260E36000F0A9FF01F0CF
:104BB00001F8642004F0C6F9201CFFF7A9FC64206A
:104BC00000F062FD642004F0BDF9281C00F09AFC9E
:104BD0000321061C281C00F079FA201CFFF7C4FCF6
:104BE000C82000F051FDF0B270BDC046A4360020D0
:104BF00008B55021FFF7C8FF08BD08B55121FFF7E0
:104C0000C3FF08BD70B5074C061C0D1C0A78201C9C
:104C1000311C01F08DF8201C711C6A7801F088F8B5
:104C200070BDC04664130020094B10B50C1C094927
:104C300018880C80FFF7E6FF074801F07DF8211C7B
:104C4000064800F08FFD211C054800F08BFD10BDCB
:104C500032130020160000206413002030110020C1
:104C600038120020F7B5041C0225281C012104F08D
:104C70000BFC281C0021013504F060FC1B2DF4D135
:104C80001E25281C012104F0FFFB281C00210135F2
:104C900004F054FC2B2DF4D10120011C04F0F4FB92
:104CA000201CFFF741FC102004F0C8FA201CFFF77D
:104CB0000DFC0A2004F046F9201CFFF729FCFA201D
:104CC000400004F03FF90022002322606360A260EC
:104CD000E360C82000F0D8FC0220FEF7CFF9174BA4
:104CE000174D071C1880391C281C01F001F86E466E
:104CF000B071791C281C00F0FBFFF071F288114B99
:104D00000E4F114E9A4206D13888311CFFF77AFFB8
:104D1000281C01F011F83F88281C391C00F0E8FF1E
:104D2000791C3070281C00F0E3FF7070201CFFF726
:104D300025FC201CFFF718FCF7BDC04632130020ED
:104D400064130020FFFF00001600002070B50B4E1A
:104D50000021301C00F0A9FC094D0A4C291C221C22
:104D6000301C04F06BFD084E0121301C00F09DFC4E
:104D7000301C291C221C04F061FD70BD381200207B
:104D8000A9560000000000203011002010B50021BD
:104D9000041C0122024802F0DBFC207010BDC0465A
:104DA000383B002010B5054C011C201C02F0EEF928
:104DB000201C202102F0EEF910BDC046383B002037
:104DC00010B5054C011C0A22201C02F062FA201CBE
:104DD000202102F0DFF910BD383B002037B58848AC
:104DE000884A0C1CFEF73EFB051C0020002D00D05D
:104DF00005E1201C8449092204F051FE002800D05E
:104E0000FCE00934201C814904F038FE002801D15F
:104E10007F4806E0201C7F4904F030FE002804D1C2
:104E20007D48FFF7BFFF0120E9E0201C7B4904F02B
:104E300025FE002803D17A48FFF79CFED0E0201C15
:104E4000784904F01BFE002803D17548FFF797FE50
:104E5000C6E0201C744904F011FE002803D17048FC
:104E6000FFF7C6FEBCE0201C704904F007FE0028D6
:104E700003D16B48FFF7C1FEB2E0201C6C4904F07F
:104E8000FDFD002813D16B4802F0B4FC644C0A28E5
:104E900003D1201CFFF72AFEA2E06D460735281C2F
:104EA000FFF774FF2978201CFFF726FEBBE7201CC4
:104EB000614904F0E3FD00280FD16048FFF772FF5D
:104EC000574C201CFFF7BCFDFFF77AFF5C48FFF74B
:104ED00069FF201CFFF7BCFD82E0201C594904F04B
:104EE000CDFD00280FD15548FFF75CFF4C4C201C2E
:104EF000FFF7D6FDFFF764FF5148FFF753FF201C73
:104F0000FFF7D4FD6CE0201C4F4904F0B7FD0028EA
:104F10000FD14A48FFF746FF414C201CFFF7A8FD80
:104F2000FFF74EFF4648FFF73DFF201CFFF798FDB7
:104F300056E0201C454904F0A1FD00281ED13D4843
:104F400002F058FC364C0A280ED13C48FFF72AFFE5
:104F5000201CFFF795FDFFF733FF3948FFF722FFCD
:104F6000201CFFF795FD3BE06D460735281CFFF739
:104F70000DFF2978201CFFF7A5FD54E7201C3449BC
:104F800004F07CFD002808D12548FFF795FD012895
:104F900001D1304845E7304843E7201C2F4904F051
:104FA0006DFD00280DD11E48FFF742FD214C011C6C
:104FB0000A22201C02F055F9201C202102F0EAF8F8
:104FC00031E7201C264904F059FD002815D1194865
:104FD00002F010FC124C0A2805D1201CFFF780FDBE
:104FE000FFF7EEFE1FE76D460735281CFFF7CEFEE4
:104FF0002978201CFFF718FE15E700E0281C3EBDAD
:10500000A41000207BA1000098A20000B6A400001C
:10501000A2A200008FA20000AEA20000D6A2000053
:1050200000110020E6A20000F7A2000008A3000083
:105030001AA30000383B002025A300002EA3000087
:1050400034A300003CA3000047A3000050A30000CD
:105050005DA3000072A1000077A1000064A300001E
:105060006AA3000008B50368C9B21B68984708BD69
:1050700070B5124C061C1249201C02F0A3F8114D09
:10508000311C281C01F097FD0421281CFFF7EAFFC2
:10509000281C01F047FE0C49051C201C02F076F884
:1050A000291C0A22201C02F0F8F8FA206B1E9D41F0
:1050B000800003F047FF684270BDC046383B0020C7
:1050C00072A30000703400207AA3000038B5094CA8
:1050D000031C0D1C201C191C01F06DFD291C201C3B
:1050E00001F0C2FD0021201CFFF7BCFF201C01F0D5
:1050F00019FE38BD70340020F0B5002287B003904F
:105100000192674C0399201C01F055FD0121201CE0
:10511000FFF7A8FF634D019B201CE95CFFF7A2FF8E
:10512000019A201C515B0912FFF79CFF201C01F023
:10513000F9FD051C012003F005FF002D02D05A489F
:105140005A4997E0019B5B010493574C5849201C36
:1051500002F01CF8534F019AEEB2D35B092B02D830
:10516000201C544909E0632B02D8201C524904E05A
:10517000524A934203D85249201C02F007F8019B7F
:105180000A22F95A201C02F06CF8201C4D4901F04B
:10519000FDFF0A22311C201C02F07BF8201C4A492A
:1051A00001F0F4FF3E4C0399201C01F004FD013591
:1051B000201C0221FFF756FF36012A01434CF7B2AB
:1051C00002950592059B364D9F4224DA404B049A86
:1051D000DB199E5C281C311C01F046FD324D0F2E60
:1051E00003D8281C364901F0D1FF281C311C10229D
:1051F00002F04FF87440082301216210214094B25C
:10520000002902D0334C624094B2013B002BF3D111
:105210000137FFB2D6E7E1B2281CFFF723FF2112C6
:10522000281CFFF71FFF0021281CFFF71BFF281C6D
:1052300001F078FD1C4D061C2749281C01F0A6FF33
:105240000F2C02D8281C1B4909E0FF2C02D8281C6F
:10525000194904E0214B9C4203D81949281C01F04C
:1052600095FF281C211C102201F0FFFF032E06D001
:105270001B49281C01F0A6FF012040420EE001203E
:1052800003F060FE029A042A01D0151C5DE7019B21
:10529000023301935C2B00D033E7002007B0F0BD50
:1052A0007034002018000020383B002084A3000048
:1052B000A3A30000ABA30000ACA30000E703000021
:1052C000ADA30000AFA3000036A50000FFFF000063
:1052D0007400002001A0FFFFB7A30000FF0F000033
:1052E000BFA30000F0B585B01F1C374E0AAB1B886A
:1052F000051C0291301C35490193039201F046FFD1
:105300001022291C301C01F0C8FF314C291C201C24
:1053100001F051FC0621201CFFF7A4FEFF213940BB
:10532000201CFFF79FFE3912201CFFF79BFE0199FE
:10533000FF231940201CFFF795FE019B201C19122A
:10534000FFF790FE201C002101F0B3FC071E05D0E2
:10535000301C204901F036FF381C32E0642003F095
:10536000F1FD291C0322201C01F079FC201C01F016
:10537000B7FB201C01F0DBFC029B1870201C01F025
:10538000AFFB002801D1FF201BE0201C01F0CFFC67
:10539000051C201C01F0A4FB0028F4D0201C01F007
:1053A000C6FC061C201C01F09BFB002803D0201C1F
:1053B00001F0BDFCF6E7F6B23602EDB2039B3543D1
:1053C0001D8005B0F0BDC046383B0020E4A30000BE
:1053D00070340020F3A30000F0B587B003903B4980
:1053E0003B4801F0EFFE3A4C3A49201C01F0CEFE5A
:1053F000394E3A4A33886F4616370433694600926D
:1054000015313A1C9BB20398FFF76CFF051C291C51
:10541000201C0A2201F041FF002D03D0642003F07C
:1054200091FDE0E72E49201C01F0B0FE6B46597D4E
:105430000A22201C01F031FF2A49201C01F0A6FE9F
:10544000318810220431201C01F00BFF2649201C5A
:1054500001F09CFE3188214A201C8918102201F09D
:1054600000FF2249201C01F091FE3988201C1022E7
:1054700001F0FBFE2B1C1E4D1E4A0826D218127985
:10548000554001216A10294095B2002902D01A4DD9
:105490006A4095B2013E002EF3D1104A0133934287
:1054A000EAD13B88201CAB420AD0144901F06EFEC1
:1054B000201C291C102201F0D8FE0120404203E0EC
:1054C0000F4901F07FFE301C07B0F0BD02A40000C0
:1054D000383B002025A40000180000207C0B0000B1
:1054E0002DA4000037A4000045A4000035A500004D
:1054F000FFFF00007400002001A0FFFF47A4000090
:1055000061A40000F0B52E49041C85B02D4801F0BF
:105510003DFE2D4E211C301C032201F0A0FB301C4F
:1055200001F0DEFA051E03D0301C01F000FCF6E7A6
:10553000264A274E1388694604336A460E329BB2C8
:10554000201C0D310096FFF7CDFE1E4C071C214993
:10555000201C01F01BFE201C391C0A2201F085FED4
:10556000002F28D1201C1C4901F010FE6B46597BEE
:105570000A22201C01F091FE201C184901F006FEB1
:10558000124A201C11880A22043101F06AFE201CF4
:10559000134901F0FBFD311C1022201C01F061FEBB
:1055A000201C104901F0F2FD6B46D989201C102205
:1055B00001F05BFE01E001256D42281C05B0F0BD45
:1055C0006FA40000383B0020703400201800002039
:1055D0007C0B000080A400002DA4000088A4000023
:1055E00045A4000015A5000038B51B4C051C1B493F
:1055F000201C01F0E7FD281CFFF784FF013002D1D9
:10560000201C174906E0281CFFF732FD013005D1A8
:105610001449201C01F0D6FD00201CE0281CFFF7D7
:105620006BFD013002D1201C0F49F3E7281CFFF766
:10563000D3FE013002D1201C0C49EBE70C49201CA1
:1056400001F0C0FD0321281CFFF740FD201C094983
:1056500001F0B8FD012038BD383B00209BA40000BC
:10566000A9A40000BEA40000CCA40000E3A4000094
:10567000FAA400000BA5000008B5024801F096FA54
:1056800008BDC0467034002038B5064C051C201CEF
:1056900001F05EFAFA2189006943201C01F078FAD2
:1056A00038BDC046703400207047021CD832002339
:1056B000137053701376031CE03358221960043BB7
:1056C00011431960704710B5E831041C082204F03A
:1056D00016F9201C10BD0000F0B585B01F4C171C3A
:1056E0000AAA031C12780E1C201C191C019201F03E
:1056F00062FA1B4B321C911BC9B2B9420ED211780F
:1057000001325940C9B208014140C9B2CD00081167
:105710001B12090268400B434340ECE703AD1A1229
:105720002A70201C311C3A1C6B7001F0B9F900285A
:1057300001D1012010E0201C291C022201F0B0F947
:105740000028F6D00199201C4B1E9941C9B201F0E6
:10575000B0FA431E9841C0B205B0F0BD70340020CD
:10576000FFFF00001FB5022203AC0123DC30617093
:1057700022700078211C0093FFF7AEFF04B010BD2B
:105780001FB50D2303AA1370DC300123517000787C
:10579000111C00930222FFF79FFF05B000BD00001F
:1057A00070B50B1C8AB0803B03AA137018235943B1
:1057B00000234118CD5C084ED418755D0133657027
:1057C000182BF7D10123DC30111C0078192200932B
:1057D000FFF782FF0AB070BD47A50000F0B5354E57
:1057E00085B003900C1C591E8B41171CDBB2023292
:1057F000301C039901F0F8F9251C002857D0E2B2BB
:10580000AB1ADBB202920193301CBB4204D201F00E
:105810008EFA28700135F2E701F089FA051C301C78
:1058200001F085FA2E023618234DB6B2029AA31A59
:10583000DBB2BB420ED2237801346B40DBB21A01DB
:105840005340DBB2D9001A112D121B024A401D43EE
:105850005540EBE7F8B2B54229D00A9A174C1378B5
:10586000174901331370201C01F090FC102203999A
:10587000201C01F00EFD1349201C01F087FC1022B2
:10588000291C201C01F0EDFC0F49201C01F07EFCBE
:105890001022311C201C01F0E8FC0C49201C01F0F6
:1058A00075FC201C01990A2201F0F7FC002005B0CC
:1058B000F0BDC04670340020FFFF0000383B0020E0
:1058C00011A5000017A5000038A500003AA50000AA
:1058D00030B585B00B23041C02A90B70DC34012306
:1058E000051C1A1C20780093FFF7F6FE012802D150
:1058F0000120404212E0A0239B00013BFDD1207813
:10590000D93503AC0095211C02220123FFF766FF65
:105910000228EDD1607823780002181805B030BD58
:1059200030B5041C85B002AA0123DC341170051CBB
:10593000111C20781A1C0093FFF7CEFE012802D11B
:10594000012040420FE0A0239B00013BFDD101223A
:105950002078D93503AC0095211C131CFFF73EFFBE
:105960000028EDD0207805B030BD08B50121FFF743
:10597000D7FF08BD08B50821FFF7D2FF08BD08B55D
:105980000D21FFF7CDFF08BD08B50C21FFF7C8FFBB
:1059900008BD7FB5031CDC33051C02AC187800265B
:1059A000033BA68006220093211C01230296FFF7E9
:1059B00015FF821F53425A412B1CD8331A700628F8
:1059C00010D12378012B0DD161782A1CE832117097
:1059D000A178EC355170E1781E1C91702179D1705D
:1059E00062792A70301C04B070BD000008B503480D
:1059F00000F0B2FC024800F08CFB08BDC43300206C
:105A00006833002038B5084DC4B2281C00F00EFBE6
:105A1000002804D1281C211C00F02CFB03E00348C3
:105A2000211C00F05AFC38BD68330020C43300202C
:105A300010B5041C030702D5E120FFF7E3FFE307DD
:105A400002D5E020FFF7DEFFA30702D5E220FFF733
:105A5000D9FF630702D5E620FFF7D4FFE30602D59E
:105A6000E320FFF7CFFF10BD38B5041C2304C2B2FA
:105A70001B0E002913D0144908780D1C1349002867
:105A800000D108700878184308703F21181C88431B
:105A900004D1111C2031C9B2072900D92A703F2135
:105AA000181C884307D12032D2B2072A03D8181C09
:105AB000FFF7BEFF03E0064A11780B431370201C6A
:105AC000FFF7A0FF38BDC04649130020481300204F
:105AD0004A13002038B5084DC4B2281C00F0A6FABD
:105AE000002804D1281C211C00F0E3FA03E003483D
:105AF000211C00F00FFC38BD68330020C4330020A7
:105B000008B5074800F0FEFA064A00231370064A5B
:105B10000648137000F01AFC054800F039FB08BD78
:105B200068330020491300204A130020C4330020AA
:105B3000A033002038B51C4B051C19782C04240E0A
:105B4000614019703F23211CC2B2994304D1131C38
:105B50002033DBB2072B09D9144B1978914201D1BC
:105B600000221A70124B1A7862401A70230702D56D
:105B7000E120FFF7AFFFE10702D5E020FFF7AAFF22
:105B8000A30702D5E220FFF7A5FF610702D5E620B3
:105B9000FFF7A0FFE30602D5E320FFF79BFF281CD9
:105BA000FFF798FF38BDC046481300204913002076
:105BB0004A13002070B51B4A1B4B10781B78184005
:105BC000FFF736FF194D281C00F030FA184C061C60
:105BD0002178002810D100290AD0281C00F069FA89
:105BE000281C00F027FA2178281C00F043FA2670C0
:105BF000281C00F01FFA14E00E4D00290BD0281CC1
:105C000000F088FB281C00F023FB2178281C00F002
:105C100064FB00232370281C00F01AFB064800F0E8
:105C2000C7FA70BD4A1300204813002068330020D3
:105C300049130020C4330020A033002008B50248D7
:105C400000F0D4FA08BDC046A033002008B5810595
:105C5000890D024800F090FA08BDC046A03300202C
:105C600008B5024800F0DEFB08BDC0460D34002038
:105C700008B5C1B2014800F0DDFB08BD0D340020BD
:105C800008B5024800F0D2FB08BDC0460D34002024
:105C900008B5024800F07AFB08BDC046FE3300207C
:105CA00070B50F4C0F4EA544041C0F4801AA436960
:105CB0000169651C00F006F9281C01A9321C03F0DB
:105CC0001EFEA35D002B05D18022281CFF2192011E
:105CD00003F01EFE01232370044B9D4470BDC0469B
:105CE000F8DFFFFF012000004C1300200820000017
:105CF00038B50378041C0D1C002B01D1FFF7D0FF31
:105D00006419607838BD0000037870B5041C0E1C5F
:105D1000151C002B01D1FFF7C3FFA1194B78AB4233
:105D200003D0024B0122E2544D7070BD02200000EE
:105D300008B5FFF7E9FF08BD10B5114C0378A5447D
:105D4000041C002B01D1FFF7ABFF0E4BE35C002BD3
:105D500012D00D4A0123A354E11801A803F0CFFD8E
:105D60000A4C201C2169626900F09AF82169636974
:105D7000201C01AA00F03CF8054B9D4410BDC04614
:105D8000F8DFFFFF02200000012000004C1300207C
:105D90000820000008B50549054A064800F010F83B
:105DA000054B064900221A705A5408BD00A700008E
:105DB000012000004C13002064130020022000008A
:105DC00030B5094C094BA5686D036D0FAD00EB585C
:105DD0000360A4680161A4B244605C439B008460DA
:105DE000C360426130BDC0460040004100C80000B1
:105DF000F7B51F4E8027756803333D439B087560D8
:105E0000002B34D01B4D3580357DEF07FCD51D1C94
:105E10005F1B01970768BF08BC46019F67451FD2FB
:105E2000002D1DD01778013D0197FF27BC43019F2E
:105E30003C4357783F0201970F4F3C40019F3C4342
:105E400097783F04BC460D4F3C40D778A4B23F063C
:105E5000009767463C43009F04323C4310C1D7E79C
:105E6000074B3380337DDF07FCD52B1CC8E7F7BD1C
:105E70000040004144A5FFFFFF00FFFFFFFF00FFC0
:105E800004A5FFFF044B054A4908D9611A801A7D11
:105E9000D107FCD57047C0460040004102A5FFFF76
:105EA00070B5051C0C1C161CEB68281C211C9E429E
:105EB00005D9FFF7E7FFEB68E418F61AF4E7FFF7F8
:105EC000E1FF70BD08B5101C1A1C03F018FD08BDD9
:105ED0000379413301200B70704770B50B7888B09F
:105EE00001AC01331925061C0B702A1C201C002153
:105EF00003F00EFD04236370012309212371A371B4
:105F0000E371E3722373A373237633792170032241
:105F1000617221216271A1726275A37022214022F7
:105F20003F23E173E2822374727907218023A174F5
:105F30005B4205211343E1742A1C211C00202375B8
:105F400000F03AFB08B070BD08B50A78031C0020C9
:105F5000812A0ED1CA78222A0BD189881A799142D6
:105F600007D11A1C1B7C2832137002493F2200F013
:105F700023FB08BD20C8000038B504798A880023B7
:105F8000944236D10C784A78A12C0AD10223111CF4
:105F900099430B1E012B2CD0931E5A425341DBB266
:105FA00027E0212C25D10B2A02D18B78283002E062
:105FB0000A2A03D12930037001231AE0092A18D1D3
:105FC000CD78CC88022D09D1012C12D1011C2A31A7
:105FD0000948221C02F036F9231C0AE0012D08D1E1
:105FE000082C06D1011C11310348221C02F02AF9A9
:105FF0002B1C181C38BDC0460F4000200A49021C4B
:10600000083101602432011C012382602831002202
:106010008371C3710374C2600B704B70031C2A330D
:106020001A7083234362704760C8000028300078EC
:106030007047000070B5061C041C19361134051C8D
:10604000211C301C082203F04BFC00280DD069797C
:10605000221C0823064802F0ABF9211C051C08226B
:10606000301C03F04CFC281C01E00120404270BDB4
:106070000F4000200A1C2032D2B210B50023072A9C
:1060800008D80123E0391A1C8A40111C427C1143B4
:1060900041740CE0C218D47C8C4208D0002C01D191
:1060A000D17404E00133062BF4D1002000E001207C
:1060B00010BD0A1C2032D2B270B50023072A07D8BF
:1060C000E03901238B40191C437C8B43437417E058
:1060D000C218D47C8C4201D10024D4740133062B25
:1060E000F6D1031C851D0022DC7C002C05D0811814
:1060F000CE7C0132CC74D2B2DE740133AB42F3D128
:10610000012070BD08B511300021082203F000FC09
:1061100008BD10B5041C01F065FC211C01F032FC27
:10612000201CFFF7EFFF201CFFF784FF10BD0000CD
:1061300008B50248FFF762FF08BDC046683300207B
:1061400038B50A4B01221968051C1140084C05D1CD
:10615000216008491A6061601921218100F018FB53
:10616000211C00F0D3FA281C38BDC046B0330020F3
:106170009433002078C8000010B500235A00845AD8
:10618000002C01D1115202E00133042BF6D110BDD5
:1061900008B50021082203F0BBFB08BD10B5041CA4
:1061A00000F0F6FA0421221C082300F0BFFA10BD0B
:1061B00038B5051C041C0835281C211C082203F0D6
:1061C0008FFB002807D0201CFFF7E8FF281C211CAC
:1061D000082203F094FB38BD10B50021041C0822EE
:1061E00003F096FB201CFFF7E3FF10BD08B5FFF797
:1061F000F3FF08BD08B50248FFF7A2FF08BDC0467F
:10620000A033002038B50A4B01221968051C114043
:10621000084C05D1216008491A6061604121218143
:1062200000F0B6FA211C00F071FA281C38BDC046F7
:10623000B4330020B833002091C8000010B5041C0E
:1062400000F0A6FA0821221C1D2300F06FFA10BDF1
:10625000F8B5071C041C1D37381C211C1D2203F037
:106260003FFB002835D02578667F2B1CB34311D027
:10627000201C611C1E301C2203F032FB002809D0B8
:10628000657700F085FA08213A1C1D2300F04EFACC
:10629000667713E0331CAB4310D0201C611C1E300A
:1062A0001C2203F01DFB002808D0267000F070FAB5
:1062B0000821221C1D2300F039FA2570201CFFF74D
:1062C000BDFF051E07DD381C211C1D2203F017FB36
:1062D00001E001256D42281CF8BD10B5031CDD2925
:1062E0000BD80720CA08014001209B18041C5A78CB
:1062F0008C40211C114359700BE02031C9B20020A1
:10630000072906D80120021C8A40111C1A78114363
:10631000197010BD10B5031CDD290AD8CA08072062
:1063200001409B1801205A78041C8C40A2435A70EB
:106330000BE02031C9B20020072906D80120021C39
:106340008A40111C1A788A431A7010BD08B50021C2
:106350001D2203F0DDFA08BD10B5041CFFF7F6FF9F
:10636000201CFFF76BFF10BD08B50248FFF74AFF7E
:1063700008BDC046C433002010B5041C00F008FA64
:106380000121221C052300F0D1F910BD38B5041CF1
:10639000451D281C211C052203F0A2FA002806D165
:1063A000201C0749052203F09BFA002807D0201C77
:1063B000FFF7E2FF281C211C052203F0A0FA38BDDC
:1063C0000834002038B50A4B01221968051C114019
:1063D000084C05D1216008491A60616018212181AB
:1063E00000F0D6F9211C00F091F9281C38BDC046F8
:1063F0001034002014340020D2C8000038B50D1C21
:10640000141C00F0C5F92A1C0521231C00F08EF98C
:1064100038BD07B569460731002301220B70FFF72D
:10642000EDFF07BD08B5FFF7F4FF08BD08B5FFF79E
:10643000F0FF08BD07B56B46D9710733832903D038
:10644000191C0122FFF7DAFF07BD000008B502485A
:10645000FFF7B8FF08BDC0460D34002070B50B78BB
:1064600088B001AC01331925061C0B702A1C201CB6
:10647000002103F04DFA04236370012309212371E5
:10648000E3722373A373237633792170032261723D
:1064900021216271A1726275A370222140223523ED
:1064A000E173E2822374727907218023A1745B4235
:1064B00005211343E1742A1C211C0020237500F0E0
:1064C0007BF808B070BD000010B50C1C131C41799E
:1064D000221C024801F06CFF10BDC0460F40002096
:1064E00008B4024B9C46103808BC6047C9640000E1
:1064F00010B58A8804790023944219D10C784A781F
:10650000A12C06D1012A12D0D31E5A425341DBB22C
:106510000EE0212C0CD10B2A02D18B78013003E044
:106520000A2A05D18B780230C377012300E0131CBF
:10653000181C10BD08B50A78031C0020812A0DD153
:10654000CA78222A0AD189881A79914206D1012271
:106550000133DA770249352200F02EF808BDC04633
:10656000EAC80000021C1C3210B582600022C26022
:106570008282C28202760B4A0123111C24320261FC
:106580000831C2188371C3710160D377821CD3773D
:106590008323041CC36101F025FA211C01F0F2F9E8
:1065A000201C10BD20C9000008B50248FFF7DAFF23
:1065B00008BDC0462034002008B5024801F0AEFFF7
:1065C00008BDC0460F40002048230B7049234B7084
:1065D00044238B70028B0F231A404132CA70028B06
:1065E00012111340413305200B71704770B50B78C1
:1065F00088B001AC01331926051C0B70321C201C1D
:10660000002103F085F90423637001232371E372F1
:106610002373A37323762B790921A3702B8B21700D
:106620000322617221216271A17262752374222199
:1066300040221B12E173E28263746A79072180238E
:10664000A1745B4205211343E174321C211C0348F1
:10665000237501F063FF08B070BDC0460F400020F5
:1066600070B50B78041C0025812B1ED1CB78222B12
:106670001BD18A8803799A4217D10D4E0121301C13
:1066800001F0BCFF6469002C09D02289301C6168CC
:1066900001F044FF431C07D02D182468F3E7301C99
:1066A000211C01F0ABFF00E0051C281C70BDC0469A
:1066B0000F40002010B504798A880023944220D12D
:1066C0000C784A78A12C0ED10221141C8C43012C89
:1066D00016D0022A15D1021C191C1B3201230A48AC
:1066E00001F0F8FE05E0212C0BD10B2A03D18B78A9
:1066F0008376012305E00A2A03D18B78C376F8E775
:10670000231C181C10BDC0460F4000204369002BFD
:1067100001D1416105E01A68002A01D0131CFAE793
:1067200019600A89038BD3180383704730B591B081
:106730001C1C051C6B46684619700130111C221C7C
:1067400003F0DDF86979631C6A46024801F030FE07
:1067500011B030BD0F40002010B5021C0B490123C1
:10676000103208318371C371826083760022C37650
:106770008323041CC260426102830361016001F053
:1067800031F9211C01F0FEF8201C10BD48C90000A1
:1067900070B5064D01262B68054C334203D1201CF1
:1067A000FFF7DAFF2E60201C70BDC0464434002085
:1067B0004834002038B5124B124D1A78511C19700C
:1067C000E98891421AD800240F481C70FEF730F96E
:1067D000AA880E4B904205DD1A680A32FF2A04DDB2
:1067E000FF2202E01A680A3A01D41A6000E01C6035
:1067F00019780022C843C0B2FDF75EFA38BDC04622
:1068000066340020F40B0020001100206C340020BE
:1068100010B5054C011C0A22201C00F022FD201C92
:10682000202100F0B7FC10BD383B0020F7B50B1C51
:106830000833071C0D1C161C01930C1C731B1A5DDE
:10684000211C381CFFF774FA019B01349C42F5D1DE
:10685000301CFEBDF7B50820FCF710FC144F154D99
:10686000061C311C3880281CFFF742FA6C46A071C8
:10687000711C281CFFF73CFAE071E2880E4B3C1CAF
:106880000E4E9A4207D13988281C321CFFF7CEFFE2
:10689000281CFFF751FA27880024E119281CFFF76C
:1068A00027FA30550134082CF7D10020FEBDC04630
:1068B0006434002064130020FFFF0000F40B00206C
:1068C00038B5314C0021201C0D22FEF781F800283C
:1068D00053D0201C00210E22FEF77AF800284CD05D
:1068E000201C00210F22FEF773F8002845D0201C41
:1068F000FEF77AF8032840D1201CFEF799F8234BC5
:1069000001255880201C01210D22FEF761F8002886
:1069100035D0201C01210E22FEF75AF800282ED077
:10692000201C02210F22FEF753F8002827D0201C3C
:10693000FEF75AF8032822D1201CFEF779F8134BF2
:106940001880124A138851888B4206D95B1AD80FD7
:10695000C3185B10C918918005E0C91AC80F411807
:1069600049105B1893800A4C0A4B201C1988FFF7CA
:106970005DFF201CFFF7E0F903E00025C2E7002DD2
:10698000DFD1002038BDC04600110020F40B0020EC
:106990006413002064340020024A034B08321A605A
:1069A0007047C046B8C900006834002070B5304850
:1069B000304A0C1CFCF756FD061C0020864255D1BF
:1069C000201C2D49062203F06AF8051C301C002DFE
:1069D0004CD10634201C294903F050F8002802D17C
:1069E000274B188816E0201C264903F047F800289A
:1069F00002D1234B58880DE0201C234903F03EF8B8
:106A0000061E11D1214D281C00F0F4FE1C4C0A2852
:106A100003D1A088FFF7FCFE1DE0281C311C0122D9
:106A200000F096FEA08016E0201C194903F026F81D
:106A3000061C281C002E19D1144D281C00F0DAFE6B
:106A40000F4C0A2801D1E088E4E7281C311C012200
:106A500000F07EFEE0800F4C0F4B094A1988201C85
:106A6000FFF7E4FE201CFFF767F9012070BDC04668
:106A7000A410002060C900009AC90000A1C900004C
:106A8000F40B0020A7C90000AEC90000383B00206D
:106A90008FC9000064130020643400200020704778
:106AA000F8B5051C0F1C161C0024B44208D02B6836
:106AB000395D1B68281C9847002801D00134F4E791
:106AC000201CF8BD7047031CFC33196ADA69914237
:106AD00003D01B6AC018007E01E0012040427047CD
:106AE000031CFC33D8691B6AC01A01D50130FF3082
:106AF00070470000F7B50193FA239B008360134BA6
:106B00008026002576000833041C0F1C4560291CD4
:106B100000920360321C183002F0FAFE231C90220F
:106B2000FC335200DD61A0181D62321C291C02F0EA
:106B3000EFFE87229200A3185D60019A9D60009B82
:106B40002761A575201C23756275FEBDD0C90000A4
:106B500070B50D49041C006900F08EFD206900F03D
:106B60003CFC1826207D331C4343084D0821EB18BC
:106B7000595602F013FD607D08214643AD19695650
:106B800002F00CFD70BDC046A0860100F8C90000EF
:106B900038B5041C0D1C006900F033FC291C206969
:106BA00000F06AFD206900F018FC38BD08B50069E6
:106BB00000F027FC08BD8A2387229B009200C15465
:106BC000831800225A609A60012383757047031C62
:106BD000FC335A6810B501329C68D2B2A24202D08E
:106BE0005C6801555A6010BDF7B501930023041C81
:106BF000151C181C9A4231D0221CFC32D36120692A
:106C00001362012200F030FC002825D0206900F03A
:106C10009AFC271C1837011C381CFFF7D8FF0126E7
:106C20002069AE420ED000F0FFFB0221206900F087
:106C300005FC206900F087FC011C381CFFF7C7FF2A
:106C40000136EDE700F0E7FB019B002B05D0206942
:106C5000032100F0F3FB00E0051CE8B2FEBD08B51F
:106C60000123FFF7C1FF08BD10B5827D00239A42C2
:106C70000DD08724A4000219546892680134E4B24C
:106C8000944204D02130FF30FFF7A1FF0123181CEC
:106C900010BD031CFC3399685A68914206D09A686B
:106CA000805C9A680132D2B29A6001E001204042D1
:106CB000704770B500228A2382759B00041C0E1C4D
:106CC000C15C006900F0D0FB002805D120690321D8
:106CD00000F0B4FB022523E090235B00E01887233B
:106CE0009B00E21851689368CB1A01D50133FF333A
:106CF000002B0ED02569FFF7CCFFC1B2281C00F095
:106D0000E2FB0028E8D12069032100F097FB03256E
:106D100006E01D1C002E03D02069032100F08EFB2D
:106D2000281C70BD08B50121FFF7C3FF08BD08B5D9
:106D30001830FFF7AEFF08BD38B5041C006900F03D
:106D4000E0FB002800D184E0206900F0E8FB002887
:106D50000ED1206900F0EDFB00281FD0206900F063
:106D6000E3FB00281AD0206900F0E8FB002815D1C9
:106D7000206900F059FB2069032100F05FFB8C23A0
:106D80009B00E558002D04D02368201C1B69984700
:106D9000A847FC340023E36123625AE0206900F035
:106DA000C8FB031C2069002B19D000F03DFB2069B3
:106DB000032100F043FB206900F0C0FB002848D00D
:106DC00087229200A31800225A609A600123A375BB
:106DD0008B239B00E35893423BD0984739E000F067
:106DE00099FB002835D0206900F0A8FB002816D0B8
:106DF00087239B00E21851689368CB1A01D50133B1
:106E0000FF33FF21002B05D090225200A018FFF77E
:106E100040FFC1B2206900F067FBA07519E0231C98
:106E2000FC33DA691B6A0132D2B220699A4202D17C
:106E300000F0F1FA09E000F086FB011C201C18307C
:106E4000FFF7C5FE206900F0EFFA2069032100F08A
:106E5000F5FA38BD08B50248FFF76EFF08BDC04619
:106E60007034002008B50348034914221523FFF7A6
:106E700041FE08BD70340020203B0020014B002261
:106E80001A707047A4360020034BA5221A72DA79D3
:106E9000D209FCD17047C04600100040044B0221CB
:106EA0001A788A431A70DA79D209FCD17047C04641
:106EB00000100040064B02211A788A431A70D979D3
:106EC000034AC909FBD1937901210B4393717047A0
:106ED000001000400E4B0F4A30B59A600E4A5A60BF
:106EE0005A78D209FCD10D4A094B0D495A80042227
:106EF000CA670C4BC02149005A50C02189005D5817
:106F0000094C2C405C501A600123037030BDC04610
:106F1000000C0040020400000203110003420000C4
:106F200004E100E000E100E0FFFF00FFF8B50378B6
:106F3000061C0D1C171C002B01D1FFF7CBFF494C81
:106F400000232370E379DB09FCD1474B9D4225DC0C
:106F5000002D23D0FA235B00AD02FA21E818890046
:106F600002F0FEFB414B98421CDC414B98421DDC79
:106F7000404B98421EDC404B98421FDC3F4B9842EE
:106F800020DCFF2822DC7F2824DC3F2825DC1F288A
:106F900026DC0F2827DD0123102526E080250B2382
:106FA000ED0122E080250A23AD011EE080250923A2
:106FB0006D011AE0802508232D0116E080250723A6
:106FC000ED0012E080250623AD000EE080250523AC
:106FD0006D000AE00423802507E00323402504E038
:106FE0000223202501E0002308250122002F1DD0C7
:106FF00061790B200A43627161780F22914301434A
:107000006170617813401B010A401A436270237853
:10701000042213432370E379DB09FCD1301CFFF712
:1070200033FF237802221343237010E021790A43AF
:10703000227161780F22134091430B4363702378D0
:10704000042293432370E379DB09FCD1E6E7E3797B
:10705000DB09FCD1FA208000684380239B00C01824
:107060008012F8BD001000407F3E0000FF1F0000AE
:10707000FF0F0000FF070000FF030000FF010000FA
:1070800008B5024801F030FE08BDC046E4380020D3
:1070900008B5024801F028FE08BDC046A836002009
:1070A000F7B5164F1649381C00F001F91549164876
:1070B00000F0FDF81549164800F0F9F81549164892
:1070C00000F0F5F81549164800F0F1F8154D0326C3
:1070D0000124281C144900F0EAF8391C0096231CEE
:1070E00001940022114801F017FD0096291C01941B
:1070F0001F221E230E4801F00FFDF7BD243B002088
:1071000000080042000C0042283B00200010004212
:107110002C3B002000140042203B002000180042BD
:10712000303B0020343B0020001C0042E4380020AB
:10713000A8360020F7B58A18061C0D1C01920C1CFD
:10714000019B671B9C4207D0336821781B68301C69
:10715000984701340028F3D1381CFEBD08B50368F8
:10716000C9B21B68984708BD38B5051C0C1C081E21
:1071700007D002F08DFC2B68021C5B68281C211CC8
:10718000984738BD08B5FFF7EFFF08BD08B5FFF712
:10719000EBFF08BD08B503681B68984708BD0000F1
:1071A00008B50249FFF7E0FF08BDC04618CE000051
:1071B00038B5041CFFF7D8FF051C201CFFF7F0FFB3
:1071C000281838BD38B5041CFFF7CEFF051C201C5D
:1071D000FFF7E6FF281838BDF0B58DB0161C0BABD5
:1071E000002201900C1C1A70012E00D80A266D4650
:1071F0002B35201C311C02F0A9FA201CCFB2311C07
:1072000002F060FA291C041C092F01D8303700E075
:107210003737FFB22F70013D002CEAD10198FFF7FC
:10722000A3FF0DB0F0BDF8B5041C0D1C161E04D153
:107230000368C9B21B68984712E00A2A0DD10029D9
:107240000ADA2D21FFF7A6FF6942071C321C201C19
:10725000FFF7C2FFC01903E000E0D2B2FFF7BCFFA6
:10726000F8BD08B5FFF7DFFF08BD38B5041CFFF710
:10727000DAFF051C201CFFF793FF281838BD08B55E
:10728000002A02D1FFF76AFF02E0D2B2FFF7A4FFA3
:1072900008BD08B5FFF7F3FF08BD38B5041CFFF7BC
:1072A000EEFF051C201CFFF77BFF281838BD01608E
:1072B0007047F7B508AC267804689D1E27686C1ED9
:1072C000A541ECB2920705683A4327063A432A6083
:1072D0000268072529405068B501002C00D05C03E6
:1072E000294301430C435460F7BD30B50368C02502
:1072F0001C68AD0312052A402243C024A4020904DD
:1073000021401143196003685A6814435C6030BD22
:10731000036801211A680A431A6002681168012390
:107320001942FBD1D1691942F8D170470368022193
:107330001A680A431A600268D3699907FCD4704737
:1073400003681A7ED10702D41A7E9107FCD57047D4
:10735000036800225A8370470368187E4007C00FF5
:1073600070470368187EC009704703688022197E41
:1073700052420A431A7670470368588B8007C00F41
:107380007047036802215A8B0A435A837047036887
:10739000187E0123184070470368188DC0B27047EB
:1073A00003681A7E01200242FBD0198570470368EA
:1073B00001229A757047036801221A7570470368A5
:1073C00001211A680A431A600268116801231942F0
:1073D000FBD1D1691942F8D17047036802211A68BC
:1073E0000A431A600368DA699107FCD45A8B30218A
:1073F0008A4310210A435A830268D3695907FCD48F
:107400007047036802211A688A431A600268D369C8
:107410009907FCD470470368802219685968D20222
:107420000A435A60704700000368034A19685968A4
:107430000A405A607047C046FFFFFBFF30B5036843
:1074400003241D680C40074A596824040A40ED06CD
:1074500022436D0F5A60052D03D10268D369590785
:10746000FCD430BDFFFFFCFF49001143036830B579
:10747000CDB2598B032409092140012904D0598B2D
:1074800009090C40022CF4D1596AC90AC9022943DE
:1074900059620368002A03D11A7ED107FCD50DE09A
:1074A000187E01224008104008D1197E1142F7D001
:1074B0005968C02292020A435A6003E05B8B0120A4
:1074C0009B08984330BD0368283319700268107E0A
:1074D0000123184003D1518B1942F8D003E0528B9D
:1074E000181C92089043704703682833197003688A
:1074F00000201A7E510703D55B8B01209B0898431F
:10750000704703681868C006400F0438434258416A
:10751000C0B270470368187E4007C00F7047036809
:10752000187E0123184070470368588BC006C00FAF
:1075300070470368187E8007C00F70470368588B38
:107540000007C00F704703681A68D206520F052A59
:1075500002D11A7E9107FCD528331878C0B2704743
:107560000368224A30B5934211D0214A934211D088
:10757000204A934211D0204A934211D01F4A93428D
:1075800011D01F4A934230D10E2319220DE0092356
:1075900014220AE00A23152207E00B23162204E036
:1075A0000C23172201E00D231822DCB2154901201B
:1075B0009B08A0409B0008605B180320C021890045
:1075C00004405D58E000FF248440A5432C1CC025E6
:1075D0008540281C204358508023DB011A430A4B66
:1075E0005A805A7852B2002AFBDB30BD00080042B4
:1075F000000C00420010004200140042001800423B
:10760000001C004200E100E0000C0040F8B5041C42
:10761000151C0E1C1F1CFFF7A3FF201CFFF778FE94
:10762000B1001C220A4069072368090C0A431A604A
:10763000226884239375012E1AD10821012D00D1CF
:1076400010210C4B79431868C00002F03BF8236806
:1076500007219A890140D2044903D20C0A439A8136
:1076600023680004C20C9889400B400310439881A2
:10767000F8BDC046900C002070B5041C0E1CFFF72E
:107680006FFF201CFFF79BFE236814221A600D4B2E
:1076900071001D682468281C02F014F80A49061CB1
:1076A000281C02F00FF87D23FA215843C90002F08C
:1076B00009F8301AE668FF23053818409E43064350
:1076C000E66070BD900C002040420F0010B5041C15
:1076D00001F032FCE0602368201C9B699847002879
:1076E00008DA01F029FCE368C01AA3689842F2D3D3
:1076F0000120404210BD000070B5041C0D1C161C7A
:10770000201CFFF7E3FF00281EDB2D281CD0021CE5
:10771000303A092A18D9002E01D02E2814D0012D74
:1077200010D0022D09D1031C093B172B0AD80122C6
:107730009A40131C054A134204D02368201C5B693D
:107740009847DDE70123584270BDC0461300800012
:10775000F8B5171C0022051CFFF7CEFF002821DB1F
:107760000024261CB8420BD02D2808D0031C303B27
:10777000092B05D80A235C432418303C00E001267D
:107780002B68281C5B699847281CFFF79FFF031C88
:10779000303B092BE6D9B842E4D0201C002E02D0A1
:1077A000604200E00020F8BD3F20704713B502683A
:1077B0006B46D97107335468191C0122A04716BDC6
:1077C00008B50069022100F0E1FC08BD08B50069B8
:1077D000032100F0F1FC08BD38B50D1C041C131C7E
:1077E000006903212A1C00F0E3FD002801D10123D8
:1077F000636038BD10B5054C23685A1C04D103687A
:107800005B6998472060031C181C10BD640C0020A5
:10781000074A08B51368591C04D001214942116078
:10782000181C03E00069022100F0B4FD08BDC04649
:10783000640C002008B50378034902330370422228
:10784000024800F06BFE08BD200C00200F40002015
:1078500010B50178031C42780020A12908D1212A03
:107860002FD118481849072200F058FE012028E0BF
:10787000212926D1202A05D113490722114800F0D9
:10788000E1FC04E0222A10D19A780F4BDA710E4BFA
:1078900096221968D200914210D1DC7901231C4054
:1078A0000CD1FA2001F0DCFE0AE0232A09D1DA78B3
:1078B0009B7812021A43054B1A6002E001F0D6FED3
:1078C000002010BD0F400020140C00201C0C0020D4
:1078D000064BFA2189009960054900220831196098
:1078E00004495A6019611A767047C046383B002037
:1078F00028CE00000F40002070B544680E1C002503
:10790000002C09D02368201C5B68311C9847002894
:1079100004DB2D18E468F3E7281C01E00120404255
:1079200070BD38B544680D1C002C08D02368201C9D
:107930009B68291C9847002802D1E468F4E7201CC2
:1079400038BD38B544680D1C002C07D02368201CB6
:10795000291CDB689847E4682D18F5E72C7038BDC2
:1079600038B544680D1C002C08D02368201C1B6807
:10797000291C9847002803D1E468F4E7201C00E0A4
:10798000012038BD30B5031C8A7940788218002068
:10799000072A24DC5A68824201D1596005E0D06888
:1079A000002801D0021CFAE7D1601A78C8790A7160
:1079B0005A784A711A7882181A700022887990428F
:1079C0000CD98C68900005595C780548A4002550B6
:1079D0005878013201305870D2B2EFE7012030BD43
:1079E000680C0020064B0122196810B511400548AB
:1079F00005D1022404700424447041601A6010BD53
:107A00005C3B0020543B002010B507230F220240AE
:107A1000141C00093034092A00DD0734CC54013B22
:107A2000F4D210BD10B5054B041C0360806901F051
:107A30004DFFA06A01F04AFF201C10BD58CE000087
:107A400010B5041CFFF7EEFF201C01F0BDFA201C4E
:107A500010BD000070B582291ED1C2B22A4953015F
:107A6000CB189D69294C80012C40C025AD052C43C5
:107A70009C61274C0832201858610B6852019918F4
:107A80000C798020404220430871D15C70208143F2
:107A900030200143D15435E0002933D1C2B21A4914
:107AA0005301CB189E68194DC0242E40A4052643CF
:107AB0009E60184E800109683018083258605201E3
:107AC000505C0726B0430126304350549E69354030
:107AD0002C439C610E4C5C61505C7024A0431024CC
