:10000000B2C0CCC0CBC0CAC0C9C0C8C0C7C0C6C0BF
:10001000C5C0B4C2C3C0C2C0C1C0C0C0BFC072C32B
:10002000BDC0BCC0BBC0B9C22AC14BC155C17DC196
:100030007CC17BC156C179C156C15BC15EC16DC176
:1000400066C154C172C166C12CC2E6C102C211C2EE
:100050008AC289C288C229C22AC22BC220C223C234
:10006000E6C129C218C2FFFF000306090C0F1215D2
:10007000181B1E212427FFFF0205080B0E11141761
:100080001A1D20232629FFFF0104070A0D1013164D
:10009000191C1F2225282A2D30FFFF3336393C3FFB
:1000A0004245484B4E512C2F32FFFF35383B3E41E5
:1000B00044474A4D50532B2E31FFFF34373A3D40D1
:1000C0004346494C4F5254575A5D6063FFFF66697F
:1000D0006C6F7275787B56595C5F6265FFFF686B69
:1000E0006E7174777A7D55585B5E6164FFFF676A55
:1000F0006D707376797C7E8184878A8D909396FF6C
:10010000FF999C9FA2A5808386898C8F929598FFEA
:10011000FF9B9EA1A4A77F8285888B8E919497FFD9
:10012000FF9A9DA0A3A6A8ABAEB1B4B7BABDC0C399
:10013000C6C9FFFFCCCFAAADB0B3B6B9BCBFC2C56C
:10014000C8CBFFFFCED1A9ACAFB2B5B8BBBEC1C45E
:10015000C7CAFFFFCDD0FFFFFFFFFFFFFFFFFFFF7D
:10016000FFFFFFFFFFFF11241FBECFEFD2E0DEBF76
:10017000CDBF11E0A0E0B1E0EAE1FBE002C00590F4
:100180000D92A035B107D9F722E0A0E5B1E001C09A
:100190001D92AA3AB207E1F729D3BDC431CF862711
:1001A000082E8295807F8025092E982F82958F704A
:1001B0000826869598278927880F880F880F80251D
:1001C00008958EBD0DB407FEFDCF0895CF93C82FBF
:1001D0002A988BEAF6DF8C2FF4DF80E0F2DF2A9A90
:1001E0008EB5CF910895CF93DF9300D0CDB7DEB712
:1001F0002A98805E4A836983E4DF6981862FE1DF84
:100200004A81842FDEDF2A9A0F900F90DF91CF91E1
:100210000895CF93C82F8CB58F778CBD40E06AE0EE
:100220008BE0E1DF4C2F4F7340686FE08BE0DBDF4A
:100230008FE0CCDF8F738093770241E06AE08BE040
:10024000D2DF8CB580688CBDCF910895EF92FF927C
:100250000F931F93CF93DF93EC018B01FB01808100
:10026000882309F47CC0E0917F028E2F90E08031DA
:10027000910508F05AC0FC01EC5EFF4F0994809193
:100280007E02811107C0188219821A821B821C8289
:100290001D8213C081E088838091790289838091D7
:1002A0007A028A8380917B028B8380917C028C838B
:1002B00080917D028D8310927E0286E0F80180831A
:1002C00007C085E0888381E0F801808310927F0277
:1002D0007E018FEF9FEF2CC0809188009091890064
:1002E000F1CF84E0EFCF80917802ECCF809177025C
:1002F000E9CF80E2E7E5F2E003C080E2E7E3F2E085
:10030000DE0101900D928A95E1F780E2DDCF8091C8
:100310003602D8CF80913502D5CF909133028091AB
:1003200034029883898382E0CFCF81E08883C6CF6F
:10033000F80120813E2D3C1B321728F4F701619112
:100340007F012DDFF5CFFE01E20FF11D9083F80153
:100350009081C90FD11D898380818E5F8083DF9159
:10036000CF911F910F91FF90EF900895AF92BF92A0
:10037000CF92DF92EF92FF920F931F93CF93DF9371
:10038000EC01162F8881982F907F903881F48F7020
:1003900090E068E170E0AED3DC01A55ABE4F98E171
:1003A000FE01319601900D929A95E1F7DCC0623022
:1003B00008F4D9C0C62ED12CCE018C0D9D1DFC0198
:1003C0003297E080F12CFE2CEE2431968081E80EED
:1003D000F11C5E018FEF9FEF22E0C21AD1082A2D97
:1003E0002C1B30E02C153D052CF4F50161915F01CB
:1003F000D6DEF5CF8E159F0509F0B5C06EEF610F03
:10040000E8818E2F90E0FC013197EF30F10508F084
:10041000AAC0EC5DFF4F0994623039F4898190E005
:1004200090938900809388009EC082E035C08DE063
:1004300080937F02623009F096C08981DF91CF916D
:100440001F910F91FF90EF90DF90CF90BF90AF90F2
:10045000E0CE643009F087C0EBE5F1E089819A8154
:10046000AB8181939193A19322E0E333F207B1F73B
:100470007AC0653009F077C0898190E063E070E070
:1004800039D3855A9E4F2A813B814C81FC012083C0
:100490003183428368C08FE080937F0264C08BE029
:1004A000FBCF81E0F9CF8CE0F7CF88E0F5CF89E092
:1004B000F3CF8AE0F1CF623009F055C0C9818CB525
:1004C0008F778CBD40E061E18BE08DDE40E84C0F22
:1004D00060E18BE088DE81E179DE803839F08FECF5
:1004E00097E00197F1F700C00000F5CF2A988CEA59
:1004F00068DE80E066DE07E512E080E062DE8EB551
:10050000F80181938F01F2E007371F07B1F72A9AAC
:1005100040E061E18BE067DE40E44C0F60E18BE09E
:1005200062DE81E153DE803439F08FEC97E0019791
:10053000F1F700C00000F5CF2A988CEA42DE80E295
:1005400040DEC7E3D2E080E03CDE8EB5899392E0E6
:10055000C735D907C1F72A9A40E061E18BE043DE55
:100560008CB580688CBDDF91CF911F910F91FF906A
:10057000EF90DF90CF90BF90AF9008951F920F92B1
:100580000FB60F9211248F9381E080930F018F910A
:100590000F900FBE0F901F9018951F920F920FB6DD
:1005A0000F9211242F933F934F935F936F937F93F9
:1005B0008F939F93AF93BF93EF93FF938091B90075
:1005C000883909F483C0C0F4883709F45CC050F45A
:1005D000883609F458C0803709F455C0803609F0D0
:1005E00079C051C0883809F471C0803909F44EC00F
:1005F000803809F06FC04AC0883B91F158F4883ABE
:1006000099F0803B89F0803A09F064C085ED8093D1
:10061000BC004BC0883C09F457C0883F09F461C056
:10062000803C09F057C050C01092A902E091A70287
:10063000F091A802309749F084E28093A60266EA1E
:1006400072E082E892E0099502C01092A6028091C1
:10065000A602811105C081E08093A6021092820259
:10066000E091A90281E08E0F8093A902F0E0EE579D
:10067000FD4F80818093BB009091A9028091A602DA
:10068000981720F521C01092A9021EC0E091A9027E
:10069000E432E0F481E08E0F8093A9028091BB00E8
:1006A000F0E0EE57FD4F80830FC08091BC0084FDC9
:1006B000FCCFE0918002F0918102309729F06091A7
:1006C000A90282E892E0099585EC01C085E8809353
:1006D000BC0007C085ED8093BC008091BC0084FD08
:1006E000FCCFFF91EF91BF91AF919F918F917F913F
:1006F0006F915F914F913F912F910F900FBE0F908F
:100700001F9018951F920F920FB60F9211248F937E
:100710009F93EF93FF938091590190915A018130FB
:10072000910599F048F082309105C1F0039709F0E6
:1007300050C01EBC2A9A4DC02A98000080915801D2
:10074000805E8EBD81E090E004C080E28EBD82E0DC
:1007500090E090935A01809359013FC0E091580175
:1007600080915701F0E0F695FE2FEE27F795E7957B
:10077000E80FF11DEA59FF4FE491E0935601809193
:1007800056018F3F11F41EBC07C0E0915601F0E006
:10079000E55AFE4F80818EBD809157018F5F809317
:1007A0005701809157018038C1F483E090E0909325
:1007B0005A018093590110925701809158018F5F1F
:1007C0008093580180915801823039F41092580179
:1007D00004C010925A0110925901FF91EF919F911C
:1007E0008F910F900FBE0F901F9018958CE684B9D3
:1007F0002E9A2A9A2A9A8FEC97E00197F1F700C077
:10080000000081E58CBD9DB581E089278DBD40E06C
:100810006AE08BE0E8DC8BE1D9DC8093780287E149
:10082000D5DC8093350240E060E08BE0DCDC40E129
:1008300061E08BE0D8DC44EE6DE08BE0D4DC41E09D
:100840006EE08BE0D0DC47E064E18BE0CCDC40E4A0
:1008500065E18BE0C8DC2A988DE2B3DC80E0B1DC96
:10086000C0E1D1E08991ADDC91E0C035D907D1F785
:100870002A9A8FE3CEDCC0E240E06C2F80E0B3DC4C
:10088000CF5FC03AC9F7C0E240E06C2F81E0ABDC3B
:10089000CF5FC03AC9F7C0E04FEF6C2F80E0A3DC18
:1008A000CF5FC031C9F7C0E04FEF6C2F81E09BDC18
:1008B000CF5FC031C9F741E06AE08BE094DC8CB5D2
:1008C00080688CBD789487B18F6887B988B18F684C
:1008D00088B91AB89FEF9BB9809181008C60809392
:1008E000810010928500109284002FE030E0309358
:1008F00089002093880080916F00826080936F0050
:100900007894219A29982198000083B18695817066
:10091000809336022CE088E10FB6F894A895809376
:1009200060000FBE2093600026EB31E0309381021F
:100930002093800226E231E03093A8022093A702A0
:100940002098289883B181708865880F8093BA00B9
:100950009093BB008091B9008E7F8093B900809105
:10096000B9008D7F8093B90085EC8093BC007894AA
:1009700041E050E067E4C62E76E8F72EBB24B3943E
:1009800080910F01882309F4A8C0E2E0F1E0A0E023
:10099000B1E060E070E0D12C30E0343011F44798E1
:1009A0000BC098B18A01062E01C0000F0A94EAF725
:1009B000802F8095892388B9000089B1343011F4E3
:1009C000479A09C098B18A01062E01C0000F0A9407
:1009D000EAF7092B08B9E0808E252C91EF019A9156
:1009E000922798239883209528232C9320952823B9
:1009F0009095822F8923E826E082D80E3F5F6F5FB3
:100A00007F4F33961396353041F6D11003C01092C4
:100A10000F011DC0F89480910201809580937902A6
:100A200080910501809580937A02809108018095DC
:100A300080937B0280910B01809580937C02809152
:100A40000E01809580937D02B0927E027894809111
:100A500052019091530190935501809354018091DC
:100A600050019091510190935301809352018091D4
:100A700064008E7F80936400C0927C00F0927A00C4
:100A800080917A00806480937A0080917A0086FD5C
:100A9000FCCF209178008091790090E0982F8827F2
:100AA000820F911D9093510180935001E091540168
:100AB000F0915501609152017091530168177907C7
:100AC00070F0E817F90758F0CB01E817F90708F4B8
:100AD000CF019093340280933302A89551CF8617AB
:100AE000970718F0E617F70780F76817790788F770
:100AF000CB01EFCF0024552704C0080E591F880FE3
:100B0000991F009729F076956795B8F37105B9F7A5
:0A0B1000802D952F0895F894FFCF73
:100B1A000000FF0000FF0000FF0000FF0000FF01CF
:100B2A005055555500000000000000001554555559
:100B3A0000000000000000005505555500000000A7
:100B4A00000000005555415500000000000000005B
:100B5A00555555500000000000000000000000003C
:00000001FF
