:1000000000800020F9330000E1330000E1330000FC
:1000100000000000000000000000000000000000E0
:10002000000000000000000000000000E1330000BC
:100030000000000000000000E13300004D3400002B
:10004000E1330000E1330000E1330000E133000060
:10005000E1330000E1330000E1330000E53300004C
:10006000E13300002D330000E1330000E1330000F4
:1000700005330000E13300003D330000E1330000B0
:10008000E1330000E1330000E1330000E133000020
:1000900000000000E1330000E1330000E133000024
:1000A000E1330000E1330000E1330000E133000000
:1000B0000000000010B5064C2378002B07D1054B3B
:1000C000002B02D0044800E000BF0123237010BDC4
:1000D000F0030020000000008070000008B5084B0D
:1000E000002B03D00748084900E000BF0748036819
:1000F000002B03D0064B002B00D0984708BDC0460C
:100100000000000080700000F4030020EC030020D9
:100110000000000008B5012802D902F059FD01E0F5
:1001200002F07CFD08BD000010B50C1C002802D0B8
:1001300001280ED01FE003231C40022C1BD10F4CC2
:100140000F49201C01F0ECFB201C0E4901F0E8FBDC
:1001500011E003230B40022B07D103F085F9242182
:1001600005F074FC084B04311970A30703D5064B46
:10017000188800F069FE002010BDC046400A00202B
:10018000B45E0000D85E0000240400200020704708
:1001900008B5054801F0B0FD044801F019FC044819
:1001A00002F0ECF908BDC046C40A0020400A002055
:1001B000680B002008B5044801F0CAFE034801F0AE
:1001C00001FC002008BDC046D00A0020400A0020E3
:1001D000962170B589011D4804F054FB1C4800F0BD
:1001E00013F9032002F0E6FC02F052FB194802F07A
:1001F0000DF9194802F00AF9184802F007F91848F1
:1002000002F004F9174802F001F9174802F0FEF86D
:10021000164802F0FBF8164B164A1748FF211A60E1
:1002200001F0D3FF1548FF2101F0D1FF144D012645
:100230002B68144C334203D1201C02F0CFF82E60FF
:10024000114B12481C6001F0B1FC70BD9C130020E2
:1002500038040020400000201C0000200400002082
:10026000280000204C000020340000201000002056
:100270005800002015010000E80A0020F80A0020BC
:100280001C04002020040020580B0020140400202F
:1002900008B5024800F0DEF808BDC046380400206A
:1002A00008B5154801F0BEFC144801F007FC1448DD
:1002B00001F004FC134801F001FC134801F0FEFBBF
:1002C000124801F0FBFB124801F0F8FB114801F065
:1002D000F5FB114801F0F2FB104801F0EFFB10486C
:1002E00001F0DAFB0F4803681B6898470E4802F0DC
:1002F0007DFD002008BDC046C40A0020C80A0020B9
:10030000E80A0020F80A0020E00A00202804002063
:10031000140400200C04002030040020D80A00201F
:100320005C0B0020B80F0020C00F002008B5FFF7BD
:10033000B7FF08BDF7B51D1C161C0F1C0A782978DD
:10034000041C009133781348211C01F09FFC012804
:100350001ED029783A78337800910F48211C02F09A
:1003600015F8012814D029783A78337800910B4891
:10037000211C01F0EFFA01280AD029783A78337865
:1003800000910748211C02F061FD013843425841A9
:10039000FEBDC046C40A00205C0B0020400A0020BD
:1003A000C00F002073B5151C1E1C0C1C6A46694644
:1003B0006B4607310632053315701E700C70FFF75F
:1003C000B9FF76BD002208B5FF21131C0A4801F0D1
:1003D00035FE00210B1CFF22084801F02FFE0021F2
:1003E0000A1CFF23064801F029FEFF2105480A1CCC
:1003F0000B1C01F023FE08BD28040020140400207B
:100400000C0400203004002038B5FFF78FFF10489F
:1004100000F096FA00F0F6FC00F09AFD00F0AAFD5C
:10042000FF2100200A1C002300F08EF800F072F972
:1004300000250024211C0134281CE4B200F02AF914
:10044000102CF7D10135EDB2052DF2D138BDC046E3
:100450003009002070B503F007F8124B0025186032
:10046000FFF794FE104800F0AEFBFFF791FE0F4E31
:10047000AB009C59002C04D000200135A047EDB200
:10048000F5E700F04DFD00F017FDA300F358002B39
:1004900004D0012001349847E4B2F6E7FFF78AFE62
:1004A00070BDC0463C0400203009002040050020FB
:1004B00030B50023054A9C00A558854201D1A150C2
:1004C00002E00133402BF5D130BDC046400400208E
:1004D00008B5011C0020FFF7EBFF08BD08B500239D
:1004E000054A9A58824206D0802204335200934231
:1004F000F6D1FFF7EDFF08BD4004002030B5002322
:10050000054A9C00A558854201D1A15002E0013363
:10051000402BF5D130BDC0464005002008B5011C78
:100520000020FFF7EBFF08BD08B50023054A9A58E5
:10053000824206D08022043352009342F6D1FFF764
:10054000EDFF08BD40050020F0B585B003AD288063
:100550000191171C1C1C042924D80F2A22D803231C
:1005600023400293022B03D1081C111C00F092F8C7
:100570003F4E0199301C3A1C00F046FB002807D082
:100580000298012871D1301C01993A1C00F024FB1B
:100590002B88002B06D10199364B0A01D219520043
:1005A000D35A2B800026344BB200D558AC46604657
:1005B00003AD00280BD0288801993A1C231CE04782
:1005C000288080B2002850D00136F6B2EBE7281C14
:1005D00001993A1C231CFFF7E5FE061E45D101993F
:1005E0003A1C2888231C00F029F981B22880FF22B8
:1005F0008E423AD06B460D331B785D061FD518022C
:1006000011405DB20143002D2FDB1D0706D5A30766
:100610002BD51140084300F0A3FC26E001252B4216
:1006200023D0A30721D42C421FD00A40041C14431A
:10063000201C00F0A7FC201C00F0ACFC15E0A50776
:1006400006D50A401B02101C184300F0FDFB0CE00D
:1006500003202040012808D164B2002C05DA0A40AA
:100660001B02101C184300F039FC05B0F0BDC04659
:10067000300900209A06002040040020052358433A
:10068000411809015118024B4900585A7047C04699
:10069000745D000038B50A1C031C01010548891867
:1006A0004C00085C04490D68191CA847034BE05234
:1006B00038BDC04649060020580000209A06002098
:1006C00010B50B4B0B4A1B780B49013B127809689C
:1006D000DBB2934209D9081CD840C40702D5074AA7
:1006E000137004E0013BDBB2F3E7044B1A7010BD5A
:1006F0005C00002048060020440600204006002040
:10070000034B1B68C340181C012318407047C046A8
:1007100044060020F7B51A4B1A4C1978201C5022B9
:1007200005F06CFA0025EBB2164A00932B01D318A2
:1007300001930024144BE7B21E78114A73B2127869
:10074000934215DDF6B2301CFFF7DAFF00280CD01B
:100750000E4B301C1B6800993A1C98470C4B80B21A
:10076000984202D0019A165502E0013EF6B2E4E743
:100770000134102CDED10135052DD4D1F7BDC04692
:1007800048060020490600204006002058000020AE
:10079000FFFF0000094B10B51A680121141CC4406A
:1007A0000C420AD081408A431A60054B1B78834271
:1007B00001D1FFF785FFFFF7ADFF10BD4406002014
:1007C0004006002010B50C4B041C1B78834211D945
:1007D000FFF796FF00280DD1084B01221968A240AF
:1007E0000A431A60064B1B78A34201D2FFF768FF49
:1007F000FFF790FF10BDC0465C00002044060020BB
:100800004006002008B5034B00221A60FFF7DAFF0C
:1008100008BDC0464406002008B5034B18780130D7
:10082000C0B2FFF7CFFF08BD4006002008B5024B5D
:100830001878FFF7AFFF08BD4006002010B5C4B21E
:100840000004000E442802D0000220433BE0292C83
:1008500025D92A3CE4B2212C0DD0222C12D103221E
:100860001340022B02D1FFF7D7FF26E0012B24D142
:10087000FFF7DCFF21E003221340022BF8D0012B0D
:100880001BD1F0E79A0705D5201CFFF739FF002898
:1008900013D114E003221340012B0ED10AE00322EE
:1008A0001340022B09D1201CFFF72AFF002806D095
:1008B000002C04D0201CFFF76DFF002003E0201C5B
:1008C000FFF780FFF9E710BD10B5041CFFF79AFF92
:1008D000014B1C7010BDC0464806002008B5002022
:1008E000FFF7F2FF08BD000073B50F4DCBB20191C9
:1008F0008024E95C6400611A090201AE0139032019
:1009000002F0AAFF73780420E95C611A0902013938
:1009100002F0A2FFB3780520E95C611A09020139EF
:1009200002F09AFF73BDC046D65F000008B50120F3
:10093000011C03F07FF80120011C03F0D5F808BD6D
:1009400013B5041C0120011C03F074F800210120E0
:1009500003F0CAF8102002F0E1FE00236A4613708B
:10096000537093700099201CFFF7BEFF0F2002F018
:1009700009FF632808D801AB64221A7000225A705C
:100980009A70201C0199EFE7FA20800002F072FDB6
:10099000201CFFF7CBFF0022002322606360A260CF
:1009A000E36000F071F913BD13B501AC472903D81A
:1009B000032251430D4B05E08F2908D84839032203
:1009C00051430B4B5918201C05F00FF905E000238B
:1009D0006A4653716A462370937162782078A378CF
:1009E00012021B041043184316BDC04640080020E5
:1009F00040070020F0B5161C360A150C85B00C1CFB
:100A0000D7B2F6B2EDB247290AD8FFF7CDFF03AB54
:100A1000020A5A70020C9A7003225443124A0CE0E4
:100A20008F291ED8FFF7C0FF03AB020A5A70020CD1
:100A30009A70483C032254430C4A14190C492770FD
:100A40006670A570C0B20C780122B84207D1587800
:100A5000B04204D19A78551B6A1E9541EAB22243EE
:100A60000A7005B0F0BDC0464008002040070020D5
:100A70005D00002013B5044C09018A18115D1A1C91
:100A8000FFF7B8FF13BDC046865F0000F7B50E4EF6
:100A9000071C3378002B16D009240C4D013C281C70
:100AA00000F05CF90A4800F059F9002CF5D12A78D9
:100AB00001AB1A706A78381C5A70AA789A7001993A
:100AC000FFF712FF3470F7BD5D00002040080020E2
:100AD0004007002073B5041C211C08221030251C7F
:100AE00005F083F80835201C1830291C082205F071
:100AF0007CF80F4E301C00F065F9002808D06846DD
:100B0000311C00F0DDF8201C6946082205F06DF864
:100B1000084C201C00F056F9002808D06846211C1B
:100B200000F0CEF8281C6946082205F05EF873BD77
:100B30004008002040070020F0B5051C85B00024C7
:100B4000E300DBB203930027039AF9B28E18F6B2E2
:100B50000191321C2868696804F0E4FF0123184001
:100B600098400290321C2869696904F0DBFF029901
:100B7000012303400B430020211C019AFFF7E4FCF2
:100B8000A868E968321C04F0CDFF012210409040B3
:100B90000290321CA869E96904F0C4FF029901239C
:100BA00003400B4301990F22521AD2B20020211C9C
:100BB0000137FFF7C9FC082FC6D10134E4B2052C78
:100BC000BED105B0F0BD10B5041CFFF783FF201C9B
:100BD000FFF7B2FF10BD000010B504290ED80F2A90
:100BE0000CD80120072A02D9054B0F2401E0054B40
:100BF0000724A21A90405A5C82435A5410BDC04642
:100C00003008002038080020002004290ED80F2AC0
:100C10000CD8072A03D9064B585C0F2302E0054B7A
:100C2000585C07239A1A1041012318407047C046A8
:100C3000300800203808002070B50B4E0021301C11
:100C400000F031F8094D0A4C291C221C301C04F01C
:100C500075FF084E0321301C00F025F8301C291CBC
:100C6000221C04F06BFF70BD40080020A50C0000A2
:100C7000000000204007002008B5024802F0F8F903
:100C800008BDC046C80F002010B5044C201C02F05F
:100C9000C1F9201C024902F0DDF910BDC80F002087
:100CA000801A06007047021CE8320023137053704C
:100CB000031CDC3358221960043B11431960704750
:100CC00010B5E031041C082204F08FFF201C10BD79
:100CD000F8B50E4C031C0F1C161C191C06AA201C70
:100CE000157802F0CAF9201C391C321C02F03AF9BE
:100CF000031C0120002B08D06B1E9D41E9B2201C73
:100D000002F034FA43425841C0B2F8BDC80F002087
:100D100070B50B1C8AB0803B03AA1370182359438B
:100D200000234118CD5C0C4ED418755D01336570FD
:100D3000182BF7D10023D8300078111C009319220A
:100D40000123FFF7C5FF042803D1FFF795FFFFF745
:100D50009BFF0AB070BDC046D660000010B5041CF1
:100D6000E93421784B1C2370FFF7D2FF2378092B3D
:100D700001D10023237010BDF7B5114F051C141CC1
:100D80005A1E93410E1CDBB2291C381C221C02F097
:100D90008DF9051E12D034190194341CA51B381C82
:100DA000EDB202F0FFF8002808D0019B9C4205D06C
:100DB000381C02F014FA20700134EFE7281CFEBD45
:100DC000C80F002013B5031CD833041C69461878DB
:100DD00006220123FFF7D0FF684603780020012B8D
:100DE0000ED168464178221CE03211708178E434DB
:100DF0005170C17891700179D1704279181C2270BC
:100E000016BD000008B5034800F0E8FA024800F0FB
:100E1000DEF908BDAC0900205009002038B5084DA6
:100E2000C4B2281C00F05EF9002804D1281C211C43
:100E300000F07EF903E00348211C00F090FA38BD71
:100E400050090020AC09002038B5051C2C04240EE4
:100E5000230702D5E120FFF7E1FFE30702D5E020F9
:100E6000FFF7DCFFA30702D5E220FFF7D7FF6307F8
:100E700002D5E620FFF7D2FFE30602D5E320FFF715
:100E8000CDFF281CFFF7CAFF38BD000038B5084D5C
:100E9000C4B2281C00F026F9002804D1281C211C0B
:100EA00000F065F903E00348211C00F075FA38BD35
:100EB00050090020AC09002008B5054800F080F971
:100EC000044800F085FA044800F0C0F908BDC046A7
:100ED00050090020AC0900208809002038B5051C05
:100EE0002C04240E230702D5E120FFF7CFFFE307F0
:100EF00002D5E020FFF7CAFFA30702D5E220FFF7E3
:100F0000C5FF630702D5E620FFF7C0FFE30602D561
:100F1000E320FFF7BBFF281CFFF7B8FF38BD000038
:100F200010B5084C201C00F0DDF8002803D1201C6F
:100F300000F0DCF805E0044800F0E8F9034800F0B0
:100F400095F910BD50090020AC0900208809002047
:100F500008B5024800F0A8F908BDC046880900207D
:100F600008B58105890D024800F064F908BDC04646
:100F70008809002008B5024800F070FA08BDC04694
:100F8000E609002008B5C1B2014800F06FFA08BDBB
:100F9000E609002008B5024800F064FA08BDC04622
:100FA000E60900200379413301200B7070470000EF
:100FB00070B50B7888B001AC01331925061C0B7095
:100FC0002A1C201C002104F019FE04236370012355
:100FD00009212371A371E371E3722373A373237651
:100FE000337921700322617221216271A1726275CD
:100FF000A370222140223F23E173E282237472799D
:1010000007218023A1745B4205211343E1742A1C4C
:10101000211C0348237504F043FA08B070BDC04694
:101020007318002010B504798A880023944220D1D7
:101030000C784A78A12C0ED10221141C8C43012C6F
:1010400016D0022A15D1021C191C293201230A4884
:1010500004F002FA06E0212C0BD10B2A04D18B7884
:1010600028300370012304E029300A2A01D1F8E76F
:10107000231C181C10BDC0467318002008B50A7840
:10108000031C0020812A0FD1CA78222A0CD189881A
:101090001A79914208D11A1C1B7C2832137003481C
:1010A00003493F2204F0FCF908BDC0467318002034
:1010B000D66100000A49021C083101602432011C7B
:1010C00001238260283100228371C3710374C260DE
:1010D0000B704B70031C2A331A70832343627047D2
:1010E00018620000283000787047000070B5061CB8
:1010F000041C19361134051C211C301C082204F074
:1011000065FD00280FD06B7940211943221C08236C
:10111000064804F00FF9211C051C0822301C04F0BD
:1011200064FD281C01E00120404270BD73180020BE
:101130000A1C2032D2B210B50023072A08D8012396
:10114000E0391A1C8A40111C427C114341740CE0A6
:10115000C218D47C8C4208D0002C01D1D17404E098
:101160000133062BF4D1002000E0012010BD0A1C41
:101170002032D2B270B50023072A07D8E039012304
:101180008B40191C437C8B43437417E0C218D47CFA
:101190008C4201D10024D4740133062BF6D1031CF8
:1011A000851D0022DC7C002C05D08118CE7C01320C
:1011B000CC74D2B2DE740133AB42F3D1012070BDE6
:1011C00008B511300021082204F018FD08BD10B543
:1011D000041C03F0E3FB211C03F0B0FB201CFFF711
:1011E000EFFF201CFFF782FF10BD000008B502488A
:1011F000FFF760FF08BDC0465009002038B50A4B14
:1012000001221968051C1140084C05D121600849CC
:101210001A6061601921218100F0D2FA211C00F0CE
:101220008DFA281C38BDC046980900207C09002092
:101230003062000010B500235A00845A002C01D1FE
:10124000115202E00133042BF6D110BD08B5002184
:10125000082204F0D3FC08BD10B5041C00F0B0FA5D
:101260000421221C082300F079FA10BD38B5051CB2
:10127000041C0835281C211C082204F0A7FC0028A7
:1012800007D0201CFFF7E8FF281C211C082204F0CF
:10129000ACFC38BD10B50021041C082204F0AEFCE3
:1012A000201CFFF7E3FF10BD08B5FFF7F3FF08BDF3
:1012B00008B50248FFF7A2FF08BDC0468809002014
:1012C00038B50A4B01221968051C1140084C05D19C
:1012D000216008491A6061604121218100F070FAA3
:1012E000211C00F02BFA281C38BDC0469C090020A8
:1012F000A00900204962000010B5041C00F060FA4B
:101300000821221C1D2300F029FA10BD70B5457F6D
:101310000378061C041C1D369D420AD0437700F05A
:101320004FFA0821321C1D2300F018FA002800DAB9
:101330006577301C211C1D2204F048FC00280AD0CF
:10134000201CFFF7D9FF051E07DD301C211C1D22C4
:1013500004F04BFC01E001256D42281C70BD10B566
:10136000031CDD290BD80720CA08014001209B1867
:10137000041C5A788C40211C114359700BE0203119
:10138000C9B20020072906D80120021C8A40111C7E
:101390001A781143197010BD10B5031CDD290AD845
:1013A000CA08072001409B1801205A78041C8C4071
:1013B000A2435A700BE02031C9B20020072906D899
:1013C0000120021C8A40111C1A788A431A7010BD31
:1013D00008B500211D2204F011FC08BD10B5041C45
:1013E000FFF7F6FF201CFFF787FF10BD08B5024886
:1013F000FFF766FF08BDC046AC09002038B50A4BB0
:1014000001221968051C1140084C05D121600849CA
:101410001A6061601821218100F0D2F9211C00F0CE
:101420008DF9281C38BDC046E8090020EC090020D1
:101430008A62000038B50D1C141C00F0C1F92A1C8A
:101440000521231C00F08AF938BD07B5694607312C
:10145000002301220B70FFF7EDFF07BD08B5FFF772
:10146000F4FF08BD08B5FFF7F0FF08BD07B56B46F0
:10147000D9710733191C0122FFF7DCFF07BD0000FB
:1014800008B50248FFF7BAFF08BDC046E6090020CC
:1014900070B50B7888B001AC01331925061C0B70B0
:1014A0002A1C201C002104F0A9FB042363700123E3
:1014B00009212371E3722373A37323763379217097
:1014C0000322617221216271A1726275A3702221CF
:1014D00040223523E173E28223747279072180234D
:1014E000A1745B4205211343E1742A1C211C0348AB
:1014F000237503F0D5FF08B070BDC04673180020F7
:1015000010B5131C42790C1C402111430248221CC7
:1015100003F010FF10BDC0467318002008B4024B42
:101520009C46103808BC60470115000010B58A8839
:1015300004790023944219D10C784A78A12C06D161
:10154000012A12D0D31E5A425341DBB20EE0212CA5
:101550000CD10B2A02D18B78013003E00A2A05D185
:101560008B780230C377012300E0131C181C10BDD8
:1015700008B50A78031C0020812A0ED1CA78222AD5
:101580000BD189881A79914207D101220133DA7788
:1015900002480349352203F083FF08BD7318002079
:1015A000A2620000021C1C3210B582600022C260E0
:1015B0008282C28202760B4A0123111C243202610C
:1015C0000831C2188371C3710160D377821CD3774D
:1015D0008323041CC36103F0E1F9211C03F0AEF97D
:1015E000201C10BDD862000008B50248FFF7DAFFE2
:1015F00008BDC046F809002048230B7049234B70F2
:1016000044238B70028B0F231A404132CA70028B25
:1016100012111340413305200B71704770B50B78E0
:1016200088B001AC01331926051C0B70321C201C3C
:10163000002104F0E3FA0423637001232371E372B1
:101640002373A37323762B790921A3702B8B21702D
:101650000322617221216271A172627523742221B9
:1016600040221B12E173E28263746A7907218023AE
:10167000A1745B4205211343E174321C211C034811
:10168000237503F00DFF08B070BDC046731800202D
:1016900070B50B78041C0025812B1ED1CB78222B32
:1016A0001BD18A8803799A4217D10D4E0121301C33
:1016B00003F066FF6469002C09D02289301C616840
:1016C00003F0EEFE431C07D02D182468F3E7301C0E
:1016D000211C03F055FF00E0051C281C70BDC0460E
:1016E0007318002010B504798A880023944220D111
:1016F0000C784A78A12C0ED10221141C8C43012CA9
:1017000016D0022A15D1021C191C1B3201230A48CB
:1017100003F0A2FE05E0212C0BD10B2A03D18B781C
:101720008376012305E00A2A03D18B78C376F8E794
:10173000231C181C10BDC046731800204369002BE1
:1017400001D1416105E01A68002A01D0131CFAE7B3
:1017500019600A89038BD3180383704730B591B0A1
:101760001C1C051C6B46684619700130111C221C9C
:1017700004F03BFA6979631C6A46024803F0DAFD1B
:1017800011B030BD7318002010B5021C0B490123A5
:10179000103208318371C371826083760022C37670
:1017A0008323041CC260426102830361016003F071
:1017B000F5F8211C03F0C2F8201C10BD00630000E6
:1017C00070B5064D01262B68054C334203D1201C11
:1017D000FFF7DAFF2E60201C70BDC0461C0A0020F7
:1017E000200A00207047000008B50348FEF776FE87
:1017F0000248FEF799FE08BD99190000351A00004D
:1018000008B580230B43FF210A1CFEF79DFEFFF75E
:1018100087FB08BD38B50C020221151C04430A429F
:1018200002D0201CFFF7ECFF01210D4202D0201C4A
:10183000FFF7E6FF38BD38B50B1E31D0002518780C
:10184000013807282CD8597804F0B2F804070C0F97
:1018500012151A1F9C1C0D1C1DE0081C9C1C01F07D
:1018600009FE18E0DC1C987808E0DC1C98780AE097
:10187000DC1C98780CE0081C9C1C0021022208E06B
:10188000081C9C1C0021012203E0081C9C1C002158
:101890000322FFF7BFFF281C01F0ECFD231CCEE75D
:1018A00038BD00000020402914D83A292BD2202925
:1018B00023D00BD80A291ED004D808292DD3081C00
:1018C00022301EE01B2928D1292026E0302916D8F5
:1018D00021391FE0602908D85B2916D2081C3D3841
:1018E0008023C0B21B01184317E07A290FD97E2943
:1018F00013D85E390EE028200FE02C200DE0081CE4
:101900001338C0B209E02A3904E0443902E0081C67
:101910005D38F6E7014B4900585A704718630000DC
:1019200070B5061C0D1C2978002910D0301CFFF75B
:10193000B9FF83B2041C002B01D10135F3E702216A
:10194000FFF75EFF201C0121FFF75AFFF5E7081C97
:1019500070BD0000F7B508A8007801904C78002011
:10196000602C13D109780A4C8C4621780120072974
:101970000CD803254D43074E12019A186746019B68
:10198000AF55091875196A70AB702170FEBDC0465D
:10199000450A0020460A00207FB50E1C03AC151C2A
:1019A0002080211C009306482B1C321CFFF7D2FF1D
:1019B0000023002800D12388181C04B070BDC04645
:1019C000400A0020014B002018707047450A002093
:1019D00070B50024124B1B78A3421ED90323634326
:1019E000104A1148D3185B78151C1049FF2B01D100
:1019F000037003E01E0906700F2003400B700323E1
:101A00006343D05CEB189978FEF78EFB0134011C20
:101A10000748FFF710FFE4B2DCE7002070BDC046C6
:101A2000450A0020460A0020440A00203C0A002003
:101A3000400A002008B5002803D0044B00221A7089
:101A400002E00348FFF7C4FF08BDC046450A002076
:101A5000400A0020024A034B08321A607047C04611
:101A600060630000400A002070477047704770476D
:101A700010B5064B041C08330360054B002160229F
:101A80000448197004F0BAF8201C10BD70630000FF
:101A9000610A0020640A002010B50023064A99005C
:101AA0008C58002C02D18850DBB203E00133182B94
:101AB000F4D1FF2358B210BD640A002010B5041CF5
:101AC000FFF7EAFF2368201C5B689847002010BDE1
:101AD00008B5FFF7F3FF08BD07B5031C0A1C024851
:101AE000191CFEF787FF07BD3009002013B500243D
:101AF0000190201C01340199E4B2FFF7EDFF902C16
:101B0000F7D113BD0B4B07B51B78002B10D101AAE1
:101B10001370537093700198FFF7E8FF064B1A7823
:101B2000064B9200D058002802D003689B68984763
:101B300007BDC046600A0020610A0020640A002038
:101B400008B5172803D8024B1870FFF7DBFF08BD54
:101B5000610A002008B50A4B1A78002A0AD1172218
:101B6000084990004158002905D1013AD2B2002A13
:101B7000F6D100E0013A1A701878FFF7E1FF08BDCE
:101B8000610A0020640A002010B5021C00230649E7
:101B90009C006158D8B2914202D1FFF7D1FF02E018
:101BA0000133182BF3D110BD640A002008B5FFF7EC
:101BB000EBFF08BD08B50A4B18780130C0B21870A9
:101BC000172804D8074A81008A58002A04D1002225
:101BD0001A70FFF797FF01E0FFF7B2FF08BDC0469C
:101BE000610A0020640A002007B501AB1870597023
:101BF0009A700198FFF77AFF07BD000037B5051C02
:101C00000C1C131C291C0248221CFEF733FF37BD95
:101C10003009002008B50248FEF738FF08BDC0466D
:101C20003009002013B5002401AB1C705C709C705F
:101C30000198FFF75BFF094BE058002802D00368CA
:101C40005B6898470434602CF5D101F00DFC044B1F
:101C50001B88C018034B1880002016BD640A0020A2
:101C60005E0000205E0A002008B50548FFF7DAFF95
:101C70000448FEF733FC0448FEF756FC08BDC04696
:101C8000C40A0020CD1C0000551D000010B502AB99
:101C90001A784B780020432B16D103231340022BD4
:101CA00001D0012010E00B888622D201012493424A
:101CB00002D1FFF77FFFF4E7FF2121400A4393425F
:101CC000EFD1FFF747FF201C10BD00007FB50E1CB1
:101CD00003AC151C2080211C009306482B1C321CD1
:101CE000FFF7D4FF0023002800D12388181C04B07C
:101CF00070BDC046C40A002038B5104B1B78002BBD
:101D000019D10F4B0F4C1A680F4D2388D31A2A880C
:101D10009BB29A4205D2FFF77DFF23882A88D31809
:101D200023800A4B1A780A4B9200D058002802D020
:101D30000368DB689847002038BDC046600A002071
:101D40003C0400205E0A00205E000020610A0020A2
:101D5000640A002008B5002802D10248FFF7CCFF32
:101D600008BDC046C40A002008B50248FFF780FE3F
:101D700008BDC046C40A002007B5002201AB1A7096
:101D80005A709A700198FFF7B1FE07BD13B5002491
:101D900001AB1C705C709C70081C111C019AFFF751
:101DA0002DFF13BD024A034B08321A607047C0462C
:101DB00080630000C80A0020F0B585B0D3B203AC40
:101DC000002903D16A462370537337E0FF26771A40
:101DD00006254543574328123F1201970702ED1B82
:101DE000ADB2AC466746F71B4D4379432D1209123D
:101DF000751B761A5543564301992D123612CAB2F5
:101E0000042815D803F0D4FD03060A0E1100181C8F
:101E1000F1B201E0E8B2191C131C0CE0191C101CF3
:101E2000F3B208E0101CE9B205E0F0B2111C02E0C8
:101E3000181C111CEBB26A46207051736A469373EA
:101E400062782078A37812021B041043184305B06F
:101E5000F0BD000037B5051C0C1C01F005FB80B27D
:101E60000011C3B2020601D5DB43DBB25B00DBB27B
:101E70001A1C5A4312125343032151431B125B0095
:101E8000CB1ADA0FD21852105032281C211CD2B2B1
:101E9000FFF792FFFF23010A021C19401A400902B2
:101EA0001143000C034A0340081C1B041040184354
:101EB0003EBDC046FFFF00FF08B50248FEF734FBF9
:101EC00008BDC046E51F0000F7B50025184B2A01E4
:101ED000D318EEB201930024019BE7B2185D154BB5
:101EE0003A1C1B68311C9847134B80B21A88134B5D
:101EF000904207D11A78FF2A04D1114B1E70114B62
:101F00001F7013E01A78FF2A07D00F4B1B78FF2BA6
:101F100003D0B24201D1BB42EFD00134102CDBD14F
:101F20000135052DD2D1094B01221A70F7BDC046EB
:101F300049060020580000206200002068000020B0
:101F4000D40A0020CD0A002060000020CC0A002026
:101F500073B51C4E3378002B32D11B4C2388002BD9
:101F600005D101F081FA2080FFF7AEFF28E001F0F3
:101F70007BFA2388154DC01A154B164C1B889842C6
:101F80000ED901233370144B29781878134B800035
:101F9000C0582278002813D003681B6998470FE0C7
:101FA0000F4BFF211878FFF755FF01AB020A18709D
:101FB000000C98705A7028782178019AFFF71EFE5D
:101FC000002076BDCC0A0020CE0A0020D40A0020D2
:101FD00066000020CD0A0020610A0020640A00206B
:101FE0006400002008B5002802D00248FFF7B0FFC7
:101FF00008BDC046D00A0020024A034B08321A60CE
:102000007047C046A0630000D00A002008B5031C3A
:10201000597900799A79FFF7E7FD08BD13B5031CDC
:10202000007901AC2070587960709B79081CA3700E
:10203000111C019AFFF7E2FD13BD000010B5034C1F
:102040000171083404604271837110BDB0630000F7
:1020500007B5FF210079FFF7FDFE01AB1870020AFA
:10206000000C5A7098700198FFF740FD07BD000002
:10207000034A044B08321A60AA221A717047C046FC
:10208000D0630000D80A00207FB5C379041C952BCB
:1020900002D80133C37136E00025C571A3794079B8
:1020A00058432379181A6B461D705D709D70C0B23D
:1020B0000099FFF711FD01AB20791D705D709D70D7
:1020C0000199FFF709FD207963791818C0B2421E03
:1020D000D2B220718D2A01D95B42637102ABFF2617
:1020E0001D705D709E700299FFF7F6FCA379607910
:1020F00058432379181A03AB1E705D709D70C0B2EF
:102100000399FFF7E9FC7FBD054A064B0832012120
:102110001A605971002205211A719971DA7170479C
:10212000F0630000E00A002013B5041C01F09CF9E4
:10213000238982B2D21A63899A4216DB2081627B9C
:10214000A088217BFFF738FE01AB1870020A000C53
:102150005A709870A279A388D3189BB2FE2B00D92D
:10216000FF3BA3800198FFF7C1FC13BD73B5041CAE
:1021700001F07AF9238982B2D21A63899A4223DB69
:1021800020810025A3886800C01880B2EEB2FE2826
:1021900001D9FF3880B2217B627BFFF70DFE01ABD6
:1021A0001870020A000C98705A70301C01990135A1
:1021B000FFF792FC902DE5D1A279A388D3189BB2AA
:1021C000FE2B00D9FF3BA38073BD41737047417361
:1021D000704700000D4A70B50D4B08321A6001259A
:1021E00000222824FF2032210A4E9D719A801A81F4
:1021F0005C8118735973084B08361E609D719A8074
:102200001A815C811873597370BDC0461064000058
:10221000E80A002030640000F80A002008B50348EE
:102220000021502203F0EAFC08BDC046080B002044
:10223000F0B5284B87B01B68002B49D001F014F98A
:10224000254B81B21B880090C91A244B1A880123A0
:10225000914200DC0023DBB2214D019300260024D3
:1022600069462B5D0F31E7B20B70002B0FD0194B75
:10227000186803681B68984704AB020A1870000CC2
:1022800098705A70301C391C049AFFF7B7FC019AF9
:10229000002A03D06B460F331B782B552B5D002B88
:1022A00008D105AA137053709370301C391C059A1D
:1022B000FFF7A4FC0134102CD2D10136F6B2103550
:1022C000052ECCD1019B002B02D0034B009A1A8023
:1022D00007B0F0BD580B0020600B00206A00002002
:1022E000080B0020F0B5087885B00C1CE0280CD94C
:1022F000FF22101A111C80B2FFF75EFD6A4601042E
:10230000030C9372C5B2090E1DE0FF210A1C1E20AA
:10231000FFF752FD07043F0E01972778030CC0B268
:102320007843154E6A469372FF25B04203D0291CAC
:1023300003F096FBC5B20198FF217843B04202D06A
:1023400003F08EFBC1B22378E02B01D9013B08E0FA
:102350003F2B01D9103B04E01F2B01D9203B00E0AB
:10236000002323706B46987A1D7259721B890004F2
:10237000184305B0F0BDC04601FE000008B5024894
:10238000FEF7ACF808BDC046B123000069460978E5
:10239000042A08D80F2B06D8880704D51201034950
:1023A000D318FF225A5400207047C046080B002063
:1023B0007FB50E1C03AC151C2080211C0093064821
:1023C0002B1C321CFFF7E2FF0023002800D12388DA
:1023D000181C04B070BDC0465C0B0020014B0833D4
:1023E0000360704750640000024A034B08321A60D1
:1023F0007047C046606400005C0B002008B50248CE
:10240000FEF792F808BDC04611260000064A136880
:10241000002B01D1106005E09A68002A01D0131C3E
:10242000FAE798607047C046640B002008B5024880
:10243000024901F013FC08BD9C130020D65E000089
:1024400008B5011C0A22024801F06DFC08BDC04617
:102450009C13002008B50248024901F0FFFB08BDAB
:102460009C1300209064000008B5002801D00349A7
:1024700000E00349034801F0F1FB08BD946400004B
:10248000996400009C13002010B50A4903F024FC55
:10249000002398420CD1084B1C68002C07D06168BF
:1024A000002902D0054801F0EFFBA468F5E70123FD
:1024B000181C10BD815F0000640B00209C130020DD
:1024C00010B5164903F008FC0023984223D1144CA0
:1024D0001449201C01F0C2FB1349201C01F0BEFB73
:1024E000FFF7A4FF1149201C01F0B8FB1049201C84
:1024F00001F0B4FB0F49201C01F0B0FBFFF7AAFF6D
:102500000D49201C01F0AAFBFFF790FF201C0B498E
:1025100001F0BAFB0123181C10BDC046795F000012
:102520009C1300209F640000AD640000BB640000A9
:10253000AB640000C7640000D4640000E0640000E5
:10254000024A034B08321A607047C046806400009C
:10255000680B002010B5084C201C02F00BF9002875
:1025600008D0201C02F020F90A2803D0201C02F019
:1025700029F9F6E710BDC0469C130020F7B5204DA1
:102580000024281C02F0F6F8A04237D0621CD3B217
:10259000281C0192009302F015F91A4FE055281CEF
:1025A00002F002F93E1C0A2806D03B5D202B03D026
:1025B000019C202CEAD10094009A0023013AB15CDE
:1025C000202900D0009AB3540F4B1C68002C04D073
:1025D000301C2368984700280ED00C49281C01F0B5
:1025E00053FBFFF7B7FF281C02F0DEF80A2805D1DD
:1025F000281C02F0E7F801E0A468E7E70020FEBD30
:102600009C1300206C0B0020640B0020606B00000A
:1026100008B5002802D10248FFF7B0FF08BDC04648
:10262000680B002038B520490922051C03F065FB22
:102630000024A04235D10935281C1C4903F04CFB6D
:10264000A0421ED0281C1A4903F046FBA04220D00D
:10265000281C184903F040FBA04222D1164C174B0E
:1026600010221988201C01F05EFB1549201C01F086
:10267000F5FA00F0BDF81022011C201C01F057FBF8
:102680000EE000F0AFF8FFF7EFFE0B4801F0F4FAB0
:1026900006E000F027F90A22011C074801F05BFB65
:1026A0000124201C38BDC046E9640000F36400002A
:1026B000795F0000415F00009C130020980B002010
:1026C000AB640000F8B52549041C03F005FB071EA8
:1026D00012D0201C224903F0FFFA002801D000206C
:1026E0003BE000F0BBF88021C900091A0A221D480E
:1026F00001F01DFB012030E01A4E3C1C301C02F0A2
:1027000053F8194D0A281FD1211C281C00F05CF930
:10271000FFF796FE0134FFF789FE8023DB009C4221
:10272000F2D1301C01F0A8FA13E000210122301C84
:1027300001F0AAFD211CC2B2281C00F051F901349D
:102740008023DB009C4204D0301C02F02DF80A28C4
:10275000EBD1281C00F05CF9CCE7F8BD515F00001C
:10276000FA6400009C130020B40B0020F8B5071C8D
:102770000D1C161C0C1C631B9BB2B34207D2791BA9
:102780006118034800F020F920700134F3E7F8BD28
:10279000B40B0020F8B5071C0D1C161C0C1C631B89
:1027A0009BB20648B34206D2791B6118227800F02A
:1027B0002BF90134F3E700F02BF9F8BDB40B00203E
:1027C00008B5002002490622FFF7D0FF002008BD0F
:1027D000900B002008B50248FFF7F2FF08BDC04685
:1027E0008C0B0020014B18787047C046960B0020D8
:1027F000034B00201B78834201D0024B988870471E
:10280000970B0020900B002037B50F4B6C461B78C0
:10281000E08000200634834214D10C4D0C49281C62
:1028200001F020FA2188281C0A2201F080FA094BC5
:1028300022881D880848AA181A80211C022200F04C
:1028400075F8281C3EBDC046970B00209C13002045
:10285000186500006C000020980B0020014B1888C0
:102860007047C0466C00002008B5064B06491B881F
:10287000062200208B80FFF78DFF044B01221A7087
:1028800008BDC046980B0020900B0020960B00203E
:1028900010B50F4C0F4B0122201C10211A7000F0B4
:1028A00031F80D4B0D4918882288884209D04B21F8
:1028B000197053215970002199709A80FFF7D4FF45
:1028C00005E09B88934202D0054B00221A7010BD90
:1028D000980B0020970B0020900B00204B5300001A
:1028E000960B0020014B98787047C046900B002053
:1028F000024A034B08321A607047C0460865000060
:102900008C0B002030B50388012213408A420AD282
:1029100004880125641004805B002C402343521975
:102920009BB2D2B2F2E7038030BD0000F7B5013AA6
:10293000D2B2FF2A18D00B7801240193082306880D
:10294000019FF50B274201D001277D407600B6B2EA
:10295000002D01D0054D6E406400013B0680E4B2BD
:10296000002BECD10131E2E7F7BDC0460580FFFF47
:10297000014B00221A807047980B002070B50F4C55
:102980000F4EA544041C0F4801AA43690169651C48
:1029900000F002F9281C01A9321C03F026F9A35DFE
:1029A000002B05D18022281CFF21D20003F026F93C
:1029B000012323708123DB009D4470BDF8FBFFFFE2
:1029C000010400009C0B002038B50378041C0D1C8A
:1029D000002B01D1FFF7D2FF6419607838BD0000E9
:1029E000037870B5041C0E1C151C002B01D1FFF7D9
:1029F000C5FFA1194B78AB4203D0024B0122E25430
:102A00004D7070BD0204000008B5FFF7E9FF08BD76
:102A100010B5114C0378A544041C002B01D1FFF71D
:102A2000ADFF0E4BE35C002B12D00D4A0123A354E3
:102A3000E11801A803F0D9F80A4C201C2169626949
:102A400000F098F821696369201C01AA00F03AF8A7
:102A50008123DB009D4410BDF8FBFFFF0204000052
:102A6000010400009C0B002008B50549054A0648F2
:102A700000F010F8054B064900221A705A5408BDA0
:102A800000660000010400009C0B0020B40B002035
:102A90000204000030B5094C094BA5686D036D0FA9
:102AA000AD00EB580360A4680161A4B244605C43CC
:102AB0009B008460C360426130BDC046004000415D
:102AC000006B0000F7B51F4E8027756803333D4348
:102AD0009B087560002B34D01B4D3580357DEF078A
:102AE000FCD51D1C5F1B01970768BF08BC46019FF2
:102AF00067451FD2002D1DD01778013D0197FF2794
:102B0000BC43019F3C4357783F0201970F4F3C4025
:102B1000019F3C4397783F04BC460D4F3C40D7781B
:102B2000A4B23F06009767463C43009F04323C43F3
:102B300010C1D7E7074B3380337DDF07FCD52B1C53
:102B4000C8E7F7BD0040004144A5FFFFFF00FFFFBD
:102B5000FFFF00FF04A5FFFF044B054A4908D961A8
:102B60001A801A7DD107FCD57047C046004000414D
:102B700002A5FFFF70B5051C0C1C161CEB68281C79
:102B8000211C9E4205D9FFF7E7FFEB68E418F61A0F
:102B9000F4E7FFF7E1FF70BD08B5101C1A1C03F045
:102BA00024F808BD08B5024803681B68984708BDAB
:102BB0008C0B002008B5044B1870A0235843FFF776
:102BC00023FE024B188008BDBE0F0020BC0F002062
:102BD000F8B50F4B1B78834201D8002017E005257C
:102BE00045436D180B4E2D01AD180B4C31886D000F
:102BF000ADB24919201CFFF7E7FE3188071C4D19BB
:102C0000691C201CFFF7E0FE3F02C0B23843F8BD4C
:102C1000BE0F0020BC0F0020B40B002070B5151CA7
:102C2000041C0E1CFFF7D4FF064B82B29A4203D05D
:102C3000054B1B78A34204D8201C311C2A1CFDF72D
:102C40001DFD70BDFFFF0000BE0F0020F8B5094F4D
:102C50000D1C094C398846002A048919201C120EC3
:102C6000FFF7BEFE3988EAB28E19711C201CFFF7EF
:102C7000B7FEF8BDBC0F0020B40B002008B5034818
:102C80000021012201F000FB08BDC0469C1300207A
:102C9000024A034B08321A607047C046306B00008E
:102CA000B80F0020F8B5234903F016F8051C0020E2
:102CB00085423DD1204E2C1C301C01F075FD0A28A8
:102CC0002DD11E4B1B78AB4217D9002400271C4B7B
:102CD0003A1C1B68211C281C9847013780B2FFB2A0
:102CE000FFF7AEFBFFF7A2FB102FF0D10134E4B2E7
:102CF000052CEBD10135EDB2E3E7301C00F0BCFF51
:102D000015E00E4B50221B7853439C420CDAFFF720
:102D1000B5FF011C201CFFF799FF0134A4B2301C41
:102D200001F042FD0A28ECD10648FFF771FE0120B0
:102D3000F8BDC0466E5F00009C130020BE0F00204F
:102D400058000020B40B0020F8B5234902F0C4FF5E
:102D5000041E2FD1214E211C301C012201F094FAB7
:102D60001F4BC7B21B78BB4224D9301C01F01CFD9D
:102D70000A2817D100251B4B2A1C1B68211C381C54
:102D80009847013580B2EDB2FFF75AFBFFF74EFBD3
:102D9000102DF0D10134E4B2052CEBD1301C00F041
:102DA0006BFF17E050235F43301C01F0FDFC0A2845
:102DB00002D10CE000200EE0FFF760FF3D19ADB23C
:102DC000011C0134281CFFF741FF502CECD10648B0
:102DD000FFF71EFE0120F8BD615F00009C1300207C
:102DE000BE0F002058000020B40B002070B5022058
:102DF000FFF70AFD124E134C011C3080201CFFF718
:102E0000E3FD114DFF280DD131882A78201CFFF7F2
:102E1000E7FD3188201C01316A78FFF7E1FD201CB5
:102E2000FFF7F6FD3188201CFFF7CEFD31882870B2
:102E30000131201CFFF7C8FD6870002070BDC0463E
:102E4000C40F0020B40B0020C60F002038B504AB1F
:102E50001A780D4B1C785D7803231340022B10D198
:102E60002B1C23430DD000F0FFFAC0B2074B4010DB
:102E70008000C0584543280A00F0FCFA201C00F0EE
:102E8000F9FA002038BDC046C60F002070000020AF
:102E9000014A024B1A607047486B0000C00F0020C7
:102EA00070B528491122051C02F027FF0024A0421A
:102EB00045D11135281C244902F00EFF061EA642FA
:102EC0002CD0281C214902F007FF061EA64236D14D
:102ED0001F4C201C01F068FC1E4D021E0A2A04D162
:102EE0006978201C00F037FF05E0201C311C01220E
:102EF00001F0CAF96870184C184E164D201C318824
:102F00002A78FFF76DFD3188201C01316A78FFF7C0
:102F100067FD201CFFF77CFD012410E00C4C201CF9
:102F200001F042FC0B4D021E0A2A01D12978D8E794
:102F3000201C311C012201F0A7F92870DBE7201CBE
:102F400070BDC046506B0000626B0000105F000057
:102F50009C130020C60F0020B40B0020C40F0020DB
:102F600000207047F8B5051C0F1C161C0024B44245
:102F700008D02B68395D1B68281C9847002801D0B1
:102F80000134F4E7201CF8BD7047031CFC33196AB8
:102F9000DA69914203D01B6AC018007E01E001206B
:102FA00040427047031CFC33D8691B6AC01A01D524
:102FB0000130FF3070470000F7B50193FA239B0002
:102FC0008360134B8026002576000833041C0F1CF9
:102FD0004560291C00920360321C183002F00EFE7E
:102FE000231C9022FC335200DD61A0181D62321CAC
:102FF000291C02F003FE87229200A3185D60019A4B
:103000009D60009B2761A575201C23756275FEBD20
:10301000706B000070B50D49041C006901F0C8F820
:10302000206900F076FF1826207D331C4343084DAD
:103030000821EB18595600F087FD607D08214643B2
:10304000AD19695600F080FD70BDC046A086010034
:10305000986B000038B5041C0D1C006900F06DFF72
:10306000291C206901F0A4F8206900F052FF38BD46
:1030700008B5006900F061FF08BD8A2387229B0024
:103080009200C154831800225A609A60012383750C
:103090007047031CFC335A6810B501329C68D2B2E9
:1030A000A24202D05C6801555A6010BDF7B5019389
:1030B0000023041C151C181C9A4231D0221CFC321F
:1030C000D36120691362012200F06AFF002825D035
:1030D000206900F0D4FF271C1837011C381CFFF7AB
:1030E000D8FF01262069AE420ED000F039FF022140
:1030F000206900F03FFF206900F0C1FF011C381C6F
:10310000FFF7C7FF0136EDE700F021FF019B002B21
:1031100005D02069032100F02DFF00E0051CE8B276
:10312000FEBD10B5827D00239A420DD08724A400F5
:103130000219546892680134E4B2944204D02130F8
:10314000FF30FFF7A6FF0123181C10BD031CFC3342
:1031500099685A68914206D09A68805C9A680132F0
:10316000D2B29A6001E001204042704770B500225F
:103170008A2382759B00041C0E1CC15C006900F050
:103180000FFF002805D12069032100F0F3FE02257E
:1031900023E090235B00E01887239B00E21851682E
:1031A0009368CB1A01D50133FF33002B0ED025696C
:1031B000FFF7CCFFC1B2281C00F021FF0028E8D1A6
:1031C0002069032100F0D6FE032506E01D1C002E19
:1031D00003D02069032100F0CDFE281C70BD08B586
:1031E0001830FFF7B3FF08BD38B5041C006900F0C4
:1031F00024FF002800D184E0206900F02CFF002883
:103200000ED1206900F031FF00281FD0206900F0A6
:1032100027FF00281AD0206900F02CFF002815D1C4
:10322000206900F09DFE2069032100F0A3FE8C239D
:103230009B00E558002D04D02368201C1B6998478B
:10324000A847FC340023E36123625AE0206900F0C0
:103250000CFF031C2069002B19D000F081FE2069AF
:10326000032100F087FE206900F004FF002848D009
:1032700087229200A31800225A609A600123A37546
:103280008B239B00E35893423BD0984739E000F0F2
:10329000DDFE002835D0206900F0ECFE002816D0B5
:1032A00087239B00E21851689368CB1A01D501333C
:1032B000FF33FF21002B05D090225200A018FFF70A
:1032C00045FFC1B2206900F0ABFEA07519E0231CD8
:1032D000FC33DA691B6A0132D2B220699A4202D108
:1032E00000F035FE09E000F0CAFE011C201C183079
:1032F000FFF7CFFE206900F033FE2069032100F0C4
:1033000039FE38BD08B50248FFF76EFF08BDC0465C
:10331000C80F002008B50348034914221523FFF7FE
:103320004BFE08BDC80F00207413002008B50248EA
:1033300001F018F908BDC046B812002008B50248CF
:1033400001F010F908BDC046FC110020F7B5164F7A
:103350001649381C00F052FD1549164800F04EFD84
:103360001549164800F04AFD1549164800F046FD7B
:103370001549164800F042FD154D03260124281C6E
:10338000144900F03BFD391C0096231C01940022D7
:10339000114801F007F80096291C01941F221E23F2
:1033A0000E4800F0FFFFF7BD781300200008004230
:1033B000000C00427C13002000100042801300200B
:1033C00000140042741300200018004284130020EF
:1033D00088130020001C0042B8120020FC110020BD
:1033E000FEE7000008B5034B1B68002B00D0984790
:1033F00008BDC0468C13002038B50F490F4CA142C0
:1034000004D100F055F801F089F90BE00C4D8D4224
:10341000F7D00023CA18E818A24204D20068043387
:103420001060F7E7FEE79042EBD0064B064A934266
:10343000E7D2002204C3F9E700000020F0030020D7
:1034400084700000F00300209419002008B500F0FB
:103450002CF8002801D100F01DF808BD014B1860C0
:103460007047C0468C130020014B18687047C04657
:103470009013002070B5041E08D0054B1D681E1C5B
:1034800000F012F833685B1BA342F9D370BDC0464D
:103490009013002008B5034B1A6801321A6000F03F
:1034A00073FC08BD90130020704700207047000097
:1034B00070B5494A1E21536802208B430343474994
:1034C00053608B69082423438B61454C454B9C8298
:1034D0009C8A20439882101CDA689407FCD5424AE3
:1034E000012414701478E50704D53F4C647864B265
:1034F000002CF7DB01249460547864B2002CFBDBD1
:103500003A4D394C6560547864B2002CFBDB82255F
:10351000354CED016580547864B2002CFBDB02244D
:103520009C84DC68E606FCD5314D2E4CE562DD68F6
:103530002C4CEE06FBD5A58C2E4E3543A584DD68BC
:10354000284CEE06FBD5A58C02263543A584DC6805
:103550002506FCD5234CE4686606F8D5DC68E5064C
:10356000FCD500249460547864B2002CFBDB224D1F
:103570001D4C656055781C4C6DB2002DFADB1E6A3F
:103580001E4D35401D621D6A8026B5431D62032312
:10359000A3601B4B636053785BB2002BFBDB002303
:1035A0000B72184A4B728B72CB72174BFF211A6049
:1035B000164B174A1B6812685C01D20E214011435A
:1035C0009A06520F12020B1C1343124A13854368CA
:1035D00080221343436070BD00400041000400405E
:1035E0000C06000000080040000C0040010501002E
:1035F000B905FF7D040A000000070300FFFCFFFF80
:1036000003060100006CDC028802002024608000B8
:103610002060800000400042314BFA21186810B54C
:10362000890002F0CFF92F4B0138984224D82E4A56
:103630002E4B5060186AC0210002000A090601439F
:1036400019620024072194601160196A802209021E
:10365000090A12060A431A62254BFC211A6A0A4318
:103660001A62196AFC2292010A431A62196AA0229C
:10367000D2020A431A6200E0FEE7201C0021013456
:1036800000F0D8F9142CF8D11A4C63785BB2002BF7
:10369000FADB194B6380194B5A7ED209012AFAD002
:1036A000E422D2009A803F22DA70597E134AC90977
:1036B0000129FAD0C0235B0100201361907000F053
:1036C00033F863785BB2002BFBDB0D4A094B5A8061
:1036D0000C4BDA79D209012AFAD041225A7010BD76
:1036E00088020020FFFFFF0010E000E000ED00E096
:1036F00000040040000C00401E400000004000425A
:103700002140000000480042914205D002D9891AA8
:10371000C84001E0511A884070470000014B186012
:103720007047C0469002002000B5144A517E131C19
:10373000C9090129F9D00138042813D81969104A98
:103740000A401A615A780F218A4302F031F90305C1
:1037500009070300012102E0032100E002210A43DE
:103760005A700AE01169F0231B050B43136153786B
:103770000F218B4302210B43537000BD00400042D8
:10378000FFFFFFF010B5041E0D2C00D80E34201CD6
:10379000012100F0D9F90E2C0CD12A4BDA79D2098B
:1037A000012AFAD01A7802218A431A70DA79D209EA
:1037B000012AFBD0244B5A7ED209012AFAD01822C2
:1037C0005443224A18691419217C1F229043114046
:1037D000021C0A431A61597E1B4AC9090129FAD001
:1037E0001178022001431170597E174AC909012935
:1037F000FAD0117B02200143117301211176597E09
:10380000114AC9090129FAD0117B02200143117321
:103810001A7ED107FCD50C4A508B80B2597E0A4AD9
:10382000C9090129FAD011780224A14311705A7EE6
:10383000D209012AFBD0064B1968064B1A68FFF71C
:1038400063FF10BD0048004200400042986B00003A
:103850008C0200209402002018234343F0B56C4AE8
:1038600087B09B18DA685B8A051C0C1C00920193D8
:1038700092071ED50E2800D0C8E0664B201C1968A0
:103880000A22FFF741FF644BDA79D209012AFAD004
:103890008005800D1881D9795F4AC9090129FAD0BC
:1038A0001178022001431170DA79D209012AFBD084
:1038B000ACE0009F08231F40564E00D195E03168D0
:1038C000201C1022FFF720FF019A009B14B2061C57
:1038D0002412D7B2281C0421DB0600D4052100F0F5
:1038E00033F94E4B1A5D002A5AD101221A5502A80B
:1038F00010224B4902F079F963006A4608339B5A5B
:103900008022D2011A43474B5A805A78D209012AA1
:10391000FBD0454B022C1ED9A4001B5902211A884A
:103920008A431A80DA7BD209FCD11A8840210A43E3
:103930001A80DA7BD209FCD10C37B6B27F00FE5276
:10394000DA7BD209FCD11A8802210A431A80DA7B79
:10395000D209FCD15AE0A4001B5902211A688A43FB
:103960001A609968314A1142FBD1D96B0220014398
:10397000D96399681142FCD11037BF00DF197E600E
:1039800099681142FCD12A49196499681142FCD105
:10399000196802200143196099681142FCD135E091
:1039A000214B022C09D9A4001B590C37B6B27F0059
:1039B000FE52DA7BD209FCD128E0A4001B59022177
:1039C0005A790A435A719968184A1142FBD11C3737
:1039D000BF00FE5099681142FCD1197902200143C1
:1039E000197199681142FCD110E0012100F022F810
:1039F0003168201C0822FFF787FE7F2802D8281C88
:103A0000391C01E0281C012100F06EF807B0F0BD60
:103A1000986B0000900200200048004294130020A0
:103A2000B86F0000000C004070020020FF0F7F0004
:103A3000FFFF000010B51824021C201C5043274B28
:103A40001818007A40B2013046D0032944D8081C27
:103A5000211C01F0ADFF02331121624398569A18E0
:103A6000C3011F4852681B18991840310220087082
:103A70000121914059602FE06243985618499A18E5
:103A80005268C3015B189918403106200870012163
:103A90009140596099611FE051435A561048591896
:103AA0004B68D2011118C818403006240470012058
:103AB000984048600B49521850600DE06243985698
:103AC0009A18C301064852681B1899184031022001
:103AD000087001219140996010BDC046986B0000AC
:103AE000004400411044004118235843134AF0B5E4
:103AF000131808241C5701341FD08256104ED201CF
:103B00005D6801249019231C8668AB401E420BD1CE
:103B10000E1C771EBE41401934404030A500047889
:103B20000426B4432C430470002903D105495218DC
:103B3000536002E0024E92199361F0BD986B000051
:103B4000004400411044004118224243F8B52D4D75
:103B50000824AA181457031C621C50D0481C0024C7
:103B60000C284CD801F024FF071E1E1E1E1E1E1E10
:103B70001E0A0A0A0A000124644240E0092902D10F
:103B8000181C002103E00A2904D1181C0221FFF7A8
:103B900051FF23E000240B2931D1181C0121FFF72C
:103BA00049FF2CE018225343EA185268EB560120D3
:103BB000141C04405508DB01002C11D0124C1B19B9
:103BC0005D1930352E780C010F21314021439A18B0
:103BD000C9B22970403213781843107000240EE0E7
:103BE000094E0F279B195D1930352E789A18BE4360
:103BF0003143C9B229704032137818431070201C29
:103C0000F8BDC046986B000000440041F7B58A1823
:103C1000061C0D1C01920C1C019B671B9C4207D0CB
:103C2000336821781B68301C984701340028F3D191
:103C3000381CFEBD08B50368C9B21B68984708BDAB
:103C400038B5051C0C1C081E07D002F04FF82B6875
:103C5000021C5B68281C211C984738BD08B5FFF77B
:103C6000EFFF08BD08B5FFF7EBFF08BD08B5036817
:103C70001B68984708BD000008B50249FFF7E0FF40
:103C800008BDC046C86F000038B5041CFFF7D8FF58
:103C9000051C201CFFF7F0FF281838BDF0B58DB0CB
:103CA000161C0BAB002201900C1C1A70012E00D8C0
:103CB0000A266D462B35201C311C01F0C7FE201C46
:103CC000CFB2311C01F07EFE291C041C092F01D843
:103CD000303700E03737FFB22F70013D002CEAD1BA
:103CE0000198FFF7ADFF0DB0F0BDF8B5041C0D1C39
:103CF000161E04D10368C9B21B68984712E00A2A4D
:103D00000DD100290ADA2D21FFF7B0FF6942071C07
:103D1000321C201CFFF7C2FFC01903E000E0D2B242
:103D2000FFF7BCFFF8BD08B5FFF7DFFF08BD38B5EA
:103D3000041CFFF7DAFF051C201CFFF79DFF281865
:103D400038BD08B5002A02D1FFF774FF02E0D2B2F5
:103D5000FFF7A4FF08BD38B5041CFFF7F2FF051CF0
:103D6000201CFFF789FF281838BD0000014B1860A0
:103D70007047C04698020020024B012252421A604E
:103D80007047C04698020020154A1368581C25D079
:103D9000013B1360002B21D172B6124A124B043240
:103DA0009A4207D8BFF34F8F104A114BDA60BFF326
:103DB0004F8F11E00F4B197DC807FBD5188B2021C1
:103DC000FF319208520001431983DA610A4A1A80CE
:103DD0001A7DD107FCD5E5E7C046FDE77047C04630
:103DE0009802002000000000030200000400FA0511
:103DF00000ED00E00040004102A5FFFF01607047B8
:103E0000F7B508AC267804689D1E27686C1EA5418E
:103E1000ECB2920705683A4327063A432A600268E3
:103E2000072529405068B501002C00D05C032943C8
:103E300001430C435460F7BD30B50368C0251C68CE
:103E4000AD0312052A402243C024A40209042140E4
:103E50001143196003685A6814435C6030BD0368FD
:103E600001211A680A431A60026811680123194285
:103E7000FBD1D1691942F8D17047036802211A6851
:103E80000A431A600268D3699907FCD47047036833
:103E90001A7ED10702D41A7E9107FCD570470368B9
:103EA00000225A8370470368187E4007C00F70478E
:103EB0000368187EC009704703688022197E524249
:103EC0000A431A7670470368187E0123184070472A
:103ED0000368188DC0B2704703681A7E0120024241
:103EE000FBD019857047036801229A7570470368F3
:103EF00001221A757047036801211A680A431A6083
:103F00000268116801231942FBD1D1691942F8D125
:103F10007047036802211A680A431A600368DA6965
:103F20009107FCD45A8B30218A4310210A435A83CB
:103F30000268D3695907FCD47047036802211A68E4
:103F40008A431A600268D3699907FCD470470368F2
:103F5000802219685968D2020A435A6070470000EB
:103F60000368034A196859680A405A607047C04696
:103F7000FFFFFBFF30B5036803241D680C40074AB0
:103F8000596824040A40ED0622436D0F5A60052D3E
:103F900003D10268D3695907FCD430BDFFFFFCFF91
:103FA00049001143036830B5CDB2598B0324090988
:103FB0002140012904D0598B09090C40022CF4D16D
:103FC000596AC90AC902294359620368002A03D100
:103FD0001A7ED107FCD50DE0187E01224008104062
:103FE00008D1197E1142F7D05968C02292020A43C3
:103FF0005A6003E05B8B01209B08984330BD036847
:10400000283319700268107E0123184003D1518BA8
:104010001942F8D003E0528B181C92089043704765
:10402000036828331970036800201A7E510703D5EE
:104030005B8B01209B089843704703681868C00693
:10404000400F043843425841C0B270470368187E9D
:104050004007C00F70470368187E0123184070475F
:104060000368588BC006C00F70470368187E80072E
:10407000C00F70470368588B0007C00F7047036874
:104080001A68D206520F052A02D11A7E9107FCD572
:1040900028331878C0B270470368224A30B593427B
:1040A00011D0214A934211D0204A934211D0204A84
:1040B000934211D01F4A934211D01F4A934230D1EC
:1040C0000E2319220DE0092314220AE00A231522E7
:1040D00007E00B23162204E00C23172201E00D2336
:1040E0001822DCB2154901209B08A0409B00086003
:1040F0005B180320C021890004405D58E000FF24C4
:104100008440A5432C1CC0258540281C20435850C2
:104110008023DB011A430A4B5A805A7852B2002A94
:10412000FBDB30BD00080042000C004200100042E2
:104130000014004200180042001C004200E100E0B0
:10414000000C0040F8B5041C151C0E1C1F1CFFF7CA
:10415000A3FF201CFFF783FEB1001C220A40690761
:104160002368090C0A431A60226884239375012E80
:104170001AD10821012D00D110210C4B7943186868
:10418000C00001F01FFC236807219A890140D20476
:104190004903D20C0A439A8123680004C20C98890F
:1041A000400B400310439881F8BDC04688020020B0
:1041B00070B5041C0E1CFFF76FFF201CFFF79BFE61
:1041C000236814221A600D4B71001D682468281C96
:1041D00001F0F8FB0A49061C281C01F0F3FB7D23C3
:1041E000FA215843C90001F0EDFB301AE668FF23BD
:1041F000053818409E430643E66070BD88020020E3
:1042000040420F0010B5041CFFF72EF9E060236850
:10421000201C9B699847002808DAFFF725F9E36816
:10422000C01AA3689842F2D30120404210BD00009A
:1042300070B5041C0D1C161C201CFFF7E3FF0028A2
:104240001EDB2D281CD0021C303A092A18D9002E5A
:1042500001D02E2814D0012D10D0022D09D1031C1D
:10426000093B172B0AD801229A40131C054A134216
:1042700004D02368201C5B699847DDE7012358427E
:1042800070BDC04613008000F8B5171C0022051C45
:10429000FFF7CEFF002821DB0024261CB8420BD0FC
:1042A0002D2808D0031C303B092B05D80A235C437A
:1042B0002418303C00E001262B68281C5B699847D5
:1042C000281CFFF79FFF031C303B092BE6D9B8429F
:1042D000E4D0201C002E02D0604200E00020F8BD97
:1042E0000120704708B50368014A1B6A984708BD5A
:1042F00013040000826D436D9A4203D0836DC01891
:10430000007D01E001204042704710B5041C0069A7
:10431000FFF7A5FD0023221C63659C32A365A03432
:104320001360236010BD0000F0B587B001930CABA3
:104330001B78002502930DAB1B78402603930EAB30
:104340001B78041C04930FAB1B780F1C0593FA23F6
:104350009B008360124B0092083303604560291C68
:10436000321C143001F04AFC201C6565321CA56526
:10437000291C5C3001F042FC009A231C9C331D6018
:104380005D6027611A72019A201C5A72029A9A7211
:10439000039ADA72049A1A73059A1A7707B0F0BD75
:1043A000D86F000030B585B0041C08A8057809A8AE
:1043B000007800950190FF2002900390201CFFF7E9
:1043C000B3FF201C05B030BDF023081C1840303866
:1043D000434258417047F0231B01194080239B0042
:1043E00099420CD0C0239B00994206D080235B00E9
:1043F0000520994204D0002002E0072000E00620BA
:1044000070470F231940012905D002394B424B4117
:104410000220C01A00E0002070470000F0B5031C25
:1044200085B00391A433041C182718783B1C434320
:10443000344E0821F3185956151CFFF785FB231C31
:10444000A53318783B1C43430821F3185956FFF74E
:104450007BFB231CA7331B78022B0AD1231CB83308
:104460001878FF2805D047430821F7197956FFF738
:104470006BFB271CA8373878FF281AD00121FFF7DB
:10448000D9FA3B7818225A43B3561F4FDB01211C3F
:10449000AC31D81908601D49B6185B18211C726828
:1044A000B0310B60012191400A1C211CB4310A601B
:1044B0001A6001210A1C039B2069FFF743FE291C97
:1044C000201CFFF788FF291C071C201CFFF799FF01
:1044D000291C061C201CFFF777FF391C0090331C99
:1044E00020690122FFF78CFC231CA7331978013BBC
:1044F0001A782069FFF7A0FC2069FFF7BEFC05B021
:10450000F0BDC046986B00001844004114440041BF
:10451000026C436CD01A00D54030704710B5041CB3
:10452000201C5C30FFF7F4FF0028F9D12069FFF769
:10453000AEFC10BD08B51430FFF7EAFF08BD026CF1
:10454000436C9A4204DB036C406CC01A3F3003E0BA
:10455000426C036CD01A0138704708B55C30FFF725
:10456000EEFF08BD38B5041C0069FFF79CFC00286D
:104570001FD02069FFF7ACFC636D3F22013313406D
:10458000A26D934203D0626DA21810756365231C5F
:10459000A8331B78FF2B0CD0201C1430FFF7CFFF63
:1045A000092806DC231C221CAC33B4321B681268B9
:1045B0001A602069FFF787FC002820D0251C5C3595
:1045C000281CFFF7A5FF031C2069002B15D0231C16
:1045D000221CA0339C3219681268914207D01A68D5
:1045E000A95C1A683F2501322A401A6001E00121C6
:1045F0004942C9B2FFF770FC01E0FFF778FC20697F
:10460000FFF756FC002805D02069FFF755FC20690C
:10461000FFF745FC38BD000070B5041C00690D1C97
:10462000FFF751FC00280FD0201C5C30FFF770FF13
:10463000002840D008E0EFF31083DA0723D4214BA1
:104640005A68D205D20D0BD1231C9C33211C1E6845
:10465000A0310A6801363F2006409642EBD01BE0AD
:10466000103AD2B253B2002B08DA0F231A40083A9C
:10467000154B92089200D218536804E09B08C0338F
:10468000124A9B009B582069FFF71DFC0028DBD0D5
:10469000201CFFF767FFD7E71A680968013202405C
:1046A0008A4204D01968201C5C3045541A60206985
:1046B000FFF719FC03E02069291CFFF70DFC01201E
:1046C00070BDC04600ED00E018ED00E000E100E044
:1046D00038B5826D436D041C9A4208D0836D3F2229
:1046E000C3181D7D836D01331340836501E00125EF
:1046F0006D42231CA8331B78FF2B0BD0201C1430D9
:10470000FFF71DFF0A2805DD231CB033B4341B68F6
:1047100022681A60281C38BD7047000010B5FEF7EB
:104720007BFF01F023FAFFF7F7FF0120FEF7A2FE5F
:10473000084C201C00F08AFB201C00F0FFFBFBF75C
:1047400047FDFBF7A5FD044B002BFAD000E000BFAE
:10475000F7E7C04673180020000000003F207047B4
:1047600013B502686B46D97107335468191C0122CE
:10477000A04716BD08B50069022100F0C9FC08BDBC
:1047800008B50069032100F0D9FC08BD38B50D1C3F
:10479000041C131C006903212A1C00F0CBFD002817
:1047A00001D10123636038BD10B5054C23685A1C44
:1047B00004D103685B6998472060031C181C10BD76
:1047C000EC020020074A08B51368591C04D00121E7
:1047D00049421160181C03E00069022100F09CFDB1
:1047E00008BDC046EC02002008B503780349023337
:1047F00003704222024800F053FE08BDA8020020C8
:104800007318002010B50178031C42780020A129FC
:1048100008D1212A2FD118481849072200F040FE5C
:10482000012028E0212926D1202A05D11349072279
:10483000114800F0C9FC04E0222A10D19A780F4BED
:10484000DA710E4B96221968D200914210D1DC79B0
:1048500001231C400CD1FA20FFF788FA0AE0232A32
:1048600009D1DA789B7812021A43054B1A6002E0EC
:10487000FFF782FA002010BD731800209C02002070
:10488000A402002070470000064BFA2189009960BD
:10489000054900220831196004495A6019611A76E5
:1048A0007047C0469C130020107000007318002051
:1048B00070B544680E1C0025002C09D02368201C0C
:1048C0005B68311C9847002804DB2D18E468F3E787
:1048D000281C01E00120404270BD38B544680D1C21
:1048E000002C08D02368201C9B68291C98470028AE
:1048F00002D1E468F4E7201C38BD38B544680D1CCB
:10490000002C07D02368201C291CDB689847E4682A
:104910002D18F5E72C7038BD38B544680D1C002CF7
:1049200008D02368201C1B68291C9847002803D145
:10493000E468F4E7201C00E0012038BD30B5031C1A
:104940008A79407882180020072A24DC5A6882423B
:1049500001D1596005E0D068002801D0021CFAE7B7
:10496000D1601A78C8790A715A784A711A7882180F
:104970001A700022887990420CD98C6890000559F1
:104980005C780548A40025505878013201305870F1
:10499000D2B2EFE7012030BDF0020020064B012229
:1049A000196810B51140054805D10224047004248B
:1049B000447041601A6010BDC0130020B81300207D
:1049C00010B507230F220240141C00093034092AB5
:1049D00000DD0734CC54013BF4D210BD70B5822900
:1049E0001ED1C2B22A495301CB189D69294C8001BE
:1049F0002C40C025AD052C439C61274C0832201863
:104A000058610B68520199180C798020404220436C
:104A10000871D15C7020814330200143D15435E0CE
:104A2000002933D1C2B21A495301CB189E68194DDF
:104A3000C0242E40A40526439E60184E80010968BC
:104A40003018083258605201505C0726B0430126E6
:104A5000304350549E6935402C439C610E4C5C6140
:104A6000505C7024A0431024204350549C680C4890
:104A70008A1820408024640320439860986840216D
:104A8000800B8003986053790B43537170BDC0460F
:104A90007C180020FFFFFF8FD01400209416002008
:104AA000FF3F00F038B5041C08CC01211A78051C22
:104AB0000A431A708022201C0021520001F09EF847
:104AC0002B689A78D107FCD45C6238BD134BF0B5E3
:104AD0001B6899035A029B01C90ED20E5B0F1F2956
:104AE00000D105211F2A00D11D22072B00D103234D
:104AF00004688E01278D0A491F25394031432185DD
:104B000001682A400C8DAC4322430A8502681903D0
:104B1000108D044B03400B431385F0BD24608000CF
:104B20003FF8FFFFFF8FFFFFEFF3108303600123C8
:104B3000436072B670470368002B02D162B6BFF3C0
:104B40006F8F704737B50569041C6846002D12D178
:104B5000FFF7EAFF019B013B03D3621DD57FEDB256
:104B6000F9E768460193FFF7E6FF0020854217D07A
:104B7000206AE36913E0FFF7D7FF019B0025013BA3
:104B800004D3221C34321578EDB2F8E7684601935D
:104B9000FFF7D1FF0020854202D0206BE36AC01AE4
:104BA0003EBD0000436810B51A68037A01215B011D
:104BB000D318FF339A7A0A439A72037A42685B01E8
:104BC000D318C2689C6891040B4A090922400A4321
:104BD0009A60037A42685B01D3189A684021920B6D
:104BE00092039A6043681A68037A08335B01D3180A
:104BF0001A790A431A7110BDFF3F00F0F7B5056935
:104C0000041C0E1C171C6846002D1FD1FFF78CFFDB
:104C1000019B013B5A1C06D0621DD17F5A1E002900
:104C20003AD0131CF6E768460193FFF784FF00258E
:104C3000E369BD4235D0226A934232D25A1CE26106
:104C4000A269D3181B7873550135F1E7FFF76CFFA4
:104C5000019B013B5A1C08D0221C343215785A1E85
:104C6000EDB2002D18D0131CF4E768460193FFF74E
:104C700062FF0025E36ABD4226D0226B934241D3F6
:104C800022E0621D0021D17730321678581E8E4204
:104C900014D1031C5A1CF4D168460193FFF74BFF53
:104CA00038E0226A934235D10023E3610123236176
:104CB0006846FFF739FF019B013BEBE71170201CB1
:104CC0000193FFF76FFFF6E7226B934222D1002397
:104CD000E36223616846FFF727FF019B013B5A1CF3
:104CE000DAD0221C34320021117001321678581E9D
:104CF0008E4201D1031CF2E71170201C0193FFF7D3
:104D000051FFEAE75A1CE262A26AD3181B78735576
:104D10000135AFE7281CFEBD37B54368027A1B6832
:104D2000083252019A18041CD0790123FF2118423D
:104D300055D0D371A068656962680140002D1FD10C
:104D40004901521891688904890C2162216A00295D
:104D500042D06361A36A68465360FFF7E5FE019B9A
:104D6000013B5D1C34D0621D0120D0772F321178B9
:104D70005D1EC9B21218002915D111702B1CF0E765
:104D80004B01D3189A689204920C2263226B002A7A
:104D900022D000226261A26968465A60FFF7C4FE11
:104DA000019B013B12E0019310706846FFF7C3FEC0
:104DB00015E0221C343201201070621DD17F5D1E6F
:104DC000C9B230320029EED111702B1C5D1CF0D11C
:104DD00068460193FFF7AFFE201CFFF7E3FE37BDE7
:104DE00037B500236C46E3710734201C0D1CFFF718
:104DF000FBFC2B6818182860FFF7D0FD211CFFF77B
:104E000057FD2B681818286020783EBD03290BD168
:104E10000D4BB2221B685200985C8021494201432D
:104E20009954022168220CE001290CD1064B9222F0
:104E30001B685200985C8021494201439954022129
:104E40002822FF32995470477C18002038B5304B27
:104E500000240121051C1A201C70FEF7EBFD1A200E
:104E60000121FEF741FE2B4B192001211C70FEF79A
:104E7000E1FD19200121FEF737FE274B2021DA69D9
:104E800001200A43DA61254B06241A7802431A707E
:104E9000234B0F2219789143197019782143197007
:104EA00020490C782043087019780A401A701A7843
:104EB00060210A431A701C4B1C4A5A805A78D20946
:104EC000FCD11B48FEF7CAFA1A4C201CFFF7EAFD7A
:104ED000201CFFF7FBFD23687F2219780A401A7017
:104EE0001A7804210A431A701A890C218A431A81FC
:104EF000C121114A890050580002000A50508021F7
:104F000011601A7802210A431A7001232B7038BDF0
:104F100090160020781800200004004058440041FA
:104F20003C44004159440041000C00400640000050
:104F3000895900007C18002000E100E0007800287A
:104F400010D0094B01211B681A898A431A811A8BD8
:104F500008210A431A831A8B04210A431A83034B3C
:104F600000221A607047C0467C180020801900207B
:104F70000F4B9A69920B92039A611B680222FF33CE
:104F80001A7298798022524202439A711A7A9007D3
:104F9000FCD5084B081C997A7F22104091430143AD
:104FA0009972997A802252420A439A727047C04697
:104FB0007C1800200050004110B50B790C1C002B10
:104FC0000BD1081CFFF71EFC002804D1094B9A697D
:104FD000920B92039A6101200BE0FFF7DFFC211C8A
:104FE000FFF79AFC0028F6D1024B9A69920B9203C4
:104FF0009A6110BD7C180020F7B50E1C832A18D1C9
:10500000CAB235495301CB189C693448B6012040D7
:10501000C024A405204398613148083286195E6196
:105020000B685201D15C7020814340200143D15470
:1050300050E0022A4AD12B4A89008D580191002D57
:1050400048D1382000F0B0FC274B80270360224B6A
:105050007F004360431D0562866005614561C5614F
:10506000C760DD772F33041CC56205631D70381CD3
:105070005D7000F0A1FDA061381C00F09DFDFF23D4
:1050800015491E407601A0628E19B168134A0725A2
:105090000A40C02189050A43B260A16862681940CC
:1050A000126808314901885CA843032528438854C5
:1050B000A268616813405B01A269CB185A60201C8A
:1050C000FFF770FD019B07495C5003E0081C111CB1
:1050D000FFF784FCF7BDC0467C180020FFFFFF8F60
:1050E000D0140020541800204070000038B5051C72
:1050F0000124064BA200D258002A06D0211C281CED
:105100000134FFF779FFE4B2F3E738BDF002002085
:1051100008B5084B8A00D058002803D003689B6864
:10512000984706E0C9B2044B4901591888688004C1
:10513000800C08BD541800207C18002010B50C1CF1
:10514000FFF7E6FF00280CD0064BE1B21B680831E0
:10515000490159184A7980235B4213434B7102235A
:10516000CB7110BD7C18002070B5CAB2134B144827
:10517000540189015918031959609D681149083271
:1051800029408025AD022943996099684026890B02
:10519000890399600368510159180D7935430D71E0
:1051A0005101591889794D06FAD551015918C97913
:1051B000CD07FAD50419A068C0B270BD94160020BE
:1051C0007C180020FF3F00F038B50C4B141C1B6806
:1051D0000D1CFF335A7940210A435A710021FFF711
:1051E000C3FFA04200D9201C0023A34204D0044ADC
:1051F0009A5CEA540133F8E738BDC0467C180020B9
:105200009416002010B5C9B20C48490143189A6899
:105210009204920C3F2A08D9141C9A68403CA404BA
:10522000920BA40C9203224302E09A68920B920321
:105230009A6041188868C0B210BDC0467C18002032
:10524000F0B51C1C2F4B85B01B68061C0D1C029270
:10525000002B51D02C4F3978C9B2002902D1192026
:10526000FEF742FC64233B70284BAA00D05800286C
:1052700005D0036802995B68221C984740E0301C07
:10528000291CFFF745FFA04204D2301C291CFFF760
:105290003FFF041C291C301CFFF7B4FF1C4FE9B270
:1052A0004A010191396803928B18FF335A7A012120
:1052B0000A4318495A72AB01C9180298221C00F01F
:1052C00094FC002C1BD0301C291CFFF721FF002868
:1052D00015D1019B3A6808335B01D3181979402036
:1052E000014319710121D97103995318FF339A7A37
:1052F00001210A439A7202E00120404200E0201C92
:1053000005B0F0BD80190020781800205418002046
:105310007C1800209416002013B56C460734221C1C
:105320000123FFF78DFF012801D1207801E0012042
:10533000404216BDF0B51C1C3F4B85B01B680E1CCF
:105340000292002B6AD08023DB019C4266D83B4D41
:105350002978C9B2002902D11A20FEF7C5FB6423BF
:1053600000222B700092002C56D0354DF7B22B68DE
:1053700001933B1C0833019A5B01D3189B79DB092D
:105380001AD0304B3049186800F01CFB2F4B172106
:10539000584300F017FB3B1C0833019A5B01D318FC
:1053A000DB799A0708D42A4B9A5D002A38D1421E2D
:1053B000002835D0101CEEE7254B00229A55251EFB
:1053C0003F2D00D93F25234AB301D318181C029959
:1053D0002A1C039300F009FC194A7B01D318039A95
:1053E000A9045A619A69890C920B92030A439A6143
:1053F0003B1C019A08335B01D3180222DA715979F8
:10540000802252420A435A71009B029A5B19521938
:105410000093641B0292A6E700980BE0012008E0CD
:1054200001229A557B01ED18AB69101C9B0B9B0365
:10543000AB61404205B0F0BD8019002090160020FD
:105440007C1800208802002040420F0070110100EB
:10545000C8140020D014002070B50E4D1C1C8B0108
:10546000ED18281C0E1C111C221C00F0BEFBF6B20D
:105470000949760189194D618A69084B201C13403E
:105480008B618B69A2049B0B920C9B0313438B6172
:1054900070BDC046D01400207C180020FF3F00F0F3
:1054A000F7B5114B01901B780F1C141C002B19D160
:1054B0000E4B1E78002E01D1151C08E00C4D0D4836
:1054C0002E888019361900F090FB2E800AE0002DFE
:1054D00008D0BA192B1C01980021FFF7BDFF361820
:1054E0002D1AF4E7201CFEBD721800207018002051
:1054F000C6140020C5130020F8B50E1C00AF151E01
:10550000012D28D9D31DDB08DB006A46D21A954647
:10551000081C00F0EBFB01306C46400003232070B8
:1055200063700222AA420ED23378002B0BD0511C9A
:10553000C9B20136A354A94204D0002302326354F5
:10554000D2B2EFE72A1C0548211CFFF7A9FF431E32
:105550009841C0B200E00020BD46F8BD731800209D
:1055600008B5044B00221A70034B04491A88FFF750
:1055700097FF08BD70180020C6140020C513002036
:1055800008B5002906D0054B01221A70044B0022F1
:105590001A8001E0FFF7E4FF08BDC0467018002044
:1055A000C6140020F0B5204A87B0012300260091E0
:1055B00002A91370051C0296FFF712FC03AC092721
:1055C00001903A1C201C311C00F018FB0223637070
:1055D000A023E371FA232372029B0122DB1963806B
:1055E000019B62712371104A009B27701670BB42A9
:1055F00005D1281C211C1A1CFFF752FF11E00B4B90
:1056000001221A700A4B211C3A1C281C1E8002968B
:10561000FFF746FF281C02A9FFF7E2FB281CFFF753
:105620009FFF012007B0F0BD721800207018002005
:10563000C614002070B5CE7892B0051C0C1C022E4A
:1056400008D1C9882D48FFF7ADFF031C581E8341C0
:10565000D8B251E0FFF7A2F9211CFFF73EF900286C
:1056600003D0C3171B1AD80F46E0012E04D1E288DD
:105670002349112A3BD837E0032E3DD1A278002AD6
:1056800005D12049E2880B7893422DD82FE0022AD9
:1056900003D1A279281C1C4904E0012A05D1A27972
:1056A0001A49281CFFF728FF26E0032A24D1184BAB
:1056B00001A91868FFF784F9164B03A91868FFF7CA
:1056C0007FF9154B05A91868FFF77AF9134B07A95D
:1056D0001868FFF775F9FFF761F909A9FFF70DF9E8
:1056E000A279281C01A9DDE7D2B2002A00D10A78EC
:1056F000281CFFF7D5FE012012B070BD73180020E2
:10570000607000005C70000072700000507000005B
:105710000CA0800040A0800044A0800048A0800031
:1057200073B5051C48780C1C0B2878D800F040F99C
:10573000081C7728773E4306474B686F00206FE0D0
:10574000097801AA002903D111705170281C09E0C1
:10575000002313705370334B1B78012B00D113704F
:10576000281C002102234FE08A780023012A04D15B
:1057700001AA137053702C4BEEE72A4A137049E0CC
:105780008E78012E07D1284B01AA00211E701170BE
:10579000281C331C38E0002E08D1224A0123137044
:1057A000224A9169890B8903916138E0A178281C0C
:1057B000FFF7DEFB33E0281CFFF73CFF30E0281C3E
:1057C00000211B4A1FE00A780020D30628D1281C9C
:1057D000FFF78CFCA2781549154B02241A600A6861
:1057E0002A23FF33D05C2043D0544A20FF30145C7E
:1057F00001231C4314548A69920B92038A610EE0C0
:105800000C4A281C00210123FFF726FE07E08A78B6
:10581000084B1A60054B9A69920B92039A6101201A
:1058200076BDC046C4130020711800207C180020EB
:105830008019002074180020F8B54B4B071C1C7809
:10584000002C00D08FE0494D2868838B19070ED5B6
:10585000201C211CFFF7C2F82B6810201A1CFF32F5
:10586000917A01439172424A146008229A832B680C
:105870009A8B50071FD504229A833E4B1A78002A30
:105880000AD01A78013AD2B21A701B78002B03D1D1
:105890001A200121FEF728F9374B1A78002A0AD07E
:1058A0001A78013AD2B21A701B78002B03D1192052
:1058B0000121FEF719F92B68FF331A7AD10626D594
:1058C00010221A725A7940210A432C495A710A78D7
:1058D0006023381C1A4202D1FFF722FF01E0FFF7D4
:1058E0006BFB002806D02B688022FF339979524247
:1058F0000A4301E0224B20229A712B68FF331A7A67
:10590000500604D540221A72597A0A435A722968FD
:10591000FE230E8C00241E40E1B2002E23D0321C48
:10592000012322411A4216D0221C28680832520153
:105930008218D079184203D1D279DA401A4207D0BE
:10594000104BA200D058002809D003681B68984764
:105950000123A3409E430134092CDDD103E0381C10
:10596000FFF754FAF4E7F8BD701800207C18002007
:10597000801900209016002078180020941600202E
:10598000FF5000415418002008B50248FFF754FFAB
:1059900008BDC04673180020014A024B1A607047C8
:1059A000005000417C18002008B500F005F908BD42
:1059B00002B4714649084900095C49008E4402BCA2
:1059C0007047C046002934D00123002210B4884219
:1059D0002CD301242407A14204D2814202D209011E
:1059E0001B01F8E7E400A14204D2814202D249003F
:1059F0005B00F8E7884201D3401A1A434C08A042E2
:105A000002D3001B5C0822438C08A04202D3001B77
:105A10009C082243CC08A04202D3001BDC0822438E
:105A2000002803D01B0901D00909E3E7101C10BCB2
:105A30007047002801D00020C04307B4024802A1EB
:105A40004018029003BDC046D90000000029F0D0E4
:105A500003B5FFF7B9FF0EBC4243891A1847C04689
:105A6000002941D010B4041C4C40A446012300225C
:105A7000002900D54942002800D5404288422CD355
:105A800001242407A14204D2814202D209011B0150
:105A9000F8E7E400A14204D2814202D249005B004F
:105AA000F8E7884201D3401A1A434C08A04202D3B7
:105AB000001B5C0822438C08A04202D3001B9C08F8
:105AC0002243CC08A04202D3001BDC08224300285A
:105AD00003D01B0901D00909E3E7101C6446002C20
