:10000000ffcdccc0cbc0cac0c9c0c8c0c7c0c6c065
:10001000c5c064c2c3c0c2c0c1c0c0c0bfc022c3cb
:10002000bdc0bcc0bbc069c23cc154c155c182c1c6
:1000300081c180c156c17ec156c15bc15ec16ec166
:1000400065c154c177c165c1e2c1a2c1b8c1c7c110
:1000500040c23fc23ec2dfc1e0c1e1c1d6c1d9c189
:10006000a2c1dfc1cec1ffff000306090c0f1215ac
:10007000181b1e212427ffff0205080b0e11141761
:100080001a1d20232629ffff0104070a0d1013164d
:10009000191c1f2225282a2d30ffff3336393c3ffb
:1000a0004245484b4e512c2f32ffff35383b3e41e5
:1000b00044474a4d50532b2e31ffff34373a3d40d1
:1000c0004346494c4f5254575a5d6063ffff66697f
:1000d0006c6f7275787b56595c5f6265ffff686b69
:1000e0006e7174777a7d55585b5e6164ffff676a55
:1000f0006d707376797c7e8184878a8d909396ff6c
:10010000ff999c9fa2a5808386898c8f929598ffea
:10011000ff9b9ea1a4a77f8285888b8e919497ffd9
:10012000ff9a9da0a3a6a8abaeb1b4b7babdc0c399
:10013000c6c9ffffcccfaaadb0b3b6b9bcbfc2c56c
:10014000c8cbffffced1a9acafb2b5b8bbbec1c45e
:10015000c7caffffcdd0ffffffffffffffffffff7d
:10016000ffffffffffff11241fbecfefd2e0debf76
:10017000cdbf11e0a0e0b1e0e0e5fae002c00590fb
:100180000d92a035b107d9f722e0a0e5b1e001c09a
:100190001d92a23eb207e1f7d9d258c431cfe09107
:1001a000a102e03470f49091a00221e02e0f209380
:1001b000a102f0e0e90ff11def73ff27e056fd4fbc
:1001c000828308958ebd0db407fefdcf0895cf93b1
:1001d000c82f2a988beaf6df8c2ff4df80e0f2df5d
:1001e0002a9a8eb5cf910895cf93df9300d0cdb7e3
:1001f000deb72a98805e4a836983e4df6981862faf
:10020000e1df4a81842fdedf2a9a0f900f90df9181
:10021000cf910895cf93c82f8cb58f778cbd40e0d8
:100220006ae08be0e1df4c2f4f7340686fe08be0ba
:10023000dbdf8fe0ccdf8f738093770241e06ae0f1
:100240008be0d2df8cb580688cbdcf910895809112
:10025000a102882379f09091a002e92ff0e0e05606
:10026000fd4f228181508093a1029f5f9f739093e5
:10027000a002822f08950f931f93cf93df93dc0189
:10028000eb018881882309f458c0e09179024e2f50
:1002900050e04031510508f04dc0fa01ec5eff4fcf
:1002a00009948091a102811103c01c9281e044c095
:1002b0008b01ed0181e08883cadf8983c8df8a83ef
:1002c000c6df8b83c4df8c83c2df8d8386e0f801b9
:1002d000808333c083e01fc08091880090918900a3
:1002e0001ac084e018c08091780215c0809177020e
:1002f00012c080e2e7e5f2e003c080e2e7e3f2e06b
:1003000001900d928a95e1f780e210c0809136024b
:1003100002c0809135028c9381e008c09091330235
:10032000809134029c9311968c9382e08883109282
:10033000790203c081e08c938883df91cf911f9174
:100340000f9108950f931f93cf93df93ec01e881f2
:100350009e2f907f903889f48e2f8f7090e068e107
:1003600070e063d3dc01a55abe4f98e1fe013196df
:1003700001900d929a95e1f7acc04e2f50e0fa0132
:100380003197ef30f10508f0a4c0ec5dff4f099400
:10039000623039f4898190e09093890080938800dd
:1003a00098c082e02fc09de090937902623009f0fe
:1003b00090c08981df91cf911f910f912bcf643035
:1003c00009f087c0ebe5f1e089819a81ab818193e7
:1003d0009193a19382e0e333f807b1f77ac06530d7
:1003e00009f077c0898190e063e070e01ed3855a00
:1003f0009e4f2a813b814c81fc01208331834283c3
:1004000068c08fe08093790264c08be0fbcf81e00d
:10041000f9cf8ce0f7cf88e0f5cf89e0f3cf8ae021
:10042000f1cf623009f055c0c9818cb58f778cbd92
:1004300040e061e18be0d8de40e84c0f60e18be00a
:10044000d3de81e1c4de803839f08fec97e001978c
:10045000f1f700c00000f5cf2a988ceab3de80e007
:10046000b1de07e512e080e0adde8eb5f8018193e4
:100470008f01f2e007371f07b1f72a9a40e061e1e8
:100480008be0b2de40e44c0f60e18be0adde81e159
:100490009ede803439f08fec97e00197f1f700c0d1
:1004a0000000f5cf2a988cea8dde80e28bdec7e370
:1004b000d2e080e087de8eb5899392e0c735d90718
:1004c000c1f72a9a40e061e18be08ede8cb580684e
:1004d0008cbddf91cf911f910f9108951f920f92c4
:1004e0000fb60f9211248f9381e080930f018f91ab
:1004f0000f900fbe0f901f9018951f920f920fb67e
:100500000f9211242f933f934f935f936f937f9399
:100510008f939f93af93bf93ef93ff938091b90015
:10052000883909f483c0c0f4883709f45cc050f4fa
:10053000883609f458c0803709f455c0803609f070
:1005400079c051c0883809f471c0803909f44ec0af
:10055000803809f06fc04ac0883b91f158f4883a5e
:1005600099f0803b89f0803a09f064c085ed809372
:10057000bc004bc0883c09f457c0883f09f461c0f7
:10058000803c09f057c050c010929f02e0919d023c
:10059000f0919e02309749f080e280939c026ce9d2
:1005a00072e08ce792e0099502c010929c02809163
:1005b0009c02811105c081e080939c0210927c0214
:1005c000e0919f0281e08e0f80939f02f0e0e4585b
:1005d000fd4f80818093bb0090919f0280919c028f
:1005e000981720f521c010929f021ec0e0919f0233
:1005f000e032e0f481e08e0f80939f028091bb0097
:10060000f0e0e458fd4f80830fc08091bc0084fd72
:10061000fccfe0917a02f0917b02309729f0609153
:100620009f028ce792e0099585ec01c085e88093f4
:10063000bc0007c085ed8093bc008091bc0084fda8
:10064000fccfff91ef91bf91af919f918f917f91df
:100650006f915f914f913f912f910f900fbe0f902f
:100660001f9018951f920f920fb60f9211248f931f
:100670009f93ef93ff938091590190915a0181309c
:10068000910599f048f082309105c1f0039709f087
:1006900050c01ebc2a9a4dc02a9800008091580173
:1006a000805e8ebd81e090e004c080e28ebd82e07d
:1006b00090e090935a01809359013fc0e091580116
:1006c00080915701f0e0f695fe2fee27f795e7951c
:1006d000e80ff11dea59ff4fe491e0935601809134
:1006e00056018f3f11f41ebc07c0e0915601f0e0a7
:1006f000e55afe4f80818ebd809157018f5f8093b8
:100700005701809157018038c1f483e090e09093c5
:100710005a018093590110925701809158018f5fbf
:100720008093580180915801823039f41092580119
:1007300004c010925a0110925901ff91ef919f91bc
:100740008f910f900fbe0f901f9018958ce684b973
:100750002e9a2a9a2a9a8fec97e00197f1f700c017
:10076000000083e58cbd9db581e089278dbd40e00b
:100770006ae08be039dd8be12add8093780287e146
:1007800026dd8093350240e060e08be02ddd40e126
:1007900061e08be029dd44ee6de08be025dd41e09a
:1007a0006ee08be021dd47e064e18be01ddd40e49d
:1007b00065e18be019dd2a988de204dd80e002dd41
:1007c000c0e1d1e08991fedc91e0c035d907d1f7d5
:1007d0002a9a8fe31fddc0e240e06c2f80e004dd49
:1007e000cf5fc03ac9f7c0e240e06c2f81e0fcdc8b
:1007f000cf5fc03ac9f7c0e04fef6c2f80e0f4dc68
:10080000cf5fc031c9f7c0e04fef6c2f81e0ecdc67
:10081000cf5fc031c9f741e06ae08be0e5dc8cb521
:1008200080688cbd789487b18f6887b988b18f68ec
:1008300088b91ab89fef9bb9809181008c60809332
:10084000810010928500109284002fe030e03093f8
:1008500089002093880080916f00826080936f00f0
:100860007894219a29982198000083b18695817007
:100870008093360222ea31e030937b0220937a02a1
:100880002be331e030939e0220939d02209828981c
:1008900083b181708865880f8093ba009093bb0004
:1008a0008091b9008e7f8093b9008091b9008d7fcf
:1008b0008093b90085ec8093bc007894cc24c394d9
:1008c000d12c07e416e880910f018823e1f3e2e0e0
:1008d000f1e0a0e0b1e040e050e0e12c30e0343065
:1008e00011f447980bc098b1b601042e01c0660ff1
:1008f0000a94eaf7862f8095892388b9000089b188
:10090000343011f4479a09c098b1b601042e01c0e1
:10091000660f0a94eaf7692b68b9f0808f252c914d
:10092000ef019a91922798239883209528232c935e
:10093000209528239095822f8923f826f082e80eaf
:100940003f5f4f5f5f4f33961396353041f6e110ae
:1009500003c010920f0116c0f89480910201809597
:100960001edc8091050180951adc8091080180953c
:1009700016dc80910b01809512dc80910e01809530
:100980000edc78948091520190915301909355011f
:1009900080935401809150019091510190935301a3
:1009a00080935201809164008e7f80936400009355
:1009b0007c0010937a0080917a00806480937a00a2
:1009c00080917a0086fdfccf20917800809179009b
:1009d00090e0982f8827820f911d9093510180936a
:1009e0005001409154015091550120915201309194
:1009f00053012817390728f04817590710f0c90183
:100a000006c08217930740f04217530728f0481793
:100a1000590730f4ca0104c02817390708f4c9017e
:100a200090933402809333024ecf0024552704c0a4
:100a3000080e591f880f991f009729f07695679522
:100a4000b8f37105b9f7802d952f0895f894ffcf6d
:100a50000000ff0000ff0000ff0000ff0000ff019a
:100a60005055555500000000000000001554555524
:100a70000000000000000000550555550000000072
:100a80000000000055554155000000000000000026
:100a90005555555000000000000000000000000007
:101c000013c022c021c020c01fc01ec01dc01cc0e8
:101c10001bc01ac019c018c017c016c015c0f9c023
:101c200013c012c011c010c011241fbecfefd2e0ec
:101c3000debfcdbf21e0a0e0b1e001c01d92a33422
:101c4000b207e1f7f1d0cec1dbcfe0e0f1e09fefea
:101c500080e48e0f91938e13fdcf0895e3e0f0e0c2
:101c60008491df01a050bf4f8c933197c8f708953e
:101c700040e050e061e0fa01e050ff4f218130e0a8
:101c8000322f22277081272b07b600fcfdcffa01e7
:101c9000e80ff91f090160935700e89511244e5f82
:101ca0005f4f4034510539f707b600fcfdcf25e002
:101cb000fc0120935700e895089584e98093bc00c7
:101cc0000895fc01603811f094e801c094ec909301
:101cd000bc008091bc0087fffccfa8958091b90023
:101ce000861719f0eadf80e008958091bb008083b9
:101cf000683819f484e88093bc0081e00895cf939c
:101d0000df9300d0cdb7deb760e8ce010296d9df11
:101d100060e8ce010196d5df898190e0982f882771
:101d20002a81822b0f900f90df91cf91089580939d
:101d3000bb0084ec8093bc008091bc0087fffccf8b
:101d4000a8958091b900883b09f0b7cf089583b179
:101d500081708065880f8093ba0084e48093bc0012
:101d600008958627682f62956827062e66956695e2
:101d70006025062e669560256770082e892f66956a
:101d800007946795902d862706946795902586275a
:101d90000895cf92df92ef92ff920f931f93cf930c
:101da000df9387b7082f017080ff03c086df00e054
:101db00026c010914001c12fd0e084e0cc0fdd1f80
:101dc0008a95e1f7c050df4f6e0180e1c80ed11c4b
:101dd000ee24ea94fe2c60e8ce0173df882379f0cc
:101de0006991c701bedf7c01cc15dd05a1f787df56
:101df000e816f90621f41f5f1093400101e0802fdf
:101e0000df91cf911f910f91ff90ef90df90cf90d6
:101e100008951f920f920fb60f9211241ebc0f90bf
:101e20000fbe0f901f901895cf93df9300d0cdb7c2
:101e3000deb7209881ed8cbd81e08dbd84b714bee6
:101e4000837009f4c2c083df9be088e10fb6f89489
:101e5000a895809360000fbe9093600084ec982e4c
:101e600098e1b92e29e2822e33e0a32ee12cf12c49
:101e700048e0742ecc24ca94dc2c9092bc00809153
:101e8000bc0087fffccfa8950fb6f894a895b09238
:101e900060000fbe809260008091b900803669f0ca
:101ea000883a09f090c081e042df809141013fdf34
:101eb000809142013cdf4bdfe0cf60e8ce0102962b
:101ec00000df8823d1f28a818330a9f128f48130a0
:101ed00049f0823081f077c08430b1f1863009f466
:101ee00051c071c010924001b0de09df90934201f1
:101ef00080934101c2cf81e491e04bdf811102c0a8
:101f000060e815c080914001843081f40091410166
:101f100010914201007c0115110511f49fde04c0ef
:101f200001158ce1180710f4c801a2de68e8ce01a3
:101f30000196c7dea2cf0fb6f894a895b0926000c4
:101f40000fbe70926000ffcf80de88de07b600fc17
:101f5000fdcff701a0925700e89580e090e088de81
:101f600080e490e085dee0e4f0e007b600fcfdcf21
:101f7000a0925700e895e05cff4fe1158ce1f8076f
:101f8000a1f77bcfbcde8c01bade2c01400e511ec6
:101f90004114e0e25e0608f070cfd0924201c09298
:101fa00041010415150508f068cff801649180918e
:101fb000410190914201d5de90934201809341010d
:101fc0000f5f1f4feecf79de58cf0fb6f894a8956c
:101fd00080916000886180936000109260000fbe65
:081fe000bac0ffcff894ffcf57
:00000001ff
